S01800006275696C642F6D6963617A2F6D61696E2E73726563E5
S11300000C9461010C9450070C945A070C946407E7
S11300100C946E070C9478070C9482070C948B0D47
S11300200C948C070C9480010C9480010C943F1D5B
S11300300C9486110C941A070C9430070C94550BED
S11300400C9409070C94BA130C9453090C94800172
S11300500C94CF090C9480010C9480010C948001C1
S11300600C9425070C94220B0C94010B0C940C0B90
S11300700C94170B0C94350B0C94E40A0C9480012B
S11300800C94F60A0C9480010C9480014D1498147D
S11300909E14EF140A1510154915041627163B165D
S11300A058188B18D8183D142719451458196C1969
S11300B04E1A5F1A611A641A951AB71A00002110B1
S11300C0422063308440A550C660E77008812991BE
S11300D04AA16BB18CC1ADD1CEE1EFF13112100266
S11300E073325222B5529442F772D662399318830E
S11300F07BB35AA3BDD39CC3FFF3DEE36224433432
S113010020040114E664C774A44485546AA54BB55D
S113011028850995EEE5CFF5ACC58DD55336722605
S113012011163006D776F6669556B4465BB77AA7AD
S113013019973887DFF7FEE79DD7BCC7C448E55851
S11301408668A7784008611802282338CCC9EDD9FD
S11301508EE9AFF9488969990AA92BB9F55AD44AA5
S1130160B77A966A711A500A333A122AFDDBDCCB4D
S1130170BFFB9EEB799B588B3BBB1AABA66C877C71
S1130180E44CC55C222C033C600C411CAEED8FFD9D
S1130190ECCDCDDD2AAD0BBD688D499D977EB66E45
S11301A0D55EF44E133E322E511E700E9FFFBEEFED
S11301B0DDDFFCCF1BBF3AAF599F788F8891A981AF
S11301C0CAB1EBA10CD12DC14EF16FE18010A10099
S11301D0C230E3200450254046706760B983989389
S11301E0FBA3DAB33DC31CD37FE35EF3B1029012E9
S11301F0F322D2323542145277625672EAB5CBA555
S1130200A89589856EF54FE52CD50DC5E234C32438
S1130210A01481046674476424540544DBA7FAB728
S11302209987B8975FE77EF71DC73CD7D326F23688
S11302309106B01657667676154634564CD96DC974
S11302400EF92FE9C899E9898AB9ABA944586548D8
S113025006782768C018E1088238A3287DCB5CDBC8
S11302603FEB1EFBF98BD89BBBAB9ABB754A545A28
S1130270376A167AF10AD01AB32A923A2EFD0FED94
S11302806CDD4DCDAABD8BADE89DC98D267C076C78
S1130290645C454CA23C832CE01CC10C1FEF3EFF68
S11302A05DCF7CDF9BAFBABFD98FF89F176E367EC8
S11302B0554E745E932EB23ED10EF01E00081C18EB
S11302C0141011241FBECFEFD0E1DEBFCDBF12E06A
S11302D0A0E0B1E0ECE8F7E400E00BBF02C0079057
S11302E00D92AE36B107D9F715E0AEE6B2E001C023
S11302F01D92A838B107E1F70E94F21A0C94C523A5
S11303000C9400008FB7F894992708958FBF08952F
S1130310282F9FB7F894E82FFF27E155FD4F8081E0
S11303208F3F81F4E0917C05E21771F40BC02093B8
S1130330360504C0FF27E155FD4F208320937C053B
S113034020E007C025E005C0809136058F3F91F776
S1130350EECF892F99278FBF822F992708951F9356
S11303601FB7F89480917805882341F481E10E94B5
S11303708801882319F481E080937805812F9927D7
S11303808FBF1F910895382FFA01422F2D3118F095
S113039082E090E008956683872F992785833387C9
S11303A021878091800290918102892B19F085E048
S11303B090E008952FB7F894332785E08093830263
S11303C010928402F0937F02E0937E0282E090E038
S11303D0909381028093800210928602109285028B
S11303E0445F409382022FBF8FB7F894282F33279E
S11303F08091BE038A3011F42FBF19C02FBF9FB75D
S1130400F89480913003882311F020E006C081E045
S1130410809330031092310321E0892F99278FBFF5
S1130420222329F00E94AF0180E090E00895109209
S113043081021092800281E090E00895CF93DF93CF
S1130440DB01FB0135968183892F9927EB018D838D
S113045084E686838091FF0490910005892B19F02E
S113046085E090E029C0709300056093FF04448305
S113047080915702882319F480E090E01DC08681A2
S1130480EB016D817727762F662721813327622B35
S1130490732B10925702242FAD010E94C301992798
S11304A0282F882339F081E08093570210920005A9
S11304B01092FF04822F9927DF91CF910895CF9353
S11304C0DF9310925702A091FF04B091000510979A
S11304D021F08091180380FF08C081E080935702C7
S11304E017C080E10E94880113C0FD013596248164
S11304F03327ED016D817727762F66278181992730
S1130500682B792BAD0186810E94C301882349F7AA
S1130510DF91CF9108958091BE038A3021F48091B8
S1130520D302843021F081E080937B02089583E13B
S11305300E94880110927B0208952FB7F894332704
S11305408CB95E9A2FBF0895FC016115710519F4E9
S113055081E090E008958091280390912903892BEC
S113056019F085E090E008957093D9046093D8045D
S1130570F0932903E09328031092D5021092D40239
S113058081E08093D6025E9A569A808121E030E021
S11305903093D5022093D4020E949D0280E090E023
S11305A008958FB7F894992720918C022E7F209379
S11305B08C022EE72093CA028FBF61E070E08AECC0
S11305C092E00E94A40299270895FC018281992750
S11305D0582F442781819927482B592BCA01892FE9
S11305E0992786958695837090708230910559F08D
S11305F08330910559F0892B19F420E030E008C0CC
S11306002CE93FEF05C022E030E002C028E030E0F2
S1130610CA0184E0989F812D992711248230910585
S113062059F08330910559F0892B19F480E090E05A
S113063008C08CE99FEF05C082E090E002C088E02A
S113064090E0280F391F2A5F3F4FCF01820F931F7D
S11306500895282F9FB7F894662349F0E82FFF27C1
S1130660EA53FC4F8081882311F021E006C0E22F79
S1130670FF27EA53FC4F608320E0892F99278FBF1F
S1130680822F99270895E82F8FB7F894282F3327BE
S113069090E0FF27EA53FC4F8081861709F491E02C
S11306A02FBF892F99270895882311F06E9A0895F2
S11306B06E980895882311F06F9A08956F9808959D
S11306C080E00E945403BA9ABB98B99AB89A6C9A7B
S11306D080E00E945A036B986A9881E00E94540358
S11306E0709A8DB18C7F8DB908950F931F93CF931A
S11306F0DF93182F8FB7F894C82FDD270C2F61E0F4
S113070080E00E942903882321F0CFBF85E090E098
S113071024C080914F028823A1F480917402823016
S113072081F409C082E08093740210924F020E9407
S11307306003B89AC09810934C0280E00FBF9927C9
S11307400CC080917402882369F38FB7F8949927B9
S11307501092C6038FBF81E0F1CFDF91CF911F913B
S11307600F9108951F93182F81E00E9454031FB91D
S1130770779BFECF8FB199271F9108958F929F92F7
S1130780AF92BF92CF92DF92EF92FF920F931F939B
S1130790CF93DF938FB7F8949927C0904005D090FA
S11307A041058090BB039090BC03C0913F03D0915E
S11307B040032091930230919402EAE0AE2EB12CD2
S11307C0AC0EBD1E2A153B0508F459018FBF7401F8
S11307D0EC0EFD1E86010C0F1D1F14C0C114D104A4
S11307E019F0F801808101C080E00E94B2038114F5
S11307F0910411F0F701808321960894E11CF11C07
S11308000F5F1F4FC5010197C817D90738F381E05F
S11308100E945A039FB7F894C114D10431F0CC0E4E
S1130820DD1EF60180818FB901C01FB8D09340034B
S1130830C0933F03892F99278FBF80E090E0DF9119
S1130840CF911F910F91FF90EF90DF90CF90BF90C9
S1130850AF909F908F9008952FB7F89433275093BB
S113086094024093930290934105809340057093C2
S1130870BC036093BB031092400310923F032FBF4D
S1130880452B29F08FB10E94BE039927089587E074
S11308900E94880180E090E008958FB7F89499272A
S11308A01092C8038FBF08957FB7F89462B7209160
S11308B0960230919702409198025091990206B69F
S11308C001FE0FC081B792B7280F311D411D511D84
S11308D02F5F3F4F4F4F5F4F290F311D411D511D5A
S11308E004C0260F311D411D511D872F99278FBF2D
S11308F0CA01B9010895EF92FF920F931F93E091FB
S11309005203E1FF2BC020914A0330914B034091E5
S11309104C0350914D03E0904E03F0904F0300912F
S1130920500310915103621B730B840B950B6E15CE
S11309307F058007910790F0E0FF04C0ED7FE0930E
S113094052030CC02E0D3F1D401F511F20934A031C
S113095030934B0340934C0350934D038BE00E9420
S113096088011F910F91FF90EF900895DF92EF920D
S1130970FF920F931F938FB7F894282F3327D22E0B
S113098091B782B746B7981711F041FF02C02FBF45
S11309906AC0809136038823E1F10E945404E090F8
S11309A0C203F090C3030091C4031091C5032091C6
S11309B0A8023091A9024091AA025091AB026E198B
S11309C07F09800B910B621773078407950720F04A
S11309D01092360371E01EC02E0D3F1D401F511FA3
S11309E08091960290919702A0919802B0919902F9
S11309F0281B390B4A0B5B0B273E3105410551057A
S1130A0040F4822F223010F070E005C070E082E0E4
S1130A1002C070E086EE682F615000B601FCFDCF85
S1130A2082B7681709F46F5F20919602309197029C
S1130A304091980250919902DA01C9010196A11DD1
S1130A40B11D860F911DA11DB11D82179307A40727
S1130A50B50710F4622F609561BFDFBE772319F0EC
S1130A608AE00E9488011F910F91FF90EF90DF9020
S1130A700895AFB7F894BB27E1E0E09336036093A1
S1130A80C2037093C3038093C4039093C50320935C
S1130A90A8023093A9024093AA025093AB02AFBFBD
S1130AA00E94B604089580E88093AC021092D202AA
S1130AB010923A05109235051092CE020895CF9304
S1130AC0DF93FC0115A6DC019E96ED011B821A82C0
S1130AD0198280E886A7DF91CF9108952F923F92E3
S1130AE04F925F926F927F928F929F92AF92BF923A
S1130AF0CF92DF92EF92FF920F931F93CF93DF93E6
S1130B00CDB7DEB728970FB6F894DEBF0FBECDBFC2
S1130B10209011033090120340901303509014035B
S1130B20662477248824BEE4AB2EA3E8BA2ECC2412
S1130B30DD24EE24FF2400E010E0222D332D442D8B
S1130B40552D662D772D882D90E00E94DD1E29837A
S1130B503A834B835C836D837E838F839887822E55
S1130B60932EA42EB52E2401350100E20E94DB1F32
S1130B70A22EB32EC42ED52EC301B201969587950D
S1130B80779567956A0D7B1D8C1D9D1D97FF05C08C
S1130B909F776F5F7F4F8F4F9F4F609311037093C9
S1130BA01203809313039093140328960FB6F894BA
S1130BB0DEBF0FBECDBFDF91CF911F910F91FF908C
S1130BC0EF90DF90CF90BF90AF909F908F907F90E9
S1130BD06F905F904F903F902F9008958FB7F89447
S1130BE060914303709144032CB53DB506B602FEF3
S1130BF004C06F5F7F4F2CB53DB599278FBF882701
S1130C009927CB017727662744275527622B732B17
S1130C10842B952B0895EF92FF920F931F930E94BC
S1130C20EE057B018C01209120033091210340913A
S1130C3022035091230380911A0390911B03A091E6
S1130C401C03B0911D03820F931FA41FB51FE2164E
S1130C50F3060407150730F082179307A407B507B6
S1130C6058F005C082179307A407B507E0F5E81606
S1130C70F9060A071B07B8F59C01AD012E193F09B7
S1130C80400B510B213060E8360760E0460760E016
S1130C90560768F180E090E8A0E0B0E0E80EF91EA5
S1130CA00A1F1B1FE0922003F092210300932203EA
S1130CB01093230380E090E8AFEFBFEFE80EF91E36
S1130CC00A1F1B1F205030484040504020931A03F5
S1130CD030931B0340931C0350931D0320E030E822
S1130CE040E050E014C020E030E040E050E0809369
S1130CF0200390932103A0932203B0932303109223
S1130D001A0310921B0310921C0310921D03A901D5
S1130D10B7012CB53DB5C9018E199F0903968417F7
S1130D20950720F0B9016D5F7F4F02C0640F751FF6
S1130D306115710511F461E070E0615070407BBD94
S1130D406ABD80E186BF87B7806187BF1F910F911D
S1130D50FF90EF9008950F931F930FB7F894112706
S1130D6060932003709321038093220390932303C1
S1130D7020931A0330931B0340931C0350931D03C9
S1130D800E940B060FBF1F910F91089597B79F7D87
S1130D9097BF90E296BF882319F08EB5806402C095
S1130DA08EB58F7B8EBD87B7806287BF80E090E071
S1130DB00895AF92BF92CF92DF92EF92FF920F937A
S1130DC01F93CF93DF93CDB7DEB728970FB6F89470
S1130DD0DEBF0FBECDBF20E070E0E0914A02F0918B
S1130DE04B0232E14DE65CE46FE480914B029E2FAE
S1130DF028960FB6F894DEBF0FBECDBFDF91CF911A
S1130E001F910F91FF90EF90DF90CF90BF90AF9024
S1130E1008951F920F920FB60F9211248F9383B7E8
S1130E2083BF00B600FCFDCF8F910F900FBE0F90D3
S1130E301F90189578941F920F920FB60F92112459
S1130E400F900FBE0F901F90189578941F920F92D9
S1130E500FB60F9211240F900FBE0F901F9018958C
S1130E6078941F920F920FB60F9211242F933F93F1
S1130E708F939F932FB7F8943327809143039091D6
S1130E804403019690934403809343032FBF9F919F
S1130E908F913F912F910F900FBE0F901F90189537
S1130EA01F920F920FB60F9211240F900FBE0F9046
S1130EB01F9018951F920F920FB60F9211240F9046
S1130EC00FBE0F901F9018951F920F920FB60F929E
S1130ED011240F900FBE0F901F9018951F920F9220
S1130EE00FB60F9211240F900FBE0F901F901895FC
S1130EF01F920F920FB60F9211240F900FBE0F90F6
S1130F001F9018951F920F920FB60F9211240F90F5
S1130F100FBE0F901F9018951F920F920FB60F924D
S1130F2011240F900FBE0F901F901895ECEBF0E07A
S1130F306927660FF11DE60FF11DC895982F802DC6
S1130F403196C89590250895982F8091870288231B
S1130F5089F5992379F531E030938702809158021D
S1130F608093880220917C02822F81708093AD024D
S1130F7080915D0290915E0290938A02809389022F
S1130F8080917D0280938B0232273170267EE32F7D
S1130F90FF27EE0FFF1FE75AFD4F80819181909349
S1130FA05E0280935D02232B20937C0286E10E94E3
S1130FB08801089580917C0280FF02C08B7F01C06C
S1130FC08D7F80937C0208950F931F93082F162F13
S1130FD08091D3028130D9F0813038F0823009F425
S1130FE04AC0833009F028C159C0002309F458C10C
S1130FF01092D2041092D1041092C0031092DA0419
S113100010920B03109246031092450339C100233A
S113101009F046C180914503909146030E949607CA
S1131020909346038093450382E08093D302109308
S1131030DA04143409F000C125C18695869503C0ED
S113104080917C028695817009F0F6C080917C02C3
S1131050992311F0846001C0826080937C028091A6
S11310607C02877E886080937C0210927D028FEFE1
S11310708093580215C1002309F0DEC060930B036E
S113108080914503909146030E94960790934603EE
S11310908093450383E08093D30202C18091C0030F
S11310A08F3F09F4C9C0002309F461C0823008F4F9
S11310B0C3C0E091D104EE2309F4EBC04E2F41509C
S11310C0E42FFF27EF52FB4F82819927382F2227E5
S11310D0442311F4E2E002C0E42FE150FF27EF5271
S11310E0FB4F82819927282B392B809145039091BE
S11310F046032817390709F09FC080E00E94A4071F
S113110030910B038091370320913803982F9F5F10
S1131110963008F090E0921771F0E82FFF27E95C11
S1131120FC4F32838F5F80933703863010F0109228
S113113037030E94AF011092D2041092D10494E0BC
S11311409093D3021092C0031092DA0410920B030E
S1131150109246031092450380918C028D7F8093F8
S11311608C0280917B02882309F49AC084C0823067
S113117008F44EC0E091D204FF27EF52FB4F828166
S1131180482F5527342F20917C02822F86958695EF
S11311908695837099278130910519F00297F9F4A7
S11311A00EC0277E206120937C02442311F485E045
S11311B001C080E080937D023093580210C080917A
S11311C07D02843360F4E0915D02F0915E02E80FE9
S11311D0F11D408380917D028F5F80937D02809119
S11311E0D204E82FFF27EF52FB4F62818F5F809379
S11311F0D204833010F01092D204772780914503F3
S1131200909146030E94960790934603809345036A
S11312108091D104E82FFF27EF52FB4F12838F5F99
S11312208093D104833010F01092D1048091C003D4
S11312308F5F8093C00334C01092D2041092D10403
S113124014E01093D3021092C0031092DA041092A7
S11312500B03109246031092450380918C028D7FFC
S113126080938C0281E00E94A40780917B028823F2
S113127029F01093D3020E948B0212C0002381F044
S113128081E009CF80917C02982F917080FDD5CEAA
S1131290D7CE8091D5049927382F222742E01CCF3E
S11312A01F910F9108951F920F920FB60F92112460
S11312B02F933F934F935F936F937F938F939F935A
S11312C0AF93BF93EF93FF935F9B3DC06CB1E091ED
S11312D04703F09148033097F9F080917605909197
S11312E07705E80FF91F6083019690937705809343
S11312F0760520918005309181058217930718F1B6
S113130010924803109247038091BD038330D9F0B3
S113131057981092BD0317C06E3719F460E081E04E
S113132010C080918C026D3721F4826080938C020E
S11313300AC081FF05C08D7F80938C0280E26827FC
S113134080E00E94E407FF91EF91BF91AF919F91DC
S11313508F917F916F915F914F913F912F910F905A
S11313600FBE0F901F901895982F8D57823068F4F8
S113137080918C02816080938C0280E28927809323
S1131380BF038DE78093CA0202C09093CA0261E052
S113139070E08AEC92E00E94A40299270895789460
S11313A01F920F920FB60F921124FF920F931F9367
S11313B02F933F934F935F936F937F938F939F9359
S11313C0AF93BF93CF93DF93EF93FF932091D40216
S11313D03091D5028091D8049091D9042817390707
S11313E080F4E0912803F0912903E20FF31F808138
S11313F02F5F3F4F3093D5022093D4020E949D0269
S1131400CDC010922903109228031092D602569848
S1131410FFB6F89480918C0280FF0EC08E7F80937B
S11314208C028091BF038093CA0261E070E08AEC71
S113143092E00E94A402AFC08091BE03843009F4FC
S11314408CC0853040F4823021F18330B8F581308E
S113145009F09CC00DC0863009F48DC0863008F4B4
S113146083C0873009F48EC0883009F08FC091C0E2
S113147080911F030E94B409082F83E08093BE0368
S113148060911F0380917E0590917F050E949607CD
S113149010C0809139050E94B409082F83E080931D
S11314A0BE036091390580917E0590917F050E946D
S11314B0960790937F0580937E0566C0E09149036B
S11314C0FF27EE0FFF1FE15DFC4F80810E94B409EE
S11314D0082F10914903C12FDD27FE01EE0FFF1FD6
S11314E0E15DFC4F608180917E0590917F050E94B3
S11314F0960790937F0580937E05209119032F5FB3
S113150020931903113039F580918302E0917E0212
S1131510F0917F02E80FF11DE0818F5F80938302D9
S113152090918202981730F482E08093300340E077
S113153050E002C04E2F5527DE01AA0FBB1FFD014C
S1131540E25DFC4F8081823031F02F3F21F0A15DBC
S1131550BC4F4C9319C084E012C080917E050E9458
S1131560B409082F85E00BC080917F050E94B4095F
S1131570082F86E004C00E94D102082F87E08093E0
S1131580BE0302C088E003C0002329F089E08093F1
S1131590BE030E94AF018F2D99278FBFFF91EF915A
S11315A0DF91CF91BF91AF919F918F917F916F9177
S11315B05F914F913F912F911F910F91FF900F9049
S11315C00FBE0F901F9018951F920F920FB60F9297
S11315D011248F9380919B0087FF02C080919C000F
S11315E08F910F900FBE0F901F90189578941F92B3
S11315F00F920FB60F9211240F900FBE0F901F90F1
S1131600189578941F920F920FB60F9211240F9091
S11316100FBE0F901F90189578941F920F920FB6DB
S11316200F9211240F900FBE0F901F90189578946D
S11316301F920F920FB60F9211240F900FBE0F90AE
S11316401F90189578941F920F920FB60F92112441
S11316508F939F9380918000909181009F918F91AF
S11316600F900FBE0F901F90189578941F920F92B1
S11316700FB60F9211242F933F938F939F932FB7FD
S1131680F894332780911603909117030196909351
S11316901703809316032FBF9F918F913F912F9132
S11316A00F900FBE0F901F9018951F920F920FB6B8
S11316B00F9211242F933F934F935F936F937F93D4
S11316C08F939F93AF93BF93EF93FF9383B783BF9E
S11316D000B600FCFDCF81B799270196AA27BB2746
S11316E0209196023091970240919802509199026C
S11316F0280F391F4A1F5B1F2093960230939702CD
S1131700409398025093990278940E94B604FF91F2
S1131710EF91BF91AF919F918F917F916F915F9165
S11317204F913F912F910F900FBE0F901F901895DE
S113173080918F028C3118F04CE150E002C0482FA8
S113174055278CE1EEE4F5E011928A95E9F7909142
S11317508F0280918D0220E030E0AEE4B5E00FC04E
S1131760E82FFF27E952FC4FE081992329F08F5F8E
S11317708A3F09F480E09150ED932F5F3F4F241787
S1131780350771F790938F0280938D024CE162E4E8
S113179075E08FEF9FEF0E941E02882319F087E106
S11317A00E94880108958FB7F894282F33278091D9
S11317B09002813021F42FBF80E090E0089590E002
S11317C080918F02882309F491E0992321F02FBF9F
S11317D081E090E0089581E0809390022FBF0E9401
S11317E0980B80E090E00895662351F480918F0275
S11317F0882319F00E94980B08951092900208957E
S113180087E10E94880108951F93182F8091900208
S1131810882349F480918F028D3728F081E08093EA
S113182090020E94980B8FB7F894282F3327909139
S11318308F029A3FA8F480918E02E82FFF27E95285
S1131840FC4F10838F5F80938E028A3F11F41092B5
S11318508E029F5F90938F022FBF80E090E003C0C1
S11318602FBF8FEF9FEF1F9108950F931F93182F92
S11318700FB7F89461E080E00E942903882371F592
S113188010934C0280914F028823A9F58091740231
S1131890823089F586E00CC00E9460038091740256
S11318A0882349F481E0809374021092CF0288E087
S11318B00E9488012AC080911E038F3F31F5E09178
S11318C04E02EE2311F11CC010924D0204C0FF27FA
S11318D0E25EFC4F108210924E0217C081E090E04D
S11318E002C0880F991F1A95E2F720917302282BE2
S11318F0209373020AC0809174028823E1F6CCCF4E
S113190080914D028F3F19F7DFCF802F99278FBF2A
S113191080E090E01F910F9108951F9383E00E944F
S113192075039927182F882319F083E00E94350C3A
S1131930812F99271F910895CF92DF92EF92FF9202
S11319400F931F93CF93DF938C01F62E6A01E22E3F
S11319508FB7F894C82FDD2760E080E00E9443032E
S1131960882321F0CFBF80E090E01EC0CFBF0F0DD1
S1131970111D802F80680E94B203F82E16950795DA
S1131980802F807C0E94B2030E2D0AC0EE2DFF270B
S1131990E01BF109EC0DFD1D80810E94B203015092
S11319A00023A1F78F2D9927DF91CF911F910F91DC
S11319B0FF90EF90DF90CF900895CF93DF93CDB752
S11319C0DEB72C970FB6F894DEBF0FBECDBF8FB72E
S11319D0F894282FAE014F5F5F4FDA01ECECF3E08F
S11319E088E001900D928150E1F780910C03909171
S11319F00D038987892F99278A87809124039091E1
S1131A0025038B87892F99278C872FBF2CE060E0D3
S1131A1080E691E00E949C0C2C960FB6F894DEBFF1
S1131A200FBECDBFDF91CF9108951F93CF93DF9366
S1131A30182F8FB7F894C82FDD2760E080E00E944C
S1131A404303882321F0CFBF80E090E005C0CFBFDF
S1131A50812F0E94B2039927DF91CF911F9108959E
S1131A60EF92FF920F931F93CF93DF93182F7B0175
S1131A70042F8FB7F894C82FDD2760E080E00E9420
S1131A804303882321F0CFBF80E090E014C0CFBF90
S1131A901064812F992790932B0380932A030E942B
S1131AA0B203182F402F5527B70180E090E00E9421
S1131AB02C04812F9927DF91CF911F910F91FF90D3
S1131AC0EF900895C098609191027091920241E064
S1131AD08FE30E94300D089582E090E09093C80255
S1131AE08093C70281E08093D20220E030E08091AD
S1131AF04C02843011F421E030E0232B29F484E0FB
S1131B000E947503882319F40E94620D089584E0ED
S1131B100E94350C08951F920F920FB60F92112454
S1131B202F933F934F935F936F937F938F939F93E1
S1131B30AF93BF93EF93FF938091C7029091C80234
S1131B40019749F482E090E09093C8028093C70221
S1131B500E946C0D05C08091CE028F5F8093CE02EF
S1131B60FF91EF91BF91AF919F918F917F916F9171
S1131B705F914F913F912F910F900FBE0F901F9047
S1131B8018951F9380917302882309F04BC010911C
S1131B904C021F3F09F046C060E00E9443038823C3
S1131BA009F440C081E08093D5038091AE0288237C
S1131BB0E1F11092D50385E090E045C0923069F5DB
S1131BC0C09A80914D0220E030E08F3F11F421E073
S1131BD030E0232BE9F410934F028F3F19F42FEFD9
S1131BE030E00DC0282F3327F901E25EFC4F8081DD
S1131BF080934D028F3F11F410934E021083209373
S1131C00CF0281E08093740288E00E94880105C0BD
S1131C1010934F021092740211C0809174028823B1
S1131C2069F00FC081E090E00EC080914F02909166
S1131C307402882319F2923021F0EFCF80E00E94E1
S1131C40540380E090E01F9108951F93CF93DF9396
S1131C509FB7F894C92FDD271C2F90914C02981739
S1131C6021F0CFBF81E090E03AC08FEF80934C0227
S1131C70309173023323F1F48FB7F89499271092BB
S1131C80C6038FBF0E94C10DCFBF11C020934C0269
S1131C9081E090E002C0880F991F4A95E2F7809591
S1131CA038233093730286E00E9488011FBF80E0CE
S1131CB090E015C080E065E0E32FFF270E945E20DE
S1131CC0292F492F5527CF01042E02C095958795BA
S1131CD00A94E2F780FDDACF822F8F5FEFCFDF9196
S1131CE0CF911F9108951F93CF93DF938FB7F894EB
S1131CF0C82FDD271C2F8091C7029091C802892B21
S1131D0029F484E00E94250ECFBF1EC01092D20297
S1131D108091CE02882311F0B79904C00E9908C0AF
S1131D20882319F081508093CE020E946C0D0BC061
S1131D3081E090E09093C8028093C7021092CE0293
S1131D4084E00E94250E1FBFDF91CF911F9108955B
S1131D500E945305C09AC09888E00E94150D88E03F
S1131D600E94150DC09A84E00E94250E0E94730EF5
S1131D700895FF920F931F93CF93DF93F82E8B0157
S1131D808FB7F894C82FDD2760E080E00E944303FA
S1131D90882321F0CFBF80E090E00CC0CFBF8F2D0F
S1131DA00E94B203812F99270E94B203802F0E94C0
S1131DB0B2039927DF91CF911F910F91FF9008955E
S1131DC01F931FB7F8948091CD02882319F460E023
S1131DD070E009C060E080913F05882309F461E068
S1131DE081E06827772780910E03882319F480E027
S1131DF090E00AC090E08091CB03882309F491E03D
S1131E0081E09827892F9927762F6627770F770FF8
S1131E10770FE4E0880F991FEA95E1F7826E9262EA
S1131E20682B792B81E10E94B90E812F99278FBFEE
S1131E301F9108958FB7F89499276091D4038FBFA9
S1131E4085E0689FB0011124625D7E4F706488E173
S1131E500E94B90E0895EF92FF921F93CF93DF93E0
S1131E60E0900F03F0901003F70182A59927182F33
S1131E70882309F41FE1C0988091CC02811749F0AE
S1131E80612F77276F717070606E706885E10E94B2
S1131E90B90E1093CC02F70110818FB7F894C82FB4
S1131EA0DD2760E080E00E944303882311F0CFBF68
S1131EB012C0CFBF8EE390E090932B0380932A034C
S1131EC08EE30E94B2031150412F552760E070E069
S1131ED0C7010E942C04DF91CF911F91FF90EF90D6
S1131EE008950F931F93CF93DF93EC010FB7F894EA
S1131EF011270E94E502FC018FE380830FBF10923B
S1131F003D0510923C0561E082E00E94290388238C
S1131F1019F085E090E072C08091D6038F5F8093C2
S1131F20D60381508B838FB7F894082F112762E072
S1131F3081E00E944303882329F40FBF0E944D04CB
S1131F4081E05BC08FB7F894992724E02093C703FE
S1131F508FBFD0933503C09334030FBFFE01319676
S1131F60818129819927982F88273327822B932BC6
S1131F7080729C7C8983892F992781832981982F5A
S1131F80882733272164822B932B8983892F9927D0
S1131F9081831CA618A619A619AA18AA1FA680E848
S1131FA08EA761E06093CA034091340350913503D6
S1131FB08FB7F894282F3327809175029091760279
S1131FC08830910511F0019711F02FBF15C082E000
S1131FD090E0909376028093750260937D05509310
S1131FE0100340930F03109295022FBF0E948D0C93
S1131FF0882311F40E942B0F80E09927DF91CF9161
S11320001F910F910895EF92FF921F93CF93DF9347
S1132010182F7B01E82FFF27EE0FFF1FEF5BFC4F0C
S11320201182108210925602A0914103B091420392
S1132030109721F080913B0580FF76C081E080936A
S1132040560268C09927982F88273327822B932B11
S1132050ED014B878E83892F99278F832FB7F894AF
S1132060332780910C0390910D032FBFFD018483CE
S1132070892F992785832FB7F894332780915002AD
S1132080909151022FBF8887892F9927898731968C
S1132090818129819927982F8827332720643868DC
S11320A0822B932B8983892F99278183635F6C9378
S11320B06D5080915302882351F010925302CD0148
S11320C00E94710F9927282F8823A9F417C0862FFF
S11320D099279093330380933203B0937A02A093A9
S11320E079028CE00E94880180915302882349F48C
S11320F089E090E00AC08FEF80935302822F9927E2
S113210004C01092150380E090E0892B19F08EE052
S11321100E948801112389F4E7EDEE16E2E0FE0641
S113212061F410926E0209C0ED014B858F812E81FE
S11321306C916D506D3158F785CFDF91CF911F9120
S1132140FF90EF9008959B0180915602882349F4F3
S113215060914103709142036217730711F40E9466
S1132160031008951F93182F81E090E09093760256
S1132170809375021092AE020E94C10D8FB7F8943D
S1132180992710936F028FBF82E00E9488011F91EC
S1132190089561E081E00E9429038823E9F48FB760
S11321A0F894282F33278091700290917102892B23
S11321B011F02FBF20C081E090E0909371028093D2
S11321C070022FBFDD9A0E94EE0524E130E040E06A
S11321D050E00E94AB060FC062E081E00E9443031E
S11321E0882319F089E090E0089561E081E00E947D
S11321F04303882319F080E090E0089585E090E09F
S11322000895CF92DF92EF92FF920F931F93CFB670
S1132210F894DD240E946E05DC01CB0166E470E0D5
S11322200E946A20BBE0EB2EF12CE80EF91EF0921E
S11322307A05E09279050E94EE0500271127A8018E
S113224097010E94AB06CFBE1F910F91FF90EF90B4
S1132250DF90CF9008951F93CF93DF938FB7F894B7
S1132260C82FDD271C2F8091750290917602089764
S1132270C9F489E00E94150D83E00E94250EC09ADE
S113228081E090E090937602809375028FB7F89482
S1132290992723E020936F028FBF82E00E94880178
S11322A0CFBF30C0C09880917D05882311F085E0B0
S11322B001C084E00E94150D83FD09C080E00E94E6
S11322C0150D83FF04C085E090E020E003C083E0A7
S11322D090E021E09093760280937502C09A1FBF2C
S11322E0222341F01092950283E00E94250E0E9461
S11322F0011108C00E94EE0520E431E040E050E006
S11323000E94AB06DF91CF911F91089578941F929C
S11323100F920FB60F9211241F932F933F934F9355
S11323205F936F937F938F939F93AF93BF93EF9339
S1132330FF9387B78F7E87BF78941FB7F8948091F7
S11323401A0390911B03A0911C03B0911D030097E5
S1132350A105B10509F051C08091750290917602F2
S11323608530910561F18630910530F48330910513
S113237049F0049781F51AC087309105F1F0089768
S113238051F514C0869B0FC084E090E090937602D0
S1132390809375020E94EE0527E030E040E050E0B3
S11323A00E94AB0618C00E94011115C00E948D0C3A
S11323B0882389F40E942B110EC080E00AC089E0B2
S11323C00E94150D81E00E94C60683E00E94250E3E
S11323D087E00E94B210809170029091710201977F
S11323E071F482E090E09093710280937002DE9821
S11323F0DE9A80E00E94350C02C00E940B06812FF9
S113240099278FBFFF91EF91BF91AF919F918F91CA
S11324107F916F915F914F913F912F911F910F90F9
S11324200FBE0F901F901895EF92FF920F931F937A
S1132430CF93DF938B0180912A0390912B0386FF26
S113244040C18F7B8F3309F08EC1C0919102D0912E
S1132450920258815093C9028091C7029091C80298
S11324608530910509F443C08630910509F48AC08A
S1132470029709F01FC185E090E09093C802809311
S1132480C7024091AC02852F99270196242F332748
S1132490281739074CF1B79906C00E9904C0451B9B
S11324A041504093AC024091C9024A32E8F44423BB
S11324B0A1F0BE016F5F7F4F483018F047E050E055
S11324C007C086E090E09093C8028093C702552726
S11324D080E090E00E942C0446C11092D202C09A7F
S11324E084E00E94250EE3C00E94A80E3CC186E051
S11324F090E09093C8028093C70280910E038823D2
S113250009F439C08091CB038823A9F5898185FF1B
S113251032C08F814E812FB7F89433276091240302
S1132520709125032FBF9927982F88275527842B2F
S1132530952B8617970759F08F812E819927982F0D
S113254088273327822B932B8F5F9F4FA1F4898198
S11325508770813081F4C09AC0988AE00E94150D7A
S1132560C09AC0984091C90247502896BE018FE393
S11325700E94300DF8C04091C90247505527289653
S1132580BE01A6CFC09A8091CE02882339F484E09C
S11325900E94250E8091CE02882311F0B7990AC0BB
S11325A00E9B08C090913505992321F08091C902B2
S11325B08B3038F480919102909192020E945F05D1
S11325C03DC0913001F5E0913A05FF27EE0FFF1F62
S11325D0EE0FFF1FE152FB4F208131814281538175
S11325E0E0919102F091920221ABBB27A52F942F89
S11325F0832F80ABCA01AA27BB2787A7252F3327A0
S11326004427552726A780913A059927019668E023
S113261070E00E947E2080933A05809135058150B8
S113262080933505882351F0809191029091920214
S11326300E945F0510923A05109235058091C902F7
S1132640FE01E80FF11D808187FF31C0012B79F174
S113265069816770E0919102F0919202623019F5FC
S1132660A0910F03B0911003109709F180917502A6
S1132670909176020797D9F4ED019B818381981795
S1132680B1F487B78F7E87BF908181E08CA7E90F73
S1132690F11D8291319688A780818F7789A780E088
S11326A00E94B21004C0613011F489E02AC00E9473
S11326B0730E59C01092D202C09A84E00E94250E73
S11326C052C08E3309F04FC0C09A80917502909128
S11326D076020897C9F4C09889E00E94150DC09A43
S11326E083E00E94250E81E090E09093760280932F
S11326F075028FB7F894992723E020936F028FBF58
S113270082E00E9488012FC080917D05882349F4CE
S113271084E090E090937602809375020E942B11DE
S113272022C083E00E94250E83E090E0909376021D
S1132730809375020E946E05DC01CB0166E371E0B3
S11327400E946A201BE0E12EF12CE80EF91EF092A3
S1132750A702E092A6020E94EE0500271127A80115
S113276097010E94AB06DF91CF911F910F91FF90CB
S1132770EF9008951F920F920FB60F9211242F938A
S11327803F934F935F936F937F938F939F93AF93F5
S1132790BF93EF93FF932FB1E091BB03F091BC0380
S11327A0309739F080913F0390914003E80FF91F6F
S11327B0208380913F0390914003019690934003BE
S11327C080933F0380E00E945A034091930250910A
S11327D0940280913F03909140038417950718F465
S11327E00E94BE031CC06091BB037091BC03809126
S11327F04005909141051092BC031092BB031092C6
S11328004105109240051092940210929302109286
S1132810400310923F032FB120E00E941412FF9155
S1132820EF91BF91AF919F918F917F916F915F9144
S11328304F913F912F910F900FBE0F901F901895BD
S1132840DF92EF92FF920F931F93CF93DF93CDB755
S1132850DEB7A8970FB6F894DEBF0FBECDBFE82F42
S1132860FF27E831F10508F092C6EA5BFF4FEE0F4F
S1132870FF1F0590F491E02D099480913B05882376
S113288009F485C640E051E0BFC480911803882351
S113289009F47DC690E011E0E8C40FB7F89411275D
S11328A081E00E94C60641E0E42EF12CF09276020B
S11328B0E0927502109277021092AE021092CC024E
S11328C00FBF0FB7F89411270E945305F092C80266
S11328D0E092C7021092D20289B78F7B89BF80E44D
S11328E088BF8AB780628ABF8AB78F7E8ABF89B75A
S11328F0806489BF0FBF8FB7F894082F1127809188
S1132900700290917102049719F483E00E94150DEE
S11329100FBF0FB7F8941127C09A80E00E94250ECC
S11329200FBF8FB7F894992722E02093C7031DC6E1
S11329308FB7F89499271092C703F9CF8FB7F894FB
S11329409927F0906F028FBF63E081E00E944303F8
S1132950882359F10FB7F894112710927602109238
S1132960750287B78F7E87BF87B78F7D87BF83E068
S11329700E94250EC09A0FBF0FB7F894112710922A
S1132980C8021092C7020E945305C09A89B78F7B70
S113299089BF0FBF1092710210927002DE98DD9809
S11329A0DE9A81E00E94880107C08FB7F8949927C6
S11329B022E02093C7038FBF0091340310913503A5
S11329C00E944D0480913C0590913D05892B09F0AE
S11329D0DEC58FEF809353024F2DB80109C48FB722
S11329E0F894282F3327122F80917B05882301F533
S11329F081E080937B05809170029091710204972D
S1132A0021F481E00E94350C03C084E00E94880117
S1132A101FBFBDC58FB7F894992710927B0587CF48
S1132A208FB7F894282F332780917202882311F0EE
S1132A302FBFADC52FBF80B3992736E096958795F4
S1132A403A95E1F7182F117090912603809127038E
S1132A508917D9F01917C9F484E090E090937102B2
S1132A60809370028FB7F894992721E02093720223
S1132A708FBF60E070E08DE10E94B90E0E94DD0C12
S1132A80C09AC09880E00E9488011093270385E0D3
S1132A9078C58FB7F894992710914C028FBF1230E4
S1132AA009F465C0133030F4112359F0113009F0E2
S1132AB06EC548C0133009F474C0143009F067C5FA
S1132AC0A0C0C0988FB7F894082F11278091700286
S1132AD0909171020297A1F583E090E090937102C6
S1132AE08093700268E170E08DE10E94B90E81E08C
S1132AF0809326031092720280B3992726E096955C
S1132B0087952A95E1F7817090708093270385E07B
S1132B100E94880181E00E94150D6FE772E08CE14C
S1132B200E94B90E0E941A0F0E94E00E66E57AE236
S1132B3087E10E94B90E6FEF70E885E10E94B90E3B
S1132B400FBF25C5C09886E00E94150D0E941A0F7C
S1132B500E94E00E0E94DD0CC09AC09883E00E949F
S1132B60150DC09A81E00E94250E84E00AC5C09824
S1132B708FB7F894082F112760E080E00E94430388
S1132B80882311F00FBF0AC00FBF83E50E94B20370
S1132B9080E00E94B20380E00E94B203C09A82E007
S1132BA02DC08FB7F8949927209175028FBF2430D8
S1132BB039F0283041F0223001F50E942B0FE7C490
S1132BC00E942B11E4C4C09889E00E94150DC09A9C
S1132BD083E00E94250E8FB7F894992721E030E016
S1132BE030937602209375028FBF8FB7F89499279C
S1132BF010936F028FBF82E0C4C483E00E94250E4D
S1132C00C6C40E94620DC3C40FB7F8941127409143
S1132C109302509194026091BB037091BC03809124
S1132C204005909141051092BC031092BB03109291
S1132C304105109240051092940210929302109252
S1132C40400310923F0320E00E94141279CF2FB763
S1132C50F89433278091CF0280934F0282E08093CF
S1132C6074022FBF80914F02882309F090C4B89A50
S1132C70C09886E086C4A0919102B0919202DC9043
S1132C809D012D0D311DF9018081881F8827881F22
S1132C90FD0183A7F90180818F77FD0181A7215070
S1132CA03040F9018081FD0180A7A0919102B0918B
S1132CB09202FD0132818FB7F89499272091CD02B9
S1132CC08FBF222309F490C0832F99279695879567
S1132CD096958795837090708230910541F5878130
S1132CE046812FB7F894332760912403709125030C
S1132CF02FBF9927982F88275527842B952B861724
S1132D00970719F481E090E06CC0FD01878126816A
S1132D1040E050E09927982F88273327822B932B64
S1132D208F5F9F4F11F441E050E0CA015AC00397EE
S1132D3009F0B5C19E012F5F3F4F4CEC53E088E092
S1132D40FA010190AF01F90101929F018150C1F78D
S1132D509E012F5D3F4FAE014F5F5F4F88E0FA0148
S1132D600190AF01F90101929F018150C1F79E01C9
S1132D70275F3F4FAE014F5D5F4F88E0FA0101903E
S1132D80AF01F90101929F018150C1F79E012F5EAD
S1132D903F4FAE01475F5F4F88E0FA010190AF01FA
S1132DA0F90101929F018150C1F79E01275E3F4FB7
S1132DB0AE014F5E5F4F88E0FA010190AF01F90167
S1132DC001929F018150C1F748E050E0BE01675E67
S1132DD07F4FCD0106960E940921892B09F05FC11E
S1132DE003C0882309F45BC1FCE0FD1508F057C15A
S1132DF0E0909102F0909202F7012281822F9927AC
S1132E00F6E096958795FA95E1F7039719F468E04B
S1132E1070E002C062E070E0822F99279695879552
S1132E209695879583709070039719F488E090E0E5
S1132E3002C082E090E026E030E0E20EF31E40E0C3
S1132E4050E020E030E0F701E80FF91F8AEF9FEF30
S1132E50E80EF91E05C08191480F511D2F5F3F4FA9
S1132E6026173707C4F3F70163818FEF80933E057C
S1132E708FB7F894782F20E030E0EAE9F2E080811F
S1132E8091818417950731F48281861709F4E3C090
S1132E9020933E052F5F3F4F33962430310579F759
S1132EA07FBF90913E053FB7F8949F3F21F08091FA
S1132EB07802891799F420917802822F9927FC01CE
S1132EC0EE0FFF1FE80FF91FE656FD4F51834083B5
S1132ED062832F5F2370209378020CC0892F992777
S1132EE0FC01EE0FFF1FE80FF91FE656FD4F51835B
S1132EF040836283832F99278FBF0FB7F8941127DC
S1132F00C7010E94E502FC0190810FBFF70183A570
S1132F10882309F4C0C09F3309F0BDC0878146816E
S1132F202FB7F894332760915002709151022FBF4C
S1132F309927982F88275527842B952B8617970731
S1132F4061F0878126819927982F88273327822B40
S1132F50932B8F5F9F4F09F09EC0F70183858630C6
S1132F6009F099C0F3E1DF1609F095C0F7018585F2
S1132F709927813021F0833009F08BC023C0F701F9
S1132F8086859927882369F4848599279F938F934D
S1132F9080914A0290914B029F938F9380E091E03D
S1132FA06BC0813009F075C0F701848599279F9320
S1132FB08F9380914A0290914B029F938F9385E364
S1132FC091E05AC0F70186859927823049F58785B3
S1132FD020899927982F88273327822B932B813098
S1132FE0910569F4848599279F938F9380914A0270
S1132FF090914B029F938F9384E691E03DC0892B7F
S113300009F047C0F701848599279F938F93809196
S11330104A0290914B029F938F9385E991E02CC0D3
S11330208330B9F5F701878520899927982F882758
S11330303327822B932B8130910579F4848599274A
S11330409F938F9380914A0290914B029F938F9309
S113305087EC91E011C07FBF1EC0892BD1F4F7012A
S1133060848599279F938F9380914A0290914B0274
S11330709F938F9387EF91E09F938F930E941D21DD
S11330802DB73EB72A5F3F4F0FB6F8943EBF0FBE31
S11330902DBF0E94D30BF0929202E09291028FB75F
S11330A0F89499271092D2028FBF0E94730E6FC2B8
S11330B08091CB02882361F52091DB043091DC04FC
S11330C04091DD045091DE04EFB7F894FF2760913E
S11330D0C2037091C3038091C4039091C503E0902F
S11330E0A802F090A9020091AA021091AB026E0D01
S11330F07F1D801F911FEFBF2093DB043093DC04FE
S11331004093DD045093DE041092CB020E943905F3
S11331100E9454043AC00E9454047B018C018FB76E
S1133120F8949927109236038FBF8091520381FF40
S11331302EC280914A0390914B03A0914C03B0910D
S11331404D03A8019701281B390B4A0B5B0BDA01CD
S1133150C90120914E0330914F0340915003509187
S11331605103281B390B4A0B5B0B2F3F8FEF38079A
S11331708FEF48078FE7580709F409C212161306A0
S1133180140615062CF0C801B7010E947B04FFC188
S11331902093DB043093DC044093DD045093DE047D
S11331A081E08093CB02C801B7010E943905EFC1C9
S11331B09091150380915302981709F4E8C19093F4
S11331C053029923D1F40091790210917A0260910B
S11331D03203C8010E94710F482F5527442309F474
S11331E0D6C18FEF809353026091790270917A0275
S11331F0F80183850E94A310CAC18FEF8093530204
S1133200C6C10E948B029CCC90913B05852F8923DB
S1133210C1F0E42FFF27EE0FFF1FEF5BFC4F20816F
S1133220318111821082852F8095982390933B05DC
S1133230442339F4275D324009F0A6C110926E028E
S1133240A3C14F5F483008F0A2C1550FDDCF809174
S11332505602E82FFF27EE0FFF1FEF5BFC4F608144
S1133260718141E00E94031092C120911803812FC3
S11332708223C1F0E92FFF27EE0FFF1FE150FB4F20
S11332804081518111821082812F809528232093BF
S11332901803992339F463E0CA010E94F40B110F57
S11332A091E0E3CF9F5F983008F071C1110FDDCF3B
S11332B010915702E12FFF27EE0FFF1FE150FB4F44
S11332C0E080F180118210820E945F02112309F0D4
S11332D05EC161E0C70126C18FB7F89410927805EA
S11332E02091BE0340E0283009F441E030E0293069
S11332F009F431E0442311F4332351F01092BE0356
S1133300E0914903FF27EE0FFF1FE25DFC4F10829F
S113331099278FBF442311F4332331F19FB7F894D5
S1133320809139058F5F8093390580911F03833421
S113333079F42091380380913703821779F0822F32
S11333408F5F80933803863048F01092380306C0AC
S1133350A0E0442309F4A1E071E002C0A0E070E021
S1133360892F99278FBF06C0222311F0FF246DC037
S1133370A0E070E08FB7F894992720917B028FBF6B
S1133380222341F08FB7F89499272AE02093BE03B3
S11333908FBF42C08FB7F894992760912E03409154
S11333A030038FBF8FB7F894282F332750E09091C4
S11333B0370380913803981709F451E02FBF552340
S11333C041F5662331F55FB7F89482E080932E03CC
S11333D08FB7F894282F332740E0909137038091DA
S11333E03803981709F441E02FBF442311F080E01B
S11333F006C0E0913803FF27E95CFC4F828180938B
S11334002F0383E480931F0310924903852F992788
S11334100EC04150423010F0FF240CC08FB7F89416
S1133420992725E420931F0321E0209349038FBFAC
S113343011E0F12E772349F08FB7F8949927A093E0
S113344084028FBF85E10E9488018FB7F894082F0A
S113345011278091BE038A3009F4D3CE0FBFFF2019
S113346009F495C02FB7F894332710927F05109272
S11334707E051092190381E08093BE032FBF0E9442
S1133480D102882309F483C08FB7F894992729E0DF
S11334902093BE038FBF0E94AF0179C056985798FE
S11334A01092BD031092D602539A549A579A8FB72A
S11334B0F89499271092BE031092D30238CA84E17B
S11334C060C05398549863C0109281021092800295
S11334D08FB7F8949927F09084028FBF809185026A
S11334E0882311F0B3E0FB2E20917E0230917F02FD
S11334F080918602882309F04AC08091570288236C
S113350009F045C00091FF0410910005021713074C
S113351009F03DC0109200051092FF040E945F0262
S11335206F2DC8010E94F40B32C08FB7F89499270D
S11335302091890230918A024091AD028FBF8FB7EA
S1133540F894E42FFF27EE0FFF1FE75AFD4F318356
S1133550208320917C02442311F02B7F01C02D7F16
S113356020937C021092870299278FBF10C04CE1F0
S113357062E475E08FEF9FEF0E941E02882339F00A
S113358087E10E94880103C0550F41E03DCEA89613
S11335900FB6F894DEBF0FBECDBFDF91CF911F9160
S11335A00F91FF90EF90DF900895809136058F3F43
S11335B0B1F0282F3327F901E155FD4F8081809325
S11335C036058F3F11F480937C058FEF80832F3F66
S11335D031F0822F0E94201481E090E0089580E071
S11335E090E00895FF920F931F93CF93DF93CDB78D
S11335F0DEB7E0970FB6F894DEBF0FBECDBFFFB6BF
S1133600F89448E150E06FEF70E08FEA92E00E9496
S113361016218FEF8093360580937C0581E08EBD63
S113362088E080BF83E083BF8CB59DB54AE72CB5A5
S11336303DB52817390708F44150442311F0C90156
S1133640F6CF92B782B78917E9F32CB53DB592B797
S113365082B78917E9F38CB59DB5821B930B40960D
S1133660F5E096958795FA95E1F790933805809360
S1133670370513BE83B78EBD8EB580BF12BE1DBC89
S11336801CBC8FEF86BF86B780937C0080B79927D8
S113369087709070892BD1F7D29AD19AD09ADA9AFE
S11336A0D99AD89A15BA8FEF84BBD498DC98109223
S11336B089001092880080917D00846080937D0051
S11336C080918A00887F826080938A001DBC1CBC24
S11336D087B7846087BF8EB5887F84608EBD0E9463
S11336E0D51A8823E1F78FE592E0909385058093BE
S11336F0840512E006E0609137057091380588274B
S11337009927ECE0660F771F881F991FEA95D1F778
S113371020E031EE40E050E00E9491202150304002
S113372029B9832F9927809390001BB900939500A2
S11337301AB8209399008093980010939B000093EB
S11337409D0010929A0084E490E09093D7048093B3
S1133750D60410922E03109230038AE08093BE03A5
S11337601092190310921F031092390510927F05CD
S113377010927E0510927805109249031092D2049B
S11337801092D10484E08093D3021092C00310926B
S1133790DA0410920B031092460310924503109220
S11337A0380310923703109290028FEF8093D00267
S11337B0EAE9F2E08FEF9FEF9183808312823396E0
S11337C022E0E63AF207C1F70E946E056093D60341
S11337D080914A0290914B020196AA27BB278093BD
S11337E0110390931203A0931303B093140380B7AF
S11337F0886080BF8BE083BF86EE81BF87B782601D
S113380087BF0E94B60481E095E090939202809372
S113381091028E98B89A8C988FEF80931E03109221
S1133820C6031092C7031092C8031092C903B89A32
S1133830D69AD59A8FB7F89499272091500230914F
S113384051028FBF30932503209324030E94D9068D
S113385029A73AA74BA75CA76DA77EA78FA798AB0C
S1133860DE019196FE01B99688E001900D92815097
S1133870E1F7DE015196FE01B19688E001900D92C8
S11338808150E1F7DE015996FE01719688E00190BE
S11338900D928150E1F7ACECB3E0FE01799688E03B
S11338A001900D928150E1F78091520299279093F3
S11338B00D0380930C038FE18093C1038AE180930D
S11338C0D4030E94D90629A73AA74BA75CA76DA7E2
S11338D07EA78FA798ABDE019196FE01B99688E08A
S11338E001900D928150E1F7DE011196FE01B1962F
S11338F088E001900D928150E1F7DE011996FE01F6
S1133900319688E001900D928150E1F7ACECB3E080
S1133910FE01399688E001900D928150E1F7ACECFC
S1133920B3E0FD0137969C9180818D93908331970C
S113393083E0EF3CF807B9F781E08093CD02109261
S11339403F0580930E031092CB030E94D51A88235F
S1133950E1F78F2D99278FBF78948FB7F894282F8C
S11339603327922F8091BE038A3031F08091D302A5
S1133970843011F02FBF04C09FBF82E10E948801F0
S113398080914A0290914B029F938F9388E292E038
S11339909F938F930E941D210E94D30B0E94C910F4
S11339A00F900F900F900F908FB7F894482F5527D2
S11339B04BC087B7992783709070892B19F4E5E081
S11339C0F0E013C080B7992787709070892BD1F7E6
S11339D081B792B7891B8C3030F082B7853F18F4D9
S11339E0E3E0F0E002C0E2E0F0E087B7887BC1F4F6
S11339F080917D008B7FA1F46E9912C08AB1909161
S1133A009A00892B887161F48091740082FD08C04A
S1133A10379B03C081E090E005C085E090E002C0E0
S1133A2080E090E025B78E1708F4E82FFF27E454D0
S1133A30FD4FE491237E2062E22BE5BF78948895C4
S1133A40F89485B78F7D85BF809136058F3F09F443
S1133A50B0CF282F3327F901E155FD4F80818093A2
S1133A6036058F3F11F480937C058FEF80832F3FC1
S1133A7009F49FCF4FBF822F0E94201495CF7894D2
S1133A801F920F920FB60F9211242F923F924F92D2
S1133A905F926F927F928F929F92AF92BF92CF92DA
S1133AA0DF92EF92FF920F931F932F933F934F93C5
S1133AB05F936F937F938F939F93AF93BF93CF93B2
S1133AC0DF93EF93FF93C6B5D7B58FB7F894282E3D
S1133AD00E94EE059B012C1B3D0B442755272B010F
S1133AE03C01421A530A640A750A80917502909146
S1133AF076028530910521F0069709F0E0C0BFC039
S1133B0086E090E0909376028093750231E0332E44
S1133B103092D1021092770280E00E94C606E091B2
S1133B200F03F091100341AABB27A72D962D852DD5
S1133B3080ABC301AA27BB2787A7872D9927AA276C
S1133B40BB2786A7E0910F03F091100385A5882376
S1133B5009F484C06081655077274F01860E971E53
S1133B60F4012081E1808281A3809927AA27BB27C1
S1133B70BA2FA92F982F8827332744275527522F48
S1133B80442733272227FF24002711278701FF24F6
S1133B90EE242E293F29402B512BBB24CC24DD2499
S1133BA02A293B294C295D29822B932BA42BB52B45
S1133BB084199509A609B7098383292F3A2F4B2F16
S1133BC0552722839D014427552721838B2F99272D
S1133BD0AA27BB278083C09824E0A40180E090E05A
S1133BE00E949C0CC09AF4012081E1808281A38010
S1133BF09927AA27BB27BA2FA92F982F88273327BD
S1133C0044275527522F442733272227FF240027F0
S1133C1011278701FF24EE242E293F29402B512B05
S1133C20BB24CC24DD242A293B294C295D29822B61
S1133C30932BA42BB52B840D951DA61DB71D838333
S1133C40292F3A2F4B2F552722839D01442755278F
S1133C5021838B2F9927AA27BB278083E0910F0309
S1133C60F0911003818185FF02C03092AE0283E09F
S1133C700E94250E87B78F7E87BF84997AC01092E1
S1133C80D10281E00E94C606E0910F03F091100377
S1133C90818185FF0FC087E090E090937602809346
S1133CA075020E94EE0520E031E040E050E00E9401
S1133CB0AB0603C080E00E94B210849B5AC080917E
S1133CC07702882391F58091D102882371F511E060
S1133CD01093D1020E94C60680B320913505283086
S1133CE098F4E0913A05E20FFF27E770F070EE0FC9
S1133CF0FF1FEE0FFF1FE152FB4F40825182628291
S1133D0073822F5F2093350510937702D0932D0390
S1133D10C0932C0384992DC09927A4E09695879588
S1133D20AA95E1F7182F117001C010E08091D1021B
S1133D308130F9F41092D1020E94C60610927702E3
S1133D401123B9F480912C0390912D03C81BD90B36
S1133D502A9778F480913505882319F0815080934F
S1133D60350580910F0390911003009711F00E9484
S1133D705F052FBEFF91EF91DF91CF91BF91AF917E
S1133D809F918F917F916F915F914F913F912F916F
S1133D901F910F91FF90EF90DF90CF90BF90AF9065
S1133DA09F908F907F906F905F904F903F902F9057
S1133DB00F900FBE0F901F901895ACE2B0E0E3EEA9
S1133DC0FEE10C94D220222E332E442E552E662E44
S1133DD0772E882E992EFE013196A8E01192AA958D
S1133DE0E9F729823A824B825C826D827E828F82DD
S1133DF09886FE013996B8E01192BA95E9F7A9863A
S1133E00BA86CB86DC86ED86FE860F87188B898181
S1133E109A81AB81BC8189A79AA7ABA7BCA77C0177
S1133E208D018FEF9FEFA0E0B0E0E822F9220A2392
S1133E301B2389A59AA5ABA5BCA51D014424552423
S1133E4089859A85AB85BC858DA39EA3AFA3B8A7AE
S1133E505C016D018FEF9FEFA0E0B0E0A822B922D2
S1133E60CA22DB228DA19EA1AFA1B8A53D01882461
S1133E709924C801B701A60195010E94B32069A342
S1133E807AA38BA39CA3C801B701A40193010E9448
S1133E90B3207B018C01C201B101A60195010E94EE
S1133EA0B3205B016C01C201B101A40193010E9422
S1133EB0B3203B014C01EA0CFB1C0C1D1D1D89A108
S1133EC09AA1ABA1BCA19D01442755272E0D3F1DEE
S1133ED0401F511F2A153B054C055D0540F480E049
S1133EE090E0A1E0B0E0680E791E8A1E9B1ECA0114
S1133EF0AA27BB27860D971DA81DB91D8D8F9E8FE0
S1133F00AF8FB8A3A9013327222789A19AA1ABA116
S1133F10BCA1A070B070280F391F4A1F5B1F298FE6
S1133F203A8F4B8F5C8FA98CBA8CCB8CDC8CED8C4C
S1133F30FE8C0F8D18A1FE01719698E011929A954E
S1133F40E9F7ED8AFE8A0F8B188F2D813E814F8110
S1133F5058856DA17EA18FA198A50E94B3203B0135
S1133F604C012D853E854F85588969A57AA58BA579
S1133F709CA50E94B3202D893E894F89588D260F18
S1133F80371F481F591F260D371D481D591D2D8BDE
S1133F903E8B4F8B588F6D887E888F88988C2A2D06
S1133FA03B2D4C2D5D2D662D772D882D992DE2E12D
S1133FB0AC960C94EE20A0E1B0E0E1EEFFE10C94AD
S1133FC0D220222E332E442E552E662E772E882E66
S1133FD0992E002309F466C088E0FE0131961192FF
S1133FE08A95E9F729833A834B835C836D837E83C7
S1133FF08F829887E0E2E01B1E16CCF52D813E816E
S11340004F815885602F772767FD7095DA01C901C4
S1134010062E04C0B695A795979587950A94D2F76E
S11340208D879E87AF87B88B04C0220F331F441F30
S1134030551FEA95D2F789819A81AB81BC8104C06E
S1134040B695A795979587956A95D2F7282B392B1E
S11340504A2B5B2B29873A874B875C8729843A84D0
S11340604B845C846D847E848F8498881BC01D86F9
S11340701E861F86188A2E2F332727FD30953095EC
S113408021953F4F8D819E81AF81B88504C0B6953F
S1134090A795979587952A95D2F789879A87AB87AD
S11340A0BC87DCCF222D332D442D552D662D772D45
S11340B0882D992DE2E160960C94EE20991B79E00D
S11340C004C0991F961708F0961B881F7A95C9F7A4
S11340D080950895AA1BBB1B51E107C0AA1FBB1FF3
S11340E0A617B70710F0A61BB70B881F991F5A9580
S11340F0A9F780959095BC01CD01089597FB092EF1
S113410007260AD077FD04D0E5DF06D000201AF494
S1134110709561957F4F0895F6F7909581959F4F1F
S11341200895A1E21A2EAA1BBB1BFD010DC0AA1FF4
S1134130BB1FEE1FFF1FA217B307E407F50720F00C
S1134140A21BB30BE40BF50B661F771F881F991F87
S11341501A9469F760957095809590959B01AC01D0
S1134160BD01CF010895629FD001739FF001829F2A
S1134170E00DF11D649FE00DF11D929FF00D839FF2
S1134180F00D749FF00D659FF00D9927729FB00D8F
S1134190E11DF91F639FB00DE11DF91FBD01CF01A2
S11341A0112408952F923F924F925F926F927F92C3
S11341B08F929F92AF92BF92CF92DF92EF92FF9233
S11341C00F931F93CF93DF93CDB7DEB7CA1BDB0BDF
S11341D00FB6F894DEBF0FBECDBF09942A88398884
S11341E048885F846E847D848C849B84AA84B9848B
S11341F0C884DF80EE80FD800C811B81AA81B98197
S1134200CE0FD11D0FB6F894DEBF0FBECDBFED01AA
S11342100895FB01DC0104C08D910190801921F403
S113422041505040C8F7881B990B0895DC0101C028
S11342306D9341505040E0F70895A2E0B0E0E3E20E
S1134240F1E20C94E220FE01379661917191FA83B8
S1134250E983AF0180918405909185050E94342102
S1134260E2E022960C94FE20ABE0B0E0EAE3F1E257
S11342700C94D4203C014B016A01FC011782168284
S1134280838181FD03C08FEF9FEFDAC1F301338196
S1134290F40133FD859133FF81914F01882309F4A3
S11342A0CCC1853239F433FD859133FF81914F01BF
S11342B0853229F4B30199270E943A23E7CF00E01D
S11342C0442455244AE00032B0F48B3269F08C3235
S11342D028F4803251F0833271F40BC08D3239F0FE
S11342E0803349F4016028C00260046025C008607E
S11342F023C0006121C007FD29C0282F20532A3084
S113430078F406FF06C0549EC0011124522E580EA4
S113431013C0449EC0011124422E480E00620CC0FA
S11343208E3221F406FD89C1006406C08C3611F476
S1134330006802C0883651F4F40133FD859133FFDF
S113434081914F01882309F46FC0BDCF982F855404
S1134350833018F08052833038F424E030E0C20E09
S1134360D31E8FE389830FC0933631F0933799F0CE
S1134370933509F05BC023C0F6018081898322E074
S113438030E0C20ED31E7E010894E11CF11C51E002
S1134390A52EB12C12C0F601E080F18006FD03C009
S11343A06FEF7FEF02C0652D772722E030E0C20E69
S11343B0D31EC7010E942F235C010F7713C0F6019F
S11343C0E080F18006FD03C06FEF7FEF02C0652D32
S11343D0772722E030E0C20ED31EC7010E942423B7
S11343E05C01006803FF07C01BC0B30180E290E0DA
S11343F00E943A234A94842D9927A816B906A8F353
S11344000FC0F70107FD859107FF81917F01B3017B
S113441099270E943A2341104A940894A108B108AC
S1134420A114B10471F706C190E03EC0943611F0B6
S1134430993691F507FF0AC0F60160817181828186
S1134440938124E030E0C20ED31E0DC0F6018081BA
S113445091819C01B901882777FD8095982F42E0CE
S113446050E0C40ED51E4FE6B42EB02297FF09C00B
S113447090958095709561957F4F8F4F9F4F50E831
S1134480B52A8E010F5F1F4F2AE030E0A8010E9479
S11344906723A82EA01A4DC0953731F43FEEF32EB2
S11344A0F0222AE030E023C029EFF22EF0229F36DA
S11344B061F0903720F4983509F0BFC012C09037EE
S11344C039F0983709F0B9C005C028E030E00FC0D2
S11344D080E1F82AF4FE02C094E0F92A20E130E0F9
S11344E006C0F4FE02C0E6E0FE2A20E132E0F7FE58
S11344F00AC0F601608171818281938144E050E0B9
S1134500C40ED51E0BC0F60180819181AC01BA01A5
S113451088279927E2E0F0E0CE0EDF1E8E010F5FC0
S11345201F4FA8010E946723A82EA01A8FE7B82E58
S1134530BF20B6FE10C0FEEFBF22A51460F42B2DE1
S1134540332724FF1AC022FF02C0052D09C02FEE15
S1134550B222052D01C00A2D2B2D332724FF0EC0B6
S1134560FE01EA0DF11D8081803319F439EEB32286
S113457009C00F5F22FF06C004C0052D822F867874
S113458009F00F5FEB2CFF24E3FC14C0E0FE0FC026
S1134590041510F05A2C0BC0542C501A5A0C042D2C
S11345A006C0B30180E290E00E943A230F5F041535
S11345B0C0F304C0041510F4401A01C04424E4FEFE
S11345C010C0B30180E390E00E943A23E2FE1EC0D3
S11345D0E1FE03C088E590E002C088E790E0B30103
S11345E00CC08E2D867891F0E1FE02C08BE201C0F2
S11345F080E2B7FC8DE2B30199270E943A2306C0FA
S1134600B30180E390E00E943A235A94A514C0F3C6
S1134610AA94FE01EA0DF11D8181B30199270E943C
S11346203A23AA2039F0F4CFB30180E290E00E944B
S11346303A234A944420C1F729CEF3018681978115
S1134640E0E12B960C94F020FC0105906150704041
S11346500110D8F7809590958E0F9F1F0895FC0147
S11346606150704001900110D8F7809590958E0F9D
S11346709F1F08950F931F93CF93DF938C01EB013A
S11346808B81992781FF1BC082FF0DC02E813F8142
S11346908C819D812817390764F4E881F98101939D
S11346A0F983E88306C0E885F985802F0995892B6D
S11346B031F48E819F8101969F838E8302C00FEF18
S11346C01FEFC801DF91CF911F910F910895FA0157
S11346D0AA27283051F1203181F1E8946F936E7F3D
S11346E06E5F7F4F8F4F9F4FAF4FB1E03ED0B4E02E
S11346F03CD0670F781F891F9A1FA11D680F791F6F
S11347008A1F911DA11D6A0F711D811D911DA11D7F
S113471020D009F468943F912AE0269F112430198F
S1134720305D3193DEF6CF010895462F4770405D2A
S11347304193B3E00FD0C9F7F6CF462F4F70405DD9
S11347404A3318F0495D31FD4052419302D0A9F734
S1134750EACFB4E0A6959795879577956795BA952E
S1134760C9F700976105710508959B01AC010A2EF4
S113477006945795479537952795BA95C9F7620FCB
S10F4780731F841F951FA01D0895FFCF18
S113478C2846464420257529203A204D656E7361D0
S113479C67656D205345545F54454D504552415403
S11347AC55524520726563656269646120646520B5
S11347BC25752E0A002846464420257529203A20C2
S11347CC4D656E736167656D205345545F4C494765
S11347DC48542072656365626964612064652025B0
S11347EC752E0A002846464420257529203A204D6A
S11347FC656E736167656D205455524E5F41495225
S113480C5F4F4E2072656365626964612064652044
S113481C25752E0A002846464420257529203A2061
S113482C4D656E736167656D205455524E5F4149F9
S113483C525F4F4646207265636562696461206409
S113484C652025752E0A0028464644202575292006
S113485C3A204D656E736167656D205455524E5FF9
S113486C54565F4F4E2072656365626964612064BF
S113487C652025752E0A00284646442025752920D6
S113488C3A204D656E736167656D205455524E5FC9
S113489C54565F4F464620726563656269646120B5
S11348AC64652025752E0A00284646442025752962
S11348BC203A20496E696369616C697A616E646F30
S11348CC20464644202E2E2E0A000100FFFFFFFF37
S11348DC010022FFFFFF0101FF5303870353030071
S11148EC00000200000000040C0000000000A8
S9030000FC
