S01800006275696C642F6D6963617A2F6D61696E2E73726563E5
S11300000C9461010C9450070C945A070C946407E7
S11300100C946E070C9478070C9482070C948B0D47
S11300200C948C070C9480010C9480010C945A134A
S11300300C94F8140C941A070C9430070C94550B78
S11300400C9409070C94F4120C9453090C94800139
S11300500C94CF090C9480010C9480010C948001C1
S11300600C9425070C94220B0C94010B0C940C0B90
S11300700C94170B0C94350B0C94E40A0C9480012B
S11300800C94F60A0C9480010C948001EB1536163E
S11300903C168D16A816AE16E716A217C517D91763
S11300A09219C519121ADB15611AE315921AA61AC8
S11300B0881B991B9B1B9E1BCF1BF11B000021104F
S11300C0422063308440A550C660E77008812991BE
S11300D04AA16BB18CC1ADD1CEE1EFF13112100266
S11300E073325222B5529442F772D662399318830E
S11300F07BB35AA3BDD39CC3FFF3DEE36224433432
S113010020040114E664C774A44485546AA54BB55D
S113011028850995EEE5CFF5ACC58DD55336722605
S113012011163006D776F6669556B4465BB77AA7AD
S113013019973887DFF7FEE79DD7BCC7C448E55851
S11301408668A7784008611802282338CCC9EDD9FD
S11301508EE9AFF9488969990AA92BB9F55AD44AA5
S1130160B77A966A711A500A333A122AFDDBDCCB4D
S1130170BFFB9EEB799B588B3BBB1AABA66C877C71
S1130180E44CC55C222C033C600C411CAEED8FFD9D
S1130190ECCDCDDD2AAD0BBD688D499D977EB66E45
S11301A0D55EF44E133E322E511E700E9FFFBEEFED
S11301B0DDDFFCCF1BBF3AAF599F788F8891A981AF
S11301C0CAB1EBA10CD12DC14EF16FE18010A10099
S11301D0C230E3200450254046706760B983989389
S11301E0FBA3DAB33DC31CD37FE35EF3B1029012E9
S11301F0F322D2323542145277625672EAB5CBA555
S1130200A89589856EF54FE52CD50DC5E234C32438
S1130210A01481046674476424540544DBA7FAB728
S11302209987B8975FE77EF71DC73CD7D326F23688
S11302309106B01657667676154634564CD96DC974
S11302400EF92FE9C899E9898AB9ABA944586548D8
S113025006782768C018E1088238A3287DCB5CDBC8
S11302603FEB1EFBF98BD89BBBAB9ABB754A545A28
S1130270376A167AF10AD01AB32A923A2EFD0FED94
S11302806CDD4DCDAABD8BADE89DC98D267C076C78
S1130290645C454CA23C832CE01CC10C1FEF3EFF68
S11302A05DCF7CDF9BAFBABFD98FF89F176E367EC8
S11302B0554E745E932EB23ED10EF01E00081C18EB
S11302C0141011241FBECFEFD0E1DEBFCDBF11E06B
S11302D0A0E0B1E0E4ECF6E400E00BBF02C007905C
S11302E00D92AA39B107D9F714E0AAE9B1E001C027
S11302F01D92A43BB107E1F70E942C1C0C946123CE
S11303000C9400008FB7F894992708958FBF08952F
S1130310282F9FB7F894E82FFF27E552FE4F8081DE
S11303208F3F81F4E091A804E21771F40BC020938D
S1130330620404C0FF27E552FE4F20832093A804E3
S113034020E007C025E005C0809162048F3F91F74B
S1130350EECF892F99278FBF822F992708951F9356
S11303601FB7F8948091A404882341F481E10E948A
S11303708801882319F481E08093A404812F9927AC
S11303808FBF1F910895382FFA01422F2D3118F095
S113039082E090E008956683872F992785833387C9
S11303A021878091AC019091AD01892B19F085E0F2
S11303B090E008952FB7F894332785E08093AF0138
S11303C01092B001F093AB01E093AA0182E090E0B7
S11303D09093AD018093AC011092B2011092B101DF
S11303E0445F4093AE012FBF8FB7F894282F332773
S11303F08091EA028A3011F42FBF19C02FBF9FB732
S1130400F89480915C02882311F020E006C081E01A
S113041080935C0210925D0221E0892F99278FBF9F
S1130420222329F00E94AF0180E090E00895109209
S1130430AD011092AC0181E090E00895CF93DF9379
S1130440DB01FB0135968183892F9927EB018D838D
S113045084E6868380912B0490912C04892B19F0D7
S113046085E090E029C070932C0460932B044483AE
S113047080918401882319F480E090E01DC0868176
S1130480EB016D817727762F662721813327622B35
S1130490732B10928401242FAD010E94C30199276C
S11304A0282F882339F081E08093840110922C0452
S11304B010922B04822F9927DF91CF910895CF9327
S11304C0DF9310928401A0912B04B0912C04109717
S11304D021F08091440280FF08C081E08093840170
S11304E017C080E10E94880113C0FD013596248164
S11304F03327ED016D817727762F66278181992730
S1130500682B792BAD0186810E94C301882349F7AA
S1130510DF91CF9108958091EA028A3021F480918D
S1130520FF01843021F081E08093A701089583E1E5
S11305300E9488011092A70108952FB7F8943327D9
S11305408CB95E9A2FBF0895FC016115710519F4E9
S113055081E090E008958091540290915502892B96
S113056019F085E090E00895709305046093040405
S1130570F0935502E093540210920102109200028B
S113058081E0809302025E9A569A808121E030E0F5
S113059030930102209300020E949D0280E090E0CB
S11305A008958FB7F89499272091B8012E7F20934E
S11305B0B8012EE72093F6018FBF61E070E086EF6B
S11305C091E00E94A40299270895FC018281992751
S11305D0582F442781819927482B592BCA01892FE9
S11305E0992786958695837090708230910559F08D
S11305F08330910559F0892B19F420E030E008C0CC
S11306002CE93FEF05C022E030E002C028E030E0F2
S1130610CA0184E0989F812D992711248230910585
S113062059F08330910559F0892B19F480E090E05A
S113063008C08CE99FEF05C082E090E002C088E02A
S113064090E0280F391F2A5F3F4FCF01820F931F7D
S11306500895282F9FB7F894662349F0E82FFF27C1
S1130660EE50FD4F8081882311F021E006C0E22F77
S1130670FF27EE50FD4F608320E0892F99278FBF1D
S1130680822F99270895E82F8FB7F894282F3327BE
S113069090E0FF27EE50FD4F8081861709F491E02A
S11306A02FBF892F99270895882311F06E9A0895F2
S11306B06E980895882311F06F9A08956F9808959D
S11306C080E00E945403BA9ABB98B99AB89A6C9A7B
S11306D080E00E945A036B986A9881E00E94540358
S11306E0709A8DB18C7F8DB908950F931F93CF931A
S11306F0DF93182F8FB7F894C82FDD270C2F61E0F4
S113070080E00E942903882321F0CFBF85E090E098
S113071024C080917C018823A1F48091A0018230BF
S113072081F409C082E08093A00110927C010E94B0
S11307306003B89AC0981093790180E00FBF99279D
S11307400CC08091A001882369F38FB7F89499278E
S11307501092F2028FBF81E0F1CFDF91CF911F9110
S11307600F9108951F93182F81E00E9454031FB91D
S1130770779BFECF8FB199271F9108958F929F92F7
S1130780AF92BF92CF92DF92EF92FF920F931F939B
S1130790CF93DF938FB7F8949927C0906C04D090CF
S11307A06D048090E7029090E802C0916B02D091B2
S11307B06C022091BF013091C001EAE0AE2EB12C51
S11307C0AC0EBD1E2A153B0508F459018FBF7401F8
S11307D0EC0EFD1E86010C0F1D1F14C0C114D104A4
S11307E019F0F801808101C080E00E94B2038114F5
S11307F0910411F0F701808321960894E11CF11C07
S11308000F5F1F4FC5010197C817D90738F381E05F
S11308100E945A039FB7F894C114D10431F0CC0E4E
S1130820DD1EF60180818FB901C01FB8D0936C0220
S1130830C0936B02892F99278FBF80E090E0DF91EE
S1130840CF911F910F91FF90EF90DF90CF90BF90C9
S1130850AF909F908F9008952FB7F89433275093BB
S1130860C0014093BF0190936D0480936C04709316
S1130870E8026093E70210926C0210926B022FBFA1
S1130880452B29F08FB10E94BE039927089587E074
S11308900E94880180E090E008958FB7F89499272A
S11308A01092F4028FBF08957FB7F89462B7209135
S11308B0C2013091C3014091C4015091C50106B6F3
S11308C001FE0FC081B792B7280F311D411D511D84
S11308D02F5F3F4F4F4F5F4F290F311D411D511D5A
S11308E004C0260F311D411D511D872F99278FBF2D
S11308F0CA01B9010895EF92FF920F931F93E091FB
S11309007E02E1FF2BC02091760230917702409164
S1130910780250917902E0907A02F0907B02009183
S11309207C0210917D02621B730B840B950B6E1578
S11309307F058007910790F0E0FF04C0ED7FE0930E
S11309407E020CC02E0D3F1D401F511F20937602C6
S11309503093770240937802509379028BE00E949F
S113096088011F910F91FF90EF900895DF92EF920D
S1130970FF920F931F938FB7F894282F3327D22E0B
S113098091B782B746B7981711F041FF02C02FBF45
S11309906AC0809162028823E1F10E945404E090CD
S11309A0EE02F090EF020091F0021091F10220911A
S11309B0D4013091D5014091D6015091D7016E19DF
S11309C07F09800B910B621773078407950720F04A
S11309D01092620271E01EC02E0D3F1D401F511F78
S11309E08091C2019091C301A091C401B091C5014D
S11309F0281B390B4A0B5B0B273E3105410551057A
S1130A0040F4822F223010F070E005C070E082E0E4
S1130A1002C070E086EE682F615000B601FCFDCF85
S1130A2082B7681709F46F5F2091C2013091C30146
S1130A304091C4015091C501DA01C9010196A11D7B
S1130A40B11D860F911DA11DB11D82179307A40727
S1130A50B50710F4622F609561BFDFBE772319F0EC
S1130A608AE00E9488011F910F91FF90EF90DF9020
S1130A700895AFB7F894BB27E1E0E0936202609376
S1130A80EE027093EF028093F0029093F1022093B0
S1130A90D4013093D5014093D6015093D701AFBF11
S1130AA00E94B604089580E88093D8011092FE0154
S1130AB010926604109261041092FA010895CF9383
S1130AC0DF93FC0115A6DC019E96ED011B821A82C0
S1130AD0198280E886A7DF91CF9108952F923F92E3
S1130AE04F925F926F927F928F929F92AF92BF923A
S1130AF0CF92DF92EF92FF920F931F93CF93DF93E6
S1130B00CDB7DEB728970FB6F894DEBF0FBECDBFC2
S1130B1020903D0230903E0240903F0250904002AF
S1130B20662477248824BEE4AB2EA3E8BA2ECC2412
S1130B30DD24EE24FF2400E010E0222D332D442D8B
S1130B40552D662D772D882D90E00E94791E2983DE
S1130B503A834B835C836D837E838F839887822E55
S1130B60932EA42EB52E2401350100E20E94771F96
S1130B70A22EB32EC42ED52EC301B201969587950D
S1130B80779567956A0D7B1D8C1D9D1D97FF05C08C
S1130B909F776F5F7F4F8F4F9F4F60933D0270939E
S1130BA03E0280933F029093400228960FB6F89439
S1130BB0DEBF0FBECDBFDF91CF911F910F91FF908C
S1130BC0EF90DF90CF90BF90AF909F908F907F90E9
S1130BD06F905F904F903F902F9008958FB7F89447
S1130BE060916F02709170022CB53DB506B602FE9D
S1130BF004C06F5F7F4F2CB53DB599278FBF882701
S1130C009927CB017727662744275527622B732B17
S1130C10842B952B0895EF92FF920F931F930E94BC
S1130C20EE057B018C0120914C0230914D024091E4
S1130C304E0250914F028091460290914702A0913A
S1130C404802B0914902820F931FA41FB51FE216F8
S1130C50F3060407150730F082179307A407B507B6
S1130C6058F005C082179307A407B507E0F5E81606
S1130C70F9060A071B07B8F59C01AD012E193F09B7
S1130C80400B510B213060E8360760E0460760E016
S1130C90560768F180E090E8A0E0B0E0E80EF91EA5
S1130CA00A1F1B1FE0924C02F0924D0200934E0269
S1130CB010934F0280E090E8AFEFBFEFE80EF91E0B
S1130CC00A1F1B1F205030484040504020934602CA
S1130CD030934702409348025093490220E030E8A1
S1130CE040E050E014C020E030E040E050E0809369
S1130CF04C0290934D02A0934E02B0934F02109277
S1130D004602109247021092480210924902A90129
S1130D10B7012CB53DB5C9018E199F0903968417F7
S1130D20950720F0B9016D5F7F4F02C0640F751FF6
S1130D306115710511F461E070E0615070407BBD94
S1130D406ABD80E186BF87B7806187BF1F910F911D
S1130D50FF90EF9008950F931F930FB7F894112706
S1130D6060934C0270934D0280934E0290934F0215
S1130D70209346023093470240934802509349021D
S1130D800E940B060FBF1F910F91089597B79F7D87
S1130D9097BF90E296BF882319F08EB5806402C095
S1130DA08EB58F7B8EBD87B7806287BF80E090E071
S1130DB00895AF92BF92CF92DF92EF92FF920F937A
S1130DC01F93CF93DF93CDB7DEB728970FB6F89470
S1130DD0DEBF0FBECDBF20E070E0E0917701F0915F
S1130DE0780132E14DE65CE46FE4809178019E2F56
S1130DF028960FB6F894DEBF0FBECDBFDF91CF911A
S1130E001F910F91FF90EF90DF90CF90BF90AF9024
S1130E1008951F920F920FB60F9211248F9383B7E8
S1130E2083BF00B600FCFDCF8F910F900FBE0F90D3
S1130E301F90189578941F920F920FB60F92112459
S1130E400F900FBE0F901F90189578941F920F92D9
S1130E500FB60F9211240F900FBE0F901F9018958C
S1130E6078941F920F920FB60F9211242F933F93F1
S1130E708F939F932FB7F894332780916F029091AB
S1130E80700201969093700280936F022FBF9F911E
S1130E908F913F912F910F900FBE0F901F90189537
S1130EA01F920F920FB60F9211240F900FBE0F9046
S1130EB01F9018951F920F920FB60F9211240F9046
S1130EC00FBE0F901F9018951F920F920FB60F929E
S1130ED011240F900FBE0F901F9018951F920F9220
S1130EE00FB60F9211240F900FBE0F901F901895FC
S1130EF01F920F920FB60F9211240F900FBE0F90F6
S1130F001F9018951F920F920FB60F9211240F90F5
S1130F100FBE0F901F9018951F920F920FB60F924D
S1130F2011240F900FBE0F901F901895ECEBF0E07A
S1130F306927660FF11DE60FF11DC895982F802DC6
S1130F403196C89590250895982F8091B3018823F0
S1130F5089F5992379F531E03093B30180918501C6
S1130F608093B4012091A801822F81708093D901CC
S1130F7080918A0190918B019093B6018093B50181
S1130F808091A9018093B70132273170267EE32F27
S1130F90FF27EE0FFF1FEA57FE4F80819181909348
S1130FA08B0180938A01232B2093A80186E10E9460
S1130FB0880108958091A80180FF02C08B7F01C041
S1130FC08D7F8093A80108950F931F93082F162FE8
S1130FD08091FF018130D9F0813038F0823009F4FA
S1130FE04AC0833009F028C159C0002309F458C10C
S1130FF01092FE031092FD031092EC02109206046C
S113100010923702109272021092710239C10023B9
S113101009F046C180917102909172020E94960774
S1131020909372028093710282E08093FF01109387
S11310300604143409F000C125C18695869503C0C1
S11310408091A8018695817009F0F6C08091A8016D
S1131050992311F0846001C082608093A80180917B
S1131060A801877E88608093A8011092A9018FEF60
S11310708093850115C1002309F0DEC06093370217
S113108080917102909172020E949607909372026D
S11310908093710283E08093FF0102C18091EC028E
S11310A08F3F09F4C9C0002309F461C0823008F4F9
S11310B0C3C0E091FD03EE2309F4EBC04E2F415071
S11310C0E42FFF27E350FC4F82819927382F2227F2
S11310D0442311F4E2E002C0E42FE150FF27E3507F
S11310E0FC4F82819927282B392B80917102909192
S11310F072022817390709F09FC080E00E94A407F4
S1131100309137028091630220916402982F9F5F8F
S1131110963008F090E0921771F0E82FFF27ED5910
S1131120FD4F32838F5F80936302863010F01092FC
S113113063020E94AF011092FE031092FD0394E03B
S11311409093FF011092EC02109206041092370261
S113115010927202109271028091B8018D7F809377
S1131160B8018091A701882309F49AC084C0823011
S113117008F44EC0E091FE03FF27E350FC4F828148
S1131180482F5527342F2091A801822F86958695C4
S11311908695837099278130910519F00297F9F4A7
S11311A00EC0277E20612093A801442311F485E01A
S11311B001C080E08093A9013093850110C0809123
S11311C0A901843360F4E0918A01F0918B01E80F66
S11311D0F11D40838091A9018F5F8093A9018091C3
S11311E0FE03E82FFF27E350FC4F62818F5F80935B
S11311F0FE03833010F01092FE0377278091710272
S1131200909172020E9496079093720280937102E9
S11312108091FD03E82FFF27E350FC4F12838F5F7B
S11312208093FD03833010F01092FD038091EC0253
S11312308F5F8093EC0234C01092FE031092FD0382
S113124014E01093FF011092EC0210920604109225
S1131250370210927202109271028091B8018D7F50
S11312608093B80181E00E94A4078091A70188239C
S113127029F01093FF010E948B0212C0002381F019
S113128081E009CF8091A801982F917080FDD5CE7F
S1131290D7CE809101049927382F222742E01CCF12
S11312A01F910F9108951F920F920FB60F92112460
S11312B02F933F934F935F936F937F938F939F935A
S11312C0AF93BF93EF93FF935F9B3DC06CB1E091ED
S11312D07302F09174023097F9F08091A204909116
S11312E0A304E80FF91F608301969093A3048093ED
S11312F0A2042091AC043091AD048217930718F135
S113130010927402109273028091E9028330D9F032
S113131057981092E90217C06E3719F460E081E023
S113132010C08091B8016D3721F482608093B801B8
S11313300AC081FF05C08D7F8093B80180E26827D1
S113134080E00E94E407FF91EF91BF91AF919F91DC
S11313508F917F916F915F914F913F912F910F905A
S11313600FBE0F901F901895982F8D57823068F4F8
S11313708091B80181608093B80180E289278093CD
S1131380EB028DE78093F60102C09093F60161E0D1
S113139070E086EF91E00E94A40299270895789462
S11313A01F920F920FB60F921124FF920F931F9367
S11313B02F933F934F935F936F937F938F939F9359
S11313C0AF93BF93CF93DF93EF93FF9320910002EA
S11313D03091010280910404909105042817390783
S11313E080F4E0915402F0915502E20FF31F8081E2
S11313F02F5F3F4F30930102209300020E949D0211
S1131400CDC01092550210925402109202025698C6
S1131410FFB6F8948091B80180FF0EC08E7F809350
S1131420B8018091EB028093F60161E070E086EFF1
S113143091E00E94A402AFC08091EA02843009F4D2
S11314408CC0853040F4823021F18330B8F581308E
S113145009F09CC00DC0863009F48DC0863008F4B4
S113146083C0873009F48EC0883009F08FC091C0E2
S113147080914B020E94B409082F83E08093EA0212
S113148060914B028091AA049091AB040E9496074C
S113149010C0809165040E94B409082F83E08093F2
S11314A0EA02609165048091AA049091AB040E94C1
S11314B096079093AB048093AA0466C0E0917502EA
S11314C0FF27EE0FFF1FE55AFD4F80810E94B409EC
S11314D0082F10917502C12FDD27FE01EE0FFF1FAB
S11314E0E55AFD4F60818091AA049091AB040E945B
S11314F096079093AB048093AA04209145022F5F32
S113150020934502113039F58091AF01E091AA0191
S1131510F091AB01E80FF11DE0818F5F8093AF0183
S11315209091AE01981730F482E080935C0240E021
S113153050E002C04E2F5527DE01AA0FBB1FFD014C
S1131540E65AFD4F8081823031F02F3F21F0A55AB9
S1131550BD4F4C9319C084E012C08091AA040E942C
S1131560B409082F85E00BC08091AB040E94B40934
S1131570082F86E004C00E94D102082F87E08093E0
S1131580EA0202C088E003C0002329F089E08093C6
S1131590EA020E94AF018F2D99278FBFFF91EF912F
S11315A0DF91CF91BF91AF919F918F917F916F9177
S11315B05F914F913F912F911F910F91FF900F9049
S11315C00FBE0F901F9018951F920F920FB60F9297
S11315D011248F9380919B0087FF02C080919C000F
S11315E08F910F900FBE0F901F90189578941F92B3
S11315F00F920FB60F9211240F900FBE0F901F90F1
S1131600189578941F920F920FB60F9211240F9091
S11316100FBE0F901F90189578941F920F920FB6DB
S11316200F9211240F900FBE0F901F90189578946D
S11316301F920F920FB60F9211240F900FBE0F90AE
S11316401F90189578941F920F920FB60F92112441
S11316508F939F9380918000909181009F918F91AF
S11316600F900FBE0F901F90189578941F920F92B1
S11316700FB60F9211242F933F938F939F932FB7FD
S1131680F8943327809142029091430201969093FB
S11316904302809342022FBF9F918F913F912F91DC
S11316A00F900FBE0F901F9018951F920F920FB6B8
S11316B00F9211242F933F934F935F936F937F93D4
S11316C08F939F93AF93BF93EF93FF9383B783BF9E
S11316D000B600FCFDCF81B799270196AA27BB2746
S11316E02091C2013091C3014091C4015091C501C0
S11316F0280F391F4A1F5B1F2093C2013093C30177
S11317004093C4015093C50178940E94B604FF919C
S1131710EF91BF91AF919F918F917F916F915F9165
S11317204F913F912F910F900FBE0F901F901895DE
S11317308091BB018C3118F04CE150E002C0482F7D
S113174055278CE1EAE7F4E011928A95E9F7909144
S1131750BB018091B90120E030E0AAE7B4E00FC0FA
S1131760E82FFF27ED5FFC4FE081992329F08F5F7D
S11317708A3F09F480E09150ED932F5F3F4F241787
S1131780350771F79093BB018093B9014CE16EE684
S113179074E08FEF9FEF0E941E02882319F087E107
S11317A00E94880108958FB7F894282F33278091D9
S11317B0BC01813021F42FBF80E090E0089590E0D7
S11317C08091BB01882309F491E0992321F02FBF74
S11317D081E090E0089581E08093BC012FBF0E94D6
S11317E0980B80E090E00895662351F48091BB014A
S11317F0882319F00E94980B08951092BC01089553
S113180087E10E94880108951F93182F8091BC01DD
S1131810882349F48091BB018D3728F081E08093BF
S1131820BC010E94980B8FB7F894282F332790910E
S1131830BB019A3FA8F48091BA01E82FFF27ED5F1E
S1131840FC4F10838F5F8093BA018A3F11F410928A
S1131850BA019F5F9093BB012FBF80E090E003C06B
S11318602FBF8FEF9FEF1F9108950F931F93182F92
S11318700FB7F89461E080E00E942903882371F592
S11318801093790180917C018823A9F58091A001AE
S1131890823089F586E00CC00E9460038091A0012B
S11318A0882349F481E08093A0011092FB0188E031
S11318B00E9488012AC080914A028F3F31F5E0914D
S11318C07B01EE2311F11CC010927A0104C0FF27A2
S11318D0E65BFD4F108210927B0117C081E090E01F
S11318E002C0880F991F1A95E2F720919F01282BB7
S11318F020939F010AC08091A0018823E1F6CCCFF8
S113190080917A018F3F19F7DFCF802F99278FBFFE
S113191080E090E01F910F9108951F9383E00E944F
S113192075039927182F882319F083E00E94350C3A
S1131930812F99271F910895CF92DF92EF92FF9202
S11319400F931F93CF93DF938C01F62E6A01E22E3F
S11319508FB7F894C82FDD2760E080E00E9443032E
S1131960882321F0CFBF80E090E01EC0CFBF0F0DD1
S1131970111D802F80680E94B203F82E16950795DA
S1131980802F807C0E94B2030E2D0AC0EE2DFF270B
S1131990E01BF109EC0DFD1D80810E94B203015092
S11319A00023A1F78F2D9927DF91CF911F910F91DC
S11319B0FF90EF90DF90CF900895CF93DF93CDB752
S11319C0DEB72C970FB6F894DEBF0FBECDBF8FB72E
S11319D0F894282FAE014F5F5F4FDA01E8EFF2E091
S11319E088E001900D928150E1F780913802909146
S11319F039028987892F99278A878091500290918B
S1131A0051028B87892F99278C872FBF2CE060E0A8
S1131A1080E691E00E949C0C2C960FB6F894DEBFF1
S1131A200FBECDBFDF91CF9108951F93CF93DF9366
S1131A30182F8FB7F894C82FDD2760E080E00E944C
S1131A404303882321F0CFBF80E090E005C0CFBFDF
S1131A50812F0E94B2039927DF91CF911F9108959E
S1131A60EF92FF920F931F93CF93DF93182F7B0175
S1131A70042F8FB7F894C82FDD2760E080E00E9420
S1131A804303882321F0CFBF80E090E014C0CFBF90
S1131A901064812F992790935702809356020E94D5
S1131AA0B203182F402F5527B70180E090E00E9421
S1131AB02C04812F9927DF91CF911F910F91FF90D3
S1131AC0EF900895C0986091BD017091BE0141E00E
S1131AD08FE30E94300D089582E090E09093F4012A
S1131AE08093F30181E08093FE0120E030E0809157
S1131AF07901843011F421E030E0232B29F484E0CF
S1131B000E947503882319F40E94620D089584E0ED
S1131B100E94350C08951F920F920FB60F92112454
S1131B202F933F934F935F936F937F938F939F93E1
S1131B30AF93BF93EF93FF938091F3019091F401DE
S1131B40019749F482E090E09093F4018093F301CB
S1131B500E946C0D05C08091FA018F5F8093FA0199
S1131B60FF91EF91BF91AF919F918F917F916F9171
S1131B705F914F913F912F910F900FBE0F901F9047
S1131B8018951F9380919F01882309F04BC01091F1
S1131B9079011F3F09F046C060E00E944303882397
S1131BA009F440C081E0809301038091DA01882325
S1131BB0E1F11092010385E090E045C0923069F5AF
S1131BC0C09A80917A0120E030E08F3F11F421E047
S1131BD030E0232BE9F410937C018F3F19F42FEFAD
S1131BE030E00DC0282F3327F901E65BFD4F8081DB
S1131BF080937A018F3F11F410937B01108320931B
S1131C00FB0181E08093A00188E00E94880105C067
S1131C1010937C011092A00111C08091A00188232F
S1131C2069F00FC081E090E00EC080917C0190913A
S1131C30A001882319F2923021F0EFCF80E00E94B6
S1131C40540380E090E01F9108951F93CF93DF9396
S1131C509FB7F894C92FDD271C2F9091790198170D
S1131C6021F0CFBF81E090E03AC08FEF80937901FB
S1131C7030919F013323F1F48FB7F8949927109290
S1131C80F2028FBF0E94C10DCFBF11C02093790112
S1131C9081E090E002C0880F991F4A95E2F7809591
S1131CA0382330939F0186E00E9488011FBF80E0A3
S1131CB090E015C080E065E0E32FFF270E94FA1F43
S1131CC0292F492F5527CF01042E02C095958795BA
S1131CD00A94E2F780FDDACF822F8F5FEFCFDF9196
S1131CE0CF911F9108951F93CF93DF938FB7F894EB
S1131CF0C82FDD271C2F8091F3019091F401892BCB
S1131D0029F484E00E94250ECFBF1EC01092FE016C
S1131D108091FA01882311F0B79904C00E9908C084
S1131D20882319F081508093FA010E946C0D0BC036
S1131D3081E090E09093F4018093F3011092FA0112
S1131D4084E00E94250E1FBFDF91CF911F9108955B
S1131D500E945305C09AC09888E00E94150D88E03F
S1131D600E94150DC09A84E00E94250E0E94730EF5
S1131D700895FF920F931F93CF93DF93F82E8B0157
S1131D808FB7F894C82FDD2760E080E00E944303FA
S1131D90882321F0CFBF80E090E00CC0CFBF8F2D0F
S1131DA00E94B203812F99270E94B203802F0E94C0
S1131DB0B2039927DF91CF911F910F91FF9008955E
S1131DC01F931FB7F8948091F901882319F460E0F8
S1131DD070E009C060E080916B04882309F461E03D
S1131DE081E06827772780913A02882319F480E0FC
S1131DF090E00AC090E08091F702882309F491E012
S1131E0081E09827892F9927762F6627770F770FF8
S1131E10770FE4E0880F991FEA95E1F7826E9262EA
S1131E20682B792B81E10E94B90E812F99278FBFEE
S1131E301F9108958FB7F8949927609100038FBF7D
S1131E4085E0689FB0011124625D7E4F706488E173
S1131E500E94B90E0895EF92FF921F93CF93DF93E0
S1131E60E0903B02F0903C02F70182A59927182FDD
S1131E70882309F41FE1C0988091F801811749F083
S1131E80612F77276F717070606E706885E10E94B2
S1131E90B90E1093F801F70110818FB7F894C82F89
S1131EA0DD2760E080E00E944303882311F0CFBF68
S1131EB012C0CFBF8EE390E09093570280935602F6
S1131EC08EE30E94B2031150412F552760E070E069
S1131ED0C7010E942C04DF91CF911F91FF90EF90D6
S1131EE008950F931F93CF93DF93EC010FB7F894EA
S1131EF011270E94E502FC018FE380830FBF10923B
S1131F0069041092680461E082E00E942903882336
S1131F1019F085E090E072C0809102038F5F809396
S1131F20020381508B838FB7F894082F112762E046
S1131F3081E00E944303882329F40FBF0E944D04CB
S1131F4081E05BC08FB7F894992724E02093F302D3
S1131F508FBFD0936102C09360020FBFFE01319620
S1131F60818129819927982F88273327822B932BC6
S1131F7080729C7C8983892F992781832981982F5A
S1131F80882733272164822B932B8983892F9927D0
S1131F9081831CA618A619A619AA18AA1FA680E848
S1131FA08EA761E06093F602409160025091610255
S1131FB08FB7F894282F33278091A1019091A20123
S1131FC08830910511F0019711F02FBF15C082E000
S1131FD090E09093A2018093A1016093A90450938F
S1131FE03C0240933B021092C1012FBF0E948D0C12
S1131FF0882311F40E942B0F80E09927DF91CF9161
S11320001F910F910895EF92FF921F93CF93DF9347
S1132010182F7B01E82FFF27EE0FFF1FE359FD4F19
S11320201182108210928301A0916D02B0916E0210
S1132030109721F08091670480FF76C081E080933F
S1132040830168C09927982F88273327822B932BE5
S1132050ED014B878E83892F99278F832FB7F894AF
S1132060332780913802909139022FBFFD01848378
S1132070892F992785832FB7F894332780917D0181
S113208090917E012FBF8887892F99278987319660
S1132090818129819927982F8827332720643868DC
S11320A0822B932B8983892F99278183635F6C9378
S11320B06D5080918001882351F010928001CD01F0
S11320C00E94710F9927282F8823A9F417C0862FFF
S11320D0992790935F0280935E02B093A601A09328
S11320E0A5018CE00E94880180918001882349F435
S11320F089E090E00AC08FEF80938001822F9927B6
S113210004C01092410280E090E0892B19F08EE027
S11321100E948801112389F4E3E0EE16E2E0FE0652
S113212061F410929A0109C0ED014B858F812E81D3
S11321306C916D506D3158F785CFDF91CF911F9120
S1132140FF90EF9008959B0180918301882349F4C7
S113215060916D0270916E026217730711F40E9410
S1132160031008951F93182F81E090E09093A2012B
S11321708093A1011092DA010E94C10D8FB7F894E7
S1132180992710939B018FBF82E00E9488011F91C1
S11321900895CF92DF92EF92FF920F931F93CFB6E1
S11321A0F894DD240E946E05DC01CB0166E470E046
S11321B00E940620BBE0EB2EF12CE80EF91EF092F3
S11321C0A604E092A5040E94EE0500271127A801A9
S11321D097010E94AB06CFBE1F910F91FF90EF9025
S11321E0DF90CF9008951F93CF93DF938FB7F89428
S11321F0C82FDD271C2F8091A1019091A20108977F
S1132200C9F489E00E94150D83E00E94250EC09A4E
S113221081E090E09093A2018093A1018FB7F8949C
S1132220992723E020939B018FBF82E00E948801BD
S1132230CFBF30C0C0988091A904882311F085E0F5
S113224001C084E00E94150D83FD09C080E00E9456
S1132250150D83FF04C085E090E020E003C083E017
S113226090E021E09093A2018093A101C09A1FBF46
S1132270222341F01092C10183E00E94250E0E94A6
S1132280C91008C00E94EE0520E431E040E050E0AF
S11322900E94AB06DF91CF911F910895EF92FF92B8
S11322A00F931F93CF93DF938B01809156029091EC
S11322B0570286FF40C18F7B8F3309F08EC1C091D6
S11322C0BD01D091BE0158815093F5018091F30175
S11322D09091F4018530910509F443C0863091054D
S11322E009F48AC0029709F01FC185E090E0909339
S11322F0F4018093F3014091D801852F9927019629
S1132300242F3327281739074CF1B79906C00E99A3
S113231004C0451B41504093D8014091F5014A3215
S1132320E8F44423A1F0BE016F5F7F4F483018F0FA
S113233047E050E007C086E090E09093F40180937A
S1132340F301552780E090E00E942C0446C11092CE
S1132350FE01C09A84E00E94250EE3C00E94A80EEC
S11323603CC186E090E09093F4018093F301809166
S11323703A02882309F439C08091F7028823A9F529
S1132380898185FF32C08F814E812FB7F89433271E
S113239060915002709151022FBF9927982F88277E
S11323A05527842B952B8617970759F08F812E81FB
S11323B09927982F88273327822B932B8F5F9F4F42
S11323C0A1F489818770813081F4C09AC0988AE031
S11323D00E94150DC09AC0984091F5014750289667
S11323E0BE018FE30E94300DF8C04091F5014750C3
S11323F055272896BE01A6CFC09A8091FA0188235A
S113240039F484E00E94250E8091FA01882311F0AA
S1132410B7990AC00E9B08C090916104992321F0DA
S11324208091F5018B3038F48091BD019091BE010B
S11324300E945F053DC0913001F5E0916604FF27DD
S1132440EE0FFF1FEE0FFF1FE55FFB4F2081318171
S113245042815381E091BD01F091BE0121ABBB27C4
S1132460A52F942F832F80ABCA01AA27BB2787A748
S1132470252F33274427552726A7809166049927BB
S1132480019668E070E00E941A20809366048091AF
S11324906104815080936104882351F08091BD01CF
S11324A09091BE010E945F0510926604109261042F
S11324B08091F501FE01E80FF11D808187FF31C095
S11324C0012B79F169816770E091BD01F091BE0142
S11324D0623019F5A0913B02B0913C02109709F1CA
S11324E08091A1019091A2010797D9F4ED019B81FC
S11324F083819817B1F487B78F7E87BF908181E07D
S11325008CA7E90FF11D8291319688A780818F777E
S113251089A780E00E94B21004C0613011F489E000
S11325202AC00E94730E59C01092FE01C09A84E022
S11325300E94250E52C08E3309F04FC0C09A80917C
S1132540A1019091A2010897C9F4C09889E00E9462
S1132550150DC09A83E00E94250E81E090E09093CF
S1132560A2018093A1018FB7F894992723E02093C7
S11325709B018FBF82E00E9488012FC08091A90433
S1132580882349F484E090E09093A2018093A10110
S11325900E94F31022C083E00E94250E83E090E0A5
S11325A09093A2018093A1010E946E05DC01CB01EE
S11325B066E371E00E9406201BE0E12EF12CE80E98
S11325C0F91EF092D301E092D2010E94EE05002799
S11325D01127A80197010E94AB06DF91CF911F91AB
S11325E00F91FF90EF9008951F920F920FB60F92E4
S11325F011242F933F934F935F936F937F938F9304
S11326009F93AF93BF93EF93FF932FB1E091E702B2
S1132610F091E802309739F080916B0290916C024E
S1132620E80FF91F208380916B0290916C02019650
S113263090936C0280936B0280E00E945A03409155
S1132640BF015091C00180916B0290916C0284177C
S1132650950718F40E94BE031CC06091E7027091B4
S1132660E80280916C0490916D041092E80210923B
S1132670E70210926D0410926C041092C001109243
S1132680BF0110926C0210926B022FB120E00E94E5
S11326904E11FF91EF91BF91AF919F918F917F91D7
S11326A06F915F914F913F912F910F900FBE0F90BB
S11326B01F90189578941F920F920FB60F921124C1
S11326C02F923F924F925F926F927F928F929F923E
S11326D0AF92BF92CF92DF92EF92FF920F931F932C
S11326E02F933F934F935F936F937F938F939F9316
S11326F0AF93BF93CF93DF93EF93FF93C6B5D7B553
S11327008FB7F894282E0E94EE059B012C1B3D0BDD
S1132710442755272B013C01421A530A640A750ABF
S11327208091A1019091A2018530910521F0069735
S113273009F0E0C0BFC086E090E09093A2018093CE
S1132740A10131E0332E3092FD011092A30180E00B
S11327500E94C606E0913B02F0913C0241AABB27CD
S1132760A72D962D852D80ABC301AA27BB2787A74C
S1132770872D9927AA27BB2786A7E0913B02F091D2
S11327803C0285A5882309F484C0608165507727BD
S11327904F01860E971EF4012081E1808281A3807F
S11327A09927AA27BB27BA2FA92F982F8827332721
S11327B044275527522F442733272227FF24002755
S11327C011278701FF24EE242E293F29402B512B6A
S11327D0BB24CC24DD242A293B294C295D29822BC6
S11327E0932BA42BB52B84199509A609B7098383C8
S11327F0292F3A2F4B2F552722839D0144275527F4
S113280021838B2F9927AA27BB278083C09824E094
S1132810A40180E090E00E949C0CC09AF401208105
S1132820E1808281A3809927AA27BB27BA2FA92FE9
S1132830982F8827332744275527522F4427332797
S11328402227FF24002711278701FF24EE242E29A5
S11328503F29402B512BBB24CC24DD242A293B299E
S11328604C295D29822B932BA42BB52B840D951D0C
S1132870A61DB71D8383292F3A2F4B2F552722835B
S11328809D014427552721838B2F9927AA27BB27EE
S11328908083E0913B02F0913C02818185FF02C07C
S11328A03092DA0183E00E94250E87B78F7E87BFBE
S11328B084997AC01092FD0181E00E94C606E091DD
S11328C03B02F0913C02818185FF0FC087E090E0DC
S11328D09093A2018093A1010E94EE0520E031E0D3
S11328E040E050E00E94AB0603C080E00E94B210BA
S11328F0849B5AC08091A301882391F58091FD01A6
S1132900882371F511E01093FD010E94C60680B37F
S113291020916104283098F4E0916604E20FFF27C7
S1132920E770F070EE0FFF1FEE0FFF1FE55FFB4F28
S113293040825182628273822F5F209361041093DC
S1132940A301D0935902C093580284992DC09927AA
S1132950A4E096958795AA95E1F7182F117001C008
S113296010E08091FD018130F9F41092FD010E9484
S1132970C6061092A3011123B9F4809158029091D4
S11329805902C81BD90B2A9778F4809161048823D3
S113299019F081508093610480913B0290913C0234
S11329A0009711F00E945F052FBEFF91EF91DF9118
S11329B0CF91BF91AF919F918F917F916F915F91D3
S11329C04F913F912F911F910F91FF90EF90DF90C6
S11329D0CF90BF90AF909F908F907F906F905F90BB
S11329E04F903F902F900F900FBE0F901F9018950F
S11329F078941F920F920FB60F9211241F932F9366
S1132A003F934F935F936F937F938F939F93AF9372
S1132A10BF93EF93FF9387B78F7E87BF78941FB7D9
S1132A20F8948091460290914702A0914802B09197
S1132A3049020097A105B10509F051C08091A10197
S1132A409091A2018530910561F18630910530F4B1
S1132A508330910549F0049781F51AC087309105B8
S1132A60F1F0089751F514C0869B0FC084E090E004
S1132A709093A2018093A1010E94EE0527E030E02B
S1132A8040E050E00E94AB0618C00E94C91015C077
S1132A900E948D0C882389F40E94F3100EC080E0FC
S1132AA00AC089E00E94150D81E00E94C60683E0F9
S1132AB00E94250E87E00E94B21080919C019091A3
S1132AC09D01019771F482E090E090939D018093C1
S1132AD09C01DE98DE9A80E00E94350C02C00E94C0
S1132AE00B06812F99278FBFFF91EF91BF91AF9173
S1132AF09F918F917F916F915F914F913F912F9112
S1132B001F910F900FBE0F901F90189561E081E008
S1132B100E9429038823E9F48FB7F894282F3327D8
S1132B2080919C0190919D01892B11F02FBF20C0B1
S1132B3081E090E090939D0180939C012FBFDD9AEA
S1132B400E94EE0524E130E040E050E00E94AB0634
S1132B500FC062E081E00E944303882319F089E0FA
S1132B6090E0089561E081E00E944303882319F016
S1132B7080E090E0089585E090E00895DF92EF9280
S1132B80FF920F931F93CF93DF93CDB7DEB7A89730
S1132B900FB6F894DEBF0FBECDBFE82FFF27E83194
S1132BA0F10508F02EC6EA5BFF4FEE0FFF1F0590FC
S1132BB0F491E02D099480916704882309F421C6D7
S1132BC040E051E05BC480914402882309F419C6B3
S1132BD090E011E084C40FB7F894112781E00E94BB
S1132BE0C60661E0E62EF12CF092A201E092A1016A
S1132BF01092A3011092DA011092F8010FBF0FB7DF
S1132C00F89411270E945305F092F401E092F30125
S1132C101092FE0189B78F7B89BF80E488BF8AB791
S1132C2080628ABF8AB78F7E8ABF89B7806489BF72
S1132C300FBF8FB7F894082F112780919C019091B2
S1132C409D01049719F483E00E94150D0FBF0FB77F
S1132C50F8941127C09A80E00E94250E0FBF8FB709
S1132C60F894992722E02093F302B9C58FB7F8941A
S1132C7099271092F302F9CF8FB7F8949927F0901F
S1132C809B018FBF63E081E00E944303882359F1D5
S1132C900FB7F89411271092A2011092A10187B7DF
S1132CA08F7E87BF87B78F7D87BF83E00E94250E05
S1132CB0C09A0FBF0FB7F89411271092F401109225
S1132CC0F3010E945305C09A89B78F7B89BF0FBF58
S1132CD010929D0110929C01DE98DD98DE9A81E0AD
S1132CE00E94880107C08FB7F894992722E02093A7
S1132CF0F3028FBF00916002109161020E944D04A3
S1132D008091680490916904892B09F07AC58FEF4A
S1132D10809380014F2DB801A5C38FB7F894282F55
S1132D203327122F8091A704882301F581E0809333
S1132D30A70480919C0190919D01049721F481E066
S1132D400E94350C03C084E00E9488011FBF59C54E
S1132D508FB7F89499271092A70487CF8FB7F89468
S1132D60282F332780919E01882311F02FBF49C556
S1132D702FBF80B3992756E0969587955A95E1F72A
S1132D80182F117090915202809153028917D9F033
S1132D901917C9F484E090E090939D0180939C01FD
S1132DA08FB7F894992721E020939E018FBF60E0AC
S1132DB070E08DE10E94B90E0E94DD0CC09AC098AB
S1132DC080E00E9488011093530285E014C58FB7F8
S1132DD0F8949927109179018FBF123009F465C0D6
S1132DE0133030F4112359F0113009F00AC548C0EA
S1132DF0133009F474C0143009F003C5A0C0C0989E
S1132E008FB7F894082F112780919C0190919D0110
S1132E100297A1F583E090E090939D0180939C013B
S1132E2068E170E08DE10E94B90E81E08093520266
S1132E3010929E0180B3992746E0969587954A950E
S1132E40E1F7817090708093530285E00E948801BD
S1132E5081E00E94150D6FE772E08CE10E94B90ECB
S1132E600E941A0F0E94E00E66E57AE287E10E9452
S1132E70B90E6FEF70E885E10E94B90E0FBFC1C4AF
S1132E80C09886E00E94150D0E941A0F0E94E00E61
S1132E900E94DD0CC09AC09883E00E94150DC09A70
S1132EA081E00E94250E84E0A6C4C0988FB7F894F0
S1132EB0082F112760E080E00E944303882311F06B
S1132EC00FBF0AC00FBF83E50E94B20380E00E94D7
S1132ED0B20380E00E94B203C09A82E02DC08FB793
S1132EE0F89499272091A1018FBF243039F028301C
S1132EF041F0223001F50E942B0F83C40E94F3108D
S1132F0080C4C09889E00E94150DC09A83E00E9495
S1132F10250E8FB7F894992721E030E03093A20171
S1132F202093A1018FBF8FB7F894992710939B0129
S1132F308FBF82E060C483E00E94250E62C40E94B9
S1132F40620D5FC40FB7F89411274091BF015091EF
S1132F50C0016091E7027091E80280916C04909145
S1132F606D041092E8021092E70210926D04109220
S1132F706C041092C0011092BF0110926C02109266
S1132F806B0220E00E944E1179CF2FB7F8943327BB
S1132F908091FB0180937C0182E08093A0012FBF8C
S1132FA080917C01882309F02CC4B89AC09886E0EB
S1132FB022C4A091BD01B091BE01DC909D012D0DF4
S1132FC0311DF9018081881F8827881FFD0183A78F
S1132FD0F90180818F77FD0181A721503040F901EB
S1132FE08081FD0180A7A091BD01B091BE01FD01CA
S1132FF032818FB7F89499272091F9018FBF22234A
S113300009F490C0832F992796958795969587956F
S1133010837090708230910541F5878146812FB786
S1133020F894332760915002709151022FBF992771
S1133030982F88275527842B952B8617970719F4E3
S113304081E090E06CC0FD018781268140E050E082
S11330509927982F88273327822B932B8F5F9F4F95
S113306011F441E050E0CA015AC0039709F051C17C
S11330709E012F5F3F4F48EF52E088E0FA01019034
S1133080AF01F90101929F018150C1F79E012F5DAB
S11330903F4FAE014F5F5F4F88E0FA010190AF01EF
S11330A0F90101929F018150C1F79E01275F3F4FB3
S11330B0AE014F5D5F4F88E0FA010190AF01F90165
S11330C001929F018150C1F79E012F5E3F4FAE01D7
S11330D0475F5F4F88E0FA010190AF01F901019267
S11330E09F018150C1F79E01275E3F4FAE014F5EA5
S11330F05F4F88E0FA010190AF01F90101929F014D
S11331008150C1F748E050E0BE01675E7F4FCD01BA
S113311006960E94A520892B09F0FBC003C08823D2
S113312009F4F7C0FCE0FD1508F0F3C0E090BD0120
S1133130F090BE01F7012281822F992716E096951F
S113314087951A95E1F7039719F468E070E002C0D7
S113315062E070E0822F99279695879596958795DA
S113316083709070039719F488E090E002C082E0C5
S113317090E026E030E0E20EF31E40E050E020E074
S113318030E0F701E80FF91F8AEF9FEFE80EF91E10
S113319005C08191480F511D2F5F3F4F26173707F8
S11331A0C4F3F70163818FEF80936A048FB7F894B7
S11331B0782F20E030E0E6ECF1E080819181841703
S11331C0950731F48281861709F481C020936A043B
S11331D02F5F3F4F33962430310579F77FBF9091AD
S11331E06A043FB7F8949F3F21F08091A4018917A6
S11331F099F42091A401822F9927FC01EE0FFF1F5F
S1133200E80FF91FEA53FE4F5183408362832F5F17
S113321023702093A4010CC0892F9927FC01EE0F81
S1133220FF1FE80FF91FEA53FE4F51834083628367
S1133230832F99278FBF0FB7F8941127C7010E94D6
S1133240E502FC0190810FBFF70183A5882309F4EF
S11332505CC09F3309F059C0878146812FB7F89429
S1133260332760917D0170917E012FBF9927982F9C
S113327088275527842B952B8617970759F0878124
S113328026819927982F88273327822B932B8F5FAA
S11332909F4FD9F5F70183858630B9F5F3E1DF1641
S11332A0A1F5F70185859927882319F0813069F5FF
S11332B010C0F701848599279F938F93809177019C
S11332C0909178019F938F9380E091E00FC07FBF2E
S11332D01CC0F701848599279F938F938091770170
S11332E0909178019F938F938AE291E09F938F93BB
S11332F00E94B9200E94D30B2DB73EB72A5F3F4FDF
S11333000FB6F8943EBF0FBE2DBFF092BE01E092FF
S1133310BD018FB7F89499271092FE018FBF0E94C8
S1133320730E6FC28091F701882361F52091070421
S1133330309108044091090450910A04EFB7F894BD
S1133340FF276091EE027091EF028091F00290915C
S1133350F102E090D401F090D5010091D6011091D2
S1133360D7016E0D7F1D801F911FEFBF20930704AF
S1133370309308044093090450930A041092F7010F
S11333800E9439050E9454043AC00E9454047B01EF
S11333908C018FB7F8949927109262028FBF8091A5
S11333A07E0281FF2EC28091760290917702A091D5
S11333B07802B0917902A8019701281B390B4A0BB6
S11333C05B0BDA01C90120917A0230917B024091B2
S11333D07C0250917D02281B390B4A0B5B0B2F3F5B
S11333E08FEF38078FEF48078FE7580709F409C2B2
S11333F012161306140615062CF0C801B7010E9414
S11334007B04FFC12093070430930804409309040C
S113341050930A0481E08093F701C801B7010E9428
S11334203905EFC19091410280918001981709F408
S1133430E8C1909380019923D1F40091A5011091E2
S1133440A60160915E02C8010E94710F482F5527A2
S1133450442309F4D6C18FEF809380016091A501C4
S11334607091A601F80183850E94A310CAC18FEF51
S113347080938001C6C10E948B0200CD90916704A5
S1133480852F8923C1F0E42FFF27EE0FFF1FE35997
S1133490FD4F2081318111821082852F80959823E0
S11334A090936704442339F42350324009F0A6C1B1
S11334B010929A01A3C14F5F483008F0A2C1550F82
S11334C0DDCF80918301E82FFF27EE0FFF1FE35923
S11334D0FD4F6081718141E00E94031092C12091EF
S11334E04402812F8223C1F0E92FFF27EE0FFF1F33
S11334F0E55DFB4F4081518111821082812F8095BF
S1133500282320934402992339F463E0CA010E94DA
S1133510F40B110F91E0E3CF9F5F983008F071C175
S1133520110FDDCF10918401E12FFF27EE0FFF1F54
S1133530E55DFB4FE080F180118210820E945F0202
S1133540112309F05EC161E0C70126C18FB7F89469
S11335501092A4042091EA0240E0283009F441E0EA
S113356030E0293009F431E0442311F4332351F0DD
S11335701092EA02E0917502FF27EE0FFF1FE65A50
S1133580FD4F108299278FBF442311F4332331F167
S11335909FB7F894809165048F5F80936504809150
S11335A04B02833479F42091640280916302821780
S11335B079F0822F8F5F80936402863048F01092F6
S11335C0640206C0A0E0442309F4A1E071E002C053
S11335D0A0E070E0892F99278FBF06C0222311F045
S11335E0FF246DC0A0E070E08FB7F8949927209174
S11335F0A7018FBF222341F08FB7F89499272AE0BF
S11336002093EA028FBF42C08FB7F8949927609144
S11336105A0240915C028FBF8FB7F894282F33274A
S113362050E09091630280916402981709F451E08C
S11336302FBF552341F5662331F55FB7F89482E037
S113364080935A028FB7F894282F332740E0909143
S1133650630280916402981709F441E02FBF442368
S113366011F080E006C0E0916402FF27ED59FD4FA0
S1133670828180935B0283E480934B0210927502F3
S1133680852F99270EC04150423010F0FF240CC002
S11336908FB7F894992725E420934B0221E02093D7
S11336A075028FBFE1E0FE2E772349F08FB7F894BF
S11336B09927A093B0018FBF85E10E9488018FB73D
S11336C0F894082F11278091EA028A3009F4D3CEA6
S11336D00FBFFF2009F495C02FB7F8943327109239
S11336E0AB041092AA041092450281E08093EA028E
S11336F02FBF0E94D102882309F483C08FB7F894A6
S1133700992729E02093EA028FBF0E94AF0179C074
S1133710569857981092E90210920202539A549ABA
S1133720579A8FB7F89499271092EA021092FF01E2
S11337309CCA84E160C05398549863C01092AD0150
S11337401092AC018FB7F8949927F090B0018FBF15
S11337508091B101882311F063E0F62E2091AA0133
S11337603091AB018091B201882309F04AC0809165
S11337708401882309F045C000912B0410912C0486
S11337800217130709F03DC010922C0410922B0469
S11337900E945F026F2DC8010E94F40B32C08FB7E4
S11337A0F89499272091B5013091B6014091D9013F
S11337B08FBF8FB7F894E42FFF27EE0FFF1FEA5750
S11337C0FE4F318320832091A801442311F02B7FE5
S11337D001C02D7F2093A8011092B30199278FBFB8
S11337E010C04CE16EE674E08FEF9FEF0E941E0262
S11337F0882339F087E10E94880103C0550F41E016
S11338003DCEA8960FB6F894DEBF0FBECDBFDF91B4
S1133810CF911F910F91FF90EF90DF9008958091C9
S113382062048F3FB1F0282F3327F901E552FE4F90
S11338308081809362048F3F11F48093A8048FEFFA
S113384080832F3F31F0822F0E94BE1581E090E0EB
S1133850089580E090E00895FF920F931F93CF9313
S1133860DF93CDB7DEB7E0970FB6F894DEBF0FBE97
S1133870CDBFFFB6F89448E150E06FEF70E08BEDF8
S113388091E00E94B2208FEF809362048093A80499
S113389081E08EBD88E080BF83E083BF8CB59DB599
S11338A04AE72CB53DB52817390708F4415044239D
S11338B011F0C901F6CF92B782B78917E9F32CB595
S11338C03DB592B782B78917E9F38CB59DB5821BD4
S11338D0930B4096F5E096958795FA95E1F79093CA
S11338E064048093630413BE83B78EBD8EB580BF1A
S11338F012BE1DBC1CBC8FEF86BF86B780937C00B4
S113390080B7992787709070892BD1F7D29AD19A72
S1133910D09ADA9AD99AD89A15BA8FEF84BBD498E8
S1133920DC98109289001092880080917D00846058
S113393080937D0080918A00887F826080938A00D2
S11339401DBC1CBC87B7846087BF8EB5887F84602C
S11339508EBD0E940F1C8823E1F78CE891E09093C0
S1133960B1048093B00412E006E0609163047091A6
S1133970640488279927ECE0660F771F881F991F36
S1133980EA95D1F720E031EE40E050E00E942D208E
S11339902150304029B9832F9927809390001BB977
S11339A0009395001AB8209399008093980010937F
S11339B09B0000939D0010929A0084E490E0909301
S11339C003048093020410925A0210925C028AE06B
S11339D08093EA021092450210924B021092650401
S11339E01092AB041092AA041092A40410927502CF
S11339F01092FE031092FD0384E08093FF01109265
S1133A00EC02109206041092370210927202109285
S1133A10710210926402109263021092BC018FEF43
S1133A208093FC01E6ECF1E08FEF9FEF91838083BC
S1133A301282339621E0E23DF207C1F70E946E053F
S1133A406093020380917701909178010196AA27EF
S1133A50BB2780933D0290933E02A0933F02B09314
S1133A60400280B7886080BF8BE083BF86EE81BF51
S1133A7087B7826087BF0E94B6048DE294E090937A
S1133A80BE018093BD018E98B89A8C988FEF809375
S1133A904A021092F2021092F3021092F40210926F
S1133AA0F502B89AD69AD59A8FB7F89499272091A7
S1133AB07D0130917E018FBF3093510220935002DB
S1133AC00E94D90629A73AA74BA75CA76DA77EA792
S1133AD08FA798ABDE019196FE01B99688E001901C
S1133AE00D928150E1F7DE015196FE01B19688E016
S1133AF001900D928150E1F7DE015996FE01719615
S1133B0088E001900D928150E1F7A8EFB2E0FE0148
S1133B10799688E001900D928150E1F780917F01C0
S1133B20992790933902809338028FE18093ED02B4
S1133B308AE1809300030E94D90629A73AA74BA7DC
S1133B405CA76DA77EA78FA798ABDE019196FE01B7
S1133B50B99688E001900D928150E1F7DE0111964B
S1133B60FE01B19688E001900D928150E1F7DE01EB
S1133B701996FE01319688E001900D928150E1F78B
S1133B80A8EFB2E0FE01399688E001900D928150D1
S1133B90E1F7A8EFB2E0FD0137969C9180818D9307
S1133BA09083319782E0EB3FF807B9F781E0809387
S1133BB0F90110926B0480933A021092F7020E946A
S1133BC00F1C8823E1F78F2D99278FBF78948FB727
S1133BD0F894282F3327922F8091EA028A3031F00B
S1133BE08091FF01843011F02FBF04C09FBF82E198
S1133BF00E94880180917701909178019F938F931F
S1133C0084E591E09F938F930E94B9200E94D30B87
S1133C100E9486150F900F900F900F908FB7F89415
S1133C20482F55274BC087B7992783709070892BED
S1133C3019F4E5E0F0E013C080B79927877090701D
S1133C40892BD1F781B792B7891B8C3030F082B7BA
S1133C50853F18F4E3E0F0E002C0E2E0F0E087B76B
S1133C60887BC1F480917D008B7FA1F46E9912C092
S1133C708AB190919A00892B887161F480917400C3
S1133C8082FD08C0379B03C081E090E005C085E059
S1133C9090E002C080E090E025B78E1708F4E82F8A
S1133CA0FF27E454FD4FE491237E2062E22BE5BF1D
S1133CB078948895F89485B78F7D85BF8091620448
S1133CC08F3F09F4B0CF282F3327F901E552FE4F77
S1133CD08081809362048F3F11F48093A8048FEF56
S1133CE080832F3F09F49FCF4FBF822F0E94BE15C0
S1133CF095CFACE2B0E0EFE7FEE10C946E20222E0B
S1133D00332E442E552E662E772E882E992EFE01A4
S1133D103196A8E01192AA95E9F729823A824B825A
S1133D205C826D827E828F829886FE013996B8E02D
S1133D301192BA95E9F7A986BA86CB86DC86ED8618
S1133D40FE860F87188B89819A81AB81BC8189A7F4
S1133D509AA7ABA7BCA77C018D018FEF9FEFA0E0D2
S1133D60B0E0E822F9220A231B2389A59AA5ABA572
S1133D70BCA51D014424552489859A85AB85BC8541
S1133D808DA39EA3AFA3B8A75C016D018FEF9FEF36
S1133D90A0E0B0E0A822B922CA22DB228DA19EA114
S1133DA0AFA1B8A53D0188249924C801B701A60193
S1133DB095010E944F2069A37AA38BA39CA3C801F9
S1133DC0B701A40193010E944F207B018C01C20121
S1133DD0B101A60195010E944F205B016C01C20153
S1133DE0B101A40193010E944F203B014C01EA0C54
S1133DF0FB1C0C1D1D1D89A19AA1ABA1BCA19D0199
S1133E00442755272E0D3F1D401F511F2A153B05E2
S1133E104C055D0540F480E090E0A1E0B0E0680E60
S1133E20791E8A1E9B1ECA01AA27BB27860D971DD1
S1133E30A81DB91D8D8F9E8FAF8FB8A3A9013327FD
S1133E40222789A19AA1ABA1BCA1A070B070280FB0
S1133E50391F4A1F5B1F298F3A8F4B8F5C8FA98CA8
S1133E60BA8CCB8CDC8CED8CFE8C0F8D18A1FE01F2
S1133E70719698E011929A95E9F7ED8AFE8A0F8B74
S1133E80188F2D813E814F8158856DA17EA18FA110
S1133E9098A50E944F203B014C012D853E854F85FE
S1133EA0588969A57AA58BA59CA50E944F202D89C8
S1133EB03E894F89588D260F371F481F591F260DDD
S1133EC0371D481D591D2D8B3E8B4F8B588F6D8888
S1133ED07E888F88988C2A2D3B2D4C2D5D2D662D48
S1133EE0772D882D992DE2E1AC960C948A20A0E1DF
S1133EF0B0E0EDE7FFE10C946E20222E332E442E29
S1133F00552E662E772E882E992E002309F466C02E
S1133F1088E0FE01319611928A95E9F729833A8364
S1133F204B835C836D837E838F829887E0E2E01B02
S1133F301E16CCF52D813E814F815885602F772741
S1133F4067FD7095DA01C901062E04C0B695A795E0
S1133F50979587950A94D2F78D879E87AF87B88BFC
S1133F6004C0220F331F441F551FEA95D2F78981DD
S1133F709A81AB81BC8104C0B695A7959795879526
S1133F806A95D2F7282B392B4A2B5B2B29873A8742
S1133F904B875C8729843A844B845C846D847E845B
S1133FA08F8498881BC01D861E861F86188A2E2F14
S1133FB0332727FD3095309521953F4F8D819E8184
S1133FC0AF81B88504C0B695A795979587952A952E
S1133FD0D2F789879A87AB87BC87DCCF222D332D14
S1133FE0442D552D662D772D882D992DE2E160966F
S1133FF00C948A20991B79E004C0991F961708F045
S1134000961B881F7A95C9F780950895AA1BBB1B38
S113401051E107C0AA1FBB1FA617B70710F0A61BC4
S1134020B70B881F991F5A95A9F780959095BC01E5
S1134030CD01089597FB092E07260AD077FD04D0F9
S1134040E5DF06D000201AF4709561957F4F08953E
S1134050F6F7909581959F4F0895A1E21A2EAA1B19
S1134060BB1BFD010DC0AA1FBB1FEE1FFF1FA21724
S1134070B307E407F50720F0A21BB30BE40BF50B21
S1134080661F771F881F991F1A9469F760957095AA
S1134090809590959B01AC01BD01CF010895629F6D
S11340A0D001739FF001829FE00DF11D649FE00D2C
S11340B0F11D929FF00D839FF00D749FF00D659F8D
S11340C0F00D9927729FB00DE11DF91F639FB00D8C
S11340D0E11DF91FBD01CF01112408952F923F92D4
S11340E04F925F926F927F928F929F92AF92BF9204
S11340F0CF92DF92EF92FF920F931F93CF93DF93B0
S1134100CDB7DEB7CA1BDB0B0FB6F894DEBF0FBE0C
S1134110CDBF09942A88398848885F846E847D8459
S11341208C849B84AA84B984C884DF80EE80FD805B
S11341300C811B81AA81B981CE0FD11D0FB6F894D1
S1134140DEBF0FBECDBFED010895FB01DC0104C04D
S11341508D910190801921F441505040C8F7881B7B
S1134160990B0895DC0101C06D9341505040E0F774
S11341700895A2E0B0E0EFEBF0E20C947E20FE01A3
S1134180379661917191FA83E983AF018091B0040C
S11341909091B1040E94D020E2E022960C949A20DF
S11341A0ABE0B0E0E6EDF0E20C9470203C014B0192
S11341B06A01FC0117821682838181FD03C08FEF9F
S11341C09FEFDAC1F3013381F40133FD859133FFAD
S11341D081914F01882309F4CCC1853239F433FD30
S11341E0859133FF81914F01853229F4B3019927D9
S11341F00E94D622E7CF00E0442455244AE000324E
S1134200B0F48B3269F08C3228F4803251F083326E
S113421071F40BC08D3239F0803349F4016028C049
S11342200260046025C0086023C0006121C007FD4E
S113423029C0282F20532A3078F406FF06C0549E44
S1134240C0011124522E580E13C0449EC0011124E3
S1134250422E480E00620CC08E3221F406FD89C144
S1134260006406C08C3611F4006802C0883651F42C
S1134270F40133FD859133FF81914F01882309F4C3
S11342806FC0BDCF982F8554833018F0805283308F
S113429038F424E030E0C20ED31E8FE389830FC0CC
S11342A0933631F0933799F0933509F05BC023C00E
S11342B0F6018081898322E030E0C20ED31E7E01A4
S11342C00894E11CF11C51E0A52EB12C12C0F6019A
S11342D0E080F18006FD03C06FEF7FEF02C0652D23
S11342E0772722E030E0C20ED31EC7010E94CB2202
S11342F05C010F7713C0F601E080F18006FD03C076
S11343006FEF7FEF02C0652D772722E030E0C20E09
S1134310D31EC7010E94C0225C01006803FF07C0CE
S11343201BC0B30180E290E00E94D6224A94842DFF
S11343309927A816B906A8F30FC0F70107FD8591C0
S113434007FF81917F01B30199270E94D622411072
S11343504A940894A108B108A114B10471F706C1E4
S113436090E03EC0943611F0993691F507FF0AC0EB
S1134370F601608171818281938124E030E0C20E74
S1134380D31E0DC0F601808191819C01B90188275B
S113439077FD8095982F42E050E0C40ED51E4FE67D
S11343A0B42EB02297FF09C09095809570956195C1
S11343B07F4F8F4F9F4F50E8B52A8E010F5F1F4FDD
S11343C02AE030E0A8010E940323A82EA01A4DC0C1
S11343D0953731F43FEEF32EF0222AE030E023C08B
S11343E029EFF22EF0229F3661F0903720F49835B1
S11343F009F0BFC012C0903739F0983709F0B9C03E
S113440005C028E030E00FC080E1F82AF4FE02C0C5
S113441094E0F92A20E130E006C0F4FE02C0E6E0B0
S1134420FE2A20E132E0F7FE0AC0F60160817181C4
S11344308281938144E050E0C40ED51E0BC0F60186
S113444080819181AC01BA0188279927E2E0F0E0EC
S1134450CE0EDF1E8E010F5F1F4FA8010E940323A3
S1134460A82EA01A8FE7B82EBF20B6FE10C0FEEF0C
S1134470BF22A51460F42B2D332724FF1AC022FF7A
S113448002C0052D09C02FEEB222052D01C00A2D50
S11344902B2D332724FF0EC0FE01EA0DF11D808170
S11344A0803319F439EEB32209C00F5F22FF06C02E
S11344B004C0052D822F867809F00F5FEB2CFF24B2
S11344C0E3FC14C0E0FE0FC0041510F05A2C0BC01E
S11344D0542C501A5A0C042D06C0B30180E290E00B
S11344E00E94D6220F5F0415C0F304C0041510F413
S11344F0401A01C04424E4FE10C0B30180E390E0FC
S11345000E94D622E2FE1EC0E1FE03C088E590E0D0
S113451002C088E790E0B3010CC08E2D867891F03C
S1134520E1FE02C08BE201C080E2B7FC8DE2B30180
S113453099270E94D62206C0B30180E390E00E942E
S1134540D6225A94A514C0F3AA94FE01EA0DF11DD3
S11345508181B30199270E94D622AA2039F0F4CF91
S1134560B30180E290E00E94D6224A944420C1F72D
S113457029CEF30186819781E0E12B960C948C205F
S1134580FC010590615070400110D8F7809590951A
S11345908E0F9F1F0895FC0161507040019001101F
S11345A0D8F7809590958E0F9F1F08950F931F93B2
S11345B0CF93DF938C01EB018B81992781FF1BC083
S11345C082FF0DC02E813F818C819D812817390780
S11345D064F4E881F9810193F983E88306C0E885EE
S11345E0F985802F0995892B31F48E819F8101965D
S11345F09F838E8302C00FEF1FEFC801DF91CF911D
S11346001F910F910895FA01AA27283051F1203102
S113461081F1E8946F936E7F6E5F7F4F8F4F9F4F52
S1134620AF4FB1E03ED0B4E03CD0670F781F891F94
S11346309A1FA11D680F791F8A1F911DA11D6A0F62
S1134640711D811D911DA11D20D009F468943F9115
S11346502AE0269F11243019305D3193DEF6CF0114
S11346600895462F4770405D4193B3E00FD0C9F7DA
S1134670F6CF462F4F70405D4A3318F0495D31FD47
S11346804052419302D0A9F7EACFB4E0A69597959A
S1134690879577956795BA95C9F700976105710570
S11346A008959B01AC010A2E0694579547953795BA
S11346B02795BA95C9F7620F731F841F951FA01D14
S10746C00895FFCF87
S11346C4284E4F444520257529203A204D656E73A4
S11346D46167656D2047455420726563656269644A
S11346E4612064652025752E0A00284E4F44452018
S11346F4257529203A204D656E736167656D2053D5
S1134704455420726563656269646120646520258B
S1134714752E0A00284E4F444520257529203A2039
S1134724496E696369616C697A616E646F20464697
S113473444202E2E2E0A000100FFFFFFFF01002259
S1134744FFFFFF0101FF7F02B3027F0200000002AA
S10D475400000000040C0000000047
S9030000FC
