S01800006275696C642F6D6963617A2F6D61696E2E73726563E5
S11300000C9461010C9491070C949B070C94A50724
S11300100C94AF070C94B9070C94C3070C948B0D84
S11300200C94CD070C9480010C9480010C94901DC9
S11300300C94C2110C945B070C9471070C945B0C28
S11300400C944A070C94F6130C9494090C948001B4
S11300500C94100A0C9480010C9480010C9480017F
S11300600C9466070C94630B0C94420B0C944D0B8C
S11300700C94580B0C94760B0C94250B0C94800167
S11300800C94370B0C9480010C9480018914D414C3
S1130090DA142B1546154C1585154016631677167C
S11300A0A918DC182919791478198114A919BD190A
S11300B09F1AB01AB21AB51AE61A081B00002110CA
S11300C0422063308440A550C660E77008812991BE
S11300D04AA16BB18CC1ADD1CEE1EFF13112100266
S11300E073325222B5529442F772D662399318830E
S11300F07BB35AA3BDD39CC3FFF3DEE36224433432
S113010020040114E664C774A44485546AA54BB55D
S113011028850995EEE5CFF5ACC58DD55336722605
S113012011163006D776F6669556B4465BB77AA7AD
S113013019973887DFF7FEE79DD7BCC7C448E55851
S11301408668A7784008611802282338CCC9EDD9FD
S11301508EE9AFF9488969990AA92BB9F55AD44AA5
S1130160B77A966A711A500A333A122AFDDBDCCB4D
S1130170BFFB9EEB799B588B3BBB1AABA66C877C71
S1130180E44CC55C222C033C600C411CAEED8FFD9D
S1130190ECCDCDDD2AAD0BBD688D499D977EB66E45
S11301A0D55EF44E133E322E511E700E9FFFBEEFED
S11301B0DDDFFCCF1BBF3AAF599F788F8891A981AF
S11301C0CAB1EBA10CD12DC14EF16FE18010A10099
S11301D0C230E3200450254046706760B983989389
S11301E0FBA3DAB33DC31CD37FE35EF3B1029012E9
S11301F0F322D2323542145277625672EAB5CBA555
S1130200A89589856EF54FE52CD50DC5E234C32438
S1130210A01481046674476424540544DBA7FAB728
S11302209987B8975FE77EF71DC73CD7D326F23688
S11302309106B01657667676154634564CD96DC974
S11302400EF92FE9C899E9898AB9ABA944586548D8
S113025006782768C018E1088238A3287DCB5CDBC8
S11302603FEB1EFBF98BD89BBBAB9ABB754A545A28
S1130270376A167AF10AD01AB32A923A2EFD0FED94
S11302806CDD4DCDAABD8BADE89DC98D267C076C78
S1130290645C454CA23C832CE01CC10C1FEF3EFF68
S11302A05DCF7CDF9BAFBABFD98FF89F176E367EC8
S11302B0554E745E932EB23ED10EF01E00081C18EB
S11302C0141011241FBECFEFD0E1DEBFCDBF12E06A
S11302D0A0E0B1E0EEE2F8E400E00BBF02C007905A
S11302E00D92A838B107D9F715E0A8E8B2E001C02B
S11302F01D92A23AB107E1F70E94431B0C94162405
S11303000C9400008FB7F894992708958FBF08952F
S1130310282F9FB7F894E82FFF27E753FD4F8081DC
S11303208F3F81F4E0919605E21771F40BC020939E
S1130330500504C0FF27E753FD4F20832093960503
S113034020E007C025E005C0809150058F3F91F75C
S1130350EECF892F99278FBF822F992708951F9356
S11303601FB7F89480919205882341F481E10E949B
S11303708801882319F481E080939205812F9927BD
S11303808FBF1F910895382FFA01422F2D3118F095
S113039082E090E008956683872F992785833387C9
S11303A0218780919A0290919B02892B19F085E014
S11303B090E008952FB7F894332785E080939D0249
S11303C010929E02F0939902E093980282E090E0EA
S11303D090939B0280939A021092A00210929F0223
S11303E0445F40939C022FBF8FB7F894282F332784
S11303F08091D8038A3011F42FBF19C02FBF9FB743
S1130400F89480914A03882311F020E006C081E02B
S113041080934A0310924B0321E0892F99278FBFC1
S1130420222329F00E94AF0180E090E00895109209
S11304309B0210929A0281E090E00895CF93DF939B
S1130440DB01FB0135968183892F9927EB018D838D
S113045084E686838091190590911A05892B19F0F9
S113046085E090E029C070931A05609319054483D0
S113047080917202882319F480E090E01DC0868187
S1130480EB016D817727762F662721813327622B35
S1130490732B10927202242FAD010E94C30199277D
S11304A0282F882339F081E08093720210921A0574
S11304B010921905822F9927DF91CF910895CF9338
S11304C0DF9310927202A0911905B0911A0510974A
S11304D021F08091320380FF08C081E08093720292
S11304E017C080E10E94880113C0FD013596248164
S11304F03327ED016D817727762F66278181992730
S1130500682B792BAD0186810E94C301882349F7AA
S1130510DF91CF9108958091D8038A3021F480919E
S1130520ED02843021F081E080939502089583E107
S11305300E9488011092950208952FB7F8943327EA
S11305408CB95E9A2FBF0895FC016115710519F4E9
S113055081E090E008958091420390914303892BB8
S113056019F085E090E008957093F3046093F20429
S1130570F0934303E09342031092EF021092EE02D1
S113058081E08093F0025E9A569A808121E030E007
S11305903093EF022093EE020E949D0280E090E0EF
S11305A008958FB7F89499272091A6022E7F20935F
S11305B0A6022EE72093E4028FBF61E070E084EE90
S11305C092E00E94A40299270895FC018281992750
S11305D0582F442781819927482B592BCA01892FE9
S11305E0992786958695837090708230910559F08D
S11305F08330910559F0892B19F420E030E008C0CC
S11306002CE93FEF05C022E030E002C028E030E0F2
S1130610CA0184E0989F812D992711248230910585
S113062059F08330910559F0892B19F480E090E05A
S113063008C08CE99FEF05C082E090E002C088E02A
S113064090E0280F391F2A5F3F4FCF01820F931F7D
S11306500895282F9FB7F894662349F0E82FFF27C1
S1130660E052FC4F8081882311F021E006C0E22F84
S1130670FF27E052FC4F608320E0892F99278FBF2A
S1130680822F99270895E82F8FB7F894282F3327BE
S113069090E0FF27E052FC4F8081861709F491E037
S11306A02FBF892F99270895882311F06E9A0895F2
S11306B06E980895882311F06F9A08956F9808959D
S11306C080E00E945403BA9ABB98B99AB89A6C9A7B
S11306D080E00E945A036B986A9881E00E94540358
S11306E0709A8DB18C7F8DB908950F931F93CF931A
S11306F0DF93182F8FB7F894C82FDD270C2F61E0F4
S113070080E00E942903882321F0CFBF85E090E098
S113071024C080916A028823A1F480918E028230E1
S113072081F409C082E080938E0210926A020E94D2
S11307306003B89AC0981093670280E00FBF9927AE
S11307400CC080918E02882369F38FB7F89499279F
S11307501092E0038FBF81E0F1CFDF91CF911F9121
S11307600F9108951F93182F81E00E9454031FB91D
S1130770779BFECF8FB199271F9108958F929F92F7
S1130780AF92BF92CF92DF92EF92FF920F931F939B
S1130790CF93DF938FB7F8949927C0905A05D090E0
S11307A05B058090D5039090D603C0915903D091F6
S11307B05A032091AD023091AE02EAE0AE2EB12C84
S11307C0AC0EBD1E2A153B0508F459018FBF7401F8
S11307D0EC0EFD1E86010C0F1D1F14C0C114D104A4
S11307E019F0F801808101C080E00E94B2038114F5
S11307F0910411F0F701808321960894E11CF11C07
S11308000F5F1F4FC5010197C817D90738F381E05F
S11308100E945A039FB7F894C114D10431F0CC0E4E
S1130820DD1EF60180818FB901C01FB8D0935A0331
S1130830C0935903892F99278FBF80E090E0DF91FF
S1130840CF911F910F91FF90EF90DF90CF90BF90C9
S1130850AF909F908F9008952FB7F89433275093BB
S1130860AE024093AD0290935B0580935A0570935A
S1130870D6036093D50310925A03109259032FBFE5
S1130880452B29F08FB10E94BE039927089587E074
S11308900E94880180E090E008958FB7F89499272A
S11308A01092E2038FBF08957FB7F89462B7209146
S11308B0B0023091B1024091B2025091B30206B637
S11308C001FE0FC081B792B7280F311D411D511D84
S11308D02F5F3F4F4F4F5F4F290F311D411D511D5A
S11308E004C0260F311D411D511D872F99278FBF2D
S11308F0CA01B9010895EF92FF920F931F93E091FB
S11309006C03E1FF2BC02091640330916503409197
S1130910660350916703E0906803F09069030091C7
S11309206A0310916B03621B730B840B950B6E159A
S11309307F058007910790F0E0FF04C0ED7FE0930E
S11309406C030CC02E0D3F1D401F511F20936403E8
S11309503093650340936603509367038BE00E94D2
S113096088011F910F91FF90EF900895DF92EF920D
S1130970FF920F931F938FB7F894282F3327D22E0B
S113098091B782B746B7981711F041FF02C02FBF45
S11309906AC0809150038823E1F10E945404E090DE
S11309A0DC03F090DD030091DE031091DF0320915E
S11309B0C2023091C3024091C4025091C5026E1923
S11309C07F09800B910B621773078407950720F04A
S11309D01092500371E01EC02E0D3F1D401F511F89
S11309E08091B0029091B102A091B202B091B30291
S11309F0281B390B4A0B5B0B273E3105410551057A
S1130A0040F4822F223010F070E005C070E082E0E4
S1130A1002C070E086EE682F615000B601FCFDCF85
S1130A2082B7681709F46F5F2091B0023091B10268
S1130A304091B2025091B302DA01C9010196A11D9D
S1130A40B11D860F911DA11DB11D82179307A40727
S1130A50B50710F4622F609561BFDFBE772319F0EC
S1130A608AE00E9488011F910F91FF90EF90DF9020
S1130A700895AFB7F894BB27E1E0E0935003609387
S1130A80DC037093DD038093DE039093DF032093F4
S1130A90C2023093C3024093C4025093C502AFBF55
S1130AA00E94B604089580E88093C6021092EC0276
S1130AB01092540510924F051092E8020895CF93B6
S1130AC0DF93FC0115A6DC019E96ED011B821A82C0
S1130AD0198280E886A7DF91CF9108952F923F92E3
S1130AE04F925F926F927F928F929F92AF92BF923A
S1130AF0CF92DF92EF92FF920F931F93CF93DF93E6
S1130B00CDB7DEB728970FB6F894DEBF0FBECDBFC2
S1130B1020902B0330902C0340902D0350902E03F3
S1130B20662477248824BEE4AB2EA3E8BA2ECC2412
S1130B30DD24EE24FF2400E010E0222D332D442D8B
S1130B40552D662D772D882D90E00E942E1F298328
S1130B503A834B835C836D837E838F839887822E55
S1130B60932EA42EB52E2401350100E20E942C20E0
S1130B70A22EB32EC42ED52EC301B201969587950D
S1130B80779567956A0D7B1D8C1D9D1D97FF05C08C
S1130B909F776F5F7F4F8F4F9F4F60932B037093AF
S1130BA02C0380932D0390932E0328960FB6F8946C
S1130BB0DEBF0FBECDBFDF91CF911F910F91FF908C
S1130BC0EF90DF90CF90BF90AF909F908F907F90E9
S1130BD06F905F904F903F902F9008958FB7F89447
S1130BE060915D0370915E032CB53DB506B602FEBF
S1130BF004C06F5F7F4F2CB53DB599278FBF882701
S1130C009927CB017727662744275527622B732B17
S1130C10842B952B0895EF92FF920F931F930E94BC
S1130C20EE057B018C0120913A0330913B03409106
S1130C303C0350913D038091340390913503A0917E
S1130C403603B0913703820F931FA41FB51FE2161A
S1130C50F3060407150730F082179307A407B507B6
S1130C6058F005C082179307A407B507E0F5E81606
S1130C70F9060A071B07B8F59C01AD012E193F09B7
S1130C80400B510B213060E8360760E0460760E016
S1130C90560768F180E090E8A0E0B0E0E80EF91EA5
S1130CA00A1F1B1FE0923A03F0923B0300933C039C
S1130CB010933D0380E090E8AFEFBFEFE80EF91E1C
S1130CC00A1F1B1F205030484040504020933403DB
S1130CD030933503409336035093370320E030E8D4
S1130CE040E050E014C020E030E040E050E0809369
S1130CF03A0390933B03A0933C03B0933D031092BB
S1130D003403109235031092360310923703A9016D
S1130D10B7012CB53DB5C9018E199F0903968417F7
S1130D20950720F0B9016D5F7F4F02C0640F751FF6
S1130D306115710511F461E070E0615070407BBD94
S1130D406ABD80E186BF87B7806187BF1F910F911D
S1130D50FF90EF9008950F931F930FB7F894112706
S1130D6060933A0370933B0380933C0390933D0359
S1130D702093340330933503409336035093370361
S1130D800E940B060FBF1F910F910895CF92DF921F
S1130D90EF92FF920F931F93CF93DF938C01F62E64
S1130DA06A01E22E8FB7F894C82FDD2760E080E057
S1130DB00E944303882321F0CFBF80E090E01EC04F
S1130DC0CFBF0F0D111D802F80680E94B203F82E33
S1130DD016950795802F807C0E94B2030E2D0AC0C1
S1130DE0EE2DFF27E01BF109EC0DFD1D80810E9413
S1130DF0B20301500023A1F78F2D9927DF91CF91E2
S1130E001F910F91FF90EF90DF90CF90089597B7C7
S1130E109F7D97BF90E296BF882319F08EB58064BA
S1130E2002C08EB58F7B8EBD87B7806287BF80E09E
S1130E3090E00895AF92BF92CF92DF92EF92FF922B
S1130E400F931F93CF93DF93CDB7DEB728970FB6D9
S1130E50F894DEBF0FBECDBF20E070E0E0916502E4
S1130E60F091660232E14DE65CE46FE48091660243
S1130E709E2F28960FB6F894DEBF0FBECDBFDF912C
S1130E80CF911F910F91FF90EF90DF90CF90BF9083
S1130E90AF9008951F920F920FB60F9211248F9363
S1130EA083B783BF00B600FCFDCF8F910F900FBEB8
S1130EB00F901F90189578941F920F920FB60F926F
S1130EC011240F900FBE0F901F90189578941F92C5
S1130ED00F920FB60F9211240F900FBE0F901F9018
S1130EE0189578941F920F920FB60F9211242F9396
S1130EF03F938F939F932FB7F894332780915D038B
S1130F0090915E03019690935E0380935D032FBFDF
S1130F109F918F913F912F910F900FBE0F901F9033
S1130F2018951F920F920FB60F9211240F900FBEB7
S1130F300F901F9018951F920F920FB60F921124C5
S1130F400F900FBE0F901F9018951F920F920FB61F
S1130F500F9211240F900FBE0F901F9018951F929F
S1130F600F920FB60F9211240F900FBE0F901F9087
S1130F7018951F920F920FB60F9211240F900FBE67
S1130F800F901F9018951F920F920FB60F92112475
S1130F900F900FBE0F901F9018951F920F920FB6CF
S1130FA00F9211240F900FBE0F901F901895ECEB29
S1130FB0F0E06927660FF11DE60FF11DC895982F23
S1130FC0802D3196C89590250895982F8091A1027F
S1130FD0882389F5992379F531E03093A102809132
S1130FE073028093A20220919602822F81708093D3
S1130FF0C70280917802909179029093A402809321
S1131000A302809197028093A50232273170267E35
S1131010E32FFF27EE0FFF1FEC58FD4F80819181D6
S11310209093790280937802232B2093960286E191
S11310300E94880108958091960280FF02C08B7FF0
S113104001C08D7F8093960208950F931F93082FFC
S1131050162F8091ED028130D9F0813038F0823042
S113106009F44AC0833009F028C159C0002309F4A7
S113107058C11092EC041092EB041092DA0310920F
S1131080F404109225031092600310925F0339C197
S1131090002309F046C180915F03909160030E9490
S11310A0D7079093600380935F0382E08093ED02FF
S11310B01093F404143409F000C125C18695869573
S11310C003C0809196028695817009F0F6C08091E4
S11310D09602992311F0846001C082608093960285
S11310E080919602877E8860809396021092970280
S11310F08FEF8093730215C1002309F0DEC0609363
S1131100250380915F03909160030E94D707909319
S1131110600380935F0383E08093ED0202C18091BA
S1131120DA038F3F09F4C9C0002309F461C0823097
S113113008F4C3C0E091EB04EE2309F4EBC04E2F96
S11311404150E42FFF27E551FB4F82819927382F27
S11311502227442311F4E2E002C0E42FE150FF27E8
S1131160E551FB4F82819927282B392B80915F030E
S1131170909160032817390709F09FC080E00E940E
S1131180E507309125038091510320915203982F54
S11311909F5F963008F090E0921771F0E82FFF27D8
S11311A0EF5AFC4F32838F5F80935103863010F0E7
S11311B0109251030E94AF011092EC041092EB04C0
S11311C094E09093ED021092DA031092F4041092DA
S11311D025031092600310925F038091A6028D7F15
S11311E08093A60280919502882309F49AC084C052
S11311F0823008F44EC0E091EC04FF27E551FB4F28
S11312008281482F5527342F20919602822F86956C
S113121086958695837099278130910519F00297F8
S1131220F9F40EC0277E206120939602442311F422
S113123085E001C080E0809397023093730210C070
S113124080919702843360F4E0917802F0917902FE
S1131250E80FF11D4083809197028F5F809397027E
S11312608091EC04E82FFF27E551FB4F62818F5FEB
S11312708093EC04833010F01092EC047727809173
S11312805F03909160030E94D7079093600380935B
S11312905F038091EB04E82FFF27E551FB4F128396
S11312A08F5F8093EB04833010F01092EB048091F5
S11312B0DA038F5F8093DA0334C01092EC04109247
S11312C0EB0414E01093ED021092DA031092F4048C
S11312D0109225031092600310925F038091A6027E
S11312E08D7F8093A60281E00E94E507809195029C
S11312F0882329F01093ED020E948B0212C0002370
S113130081F081E009CF80919602982F917080FD41
S1131310D5CED7CE8091EF049927382F222742E0EB
S11313201CCF1F910F9108951F920F920FB60F9229
S113133011242F933F934F935F936F937F938F93D6
S11313409F93AF93BF93EF93FF935F9B3DC06CB1AB
S1131350E0916103F09162033097F9F08091900578
S113136090919105E80FF91F608301969093910580
S11313708093900520919A0530919B0582179307DD
S113138018F110926203109261038091D7038330A5
S1131390D9F057981092D70317C06E3719F460E04C
S11313A081E010C08091A6026D3721F482608093A1
S11313B0A6020AC081FF05C08D7F8093A60280E249
S11313C0682780E00E942508FF91EF91BF91AF91BB
S11313D09F918F917F916F915F914F913F912F9149
S11313E00F900FBE0F901F901895982F8D57823035
S11313F068F48091A60281608093A60280E2892726
S11314008093D9038DE78093E40202C09093E402B1
S113141061E070E084EE92E00E94A40299270895AE
S113142078941F920F920FB60F921124FF920F938C
S11314301F932F933F934F935F936F937F938F9358
S11314409F93AF93BF93CF93DF93EF93FF93209139
S1131450EE023091EF028091F2049091F304281788
S1131460390780F4E0914203F0914303E20FF31F44
S113147080812F5F3F4F3093EF022093EE020E9452
S11314809D02CDC010924303109242031092F002C9
S11314905698FFB6F8948091A60280FF0EC08E7F06
S11314A08093A6028091D9038093E40261E070E006
S11314B084EE92E00E94A402AFC08091D8038430ED
S11314C009F48CC0853040F4823021F18330B8F5C2
S11314D0813009F09CC00DC0863009F48DC086307F
S11314E008F483C0873009F48EC0883009F08FC0B7
S11314F091C0809139030E94F509082F83E08093FD
S1131500D8036091390380919805909199050E94C0
S1131510D70710C0809153050E94F509082F83E076
S11315208093D80360915305809198059091990513
S11315300E94D707909399058093980566C0E0911F
S11315406303FF27EE0FFF1FE75BFC4F80810E94C0
S1131550F509082F10916303C12FDD27FE01EE0F5B
S1131560FF1FE75BFC4F608180919805909199057E
S11315700E94D7079093990580939805209133038F
S11315802F5F20933303113039F580919D02E09150
S11315909802F0919902E80FF11DE0818F5F80932A
S11315A09D0290919C02981730F482E080934A0344
S11315B040E050E002C04E2F5527DE01AA0FBB1FAA
S11315C0FD01E85BFC4F8081823031F02F3F21F038
S11315D0A75BBC4F4C9319C084E012C0809198055E
S11315E00E94F509082F85E00BC0809199050E949F
S11315F0F509082F86E004C00E94D102082F87E075
S11316008093D80302C088E003C0002329F089E056
S11316108093D8030E94AF018F2D99278FBFFF912C
S1131620EF91DF91CF91BF91AF919F918F917F9176
S11316306F915F914F913F912F911F910F91FF9067
S11316400F900FBE0F901F9018951F920F920FB618
S11316500F9211248F9380919B0087FF02C0809189
S11316609C008F910F900FBE0F901F901895789447
S11316701F920F920FB60F9211240F900FBE0F906E
S11316801F90189578941F920F920FB60F92112401
S11316900F900FBE0F901F90189578941F920F9281
S11316A00FB60F9211240F900FBE0F901F90189534
S11316B078941F920F920FB60F9211240F900FBEC1
S11316C00F901F90189578941F920F920FB60F9257
S11316D011248F939F9380918000909181009F911A
S11316E08F910F900FBE0F901F90189578941F92B2
S11316F00F920FB60F9211242F933F938F939F93C2
S11317002FB7F894332780913003909131030196D9
S113171090933103809330032FBF9F918F913F911A
S11317202F910F900FBE0F901F9018958091A902D2
S11317308C3118F04CE150E002C0482F55278CE161
S1131740E8E6F5E011928A95E9F79091A902809173
S1131750A70220E030E0A8E6B5E00FC0E82FFF279D
S1131760EF50FC4FE081992329F08F5F8A3F09F401
S113177080E09150ED932F5F3F4F2417350771F7A9
S11317809093A9028093A7024CE16CE575E08FEF7A
S11317909FEF0E941E02882319F087E10E948801AE
S11317A008958FB7F894282F33278091AA028130A7
S11317B021F42FBF80E090E0089590E08091A90289
S11317C0882309F491E0992321F02FBF81E090E070
S11317D0089581E08093AA022FBF0E94960B80E0B7
S11317E090E008951F93182F8091AA02882349F44A
S11317F08091A9028D3728F081E08093AA020E948B
S1131800960B8FB7F894282F33279091A9029A3F0B
S1131810A8F48091A802E82FFF27EF50FC4F108313
S11318208F5F8093A8028A3F11F41092A8029F5FF1
S11318309093A9022FBF80E090E003C02FBF8FEFE9
S11318409FEF1F910895CF93DF93CDB7DEB72C9709
S11318500FB6F894DEBF0FBECDBF8FB7F894282F14
S1131860AE014F5F5F4FDA01E6EEF3E088E00190EE
S11318700D928150E1F78091260390912703898787
S1131880892F99278A8780913E0390913F038B8704
S1131890892F99278C872FBF2CE060E080E691E0A8
S11318A00E94C6062C960FB6F894DEBF0FBECDBFBD
S11318B0DF91CF9108951F920F920FB60F921124CA
S11318C02F933F934F935F936F937F938F939F9344
S11318D0AF93BF93EF93FF9383B783BF00B600FC2E
S11318E0FDCF81B799270196AA27BB272091B00283
S11318F03091B1024091B2025091B302280F391FC6
S11319004A1F5B1F2093B0023093B1024093B2028E
S11319105093B30278940E94B604FF91EF91BF9163
S1131920AF919F918F917F916F915F914F913F9173
S11319302F910F900FBE0F901F901895662351F4AE
S11319408091A902882319F00E94960B08951092A1
S1131950AA02089587E10E94880108950F931F93B6
S1131960182F0FB7F89461E080E00E9429038823C0
S113197071F51093670280916A028823A9F580911A
S11319808E02823089F586E00CC00E94600380914B
S11319908E02882349F481E080938E021092E9023A
S11319A088E00E9488012AC0809138038F3F31F576
S11319B0E0916902EE2311F11CC01092680204C088
S11319C0FF27E85CFC4F10821092690217C081E087
S11319D090E002C0880F991F1A95E2F720918D02BA
S11319E0282B20938D020AC080918E028823E1F671
S11319F0CCCF809168028F3F19F7DFCF802F9927D2
S1131A008FBF80E090E01F910F9108951F9383E0B2
S1131A100E9475039927182F882319F083E00E94E8
S1131A20AE0C812F99271F9108951F93CF93DF93B5
S1131A30182F8FB7F894C82FDD2760E080E00E944C
S1131A404303882321F0CFBF80E090E005C0CFBFDF
S1131A50812F0E94B2039927DF91CF911F9108959E
S1131A60EF92FF920F931F93CF93DF93182F7B0175
S1131A70042F8FB7F894C82FDD2760E080E00E9420
S1131A804303882321F0CFBF80E090E014C0CFBF90
S1131A901064812F992790934503809344030E94F7
S1131AA0B203182F402F5527B70180E090E00E9421
S1131AB02C04812F9927DF91CF911F910F91FF90D3
S1131AC0EF900895C0986091AB027091AC0241E030
S1131AD08FE30E94300D089582E090E09093E2023B
S1131AE08093E10281E08093EC0220E030E0809179
S1131AF06702843011F421E030E0232B29F484E0E0
S1131B000E947503882319F40E94620D089584E0ED
S1131B100E94AE0C08951F920F920FB60F921124DB
S1131B202F933F934F935F936F937F938F939F93E1
S1131B30AF93BF93EF93FF938091E1029091E20200
S1131B40019749F482E090E09093E2028093E102ED
S1131B500E946C0D05C08091E8028F5F8093E802BB
S1131B60FF91EF91BF91AF919F918F917F916F9171
S1131B705F914F913F912F910F900FBE0F901F9047
S1131B8018951F9380918D02882309F04BC0109102
S1131B9067021F3F09F046C060E00E9443038823A8
S1131BA009F440C081E08093EF038091C802882348
S1131BB0E1F11092EF0385E090E045C0923069F5C1
S1131BC0C09A8091680220E030E08F3F11F421E058
S1131BD030E0232BE9F410936A028F3F19F42FEFBE
S1131BE030E00DC0282F3327F901E85CFC4F8081D9
S1131BF0809368028F3F11F410936902108320933D
S1131C00E90281E080938E0288E00E94880105C089
S1131C1010936A0210928E0211C080918E02882362
S1131C2069F00FC081E090E00EC080916A0290914B
S1131C308E02882319F2923021F0EFCF80E00E94C7
S1131C40540380E090E01F9108951F93CF93DF9396
S1131C509FB7F894C92FDD271C2F9091670298171E
S1131C6021F0CFBF81E090E03AC08FEF809367020C
S1131C7030918D023323F1F48FB7F89499271092A1
S1131C80E0038FBF0E94C10DCFBF11C02093670234
S1131C9081E090E002C0880F991F4A95E2F7809591
S1131CA0382330938D0286E00E9488011FBF80E0B4
S1131CB090E015C080E065E0E32FFF270E94AF208D
S1131CC0292F492F5527CF01042E02C095958795BA
S1131CD00A94E2F780FDDACF822F8F5FEFCFDF9196
S1131CE0CF911F9108951F93CF93DF938FB7F894EB
S1131CF0C82FDD271C2F8091E1029091E202892BED
S1131D0029F484E00E94250ECFBF1EC01092EC027D
S1131D108091E802882311F0B79904C00E9908C095
S1131D20882319F081508093E8020E946C0D0BC047
S1131D3081E090E09093E2028093E1021092E80245
S1131D4084E00E94250E1FBFDF91CF911F9108955B
S1131D500E945305C09AC09888E00E94150D88E03F
S1131D600E94150DC09A84E00E94250E0E94730EF5
S1131D700895FF920F931F93CF93DF93F82E8B0157
S1131D808FB7F894C82FDD2760E080E00E944303FA
S1131D90882321F0CFBF80E090E00CC0CFBF8F2D0F
S1131DA00E94B203812F99270E94B203802F0E94C0
S1131DB0B2039927DF91CF911F910F91FF9008955E
S1131DC01F931FB7F8948091E702882319F460E009
S1131DD070E009C060E080915905882309F461E04E
S1131DE081E06827772780912803882319F480E00D
S1131DF090E00AC090E08091E503882309F491E023
S1131E0081E09827892F9927762F6627770F770FF8
S1131E10770FE4E0880F991FEA95E1F7826E9262EA
S1131E20682B792B81E10E94B90E812F99278FBFEE
S1131E301F9108958FB7F89499276091EE038FBF8F
S1131E4085E0689FB0011124625D7E4F706488E173
S1131E500E94B90E0895EF92FF921F93CF93DF93E0
S1131E60E0902903F0902A03F70182A59927182FFF
S1131E70882309F41FE1C0988091E602811749F094
S1131E80612F77276F717070606E706885E10E94B2
S1131E90B90E1093E602F70110818FB7F894C82F9A
S1131EA0DD2760E080E00E944303882311F0CFBF68
S1131EB012C0CFBF8EE390E0909345038093440318
S1131EC08EE30E94B2031150412F552760E070E069
S1131ED0C7010E942C04DF91CF911F91FF90EF90D6
S1131EE008950F931F93CF93DF93EC010FB7F894EA
S1131EF011270E94E502FC018FE380830FBF10923B
S1131F0057051092560561E082E00E942903882358
S1131F1019F085E090E072C08091F0038F5F8093A8
S1131F20F00381508B838FB7F894082F112762E058
S1131F3081E00E944303882329F40FBF0E944D04CB
S1131F4081E05BC08FB7F894992724E02093E103E4
S1131F508FBFD0934F03C0934E030FBFFE01319642
S1131F60818129819927982F88273327822B932BC6
S1131F7080729C7C8983892F992781832981982F5A
S1131F80882733272164822B932B8983892F9927D0
S1131F9081831CA618A619A619AA18AA1FA680E848
S1131FA08EA761E06093E40340914E0350914F0388
S1131FB08FB7F894282F332780918F029091900245
S1131FC08830910511F0019711F02FBF15C082E000
S1131FD090E09093900280938F02609397055093C2
S1131FE02A03409329031092AF022FBF0E94060DCB
S1131FF0882311F40E942B0F80E09927DF91CF9161
S11320001F910F910895CF93DF93DA01422F2D3161
S113201018F082E090E05EC0ED018B876E83872F1D
S113202099278F832FB7F8943327809126039091B3
S113203027032FBFFD018483892F992785832FB719
S1132040F894332780916B0290916C022FBF88879C
S1132050892F992789873196818129819927982FFA
S11320608827332720643868822B932B8983892F10
S113207099278183435F4C934D5080916E0288234E
S113208059F010926E02642FCD010E94710F9927AE
S1132090282F8823A9F417C0842F992790934D03E0
S11320A080934C03B0939402A09393028CE00E941B
S11320B0880180916E02882349F489E090E00AC087
S11320C08FEF80936E02822F992704C010922F0302
S11320D080E090E0DF91CF91089541EF52E08FEFDF
S11320E08093F7028093F80286E08093FC0280914B
S11320F05B0390915C03892B19F550935C03409327
S11321005B0383E18093F102809171028823A9F03B
S11321101092710226E06FEF7FEF86E00E940310B9
S11321209927282F882349F081E080937102109227
S11321305C0310925B03222319F481E080938802EC
S113214008951F93CF93DF93182FEB01E82FFF27F8
S1132150EE0FFF1FE55AFC4F11821082109271029C
S1132160E0915B03F0915C03309721F08091550579
S113217080FF0FC081E08093710203C08EE00E9453
S113218088011123C1F4C15FD240A9F410928802DE
S113219012C020812D50332767817727762F662739
S11321A086819927682B792BAF0183850E940310C0
S11321B0882339F3E3CFDF91CF911F9108959B01D9
S11321C080917102882349F460915B0370915C03F0
S11321D06217730711F40E94A11008951F93182F1A
S11321E081E090E09093900280938F021092C80255
S11321F00E94C10D8FB7F8949927109389028FBF5D
S113220082E00E9488011F91089561E081E00E94AC
S113221029038823E9F48FB7F894282F3327809172
S11322208A0290918B02892B11F02FBF20C081E08C
S113223090E090938B0280938A022FBFDD9A0E94D4
S1132240EE0524E130E040E050E00E94AB060FC010
S113225062E081E00E944303882319F089E090E062
S1132260089561E081E00E944303882319F080E02F
S113227090E0089585E090E00895CF92DF92EF9288
S1132280FF920F931F93CFB6F894DD240E946E053E
S1132290DC01CB0166E470E00E94BB201BE0E12E70
S11322A0F12CE80EF91EF0929405E09293050E9439
S11322B0EE0500271127A80197010E94AB06CFBEA7
S11322C01F910F91FF90EF90DF90CF9008951F938F
S11322D0CF93DF938FB7F894C82FDD271C2F8091FD
S11322E08F02909190020897C9F489E00E94150D1D
S11322F083E00E94250EC09A81E090E090939002C2
S113230080938F028FB7F894992723E02093890252
S11323108FBF82E00E948801CFBF30C0C0988091F7
S11323209705882311F085E001C084E00E94150D13
S113233083FD09C080E00E94150D83FF04C085E081
S113234090E020E003C083E090E021E090939002CD
S113235080938F02C09A1FBF222341F01092AF02D4
S113236083E00E94250E0E943D1108C00E94EE05E4
S113237020E431E040E050E00E94AB06DF91CF91D1
S11323801F91089578941F920F920FB60F92112403
S11323901F932F933F934F935F936F937F938F93E9
S11323A09F93AF93BF93EF93FF9387B78F7E87BFBE
S11323B078941FB7F8948091340390913503A091D9
S11323C03603B09137030097A105B10509F051C058
S11323D080918F02909190028530910561F1863051
S11323E0910530F48330910549F0049781F51AC0C2
S11323F087309105F1F0089751F514C0869B0FC002
S113240084E090E09093900280938F020E94EE0506
S113241027E030E040E050E00E94AB0618C00E9484
S11324203D1115C00E94060D882389F40E9467118E
S11324300EC080E00AC089E00E94150D81E00E9470
S1132440070783E00E94250E87E00E94EE1080912A
S11324508A0290918B02019771F482E090E090934C
S11324608B0280938A02DE98DE9A80E00E94AE0C92
S113247002C00E940B06812F99278FBFFF91EF9115
S1132480BF91AF919F918F917F916F915F914F9188
S11324903F912F911F910F900FBE0F901F90189591
S11324A0EF92FF920F931F93CF93DF938B01809151
S11324B044039091450386FF40C18F7B8F3309F01D
S11324C08EC1C091AB02D091AC0258815093E3020B
S11324D08091E1029091E2028530910509F443C0B4
S11324E08630910509F48AC0029709F01FC185E07E
S11324F090E09093E2028093E1024091C602852F1E
S113250099270196242F3327281739074CF1B799B7
S113251006C00E9904C0451B41504093C602409129
S1132520E3024A32E8F44423A1F0BE016F5F7F4F17
S1132530483018F047E050E007C086E090E0909300
S1132540E2028093E102552780E090E00E942C048F
S113255046C11092EC02C09A84E00E94250EE3C0AA
S11325600E94A80E3CC186E090E09093E202809322
S1132570E10280912803882309F439C08091E5039E
S11325808823A9F5898185FF32C08F814E812FB7B9
S1132590F894332760913E0370913F032FBF99272E
S11325A0982F88275527842B952B8617970759F042
S11325B08F812E819927982F88273327822B932B5D
S11325C08F5F9F4FA1F489818770813081F4C09A15
S11325D0C0988AE00E94150DC09AC0984091E30209
S11325E047502896BE018FE30E94300DF8C04091F9
S11325F0E302475055272896BE01A6CFC09A809182
S1132600E802882339F484E00E94250E8091E802D0
S1132610882311F0B7990AC00E9B08C090914F050A
S1132620992321F08091E3028B3038F48091AB023E
S11326309091AC020E945F053DC0913001F5E0919C
S11326405405FF27EE0FFF1FEE0FFF1FE750FB4F50
S11326502081318142815381E091AB02F091AC023F
S113266021ABBB27A52F942F832F80ABCA01AA27A8
S1132670BB2787A7252F33274427552726A78091D3
S113268054059927019668E070E00E94CF2080935A
S1132690540580914F05815080934F05882351F054
S11326A08091AB029091AC020E945F051092540598
S11326B010924F058091E302FE01E80FF11D808125
S11326C087FF31C0012B79F169816770E091AB021A
S11326D0F091AC02623019F5A0912903B0912A035C
S11326E0109709F180918F02909190020797D9F485
S11326F0ED019B8183819817B1F487B78F7E87BFE3
S1132700908181E08CA7E90FF11D8291319688A711
S113271080818F7789A780E00E94EE1004C0613029
S113272011F489E02AC00E94730E59C01092EC0281
S1132730C09A84E00E94250E52C08E3309F04FC027
S1132740C09A80918F02909190020897C9F4C09822
S113275089E00E94150DC09A83E00E94250E81E055
S113276090E09093900280938F028FB7F89499270A
S113277023E0209389028FBF82E00E9488012FC04A
S113278080919705882349F484E090E09093900227
S113279080938F020E94671122C083E00E94250E5D
S11327A083E090E09093900280938F020E946E05E4
S11327B0DC01CB0166E371E00E94BB200BE0E02E5C
S11327C0F12CE80EF91EF092C102E092C0020E94C0
S11327D0EE0500271127A80197010E94AB06DF919F
S11327E0CF911F910F91FF90EF9008951F920F9238
S11327F00FB60F9211242F933F934F935F936F93D0
S11328007F938F939F93AF93BF93EF93FF932FB1D6
S1132810E091D503F091D603309739F080915903B4
S113282090915A03E80FF91F2083809159039091E6
S11328305A03019690935A038093590380E00E94AF
S11328405A034091AD025091AE0280915903909188
S11328505A038417950718F40E94BE031CC06091A4
S1132860D5037091D60380915A0590915B0510921F
S1132870D6031092D50310925B0510925A0510925C
S1132880AE021092AD0210925A03109259032FB166
S113289020E00E945012FF91EF91BF91AF919F9160
S11328A08F917F916F915F914F913F912F910F90F5
S11328B00FBE0F901F901895DF92EF92FF920F9327
S11328C01F93CF93DF93CDB7DEB7A8970FB6F894D5
S11328D0DEBF0FBECDBFE82FFF27E831F10508F0BA
S11328E0A7C6EA5BFF4FEE0FFF1F0590F491E02DA2
S11328F0099480915505882309F49AC640E051E073
S1132900D4C480913203882309F492C690E011E084
S1132910FDC40FB7F894112781E00E94070741E036
S1132920E42EF12CF0929002E0928F021092910228
S11329301092C8021092E6020FBF0FB7F894112745
S11329400E945305F092E202E092E1021092EC023E
S113295089B78F7B89BF80E488BF8AB780628ABFCA
S11329608AB78F7E8ABF89B7806489BF0FBF8FB74C
S1132970F894082F112780918A0290918B02049772
S113298019F483E00E94150D0FBF0FB7F8941127B7
S1132990C09A80E00E94250E0FBF8FB7F894992744
S11329A022E02093E10332C68FB7F894992710925E
S11329B0E103F9CF8FB7F8949927F09089028FBF7C
S11329C063E081E00E944303882359F10FB7F89430
S11329D011271092900210928F0287B78F7E87BFC3
S11329E087B78F7D87BF83E00E94250EC09A0FBFF3
S11329F00FB7F89411271092E2021092E1020E949C
S1132A005305C09A89B78F7B89BF0FBF10928B0281
S1132A1010928A02DE98DD98DE9A81E00E94880195
S1132A2007C08FB7F894992722E02093E1038FBF62
S1132A3000914E0310914F030E944D04809156055E
S1132A4090915705892B09F0F3C58FEF80936E029F
S1132A504F2DB8011EC48FB7F894282F3327122F97
S1132A6080919505882301F581E0809395058091F7
S1132A708A0290918B02049721F481E00E94AE0CAB
S1132A8003C084E00E9488011FBFD2C58FB7F894A9
S1132A9099271092950587CF8FB7F894282F33275D
S1132AA080918C02882311F02FBFC2C52FBF80B341
S1132AB0992736E0969587953A95E1F7182F117086
S1132AC090914003809141038917D9F01917C9F4F3
S1132AD084E090E090938B0280938A028FB7F894FD
S1132AE0992721E020938C028FBF60E070E08DE194
S1132AF00E94B90E0E94230CC09AC09880E00E94E4
S1132B0088011093410385E08DC58FB7F894992708
S1132B10109167028FBF123009F465C0133030F48E
S1132B20112359F0113009F083C548C0133009F45A
S1132B3074C0143009F07CC5A0C0C0988FB7F89455
S1132B40082F112780918A0290918B020297A1F598
S1132B5083E090E090938B0280938A0268E170E0B6
S1132B608DE10E94B90E81E08093400310928C02A3
S1132B7080B3992726E0969587952A95E1F7817089
S1132B8090708093410385E00E94880181E00E9457
S1132B90150D6FE772E08CE10E94B90E0E941A0FC6
S1132BA00E94E00E66E57AE287E10E94B90E6FEFBB
S1132BB070E885E10E94B90E0FBF3AC5C09886E05F
S1132BC00E94150D0E941A0F0E94E00E0E94230C11
S1132BD0C09AC09883E00E94150DC09A81E00E94BB
S1132BE0250E84E01FC5C0988FB7F894082F1127CD
S1132BF060E080E00E944303882311F00FBF0AC005
S1132C000FBF83E50E94B20380E00E94B20380E01C
S1132C100E94B203C09A82E02DC08FB7F89499271E
S1132C2020918F028FBF243039F0283041F02230B8
S1132C3001F50E942B0FFCC40E946711F9C4C098CF
S1132C4089E00E94150DC09A83E00E94250E8FB77B
S1132C50F894992721E030E03093900220938F027A
S1132C608FBF8FB7F8949927109389028FBF82E0A2
S1132C70D9C483E00E94250EDBC40E94620DD8C42F
S1132C800FB7F89411274091AD025091AE026091B4
S1132C90D5037091D60380915A0590915B051092EB
S1132CA0D6031092D50310925B0510925A05109228
S1132CB0AE021092AD0210925A031092590320E012
S1132CC00E94501279CF2FB7F89433278091E902EC
S1132CD080936A0282E080938E022FBF80916A0201
S1132CE0882309F0A5C4B89AC09886E09BC4A09133
S1132CF0AB02B091AC02DC909D012D0D311DF901A8
S1132D008081881F8827881FFD0183A7F90180819E
S1132D108F77FD0181A721503040F9018081FD01A9
S1132D2080A7A091AB02B091AC02FD0132818FB7B4
S1132D30F89499272091E7028FBF222309F490C0C9
S1132D40832F99279695879596958795837090708C
S1132D508230910541F5878146812FB7F894332756
S1132D6060913E0370913F032FBF9927982F8827C6
S1132D705527842B952B8617970719F481E090E04B
S1132D806CC0FD018781268140E050E09927982F8F
S1132D9088273327822B932B8F5F9F4F11F441E0B9
S1132DA050E0CA015AC0039709F0CAC19E012F5FBF
S1132DB03F4F46EE53E088E0FA010190AF01F9017C
S1132DC001929F018150C1F79E012F5D3F4FAE01DB
S1132DD04F5F5F4F88E0FA010190AF01F901019262
S1132DE09F018150C1F79E01275F3F4FAE014F5DA8
S1132DF05F4F88E0FA010190AF01F90101929F0150
S1132E008150C1F79E012F5E3F4FAE01475F5F4F78
S1132E1088E0FA010190AF01F90101929F0181500C
S1132E20C1F79E01275E3F4FAE014F5E5F4F88E0C2
S1132E30FA010190AF01F90101929F018150C1F79C
S1132E4048E050E0BE01675E7F4FCD0106960E94C8
S1132E505A21892B09F074C103C0882309F470C175
S1132E60FCE0FD1508F06CC1E090AB02F090AC0200
S1132E70F7012281822F992736E0969587953A9516
S1132E80E1F7039719F468E070E002C062E070E0D3
S1132E90822F99279695879596958795837090703C
S1132EA0039719F488E090E002C082E090E026E005
S1132EB030E0E20EF31E40E050E020E030E0F701A5
S1132EC0E80FF91F8AEF9FEFE80EF91E05C0819104
S1132ED0480F511D2F5F3F4F26173707C4F3F701E3
S1132EE063818FEF809358058FB7F894782F20E093
S1132EF030E0E4EBF2E0808191818417950731F4AE
S1132F008281861709F4FAC0209358052F5F3F4F3A
S1132F1033962430310579F77FBF909158053FB738
S1132F20F8949F3F21F080919202891799F420919F
S1132F309202822F9927FC01EE0FFF1FE80FF91F61
S1132F40EC54FD4F5183408362832F5F23702093A1
S1132F5092020CC0892F9927FC01EE0FFF1FE80F86
S1132F60F91FEC54FD4F518340836283832F9927CB
S1132F708FBF0FB7F8941127C7010E94E502FC0127
S1132F8090810FBFF70183A5882309F4D5C09F332F
S1132F9009F0D2C0878146812FB7F8943327609116
S1132FA06B0270916C022FBF9927982F88275527A1
S1132FB0842B952B8617970761F0878126819927A3
S1132FC0982F88273327822B932B8F5F9F4F09F0ED
S1132FD0B3C0F7018385863009F0AEC0F3E1DF1694
S1132FE009F0AAC0F70185859927882321F081304B
S1132FF009F0A2C085C0F7018485282F3327868570
S1133000082F1127002369F53F932F9380916502C0
S1133010909166029F938F9380E091E09F938F93AA
S11330200E946E212DB73EB72A5F3F4F0FB6F8942A
S11330303EBF0FBE2DBF80918802882309F05BC07C
S1133040809165028093FD021092FE021092FF02AD
S113305080916502909166029F938F9386E391E03D
S11330602DC08091650290916602013091F53F93E5
S11330702F939F938F938AE691E09F938F930E945F
S11330806E214DB75EB74A5F5F4F0FB6F8945EBFCF
S11330900FBE4DBF80918802882369F58091650237
S11330A08093FD021092FE020093FF02809165025C
S11330B0909166029F938F938EE991E09F938F93F3
S11330C00E946E210E946D100F900F900F900F9030
S11330D012C03F932F939F938F9380ED91E09F9322
S11330E08F930E946E218DB79EB706960FB6F89403
S11330F09EBF0FBE8DBF0E94D10B1EC07FBF1CC0E0
S1133100F701848599279F938F938091650290910D
S113311066029F938F9388E192E09F938F930E941E
S11331206E210E94D10B2DB73EB72A5F3F4F0FB6D9
S1133130F8943EBF0FBE2DBFF092AC02E092AB02FA
S11331408FB7F89499271092EC028FBF0E94730EE8
S11331506FC28091E502882361F52091F5043091D6
S1133160F6044091F7045091F804EFB7F894FF2760
S11331706091DC037091DD038091DE039091DF03A5
S1133180E090C202F090C3020091C4021091C50203
S11331906E0D7F1D801F911FEFBF2093F5043093A8
S11331A0F6044093F7045093F8041092E5020E9449
S11331B039050E9454043AC00E9454047B018C01D6
S11331C08FB7F8949927109250038FBF80916C03A6
S11331D081FF2EC28091640390916503A0916603E0
S11331E0B0916703A8019701281B390B4A0B5B0BAD
S11331F0DA01C901209168033091690340916A039F
S113320050916B03281B390B4A0B5B0B2F3F8FEF3D
S113321038078FEF48078FE7580709F409C21216D9
S11332201306140615062CF0C801B7010E947B048E
S1133230FFC12093F5043093F6044093F7045093B0
S1133240F80481E08093E502C801B7010E943905C2
S1133250EFC190912F0380916E02981709F4E8C191
S113326090936E029923D1F40091930210919402E9
S113327060914C03C8010E94710F482F55274423C5
S113328009F4D6C18FEF80936E026091930270911E
S11332909402F80183850E94DF10CAC18FEF8093E6
S11332A06E02C6C10E948B0287CC90915505852F72
S11332B08923C1F0E42FFF27EE0FFF1FE55AFC4FCF
S11332C02081318111821082852F809598239093DB
S11332D05505442339F4215F324009F0A6C1109208
S11332E08802A3C14F5F483008F0A2C1550FDDCF5B
S11332F080917102E82FFF27EE0FFF1FE55AFC4F64
S11333006081718141E00E94A11092C12091320339
S1133310812F8223C1F0E92FFF27EE0FFF1FE75E05
S1133320FA4F4081518111821082812F8095282388
S113333020933203992339F463E0CA010E949E0C5E
S1133340110F91E0E3CF9F5F983008F071C1110F26
S1133350DDCF10917202E12FFF27EE0FFF1FE75E12
S1133360FA4FE080F180118210820E945F021123E3
S113337009F05EC161E0C70126C18FB7F8941092CD
S113338092052091D80340E0283009F441E030E070
S1133390293009F431E0442311F4332351F010921D
S11333A0D803E0916303FF27EE0FFF1FE85BFC4F98
S11333B0108299278FBF442311F4332331F19FB72F
S11333C0F894809153058F5F80935305809139035E
S11333D0833479F42091520380915103821779F058
S11333E0822F8F5F80935203863048F010925203ED
S11333F006C0A0E0442309F4A1E071E002C0A0E00B
S113340070E0892F99278FBF06C0222311F0FF2473
S11334106DC0A0E070E08FB7F894992720919502D1
S11334208FBF222341F08FB7F89499272AE0209385
S1133430D8038FBF42C08FB7F8949927609148038F
S113344040914A038FBF8FB7F894282F332750E059
S11334509091510380915203981709F451E02FBFC2
S1133460552341F5662331F55FB7F89482E08093E4
S113347048038FB7F894282F332740E090915103E5
S113348080915203981709F441E02FBF442311F0AF
S113349080E006C0E0915203FF27EF5AFC4F82817F
S11334A08093490383E48093390310926303852F47
S11334B099270EC04150423010F0FF240CC08FB742
S11334C0F894992725E42093390321E0209363039A
S11334D08FBF11E0F12E772349F08FB7F894992725
S11334E0A0939E028FBF85E10E9488018FB7F89454
S11334F0082F11278091D8038A3009F4D3CE0FBF47
S1133500FF2009F495C02FB7F8943327109299053A
S1133510109298051092330381E08093D8032FBF53
S11335200E94D102882309F483C08FB7F8949927A5
S113353029E02093D8038FBF0E94AF0179C0569829
S113354057981092D7031092F002539A549A579AAC
S11335508FB7F89499271092D8031092ED0223CADA
S113356084E160C05398549863C010929B021092F7
S11335709A028FB7F8949927F0909E028FBF80919A
S11335809F02882311F0B3E0FB2E20919802309122
S113359099028091A002882309F04AC080917202A6
S11335A0882309F045C00091190510911A050217E6
S11335B0130709F03DC010921A05109219050E94D4
S11335C05F026F2DC8010E949E0C32C08FB7F89421
S11335D099272091A3023091A4024091C7028FBF82
S11335E08FB7F894E42FFF27EE0FFF1FEC58FD4F21
S11335F03183208320919602442311F02B7F01C054
S11336002D7F209396021092A10299278FBF10C09C
S11336104CE16CE575E08FEF9FEF0E941E0288235A
S113362039F087E10E94880103C0550F41E03DCE87
S1133630A8960FB6F894DEBF0FBECDBFDF91CF9131
S11336401F910F91FF90EF90DF90089580915005A6
S11336508F3FB1F0282F3327F901E753FD4F8081C5
S1133660809350058F3F11F4809396058FEF8083EC
S11336702F3F31F0822F0E945C1481E090E0089586
S113368080E090E00895FF920F931F93CF93DF9310
S1133690CDB7DEB7E0970FB6F894DEBF0FBECDBF4F
S11336A0FFB6F89448E150E06FEF70E089EC92E0E7
S11336B00E9467218FEF809350058093960581E0E7
S11336C08EBD88E080BF83E083BF8CB59DB54AE79B
S11336D02CB53DB52817390708F44150442311F09F
S11336E0C901F6CF92B782B78917E9F32CB53DB576
S11336F092B782B78917E9F38CB59DB5821B930BFA
S11337004096F5E096958795FA95E1F790935205E2
S11337108093510513BE83B78EBD8EB580BF12BE94
S11337201DBC1CBC8FEF86BF86B780937C0080B71E
S1133730992787709070892BD1F7D29AD19AD09A11
S1133740DA9AD99AD89A15BA8FEF84BBD498DC98B0
S1133750109289001092880080917D00846080938B
S11337607D0080918A00887F826080938A001DBCDE
S11337701CBC87B7846087BF8EB5887F84608EBD8C
S11337800E94261B8823E1F78AE792E090939F0525
S113379080939E0512E006E06091510570915205F8
S11337A088279927ECE0660F771F881F991FEA95F1
S11337B0D1F720E031EE40E050E00E94E2202150B9
S11337C0304029B9832F9927809390001BB9009327
S11337D095001AB8209399008093980010939B0049
S11337E000939D0010929A0084E490E09093F10479
S11337F08093F0041092480310924A038AE0809365
S1133800D803109233031092390310925305109287
S113381099051092980510929205109263031092E4
S1133820EC041092EB0484E08093ED021092DA032E
S11338301092F404109225031092600310925F0317
S113384010925203109251031092AA028FEF8093A8
S1133850EA02E4EBF2E08FEF9FEF91838083128220
S1133860339622E0E03CF207C1F70E946E056093B4
S1133870F00380916502909166020196AA27BB2706
S113388080932B0390932C03A0932D03B0932E03CA
S113389080B7886080BF8BE083BF86EE81BF87B727
S11338A0826087BF0E94B6048BE195E09093AC02DE
S11338B08093AB028E98B89A8C988FEF80933803DC
S11338C01092E0031092E1031092E2031092E303DA
S11338D0B89AD69AD59A8FB7F894992720916B0203
S11338E030916C028FBF30933F0320933E030E94BC
S11338F01A0729A73AA74BA75CA76DA77EA78FA78E
S113390098ABDE019196FE01B99688E001900D9284
S11339108150E1F7DE015196FE01B19688E00190F5
S11339200D928150E1F7DE015996FE01719688E00F
S113393001900D928150E1F7A6EEB3E0FE01799675
S113394088E001900D928150E1F780916D029927F2
S113395090932703809326038FE18093DB038AE10E
S11339608093EE030E941A0729A73AA74BA75CA7E6
S11339706DA77EA78FA798ABDE019196FE01B9963D
S113398088E001900D928150E1F7DE011196FE016D
S1133990B19688E001900D928150E1F7DE0119960D
S11339A0FE01319688E001900D928150E1F7A6EE78
S11339B0B3E0FE01399688E001900D928150E1F761
S11339C0A6EEB3E0FD0137969C9180818D939083A0
S11339D0319783E0E93EF807B9F781E08093E70285
S11339E010925905809328031092E5030E94261B28
S11339F08823E1F78F2D99278FBF78948FB7F89498
S1133A00282F3327922F8091D8038A3031F0809168
S1133A10ED02843011F02FBF04C09FBF82E10E94E9
S1133A20880180916502909166029F938F9382E44E
S1133A3092E09F938F930E946E210E94D10B0E946B
S1133A4005110F900F900F900F908FB7F894482F97
S1133A5055274BC087B7992783709070892B19F429
S1133A60E5E0F0E013C080B7992787709070892B48
S1133A70D1F781B792B7891B8C3030F082B7853F7C
S1133A8018F4E3E0F0E002C0E2E0F0E087B7887BFE
S1133A90C1F480917D008B7FA1F46E9912C08AB12C
S1133AA090919A00892B887161F48091740082FD51
S1133AB008C0379B03C081E090E005C085E090E03A
S1133AC002C080E090E025B78E1708F4E82FFF27A6
S1133AD0E454FD4FE491237E2062E22BE5BF789409
S1133AE08895F89485B78F7D85BF809150058F3F69
S1133AF009F4B0CF282F3327F901E753FD4F808114
S1133B00809350058F3F11F4809396058FEF808347
S1133B102F3F09F49FCF4FBF822F0E945C1495CF93
S1133B2078941F920F920FB60F9211242F923F9206
S1133B304F925F926F927F928F929F92AF92BF92B9
S1133B40CF92DF92EF92FF920F931F932F933F93A5
S1133B504F935F936F937F938F939F93AF93BF9391
S1133B60CF93DF93EF93FF93C6B5D7B58FB7F89490
S1133B70282E0E94EE059B012C1B3D0B4427552744
S1133B802B013C01421A530A640A750A80918F0280
S1133B90909190028530910521F0069709F0E0C0DC
S1133BA0BFC086E090E09093900280938F0231E052
S1133BB0332E3092EB021092910280E00E940707AC
S1133BC0E0912903F0912A0341AABB27A72D962D42
S1133BD0852D80ABC301AA27BB2787A7872D9927EB
S1133BE0AA27BB2786A7E0912903F0912A0385A57C
S1133BF0882309F484C06081655077274F01860EBD
S1133C00971EF4012081E1808281A3809927AA274D
S1133C10BB27BA2FA92F982F882733274427552746
S1133C20522F442733272227FF24002711278701F7
S1133C30FF24EE242E293F29402B512BBB24CC24D6
S1133C40DD242A293B294C295D29822B932BA42B83
S1133C50B52B84199509A609B7098383292F3A2F0F
S1133C604B2F552722839D014427552721838B2FD2
S1133C709927AA27BB278083C09824E0A40180E069
S1133C8090E00E94C606C09AF4012081E1808281FE
S1133C90A3809927AA27BB27BA2FA92F982F882753
S1133CA0332744275527522F442733272227FF241D
S1133CB0002711278701FF24EE242E293F29402BBA
S1133CC0512BBB24CC24DD242A293B294C295D29F2
S1133CD0822B932BA42BB52B840D951DA61DB71DEC
S1133CE08383292F3A2F4B2F552722839D01442765
S1133CF0552721838B2F9927AA27BB278083E091FF
S1133D002903F0912A03818185FF02C03092C80201
S1133D1083E00E94250E87B78F7E87BF84997AC07F
S1133D201092EB0281E00E940707E0912903F091D1
S1133D302A03818185FF0FC087E090E09093900271
S1133D4080938F020E94EE0520E031E040E050E0D5
S1133D500E94AB0603C080E00E94EE10849B5AC010
S1133D6080919102882391F58091EB02882371F56B
S1133D7011E01093EB020E94070780B320914F05D6
S1133D80283098F4E0915405E20FFF27E770F070B3
S1133D90EE0FFF1FEE0FFF1FE750FB4F40825182D3
S1133DA0628273822F5F20934F0510939102D09308
S1133DB04703C093460384992DC09927A4E09695A0
S1133DC08795AA95E1F7182F117001C010E0809132
S1133DD0EB028130F9F41092EB020E940707109273
S1133DE091021123B9F48091460390914703C81BB3
S1133DF0D90B2A9778F480914F05882319F08150C4
S1133E0080934F058091290390912A03009711F024
S1133E100E945F052FBEFF91EF91DF91CF91BF917B
S1133E20AF919F918F917F916F915F914F913F914E
S1133E302F911F910F91FF90EF90DF90CF90BF9043
S1133E40AF909F908F907F906F905F904F903F9036
S1133E502F900F900FBE0F901F901895ACE2B0E01A
S1133E60E4E3FFE10C942321222E332E442E552E1D
S1133E70662E772E882E992EFE013196A8E0119297
S1133E80AA95E9F729823A824B825C826D827E820E
S1133E908F829886FE013996B8E01192BA95E9F7B7
S1133EA0A986BA86CB86DC86ED86FE860F87188BBC
S1133EB089819A81AB81BC8189A79AA7ABA7BCA74A
S1133EC07C018D018FEF9FEFA0E0B0E0E822F922A2
S1133ED00A231B2389A59AA5ABA5BCA51D014424CF
S1133EE0552489859A85AB85BC858DA39EA3AFA3F4
S1133EF0B8A75C016D018FEF9FEFA0E0B0E0A822AE
S1133F00B922CA22DB228DA19EA1AFA1B8A53D0191
S1133F1088249924C801B701A60195010E940421AF
S1133F2069A37AA38BA39CA3C801B701A40193013D
S1133F300E9404217B018C01C201B101A6019501FB
S1133F400E9404215B016C01C201B101A40193012F
S1133F500E9404213B014C01EA0CFB1C0C1D1D1D9D
S1133F6089A19AA1ABA1BCA19D01442755272E0D7F
S1133F703F1D401F511F2A153B054C055D0540F4AC
S1133F8080E090E0A1E0B0E0680E791E8A1E9B1EDE
S1133F90CA01AA27BB27860D971DA81DB91D8D8FA1
S1133FA09E8FAF8FB8A3A9013327222789A19AA195
S1133FB0ABA1BCA1A070B070280F391F4A1F5B1FB2
S1133FC0298F3A8F4B8F5C8FA98CBA8CCB8CDC8C6D
S1133FD0ED8CFE8C0F8D18A1FE01719698E0119264
S1133FE09A95E9F7ED8AFE8A0F8B188F2D813E8111
S1133FF04F8158856DA17EA18FA198A50E940421AF
S11340003B014C012D853E854F85588969A57AA5CC
S11340108BA59CA50E9404212D893E894F89588D2A
S1134020260F371F481F591F260D371D481D591DC0
S11340302D8B3E8B4F8B588F6D887E888F88988C04
S11340402A2D3B2D4C2D5D2D662D772D882D992DF8
S1134050E2E1AC960C943F21A0E1B0E0E2E3F0E2AF
S11340600C942321222E332E442E552E662E772E89
S1134070882E992E002309F466C088E0FE0131964B
S113408011928A95E9F729833A834B835C836D8384
S11340907E838F829887E0E2E01B1E16CCF52D818B
S11340A03E814F815885602F772767FD7095DA012F
S11340B0C901062E04C0B695A795979587950A94CD
S11340C0D2F78D879E87AF87B88B04C0220F331F2A
S11340D0441F551FEA95D2F789819A81AB81BC812F
S11340E004C0B695A795979587956A95D2F7282B1E
S11340F0392B4A2B5B2B29873A874B875C8729848A
S11341003A844B845C846D847E848F8498881BC03D
S11341101D861E861F86188A2E2F332727FD30956D
S1134120309521953F4F8D819E81AF81B88504C024
S1134130B695A795979587952A95D2F789879A87F3
S1134140AB87BC87DCCF222D332D442D552D662D16
S1134150772D882D992DE2E160960C943F21991BCF
S113416079E004C0991F961708F0961B881F7A956A
S1134170C9F780950895AA1BBB1B51E107C0AA1F6C
S1134180BB1FA617B70710F0A61BB70B881F991FF4
S11341905A95A9F780959095BC01CD01089597FB98
S11341A0092E07260AD077FD04D0E5DF06D00020CB
S11341B01AF4709561957F4F0895F6F7909581955F
S11341C09F4F0895A1E21A2EAA1BBB1BFD010DC02F
S11341D0AA1FBB1FEE1FFF1FA217B307E407F507B3
S11341E020F0A21BB30BE40BF50B661F771F881F8F
S11341F0991F1A9469F760957095809590959B0125
S1134200AC01BD01CF010895629FD001739FF001FD
S1134210829FE00DF11D649FE00DF11D929FF00D52
S1134220839FF00D749FF00D659FF00D9927729F89
S1134230B00DE11DF91F639FB00DE11DF91FBD0114
S1134240CF01112408952F923F924F925F926F9263
S11342507F928F929F92AF92BF92CF92DF92EF9212
S1134260FF920F931F93CF93DF93CDB7DEB7CA1B93
S1134270DB0B0FB6F894DEBF0FBECDBF09942A88BE
S1134280398848885F846E847D848C849B84AA8466
S1134290B984C884DF80EE80FD800C811B81AA81F3
S11342A0B981CE0FD11D0FB6F894DEBF0FBECDBFBE
S11342B0ED010895FB01DC0104C08D91019080198A
S11342C021F441505040C8F7881B990B0895DC0134
S11342D001C06D9341505040E0F70895A2E0B0E072
S11342E0E4E7F1E20C943321FE0137966191719178
S11342F0FA83E983AF0180919E0590919F050E9406
S11343008521E2E022960C944F21ABE0B0E0EBE88B
S1134310F1E20C9425213C014B016A01FC01178256
S11343201682838181FD03C08FEF9FEFDAC1F30111
S11343303381F40133FD859133FF81914F0188234B
S113434009F4CCC1853239F433FD859133FF819171
S11343504F01853229F4B30199270E948B23E7CFBB
S113436000E0442455244AE00032B0F48B3269F072
S11343708C3228F4803251F0833271F40BC08D32C8
S113438039F0803349F4016028C00260046025C01C
S1134390086023C0006121C007FD29C0282F2053D5
S11343A02A3078F406FF06C0549EC0011124522E10
S11343B0580E13C0449EC0011124422E480E0062C0
S11343C00CC08E3221F406FD89C1006406C08C360F
S11343D011F4006802C0883651F4F40133FD85916C
S11343E033FF81914F01882309F46FC0BDCF982F0B
S11343F08554833018F08052833038F424E030E060
S1134400C20ED31E8FE389830FC0933631F09337E6
S113441099F0933509F05BC023C0F601808189834C
S113442022E030E0C20ED31E7E010894E11CF11C90
S113443051E0A52EB12C12C0F601E080F18006FDFA
S113444003C06FEF7FEF02C0652D772722E030E0D5
S1134450C20ED31EC7010E9480235C010F7713C0D4
S1134460F601E080F18006FD03C06FEF7FEF02C02C
S1134470652D772722E030E0C20ED31EC7010E94CB
S113448075235C01006803FF07C01BC0B30180E211
S113449090E00E948B234A94842D9927A816B9068C
S11344A0A8F30FC0F70107FD859107FF81917F01F4
S11344B0B30199270E948B2341104A940894A108C0
S11344C0B108A114B10471F706C190E03EC094365E
S11344D011F0993691F507FF0AC0F60160817181E8
S11344E08281938124E030E0C20ED31E0DC0F60118
S11344F0808191819C01B901882777FD8095982F4F
S113450042E050E0C40ED51E4FE6B42EB02297FF11
S113451009C090958095709561957F4F8F4F9F4FFF
S113452050E8B52A8E010F5F1F4F2AE030E0A80142
S11345300E94B823A82EA01A4DC0953731F43FEE3F
S1134540F32EF0222AE030E023C029EFF22EF022ED
S11345509F3661F0903720F4983509F0BFC012C03F
S1134560903739F0983709F0B9C005C028E030E039
S11345700FC080E1F82AF4FE02C094E0F92A20E199
S113458030E006C0F4FE02C0E6E0FE2A20E132E09C
S1134590F7FE0AC0F601608171818281938144E053
S11345A050E0C40ED51E0BC0F60180819181AC0190
S11345B0BA0188279927E2E0F0E0CE0EDF1E8E01D3
S11345C00F5F1F4FA8010E94B823A82EA01A8FE7DF
S11345D0B82EBF20B6FE10C0FEEFBF22A51460F4B3
S11345E02B2D332724FF1AC022FF02C0052D09C03A
S11345F02FEEB222052D01C00A2D2B2D332724FFC7
S11346000EC0FE01EA0DF11D8081803319F439EEEC
S1134610B32209C00F5F22FF06C004C0052D822FFC
S1134620867809F00F5FEB2CFF24E3FC14C0E0FE56
S11346300FC0041510F05A2C0BC0542C501A5A0CED
S1134640042D06C0B30180E290E00E948B230F5F2B
S11346500415C0F304C0041510F4401A01C0442426
S1134660E4FE10C0B30180E390E00E948B23E2FEDD
S11346701EC0E1FE03C088E590E002C088E790E038
S1134680B3010CC08E2D867891F0E1FE02C08BE25E
S113469001C080E2B7FC8DE2B30199270E948B230D
S11346A006C0B30180E390E00E948B235A94A514C2
S11346B0C0F3AA94FE01EA0DF11D8181B30199278B
S11346C00E948B23AA2039F0F4CFB30180E290E05A
S11346D00E948B234A944420C1F729CEF30186819A
S11346E09781E0E12B960C944121FC0105906150E7
S11346F070400110D8F7809590958E0F9F1F0895F4
S1134700FC016150704001900110D8F7809590959C
S11347108E0F9F1F08950F931F93CF93DF938C01E8
S1134720EB018B81992781FF1BC082FF0DC02E8175
S11347303F818C819D812817390764F4E881F981D0
S11347400193F983E88306C0E885F985802F0995EC
S1134750892B31F48E819F8101969F838E8302C0C1
S11347600FEF1FEFC801DF91CF911F910F910895B3
S1134770FA01AA27283051F1203181F1E8946F938E
S11347806E7F6E5F7F4F8F4F9F4FAF4FB1E03ED034
S1134790B4E03CD0670F781F891F9A1FA11D680FD2
S11347A0791F8A1F911DA11D6A0F711D811D911D05
S11347B0A11D20D009F468943F912AE0269F11247A
S11347C03019305D3193DEF6CF010895462F4770DE
S11347D0405D4193B3E00FD0C9F7F6CF462F4F7039
S11347E0405D4A3318F0495D31FD4052419302D097
S11347F0A9F7EACFB4E0A69597958795779567953D
S1134800BA95C9F700976105710508959B01AC013C
S11348100A2E06945795479537952795BA95C9F763
S1114820620F731F841F951FA01D0895FFCF04
S113482E284E4F444520257529203A204D656E7338
S113483E6167656D204745545F54454D504552415F
S113484E54555245207265636562696461206465DE
S113485E2025752E0A00284E4F4445202575292003
S113486E3A20456E7669616E646F204745545F54F5
S113487E454D504552415455524520656D20425286
S113488E4F4144434153542E0A00284E4F44452071
S113489E257529203A204D656E736167656D204735
S11348AE45545F4C494748544E45535320726563F3
S11348BE65626964612064652025752E0A00284EA0
S11348CE4F444520257529203A20456E7669616E40
S11348DE646F204745545F4C494748544E455353E3
S11348EE20656D2042524F4144434153542E0A00D9
S11348FE284E4F444520257529203A204D656E7368
S113490E6167656D2047455420726563656269640D
S113491E6120207265636562696461206465202587
S113492E7520636F6D20504152414D20696E76C3E0
S113493EA16C69646F2E0A00284E4F4445202575DC
S113494E29203A204D656E736167656D2053455479
S113495E2072656365626964612064652025752E25
S113496E0A00284E4F444520257529203A20496EC9
S113497E696369616C697A616E646F20464644208E
S113498E2E2E2E0A000100FFFFFFFF010022FFFF63
S113499EFF0101FF6D03A1036D030000000200007F
S10B49AE0000F20B0000000000
S9030000FC
