S01800006275696C642F6D6963617A2F6D61696E2E73726563E5
S11300000C9461010C9450070C945A070C946407E7
S11300100C946E070C9478070C9482070C948B0D47
S11300200C948C070C9480010C9480010C944C1D4E
S11300300C9486110C941A070C9430070C94550BED
S11300400C9409070C94BA130C9453090C94800172
S11300500C94CF090C9480010C9480010C948001C1
S11300600C9425070C94220B0C94010B0C940C0B90
S11300700C94170B0C94350B0C94E40A0C9480012B
S11300800C94F60A0C9480010C9480014D1498147D
S11300909E14EF140A1510154915041627163B165D
S11300A065189818E5183D1434194514651979191B
S11300B05B1A6C1A6E1A711AA21AC41A0000211063
S11300C0422063308440A550C660E77008812991BE
S11300D04AA16BB18CC1ADD1CEE1EFF13112100266
S11300E073325222B5529442F772D662399318830E
S11300F07BB35AA3BDD39CC3FFF3DEE36224433432
S113010020040114E664C774A44485546AA54BB55D
S113011028850995EEE5CFF5ACC58DD55336722605
S113012011163006D776F6669556B4465BB77AA7AD
S113013019973887DFF7FEE79DD7BCC7C448E55851
S11301408668A7784008611802282338CCC9EDD9FD
S11301508EE9AFF9488969990AA92BB9F55AD44AA5
S1130160B77A966A711A500A333A122AFDDBDCCB4D
S1130170BFFB9EEB799B588B3BBB1AABA66C877C71
S1130180E44CC55C222C033C600C411CAEED8FFD9D
S1130190ECCDCDDD2AAD0BBD688D499D977EB66E45
S11301A0D55EF44E133E322E511E700E9FFFBEEFED
S11301B0DDDFFCCF1BBF3AAF599F788F8891A981AF
S11301C0CAB1EBA10CD12DC14EF16FE18010A10099
S11301D0C230E3200450254046706760B983989389
S11301E0FBA3DAB33DC31CD37FE35EF3B1029012E9
S11301F0F322D2323542145277625672EAB5CBA555
S1130200A89589856EF54FE52CD50DC5E234C32438
S1130210A01481046674476424540544DBA7FAB728
S11302209987B8975FE77EF71DC73CD7D326F23688
S11302309106B01657667676154634564CD96DC974
S11302400EF92FE9C899E9898AB9ABA944586548D8
S113025006782768C018E1088238A3287DCB5CDBC8
S11302603FEB1EFBF98BD89BBBAB9ABB754A545A28
S1130270376A167AF10AD01AB32A923A2EFD0FED94
S11302806CDD4DCDAABD8BADE89DC98D267C076C78
S1130290645C454CA23C832CE01CC10C1FEF3EFF68
S11302A05DCF7CDF9BAFBABFD98FF89F176E367EC8
S11302B0554E745E932EB23ED10EF01E00081C18EB
S11302C0141011241FBECFEFD0E1DEBFCDBF12E06A
S11302D0A0E0B1E0E6EAF7E400E00BBF02C007905B
S11302E00D92A236B107D9F715E0A2E6B2E001C03B
S11302F01D92AC37B107E1F70E94FF1A0C94D22388
S11303000C9400008FB7F894992708958FBF08952F
S1130310282F9FB7F894E82FFF27ED55FD4F8081D4
S11303208F3F81F4E0917005E21771F40BC02093C4
S11303302A0504C0FF27ED55FD4F20832093700547
S113034020E007C025E005C080912A058F3F91F782
S1130350EECF892F99278FBF822F992708951F9356
S11303601FB7F89480916C05882341F481E10E94C1
S11303708801882319F481E080936C05812F9927E3
S11303808FBF1F910895382FFA01422F2D3118F095
S113039082E090E008956683872F992785833387C9
S11303A021878091740290917502892B19F085E060
S11303B090E008952FB7F894332785E0809377026F
S11303C010927802F0937302E093720282E090E05C
S11303D0909375028093740210927A0210927902BB
S11303E0445F409376022FBF8FB7F894282F3327AA
S11303F08091B2038A3011F42FBF19C02FBF9FB769
S1130400F89480912403882311F020E006C081E051
S1130410809324031092250321E0892F99278FBF0D
S1130420222329F00E94AF0180E090E00895109209
S113043075021092740281E090E00895CF93DF93E7
S1130440DB01FB0135968183892F9927EB018D838D
S113045084E686838091F3049091F404892B19F047
S113046085E090E029C07093F4046093F30444831E
S113047080914C02882319F480E090E01DC08681AD
S1130480EB016D817727762F662721813327622B35
S1130490732B10924C02242FAD010E94C3019927A3
S11304A0282F882339F081E080934C021092F404C1
S11304B01092F304822F9927DF91CF910895CF935F
S11304C0DF9310924C02A091F304B091F4041097BE
S11304D021F080910C0380FF08C081E080934C02DE
S11304E017C080E10E94880113C0FD013596248164
S11304F03327ED016D817727762F66278181992730
S1130500682B792BAD0186810E94C301882349F7AA
S1130510DF91CF9108958091B2038A3021F48091C4
S1130520C702843021F081E080936F02089583E153
S11305300E94880110926F0208952FB7F894332710
S11305408CB95E9A2FBF0895FC016115710519F4E9
S113055081E090E0089580911C0390911D03892B04
S113056019F085E090E008957093CD046093CC0475
S1130570F0931D03E0931C031092C9021092C80269
S113058081E08093CA025E9A569A808121E030E02D
S11305903093C9022093C8020E949D0280E090E03B
S11305A008958FB7F8949927209180022E7F209385
S11305B080022EE72093BE028FBF61E070E08EEBD5
S11305C092E00E94A40299270895FC018281992750
S11305D0582F442781819927482B592BCA01892FE9
S11305E0992786958695837090708230910559F08D
S11305F08330910559F0892B19F420E030E008C0CC
S11306002CE93FEF05C022E030E002C028E030E0F2
S1130610CA0184E0989F812D992711248230910585
S113062059F08330910559F0892B19F480E090E05A
S113063008C08CE99FEF05C082E090E002C088E02A
S113064090E0280F391F2A5F3F4FCF01820F931F7D
S11306500895282F9FB7F894662349F0E82FFF27C1
S1130660E654FC4F8081882311F021E006C0E22F7C
S1130670FF27E654FC4F608320E0892F99278FBF22
S1130680822F99270895E82F8FB7F894282F3327BE
S113069090E0FF27E654FC4F8081861709F491E02F
S11306A02FBF892F99270895882311F06E9A0895F2
S11306B06E980895882311F06F9A08956F9808959D
S11306C080E00E945403BA9ABB98B99AB89A6C9A7B
S11306D080E00E945A036B986A9881E00E94540358
S11306E0709A8DB18C7F8DB908950F931F93CF931A
S11306F0DF93182F8FB7F894C82FDD270C2F61E0F4
S113070080E00E942903882321F0CFBF85E090E098
S113071024C0809144028823A1F48091680282302D
S113072081F409C082E080936802109244020E941E
S11307306003B89AC0981093410280E00FBF9927D4
S11307400CC080916802882369F38FB7F8949927C5
S11307501092BA038FBF81E0F1CFDF91CF911F9147
S11307600F9108951F93182F81E00E9454031FB91D
S1130770779BFECF8FB199271F9108958F929F92F7
S1130780AF92BF92CF92DF92EF92FF920F931F939B
S1130790CF93DF938FB7F8949927C0903405D09006
S11307A035058090AF039090B003C0913303D0918E
S11307B034032091870230918802EAE0AE2EB12CF6
S11307C0AC0EBD1E2A153B0508F459018FBF7401F8
S11307D0EC0EFD1E86010C0F1D1F14C0C114D104A4
S11307E019F0F801808101C080E00E94B2038114F5
S11307F0910411F0F701808321960894E11CF11C07
S11308000F5F1F4FC5010197C817D90738F381E05F
S11308100E945A039FB7F894C114D10431F0CC0E4E
S1130820DD1EF60180818FB901C01FB8D093340357
S1130830C0933303892F99278FBF80E090E0DF9125
S1130840CF911F910F91FF90EF90DF90CF90BF90C9
S1130850AF909F908F9008952FB7F89433275093BB
S113086088024093870290933505809334057093F2
S1130870B0036093AF0310923403109233032FBF7D
S1130880452B29F08FB10E94BE039927089587E074
S11308900E94880180E090E008958FB7F89499272A
S11308A01092BC038FBF08957FB7F89462B720916C
S11308B08A0230918B0240918C0250918D0206B6CF
S11308C001FE0FC081B792B7280F311D411D511D84
S11308D02F5F3F4F4F4F5F4F290F311D411D511D5A
S11308E004C0260F311D411D511D872F99278FBF2D
S11308F0CA01B9010895EF92FF920F931F93E091FB
S11309004603E1FF2BC020913E0330913F03409109
S1130910400350914103E0904203F090430300915F
S1130920440310914503621B730B840B950B6E15E6
S11309307F058007910790F0E0FF04C0ED7FE0930E
S113094046030CC02E0D3F1D401F511F20933E0334
S113095030933F0340934003509341038BE00E9444
S113096088011F910F91FF90EF900895DF92EF920D
S1130970FF920F931F938FB7F894282F3327D22E0B
S113098091B782B746B7981711F041FF02C02FBF45
S11309906AC080912A038823E1F10E945404E09004
S11309A0B603F090B7030091B8031091B9032091F6
S11309B09C0230919D0240919E0250919F026E19BB
S11309C07F09800B910B621773078407950720F04A
S11309D010922A0371E01EC02E0D3F1D401F511FAF
S11309E080918A0290918B02A0918C02B0918D0229
S11309F0281B390B4A0B5B0B273E3105410551057A
S1130A0040F4822F223010F070E005C070E082E0E4
S1130A1002C070E086EE682F615000B601FCFDCF85
S1130A2082B7681709F46F5F20918A0230918B02B4
S1130A3040918C0250918D02DA01C9010196A11DE9
S1130A40B11D860F911DA11DB11D82179307A40727
S1130A50B50710F4622F609561BFDFBE772319F0EC
S1130A608AE00E9488011F910F91FF90EF90DF9020
S1130A700895AFB7F894BB27E1E0E0932A036093AD
S1130A80B6037093B7038093B8039093B90320938C
S1130A909C0230939D0240939E0250939F02AFBFED
S1130AA00E94B604089580E88093A0021092C602C2
S1130AB010922E05109229051092C2020895CF9328
S1130AC0DF93FC0115A6DC019E96ED011B821A82C0
S1130AD0198280E886A7DF91CF9108952F923F92E3
S1130AE04F925F926F927F928F929F92AF92BF923A
S1130AF0CF92DF92EF92FF920F931F93CF93DF93E6
S1130B00CDB7DEB728970FB6F894DEBF0FBECDBFC2
S1130B10209005033090060340900703509008038B
S1130B20662477248824BEE4AB2EA3E8BA2ECC2412
S1130B30DD24EE24FF2400E010E0222D332D442D8B
S1130B40552D662D772D882D90E00E94EA1E29836D
S1130B503A834B835C836D837E838F839887822E55
S1130B60932EA42EB52E2401350100E20E94E81F25
S1130B70A22EB32EC42ED52EC301B201969587950D
S1130B80779567956A0D7B1D8C1D9D1D97FF05C08C
S1130B909F776F5F7F4F8F4F9F4F609305037093D5
S1130BA00603809307039093080328960FB6F894DE
S1130BB0DEBF0FBECDBFDF91CF911F910F91FF908C
S1130BC0EF90DF90CF90BF90AF909F908F907F90E9
S1130BD06F905F904F903F902F9008958FB7F89447
S1130BE060913703709138032CB53DB506B602FE0B
S1130BF004C06F5F7F4F2CB53DB599278FBF882701
S1130C009927CB017727662744275527622B732B17
S1130C10842B952B0895EF92FF920F931F930E94BC
S1130C20EE057B018C012091140330911503409152
S1130C3016035091170380910E0390910F03A09116
S1130C401003B0911103820F931FA41FB51FE21666
S1130C50F3060407150730F082179307A407B507B6
S1130C6058F005C082179307A407B507E0F5E81606
S1130C70F9060A071B07B8F59C01AD012E193F09B7
S1130C80400B510B213060E8360760E0460760E016
S1130C90560768F180E090E8A0E0B0E0E80EF91EA5
S1130CA00A1F1B1FE0921403F0921503009316030E
S1130CB01093170380E090E8AFEFBFEFE80EF91E42
S1130CC00A1F1B1F205030484040504020930E0301
S1130CD030930F03409310035093110320E030E846
S1130CE040E050E014C020E030E040E050E0809369
S1130CF0140390931503A0931603B0931703109253
S1130D000E0310920F031092100310921103A90105
S1130D10B7012CB53DB5C9018E199F0903968417F7
S1130D20950720F0B9016D5F7F4F02C0640F751FF6
S1130D306115710511F461E070E0615070407BBD94
S1130D406ABD80E186BF87B7806187BF1F910F911D
S1130D50FF90EF9008950F931F930FB7F894112706
S1130D6060931403709315038093160390931703F1
S1130D7020930E0330930F034093100350931103F9
S1130D800E940B060FBF1F910F91089597B79F7D87
S1130D9097BF90E296BF882319F08EB5806402C095
S1130DA08EB58F7B8EBD87B7806287BF80E090E071
S1130DB00895AF92BF92CF92DF92EF92FF920F937A
S1130DC01F93CF93DF93CDB7DEB728970FB6F89470
S1130DD0DEBF0FBECDBF20E070E0E0913F02F09196
S1130DE0400232E14DE65CE46FE4809140029E2FC4
S1130DF028960FB6F894DEBF0FBECDBFDF91CF911A
S1130E001F910F91FF90EF90DF90CF90BF90AF9024
S1130E1008951F920F920FB60F9211248F9383B7E8
S1130E2083BF00B600FCFDCF8F910F900FBE0F90D3
S1130E301F90189578941F920F920FB60F92112459
S1130E400F900FBE0F901F90189578941F920F92D9
S1130E500FB60F9211240F900FBE0F901F9018958C
S1130E6078941F920F920FB60F9211242F933F93F1
S1130E708F939F932FB7F8943327809137039091E2
S1130E803803019690933803809337032FBF9F91C3
S1130E908F913F912F910F900FBE0F901F90189537
S1130EA01F920F920FB60F9211240F900FBE0F9046
S1130EB01F9018951F920F920FB60F9211240F9046
S1130EC00FBE0F901F9018951F920F920FB60F929E
S1130ED011240F900FBE0F901F9018951F920F9220
S1130EE00FB60F9211240F900FBE0F901F901895FC
S1130EF01F920F920FB60F9211240F900FBE0F90F6
S1130F001F9018951F920F920FB60F9211240F90F5
S1130F100FBE0F901F9018951F920F920FB60F924D
S1130F2011240F900FBE0F901F901895ECEBF0E07A
S1130F306927660FF11DE60FF11DC895982F802DC6
S1130F403196C89590250895982F80917B02882327
S1130F5089F5992379F531E030937B0280914D0234
S1130F6080937C0220917002822F81708093A10271
S1130F70809152029091530290937E0280937D025D
S1130F808091710280937F0232273170267EE32F95
S1130F90FF27EE0FFF1FE25BFD4F8081918190934D
S1130FA0530280935202232B2093700286E10E9405
S1130FB0880108958091700280FF02C08B7F01C078
S1130FC08D7F8093700208950F931F93082F162F1F
S1130FD08091C7028130D9F0813038F0823009F431
S1130FE04AC0833009F028C159C0002309F458C10C
S1130FF01092C6041092C5041092B4031092CE0449
S11310001092FF0210923A031092390339C100235F
S113101009F046C18091390390913A030E949607E2
S113102090933A038093390382E08093C70210932C
S1131030CE04143409F000C125C18695869503C0F9
S1131040809170028695817009F0F6C080917002DB
S1131050992311F0846001C08260809370028091B2
S11310607002877E886080937002109271028FEF05
S113107080934D0215C1002309F0DEC06093FF0286
S11310808091390390913A030E94960790933A0312
S11310908093390383E08093C70202C18091B40333
S11310A08F3F09F4C9C0002309F461C0823008F4F9
S11310B0C3C0E091C504EE2309F4EBC04E2F4150A8
S11310C0E42FFF27EB53FB4F82819927382F2227E8
S11310D0442311F4E2E002C0E42FE150FF27EB5374
S11310E0FB4F82819927282B392B809139039091CA
S11310F03A032817390709F09FC080E00E94A4072B
S11311003091FF0280912B0320912C03982F9F5F35
S1131110963008F090E0921771F0E82FFF27E55D14
S1131120FC4F32838F5F80932B03863010F0109234
S11311302B030E94AF011092C6041092C50494E0E0
S11311409093C7021092B4031092CE041092FF023F
S113115010923A0310923903809180028D7F80931C
S1131160800280916F02882309F49AC084C082307F
S113117008F44EC0E091C604FF27EB53FB4F828175
S1131180482F5527342F20917002822F86958695FB
S11311908695837099278130910519F00297F9F4A7
S11311A00EC0277E206120937002442311F485E051
S11311B001C080E08093710230934D0210C0809191
S11311C07102843360F4E0915202F0915302E80F0B
S11311D0F11D4083809171028F5F80937102809131
S11311E0C604E82FFF27EB53FB4F62818F5F809388
S11311F0C604833010F01092C60477278091390317
S113120090913A030E94960790933A03809339038E
S11312108091C504E82FFF27EB53FB4F12838F5FA8
S11312208093C504833010F01092C5048091B403F8
S11312308F5F8093B40334C01092C6041092C50427
S113124014E01093C7021092B4031092CE041092CB
S1131250FF0210923A0310923903809180028D7F2D
S11312608093800281E00E94A40780916F0288230A
S113127029F01093C7020E948B0212C0002381F050
S113128081E009CF80917002982F917080FDD5CEB6
S1131290D7CE8091C9049927382F222742E01CCF4A
S11312A01F910F9108951F920F920FB60F92112460
S11312B02F933F934F935F936F937F938F939F935A
S11312C0AF93BF93EF93FF935F9B3DC06CB1E091ED
S11312D03B03F0913C033097F9F080916A059091BB
S11312E06B05E80FF91F6083019690936B0580935B
S11312F06A0520917405309175058217930718F1DA
S113130010923C0310923B038091B1038330D9F0D7
S113131057981092B10317C06E3719F460E081E05A
S113132010C0809180026D3721F482608093800226
S11313300AC081FF05C08D7F8093800280E2682708
S113134080E00E94E407FF91EF91BF91AF919F91DC
S11313508F917F916F915F914F913F912F910F905A
S11313600FBE0F901F901895982F8D57823068F4F8
S11313708091800281608093800280E2892780933B
S1131380B3038DE78093BE0202C09093BE0261E076
S113139070E08EEB92E00E94A4029927089578945D
S11313A01F920F920FB60F921124FF920F931F9367
S11313B02F933F934F935F936F937F938F939F9359
S11313C0AF93BF93CF93DF93EF93FF932091C80222
S11313D03091C9028091CC049091CD04281739072B
S11313E080F4E0911C03F0911D03E20FF31F808150
S11313F02F5F3F4F3093C9022093C8020E949D0281
S1131400CDC010921D0310921C031092CA0256986C
S1131410FFB6F8948091800280FF0EC08E7F809387
S113142080028091B3038093BE0261E070E08EEB92
S113143092E00E94A402AFC08091B203843009F408
S11314408CC0853040F4823021F18330B8F581308E
S113145009F09CC00DC0863009F48DC0863008F4B4
S113146083C0873009F48EC0883009F08FC091C0E2
S1131470809113030E94B409082F83E08093B20380
S11314806091130380917205909173050E949607F1
S113149010C080912D050E94B409082F83E0809329
S11314A0B20360912D0580917205909173050E949D
S11314B09607909373058093720566C0E0913D038F
S11314C0FF27EE0FFF1FED5DFC4F80810E94B409E2
S11314D0082F10913D03C12FDD27FE01EE0FFF1FE2
S11314E0ED5DFC4F608180917205909173050E94BF
S11314F09607909373058093720520910D032F5FD7
S113150020930D03113039F580917702E091720236
S1131510F0917302E80FF11DE0818F5F80937702F1
S113152090917602981730F482E08093240340E08F
S113153050E002C04E2F5527DE01AA0FBB1FFD014C
S1131540EE5DFC4F8081823031F02F3F21F0AD5DA4
S1131550BC4F4C9319C084E012C0809172050E9464
S1131560B409082F85E00BC0809173050E94B4096B
S1131570082F86E004C00E94D102082F87E08093E0
S1131580B20302C088E003C0002329F089E08093FD
S1131590B2030E94AF018F2D99278FBFFF91EF9166
S11315A0DF91CF91BF91AF919F918F917F916F9177
S11315B05F914F913F912F911F910F91FF900F9049
S11315C00FBE0F901F9018951F920F920FB60F9297
S11315D011248F9380919B0087FF02C080919C000F
S11315E08F910F900FBE0F901F90189578941F92B3
S11315F00F920FB60F9211240F900FBE0F901F90F1
S1131600189578941F920F920FB60F9211240F9091
S11316100FBE0F901F90189578941F920F920FB6DB
S11316200F9211240F900FBE0F901F90189578946D
S11316301F920F920FB60F9211240F900FBE0F90AE
S11316401F90189578941F920F920FB60F92112441
S11316508F939F9380918000909181009F918F91AF
S11316600F900FBE0F901F90189578941F920F92B1
S11316700FB60F9211242F933F938F939F932FB7FD
S1131680F894332780910A0390910B030196909369
S11316900B0380930A032FBF9F918F913F912F914A
S11316A00F900FBE0F901F9018951F920F920FB6B8
S11316B00F9211242F933F934F935F936F937F93D4
S11316C08F939F93AF93BF93EF93FF9383B783BF9E
S11316D000B600FCFDCF81B799270196AA27BB2746
S11316E020918A0230918B0240918C0250918D029C
S11316F0280F391F4A1F5B1F20938A0230938B02E5
S113170040938C0250938D0278940E94B604FF910A
S1131710EF91BF91AF919F918F917F916F915F9165
S11317204F913F912F910F900FBE0F901F901895DE
S1131730809183028C3118F04CE150E002C0482FB4
S113174055278CE1E2E4F5E011928A95E9F790914E
S113175083028091810220E030E0A2E4B5E00FC072
S1131760E82FFF27E553FC4FE081992329F08F5F91
S11317708A3F09F480E09150ED932F5F3F4F241787
S1131780350771F790938302809381024CE166E3FD
S113179075E08FEF9FEF0E941E02882319F087E106
S11317A00E94880108958FB7F894282F33278091D9
S11317B08402813021F42FBF80E090E0089590E00E
S11317C080918302882309F491E0992321F02FBFAB
S11317D081E090E0089581E0809384022FBF0E940D
S11317E0980B80E090E00895662351F48091830281
S11317F0882319F00E94980B08951092840208958A
S113180087E10E94880108951F93182F8091840214
S1131810882349F4809183028D3728F081E08093F6
S113182084020E94980B8FB7F894282F3327909145
S113183083029A3FA8F480918202E82FFF27E553A0
S1131840FC4F10838F5F809382028A3F11F41092C1
S113185082029F5F909383022FBF80E090E003C0D9
S11318602FBF8FEF9FEF1F9108950F931F93182F92
S11318700FB7F89461E080E00E942903882371F592
S113188010934102809144028823A9F58091680253
S1131890823089F586E00CC00E9460038091680262
S11318A0882349F481E0809368021092C30288E09F
S11318B00E9488012AC0809112038F3F31F5E09184
S11318C04302EE2311F11CC01092420204C0FF2710
S11318D0EE5EFC4F10821092430217C081E090E04C
S11318E002C0880F991F1A95E2F720916702282BEE
S11318F0209367020AC0809168028823E1F6CCCF66
S1131900809142028F3F19F7DFCF802F99278FBF35
S113191080E090E01F910F9108951F9383E00E944F
S113192075039927182F882319F083E00E94350C3A
S1131930812F99271F910895CF92DF92EF92FF9202
S11319400F931F93CF93DF938C01F62E6A01E22E3F
S11319508FB7F894C82FDD2760E080E00E9443032E
S1131960882321F0CFBF80E090E01EC0CFBF0F0DD1
S1131970111D802F80680E94B203F82E16950795DA
S1131980802F807C0E94B2030E2D0AC0EE2DFF270B
S1131990E01BF109EC0DFD1D80810E94B203015092
S11319A00023A1F78F2D9927DF91CF911F910F91DC
S11319B0FF90EF90DF90CF900895CF93DF93CDB752
S11319C0DEB72C970FB6F894DEBF0FBECDBF8FB72E
S11319D0F894282FAE014F5F5F4FDA01E0ECF3E09B
S11319E088E001900D928150E1F78091000390917D
S11319F001038987892F99278A87809118039091F9
S1131A0019038B87892F99278C872FBF2CE060E0DF
S1131A1080E691E00E949C0C2C960FB6F894DEBFF1
S1131A200FBECDBFDF91CF9108951F93CF93DF9366
S1131A30182F8FB7F894C82FDD2760E080E00E944C
S1131A404303882321F0CFBF80E090E005C0CFBFDF
S1131A50812F0E94B2039927DF91CF911F9108959E
S1131A60EF92FF920F931F93CF93DF93182F7B0175
S1131A70042F8FB7F894C82FDD2760E080E00E9420
S1131A804303882321F0CFBF80E090E014C0CFBF90
S1131A901064812F992790931F0380931E030E9443
S1131AA0B203182F402F5527B70180E090E00E9421
S1131AB02C04812F9927DF91CF911F910F91FF90D3
S1131AC0EF900895C098609185027091860241E07C
S1131AD08FE30E94300D089582E090E09093BC0261
S1131AE08093BB0281E08093C60220E030E08091C5
S1131AF04102843011F421E030E0232B29F484E006
S1131B000E947503882319F40E94620D089584E0ED
S1131B100E94350C08951F920F920FB60F92112454
S1131B202F933F934F935F936F937F938F939F93E1
S1131B30AF93BF93EF93FF938091BB029091BC024C
S1131B40019749F482E090E09093BC028093BB0239
S1131B500E946C0D05C08091C2028F5F8093C20207
S1131B60FF91EF91BF91AF919F918F917F916F9171
S1131B705F914F913F912F910F900FBE0F901F9047
S1131B8018951F9380916702882309F04BC0109128
S1131B9041021F3F09F046C060E00E9443038823CE
S1131BA009F440C081E08093C9038091A202882394
S1131BB0E1F11092C90385E090E045C0923069F5E7
S1131BC0C09A8091420220E030E08F3F11F421E07E
S1131BD030E0232BE9F4109344028F3F19F42FEFE4
S1131BE030E00DC0282F3327F901EE5EFC4F8081D1
S1131BF0809342028F3F11F4109343021083209389
S1131C00C30281E08093680288E00E94880105C0D5
S1131C10109344021092680211C0809168028823D4
S1131C2069F00FC081E090E00EC080914402909171
S1131C306802882319F2923021F0EFCF80E00E94ED
S1131C40540380E090E01F9108951F93CF93DF9396
S1131C509FB7F894C92FDD271C2F90914102981744
S1131C6021F0CFBF81E090E03AC08FEF8093410232
S1131C70309167023323F1F48FB7F89499271092C7
S1131C80BA038FBF0E94C10DCFBF11C02093410280
S1131C9081E090E002C0880F991F4A95E2F7809591
S1131CA038233093670286E00E9488011FBF80E0DA
S1131CB090E015C080E065E0E32FFF270E946B20D1
S1131CC0292F492F5527CF01042E02C095958795BA
S1131CD00A94E2F780FDDACF822F8F5FEFCFDF9196
S1131CE0CF911F9108951F93CF93DF938FB7F894EB
S1131CF0C82FDD271C2F8091BB029091BC02892B39
S1131D0029F484E00E94250ECFBF1EC01092C602A3
S1131D108091C202882311F0B79904C00E9908C0BB
S1131D20882319F081508093C2020E946C0D0BC06D
S1131D3081E090E09093BC028093BB021092C202B7
S1131D4084E00E94250E1FBFDF91CF911F9108955B
S1131D500E945305C09AC09888E00E94150D88E03F
S1131D600E94150DC09A84E00E94250E0E94730EF5
S1131D700895FF920F931F93CF93DF93F82E8B0157
S1131D808FB7F894C82FDD2760E080E00E944303FA
S1131D90882321F0CFBF80E090E00CC0CFBF8F2D0F
S1131DA00E94B203812F99270E94B203802F0E94C0
S1131DB0B2039927DF91CF911F910F91FF9008955E
S1131DC01F931FB7F8948091C102882319F460E02F
S1131DD070E009C060E080913305882309F461E074
S1131DE081E06827772780910203882319F480E033
S1131DF090E00AC090E08091BF03882309F491E049
S1131E0081E09827892F9927762F6627770F770FF8
S1131E10770FE4E0880F991FEA95E1F7826E9262EA
S1131E20682B792B81E10E94B90E812F99278FBFEE
S1131E301F9108958FB7F89499276091C8038FBFB5
S1131E4085E0689FB0011124625D7E4F706488E173
S1131E500E94B90E0895EF92FF921F93CF93DF93E0
S1131E60E0900303F0900403F70182A59927182F4B
S1131E70882309F41FE1C0988091C002811749F0BA
S1131E80612F77276F717070606E706885E10E94B2
S1131E90B90E1093C002F70110818FB7F894C82FC0
S1131EA0DD2760E080E00E944303882311F0CFBF68
S1131EB012C0CFBF8EE390E090931F0380931E0364
S1131EC08EE30E94B2031150412F552760E070E069
S1131ED0C7010E942C04DF91CF911F91FF90EF90D6
S1131EE008950F931F93CF93DF93EC010FB7F894EA
S1131EF011270E94E502FC018FE380830FBF10923B
S1131F0031051092300561E082E00E9429038823A4
S1131F1019F085E090E072C08091CA038F5F8093CE
S1131F20CA0381508B838FB7F894082F112762E07E
S1131F3081E00E944303882329F40FBF0E944D04CB
S1131F4081E05BC08FB7F894992724E02093BB030A
S1131F508FBFD0932903C09328030FBFFE0131968E
S1131F60818129819927982F88273327822B932BC6
S1131F7080729C7C8983892F992781832981982F5A
S1131F80882733272164822B932B8983892F9927D0
S1131F9081831CA618A619A619AA18AA1FA680E848
S1131FA08EA761E06093BE034091280350912903FA
S1131FB08FB7F894282F33278091690290916A0291
S1131FC08830910511F0019711F02FBF15C082E000
S1131FD090E090936A028093690260937105509334
S1131FE0040340930303109289022FBF0E948D0CB7
S1131FF0882311F40E942B0F80E09927DF91CF9161
S11320001F910F910895EF92FF921F93CF93DF9347
S1132010182F7B01E82FFF27EE0FFF1FEB5CFC4F0F
S11320201182108210924B02A0913503B0913603B5
S1132030109721F080912F0580FF76C081E0809376
S11320404B0268C09927982F88273327822B932B1C
S1132050ED014B878E83892F99278F832FB7F894AF
S1132060332780910003909101032FBFFD018483E6
S1132070892F992785832FB7F894332780914502B8
S1132080909146022FBF8887892F99278987319697
S1132090818129819927982F8827332720643868DC
S11320A0822B932B8983892F99278183635F6C9378
S11320B06D5080914802882351F010924802CD015E
S11320C00E94710F9927282F8823A9F417C0862FFF
S11320D099279093270380932603B0936E02A093CD
S11320E06D028CE00E94880180914802882349F4A3
S11320F089E090E00AC08FEF80934802822F9927ED
S113210004C01092090380E090E0892B19F08EE05E
S11321100E948801112389F4EBECEE16E2E0FE063E
S113212061F41092620209C0ED014B858F812E810A
S11321306C916D506D3158F785CFDF91CF911F9120
S1132140FF90EF9008959B0180914B02882349F4FE
S113215060913503709136036217730711F40E947E
S1132160031008951F93182F81E090E090936A0262
S1132170809369021092A2020E94C10D8FB7F89455
S11321809927109363028FBF82E00E9488011F91F8
S1132190089561E081E00E9429038823E9F48FB760
S11321A0F894282F33278091640290916502892B3B
S11321B011F02FBF20C081E090E0909365028093DE
S11321C064022FBFDD9A0E94EE0524E130E040E076
S11321D050E00E94AB060FC062E081E00E9443031E
S11321E0882319F089E090E0089561E081E00E947D
S11321F04303882319F080E090E0089585E090E09F
S11322000895CF92DF92EF92FF920F931F93CFB670
S1132210F894DD240E946E05DC01CB0166E470E0D5
S11322200E947720BBE0EB2EF12CE80EF91EF09211
S11322306E05E0926D050E94EE0500271127A801A6
S113224097010E94AB06CFBE1F910F91FF90EF90B4
S1132250DF90CF9008951F93CF93DF938FB7F894B7
S1132260C82FDD271C2F8091690290916A0208977C
S1132270C9F489E00E94150D83E00E94250EC09ADE
S113228081E090E090936A02809369028FB7F8949A
S1132290992723E0209363028FBF82E00E94880184
S11322A0CFBF30C0C09880917105882311F085E0BC
S11322B001C084E00E94150D83FD09C080E00E94E6
S11322C0150D83FF04C085E090E020E003C083E0A7
S11322D090E021E090936A0280936902C09A1FBF44
S11322E0222341F01092890283E00E94250E0E946D
S11322F0011108C00E94EE0520E431E040E050E006
S11323000E94AB06DF91CF911F91089578941F929C
S11323100F920FB60F9211241F932F933F934F9355
S11323205F936F937F938F939F93AF93BF93EF9339
S1132330FF9387B78F7E87BF78941FB7F8948091F7
S11323400E0390910F03A0911003B0911103009715
S1132350A105B10509F051C08091690290916A020A
S11323608530910561F18630910530F48330910513
S113237049F0049781F51AC087309105F1F0089768
S113238051F514C0869B0FC084E090E090936A02DC
S1132390809369020E94EE0527E030E040E050E0BF
S11323A00E94AB0618C00E94011115C00E948D0C3A
S11323B0882389F40E942B110EC080E00AC089E0B2
S11323C00E94150D81E00E94C60683E00E94250E3E
S11323D087E00E94B2108091640290916502019797
S11323E071F482E090E09093650280936402DE9839
S11323F0DE9A80E00E94350C02C00E940B06812FF9
S113240099278FBFFF91EF91BF91AF919F918F91CA
S11324107F916F915F914F913F912F911F910F90F9
S11324200FBE0F901F901895EF92FF920F931F937A
S1132430CF93DF938B0180911E0390911F0386FF3E
S113244040C18F7B8F3309F08EC1C0918502D0913A
S1132450860258815093BD028091BB029091BC02C8
S11324608530910509F443C08630910509F48AC08A
S1132470029709F01FC185E090E09093BC0280931D
S1132480BB024091A002852F99270196242F332760
S1132490281739074CF1B79906C00E9904C0451B9B
S11324A041504093A0024091BD024A32E8F44423D3
S11324B0A1F0BE016F5F7F4F483018F047E050E055
S11324C007C086E090E09093BC028093BB0255273E
S11324D080E090E00E942C0446C11092C602C09A8B
S11324E084E00E94250EE3C00E94A80E3CC186E051
S11324F090E09093BC028093BB02809102038823F6
S113250009F439C08091BF038823A9F5898185FF27
S113251032C08F814E812FB7F8943327609118030E
S1132520709119032FBF9927982F88275527842B3B
S1132530952B8617970759F08F812E819927982F0D
S113254088273327822B932B8F5F9F4FA1F4898198
S11325508770813081F4C09AC0988AE00E94150D7A
S1132560C09AC0984091BD0247502896BE018FE39F
S11325700E94300DF8C04091BD024750552728965F
S1132580BE01A6CFC09A8091C202882339F484E0A8
S11325900E94250E8091C202882311F0B7990AC0C7
S11325A00E9B08C090912905992321F08091BD02CA
S11325B08B3038F480918502909186020E945F05E9
S11325C03DC0913001F5E0912E05FF27EE0FFF1F6E
S11325D0EE0FFF1FED52FB4F208131814281538169
S11325E0E0918502F091860221ABBB27A52F942FA1
S11325F0832F80ABCA01AA27BB2787A7252F3327A0
S11326004427552726A780912E059927019668E02F
S113261070E00E948B2080932E05809129058150C3
S113262080932905882351F0809185029091860238
S11326300E945F0510922E05109229058091BD021B
S1132640FE01E80FF11D808187FF31C0012B79F174
S113265069816770E0918502F0918602623019F514
S1132660A0910303B0910403109709F180916902CA
S113267090916A020797D9F4ED019B8183819817A1
S1132680B1F487B78F7E87BF908181E08CA7E90F73
S1132690F11D8291319688A780818F7789A780E088
S11326A00E94B21004C0613011F489E02AC00E9473
S11326B0730E59C01092C602C09A84E00E94250E7F
S11326C052C08E3309F04FC0C09A80916902909134
S11326D06A020897C9F4C09889E00E94150DC09A4F
S11326E083E00E94250E81E090E090936A0280933B
S11326F069028FB7F894992723E0209363028FBF70
S113270082E00E9488012FC080917105882349F4DA
S113271084E090E090936A02809369020E942B11F6
S113272022C083E00E94250E83E090E090936A0229
S1132730809369020E946E05DC01CB0166E371E0BF
S11327400E9477201BE0E12EF12CE80EF91EF09296
S11327509B02E0929A020E94EE0500271127A8012D
S113276097010E94AB06DF91CF911F910F91FF90CB
S1132770EF9008951F920F920FB60F9211242F938A
S11327803F934F935F936F937F938F939F93AF93F5
S1132790BF93EF93FF932FB1E091AF03F091B00398
S11327A0309739F08091330390913403E80FF91F87
S11327B020838091330390913403019690933403E2
S11327C08093330380E00E945A0340918702509122
S11327D0880280913303909134038417950718F489
S11327E00E94BE031CC06091AF037091B00380913E
S11327F03405909135051092B0031092AF031092F6
S113280035051092340510928802109287021092B6
S11328103403109233032FB120E00E941412FF916D
S1132820EF91BF91AF919F918F917F916F915F9144
S11328304F913F912F910F900FBE0F901F901895BD
S1132840DF92EF92FF920F931F93CF93DF93CDB755
S1132850DEB7A8970FB6F894DEBF0FBECDBFE82F42
S1132860FF27E831F10508F09FC6EA5BFF4FEE0F42
S1132870FF1F0590F491E02D099480912F05882382
S113288009F492C640E051E0CCC480910C03882343
S113289009F48AC690E011E0F5C40FB7F894112743
S11328A081E00E94C60641E0E42EF12CF0926A0217
S11328B0E092690210926B021092A2021092C0027E
S11328C00FBF0FB7F89411270E945305F092BC0272
S11328D0E092BB021092C60289B78F7B89BF80E465
S11328E088BF8AB780628ABF8AB78F7E8ABF89B75A
S11328F0806489BF0FBF8FB7F894082F1127809188
S1132900640290916502049719F483E00E94150D06
S11329100FBF0FB7F8941127C09A80E00E94250ECC
S11329200FBF8FB7F894992722E02093BB032AC6E0
S11329308FB7F89499271092BB03F9CF8FB7F89407
S11329409927F09063028FBF63E081E00E94430304
S1132950882359F10FB7F894112710926A02109244
S1132960690287B78F7E87BF87B78F7D87BF83E074
S11329700E94250EC09A0FBF0FB7F894112710922A
S1132980BC021092BB020E945305C09A89B78F7B88
S113299089BF0FBF1092650210926402DE98DD9821
S11329A0DE9A81E00E94880107C08FB7F8949927C6
S11329B022E02093BB038FBF0091280310912903C9
S11329C00E944D048091300590913105892B09F0C6
S11329D0EBC58FEF809348024F2DB80116C48FB713
S11329E0F894282F3327122F80916F05882301F53F
S11329F081E080936F058091640290916502049751
S1132A0021F481E00E94350C03C084E00E94880117
S1132A101FBFCAC58FB7F894992710926F0587CF47
S1132A208FB7F894282F332780916602882311F0FA
S1132A302FBFBAC52FBF80B3992736E096958795E7
S1132A403A95E1F7182F117090911A0380911B03A6
S1132A508917D9F01917C9F484E090E090936502BE
S1132A60809364028FB7F894992721E0209366023B
S1132A708FBF60E070E08DE10E94B90E0E94DD0C12
S1132A80C09AC09880E00E94880110931B0385E0DF
S1132A9085C58FB7F8949927109141028FBF1230E2
S1132AA009F465C0133030F4112359F0113009F0E2
S1132AB07BC548C0133009F474C0143009F074C5E0
S1132AC0A0C0C0988FB7F894082F11278091640292
S1132AD0909165020297A1F583E090E090936502DE
S1132AE08093640268E170E08DE10E94B90E81E098
S1132AF080931A031092660280B3992726E0969574
S1132B0087952A95E1F78170907080931B0385E087
S1132B100E94880181E00E94150D6FE772E08CE14C
S1132B200E94B90E0E941A0F0E94E00E66E57AE236
S1132B3087E10E94B90E6FEF70E885E10E94B90E3B
S1132B400FBF32C5C09886E00E94150D0E941A0F6F
S1132B500E94E00E0E94DD0CC09AC09883E00E949F
S1132B60150DC09A81E00E94250E84E017C5C09817
S1132B708FB7F894082F112760E080E00E94430388
S1132B80882311F00FBF0AC00FBF83E50E94B20370
S1132B9080E00E94B20380E00E94B203C09A82E007
S1132BA02DC08FB7F8949927209169028FBF2430E4
S1132BB039F0283041F0223001F50E942B0FF4C483
S1132BC00E942B11F1C4C09889E00E94150DC09A8F
S1132BD083E00E94250E8FB7F894992721E030E016
S1132BE030936A02209369028FBF8FB7F8949927B4
S1132BF0109363028FBF82E0D1C483E00E94250E4C
S1132C00D3C40E94620DD0C40FB7F8941127409129
S1132C108702509188026091AF037091B003809154
S1132C203405909135051092B0031092AF031092C1
S1132C303505109234051092880210928702109282
S1132C4034031092330320E00E94141279CF2FB77B
S1132C50F89433278091C3028093440282E08093E6
S1132C6068022FBF80914402882309F09DC4B89A5A
S1132C70C09886E093C4A0918502B0918602DC904E
S1132C809D012D0D311DF9018081881F8827881F22
S1132C90FD0183A7F90180818F77FD0181A7215070
S1132CA03040F9018081FD0180A7A0918502B09197
S1132CB08602FD0132818FB7F89499272091C102D1
S1132CC08FBF222309F490C0832F99279695879567
S1132CD096958795837090708230910541F5878130
S1132CE046812FB7F8943327609118037091190324
S1132CF02FBF9927982F88275527842B952B861724
S1132D00970719F481E090E06CC0FD01878126816A
S1132D1040E050E09927982F88273327822B932B64
S1132D208F5F9F4F11F441E050E0CA015AC00397EE
S1132D3009F0C2C19E012F5F3F4F40EC53E088E091
S1132D40FA010190AF01F90101929F018150C1F78D
S1132D509E012F5D3F4FAE014F5F5F4F88E0FA0148
S1132D600190AF01F90101929F018150C1F79E01C9
S1132D70275F3F4FAE014F5D5F4F88E0FA0101903E
S1132D80AF01F90101929F018150C1F79E012F5EAD
S1132D903F4FAE01475F5F4F88E0FA010190AF01FA
S1132DA0F90101929F018150C1F79E01275E3F4FB7
S1132DB0AE014F5E5F4F88E0FA010190AF01F90167
S1132DC001929F018150C1F748E050E0BE01675E67
S1132DD07F4FCD0106960E941621892B09F06CC104
S1132DE003C0882309F468C1FCE0FD1508F064C140
S1132DF0E0908502F0908602F7012281822F9927C4
S1132E00F6E096958795FA95E1F7039719F468E04B
S1132E1070E002C062E070E0822F99279695879552
S1132E209695879583709070039719F488E090E0E5
S1132E3002C082E090E026E030E0E20EF31E40E0C3
S1132E4050E020E030E0F701E80FF91F8AEF9FEF30
S1132E50E80EF91E05C08191480F511D2F5F3F4FA9
S1132E6026173707C4F3F70163818FEF8093320588
S1132E708FB7F894782F20E030E0EEE8F2E080811C
S1132E8091818417950731F48281861709F4F0C083
S1132E90209332052F5F3F4F33962430310579F765
S1132EA07FBF909132053FB7F8949F3F21F0809106
S1132EB06C02891799F420916C02822F9927FC01E6
S1132EC0EE0FFF1FE80FF91FE257FD4F51834083B8
S1132ED062832F5F237020936C020CC0892F992783
S1132EE0FC01EE0FFF1FE80FF91FE257FD4F51835E
S1132EF040836283832F99278FBF0FB7F8941127DC
S1132F00C7010E94E502FC0190810FBFF70183A570
S1132F10882309F4CDC09F3309F0CAC08781468154
S1132F202FB7F894332760914502709146022FBF62
S1132F309927982F88275527842B952B8617970731
S1132F4061F0878126819927982F88273327822B40
S1132F50932B8F5F9F4F09F0ABC0F70183858630B9
S1132F6009F0A6C080E091E09F938F930E942A21EC
S1132F700F900F90F3E1DF1609F09AC0F7018585F1
S1132F8099279F938F9380913F02909140029F9342
S1132F908F9382E191E09F938F930E942A21F701FE
S1132FA085852DB73EB72A5F3F4F0FB6F8943EBFD5
S1132FB00FBE2DBF9927813021F0833009F076C0F0
S1132FC00EC0F701848599279F938F9380913F02C8
S1132FD0909140029F938F9380E391E05AC0F70150
S1132FE086859927823049F5878520899927982FE6
S1132FF088273327822B932B8130910569F48485AC
S113300099279F938F9380913F02909140029F93C1
S11330108F9389E591E03DC0892B09F047C0F70102
S1133020848599279F938F9380913F0290914002CA
S11330309F938F938AE891E02CC08330B9F5F70110
S1133040878520899927982F88273327822B932BCC
S11330508130910579F4848599279F938F9380918A
S11330603F02909140029F938F938CEB91E011C0AB
S11330707FBF1EC0892BD1F4F701848599279F93C4
S11330808F9380913F02909140029F938F938CEE97
S113309091E09F938F930E942A212DB73EB72A5F18
S11330A03F4F0FB6F8943EBF0FBE2DBF0E94D30B07
S11330B0F0928602E09285028FB7F89499271092D5
S11330C0C6028FBF0E94730E6FC28091BF02882315
S11330D061F52091CF043091D0044091D1045091F6
S11330E0D204EFB7F894FF276091B6037091B70349
S11330F08091B8039091B903E0909C02F0909D02F6
S113310000919E0210919F026E0D7F1D801F911FE2
S1133110EFBF2093CF043093D0044093D104509355
S1133120D2041092BF020E9439050E9454043AC08E
S11331300E9454047B018C018FB7F8949927109254
S11331402A038FBF8091460381FF2EC280913E03E4
S113315090913F03A0914003B0914103A8019701CE
S1133160281B390B4A0B5B0BDA01C901209142037E
S1133170309143034091440350914503281B390B7C
S11331804A0B5B0B2F3F8FEF38078FEF48078FE712
S1133190580709F409C212161306140615062CF072
S11331A0C801B7010E947B04FFC12093CF04309370
S11331B0D0044093D1045093D20481E08093BF02A1
S11331C0C801B7010E943905EFC1909109038091AC
S11331D04802981709F4E8C1909348029923D1F45E
S11331E000916D0210916E0260912603C8010E9445
S11331F0710F482F5527442309F4D6C18FEF8093CC
S1133200480260916D0270916E02F80183850E94FC
S1133210A310CAC18FEF80934802C6C10E948B02DB
S11332208FCC90912F05852F8923C1F0E42FFF27A0
S1133230EE0FFF1FEB5CFC4F208131811182108265
S1133240852F8095982390932F05442339F42B5C84
S1133250324009F0A6C110926202A3C14F5F483008
S113326008F0A2C1550FDDCF80914B02E82FFF2754
S1133270EE0FFF1FEB5CFC4F6081718141E00E9407
S1133280031092C120910C03812F8223C1F0E92FF6
S1133290FF27EE0FFF1FED50FB4F4081518111823C
S11332A01082812F8095282320930C03992339F4CD
S11332B063E0CA010E94F40B110F91E0E3CF9F5F1A
S11332C0983008F071C1110FDDCF10914C02E12F3D
S11332D0FF27EE0FFF1FED50FB4FE080F1801182BE
S11332E010820E945F02112309F05EC161E0C701F0
S11332F026C18FB7F89410926C052091B20340E078
S1133300283009F441E030E0293009F431E0442365
S113331011F4332351F01092B203E0913D03FF27DF
S1133320EE0FFF1FEE5DFC4F108299278FBF4423E1
S113333011F4332331F19FB7F89480912D058F5FF9
S113334080932D0580911303833479F420912C0309
S113335080912B03821779F0822F8F5F80932C0347
S1133360863048F010922C0306C0A0E0442309F4F0
S1133370A1E071E002C0A0E070E0892F99278FBF1F
S113338006C0222311F0FF246DC0A0E070E08FB7C7
S1133390F894992720916F028FBF222341F08FB7B1
S11333A0F89499272AE02093B2038FBF42C08FB7C5
S11333B0F894992760912203409124038FBF8FB71B
S11333C0F894282F332750E090912B0380912C03FD
S11333D0981709F451E02FBF552341F5662331F5C1
S11333E05FB7F89482E0809322038FB7F894282F74
S11333F0332740E090912B0380912C03981709F414
S113340041E02FBF442311F080E006C0E0912C037B
S1133410FF27E55DFC4F82818093230383E480933F
S1133420130310923D03852F99270EC0415042305B
S113343010F0FF240CC08FB7F894992725E420934B
S1133440130321E020933D038FBF11E0F12E772376
S113345049F08FB7F8949927A09378028FBF85E13C
S11334600E9488018FB7F894082F11278091B20326
S11334708A3009F4D3CE0FBFFF2009F495C02FB7CB
S1133480F8943327109273051092720510920D036D
S113349081E08093B2032FBF0E94D102882309F4F4
S11334A083C08FB7F894992729E02093B2038FBF84
S11334B00E94AF0179C0569857981092B1031092A8
S11334C0CA02539A549A579A8FB7F894992710922C
S11334D0B2031092C7022BCA84E160C05398549877
S11334E063C010927502109274028FB7F8949927F2
S11334F0F09078028FBF80917902882311F0B3E0B5
S1133500FB2E209172023091730280917A028823FB
S113351009F04AC080914C02882309F045C000910B
S1133520F3041091F4040217130709F03DC010923C
S1133530F4041092F3040E945F026F2DC8010E94EC
S1133540F40B32C08FB7F894992720917D02309103
S11335507E024091A1028FBF8FB7F894E42FFF271A
S1133560EE0FFF1FE25BFD4F318320832091700239
S1133570442311F02B7F01C02D7F20937002109201
S11335807B0299278FBF10C04CE166E375E08FEF93
S11335909FEF0E941E02882339F087E10E94880170
S11335A003C0550F41E03DCEA8960FB6F894DEBF98
S11335B00FBECDBFDF91CF911F910F91FF90EF9080
S11335C0DF90089580912A058F3FB1F0282F33278B
S11335D0F901ED55FD4F808180932A058F3F11F449
S11335E0809370058FEF80832F3F31F0822F0E94EC
S11335F0201481E090E0089580E090E00895FF9227
S11336000F931F93CF93DF93CDB7DEB7E0970FB639
S1133610F894DEBF0FBECDBFFFB6F89448E150E08A
S11336206FEF70E083EA92E00E9423218FEF809392
S11336302A058093700581E08EBD88E080BF83E019
S113364083BF8CB59DB54AE72CB53DB5281739071E
S113365008F44150442311F0C901F6CF92B782B760
S11336608917E9F32CB53DB592B782B78917E9F309
S11336708CB59DB5821B930B4096F5E09695879586
S1133680FA95E1F790932C0580932B0513BE83B72D
S11336908EBD8EB580BF12BE1DBC1CBC8FEF86BF15
S11336A086B780937C0080B7992787709070892BA8
S11336B0D1F7D29AD19AD09ADA9AD99AD89A15BAD5
S11336C08FEF84BBD498DC98109289001092880004
S11336D080917D00846080937D0080918A00887F42
S11336E0826080938A001DBC1CBC87B7846087BF3E
S11336F08EB5887F84608EBD0E94E21A8823E1F72C
S113370084E592E0909379058093780512E006E0D1
S113371060912B0570912C0588279927ECE0660FA2
S1133720771F881F991FEA95D1F720E031EE40E01A
S113373050E00E949E202150304029B9832F9927C0
S1133740809390001BB9009395001AB820939900B8
S11337508093980010939B0000939D0010929A0010
S113376084E490E09093CB048093CA0410922203E3
S1133770109224038AE08093B20310920D031092F6
S1133780130310922D051092730510927205109276
S11337906C0510923D031092C6041092C50484E097
S11337A08093C7021092B4031092CE041092FF02C9
S11337B010923A031092390310922C0310922B03A7
S11337C0109284028FEF8093C402EEE8F2E08FEF50
S11337D09FEF918380831282339622E0EA39F207C5
S11337E0C1F70E946E056093CA0380913F029091D5
S11337F040020196AA27BB278093050390930603F2
S1133800A0930703B093080380B7886080BF8BE060
S113381083BF86EE81BF87B7826087BF0E94B604EC
S113382085EF94E090938602809385028E98B89AEF
S11338308C988FEF809312031092BA031092BB03FB
S11338401092BC031092BD03B89AD69AD59A8FB73A
S1133850F894992720914502309146028FBF309306
S11338601903209318030E94D90629A73AA74BA746
S11338705CA76DA77EA78FA798ABDE019196FE018A
S1133880B99688E001900D928150E1F7DE015196DE
S1133890FE01B19688E001900D928150E1F7DE01BE
S11338A05996FE01719688E001900D928150E1F7DE
S11338B0A0ECB3E0FE01799688E001900D9281506E
S11338C0E1F78091470299279093010380930003C5
S11338D08FE18093B5038AE18093C8030E94D906DF
S11338E029A73AA74BA75CA76DA77EA78FA798AB7C
S11338F0DE019196FE01B99688E001900D92815007
S1133900E1F7DE011196FE01B19688E001900D9277
S11339108150E1F7DE011996FE01319688E00190AD
S11339200D928150E1F7A0ECB3E0FE01399688E0F6
S113393001900D928150E1F7A0ECB3E0FD013796C0
S11339409C9180818D939083319783E0E33CF807C9
S1133950B9F781E08093C10210923305809302038A
S11339601092BF030E94E21A8823E1F78F2D992752
S11339708FBF78948FB7F894282F3327922F809194
S1133980B2038A3031F08091C702843011F02FBF26
S113399004C09FBF82E10E94880180913F02909100
S11339A040029F938F938DE192E09F938F930E94A7
S11339B02A210E94D30B0E94C9100F900F900F90E0
S11339C00F908FB7F894482F55274BC087B7992786
S11339D083709070892B19F4E5E0F0E013C080B790
S11339E0992787709070892BD1F781B792B7891B7B
S11339F08C3030F082B7853F18F4E3E0F0E002C089
S1133A00E2E0F0E087B7887BC1F480917D008B7F92
S1133A10A1F46E9912C08AB190919A00892B887191
S1133A2061F48091740082FD08C0379B03C081E07B
S1133A3090E005C085E090E002C080E090E025B70A
S1133A408E1708F4E82FFF27E454FD4FE491237EFA
S1133A502062E22BE5BF78948895F89485B78F7D32
S1133A6085BF80912A058F3F09F4B0CF282F3327D3
S1133A70F901ED55FD4F808180932A058F3F11F4A4
S1133A80809370058FEF80832F3F09F49FCF4FBF42
S1133A90822F0E94201495CF78941F920F920FB614
S1133AA00F9211242F923F924F925F926F927F92C6
S1133AB08F929F92AF92BF92CF92DF92EF92FF923A
S1133AC00F931F932F933F934F935F936F937F9322
S1133AD08F939F93AF93BF93CF93DF93EF93FF9312
S1133AE0C6B5D7B58FB7F894282E0E94EE059B0172
S1133AF02C1B3D0B442755272B013C01421A530A2A
S1133B00640A750A8091690290916A028530910570
S1133B1021F0069709F0E0C0BFC086E090E09093E2
S1133B206A028093690231E0332E3092C50210920A
S1133B306B0280E00E94C606E0910303F091040347
S1133B4041AABB27A72D962D852D80ABC301AA279B
S1133B50BB2787A7872D9927AA27BB2786A7E0918C
S1133B600303F091040385A5882309F484C06081CC
S1133B70655077274F01860E971EF4012081E1805E
S1133B808281A3809927AA27BB27BA2FA92F982F10
S1133B908827332744275527522F442733272227A2
S1133BA0FF24002711278701FF24EE242E293F2913
S1133BB0402B512BBB24CC24DD242A293B294C291E
S1133BC05D29822B932BA42BB52B84199509A60967
S1133BD0B7098383292F3A2F4B2F552722839D0121
S1133BE04427552721838B2F9927AA27BB27808316
S1133BF0C09824E0A40180E090E00E949C0CC09A4C
S1133C00F4012081E1808281A3809927AA27BB2720
S1133C10BA2FA92F982F8827332744275527522FA7
S1133C20442733272227FF24002711278701FF2455
S1133C30EE242E293F29402B512BBB24CC24DD24F8
S1133C402A293B294C295D29822B932BA42BB52BA4
S1133C50840D951DA61DB71D8383292F3A2F4B2F45
S1133C60552722839D014427552721838B2F99278C
S1133C70AA27BB278083E0910303F0910403818189
S1133C8085FF02C03092A20283E00E94250E87B70E
S1133C908F7E87BF84997AC01092C50281E00E940A
S1133CA0C606E0910303F0910403818185FF0FC0F0
S1133CB087E090E090936A02809369020E94EE0587
S1133CC020E031E040E050E00E94AB0603C080E019
S1133CD00E94B210849B5AC080916B02882391F594
S1133CE08091C502882371F511E01093C5020E94EA
S1133CF0C60680B320912905283098F4E0912E055A
S1133D00E20FFF27E770F070EE0FFF1FEE0FFF1FAB
S1133D10ED52FB4F40825182628273822F5F209367
S1133D20290510936B02D0932103C0932003849937
S1133D302DC09927A4E096958795AA95E1F7182FA9
S1133D40117001C010E08091C5028130F9F4109225
S1133D50C5020E94C60610926B021123B9F4809129
S1133D60200390912103C81BD90B2A9778F48091E2
S1133D702905882319F08150809329058091030334
S1133D8090910403009711F00E945F052FBEFF91EC
S1133D90EF91DF91CF91BF91AF919F918F917F91DF
S1133DA06F915F914F913F912F911F910F91FF90D0
S1133DB0EF90DF90CF90BF90AF909F908F907F90C7
S1133DC06F905F904F903F902F900F900FBE0F9089
S1133DD01F901895ACE2B0E0E0EFFEE10C94DF2018
S1133DE0222E332E442E552E662E772E882E992E73
S1133DF0FE013196A8E01192AA95E9F729823A8248
S1133E004B825C826D827E828F829886FE01399617
S1133E10B8E01192BA95E9F7A986BA86CB86DC8612
S1133E20ED86FE860F87188B89819A81AB81BC81D0
S1133E3089A79AA7ABA7BCA77C018D018FEF9FEF41
S1133E40A0E0B0E0E822F9220A231B2389A59AA561
S1133E50ABA5BCA51D014424552489859A85AB8551
S1133E60BC858DA39EA3AFA3B8A75C016D018FEFA2
S1133E709FEFA0E0B0E0A822B922CA22DB228DA1E4
S1133E809EA1AFA1B8A53D0188249924C801B7011A
S1133E90A60195010E94C02069A37AA38BA39CA3C9
S1133EA0C801B701A40193010E94C0207B018C01C9
S1133EB0C201B101A60195010E94C0205B016C0101
S1133EC0C201B101A40193010E94C0203B014C0135
S1133ED0EA0CFB1C0C1D1D1D89A19AA1ABA1BCA160
S1133EE09D01442755272E0D3F1D401F511F2A15A4
S1133EF03B054C055D0540F480E090E0A1E0B0E0B6
S1133F00680E791E8A1E9B1ECA01AA27BB27860D2E
S1133F10971DA81DB91D8D8F9E8FAF8FB8A3A901C2
S1133F203327222789A19AA1ABA1BCA1A070B070AC
S1133F30280F391F4A1F5B1F298F3A8F4B8F5C8FC5
S1133F40A98CBA8CCB8CDC8CED8CFE8C0F8D18A1DB
S1133F50FE01719698E011929A95E9F7ED8AFE8A2E
S1133F600F8B188F2D813E814F8158856DA17EA1C5
S1133F708FA198A50E94C0203B014C012D853E8550
S1133F804F85588969A57AA58BA59CA50E94C02058
S1133F902D893E894F89588D260F371F481F591F79
S1133FA0260D371D481D591D2D8B3E8B4F8B588F69
S1133FB06D887E888F88988C2A2D3B2D4C2D5D2D05
S1133FC0662D772D882D992DE2E1AC960C94FB207B
S1133FD0A0E1B0E0EEEEFFE10C94DF20222E332EC0
S1133FE0442E552E662E772E882E992E002309F402
S1133FF066C088E0FE01319611928A95E9F729831B
S11340003A834B835C836D837E838F829887E0E25F
S1134010E01B1E16CCF52D813E814F815885602F03
S1134020772767FD7095DA01C901062E04C0B6959D
S1134030A795979587950A94D2F78D879E87AF8722
S1134040B88B04C0220F331F441F551FEA95D2F7C3
S113405089819A81AB81BC8104C0B695A795979557
S113406087956A95D2F7282B392B4A2B5B2B298706
S11340703A874B875C8729843A844B845C846D84BB
S11340807E848F8498881BC01D861E861F86188A8E
S11340902E2F332727FD3095309521953F4F8D8165
S11340A09E81AF81B88504C0B695A79597958795ED
S11340B02A95D2F789879A87AB87BC87DCCF222DD4
S11340C0332D442D552D662D772D882D992DE2E124
S11340D060960C94FB20991B79E004C0991F9617F5
S11340E008F0961B881F7A95C9F780950895AA1B36
S11340F0BB1B51E107C0AA1FBB1FA617B70710F0CF
S1134100A61BB70B881F991F5A95A9F78095909500
S1134110BC01CD01089597FB092E07260AD077FD2F
S113412004D0E5DF06D000201AF4709561957F4F26
S11341300895F6F7909581959F4F0895A1E21A2E60
S1134140AA1BBB1BFD010DC0AA1FBB1FEE1FFF1F37
S1134150A217B307E407F50720F0A21BB30BE40B87
S1134160F50B661F771F881F991F1A9469F76095CE
S11341707095809590959B01AC01BD01CF01089588
S1134180629FD001739FF001829FE00DF11D649F37
S1134190E00DF11D929FF00D839FF00D749FF00DC3
S11341A0659FF00D9927729FB00DE11DF91F639F64
S11341B0B00DE11DF91FBD01CF01112408952F9207
S11341C03F924F925F926F927F928F929F92AF92A3
S11341D0BF92CF92DF92EF92FF920F931F93CF93F0
S11341E0DF93CDB7DEB7CA1BDB0B0FB6F894DEBF87
S11341F00FBECDBF09942A88398848885F846E84AD
S11342007D848C849B84AA84B984C884DF80EE80F6
S1134210FD800C811B81AA81B981CE0FD11D0FB6FF
S1134220F894DEBF0FBECDBFED010895FB01DC01A4
S113423004C08D910190801921F441505040C8F779
S1134240881B990B0895DC0101C06D9341505040C7
S1134250E0F70895A2E0B0E0E0E3F1E20C94EF208F
S1134260FE01379661917191FA83E983AF018091E0
S11342707805909179050E944121E2E022960C9400
S11342800B21ABE0B0E0E7E4F1E20C94E1203C0167
S11342904B016A01FC0117821682838181FD03C0F0
S11342A08FEF9FEFDAC1F3013381F40133FD859180
S11342B033FF81914F01882309F4CCC1853239F44D
S11342C033FD859133FF81914F01853229F4B30188
S11342D099270E944723E7CF00E0442455244AE06D
S11342E00032B0F48B3269F08C3228F4803251F011
S11342F0833271F40BC08D3239F0803349F401609C
S113430028C00260046025C0086023C0006121C089
S113431007FD29C0282F20532A3078F406FF06C051
S1134320549EC0011124522E580E13C0449EC00145
S11343301124422E480E00620CC08E3221F406FD78
S113434089C1006406C08C3611F4006802C0883646
S113435051F4F40133FD859133FF81914F0188239A
S113436009F46FC0BDCF982F8554833018F0805264
S1134370833038F424E030E0C20ED31E8FE3898307
S11343800FC0933631F0933799F0933509F05BC041
S113439023C0F6018081898322E030E0C20ED31E5F
S11343A07E010894E11CF11C51E0A52EB12C12C031
S11343B0F601E080F18006FD03C06FEF7FEF02C0DD
S11343C0652D772722E030E0C20ED31EC7010E947C
S11343D03C235C010F7713C0F601E080F18006FDF9
S11343E003C06FEF7FEF02C0652D772722E030E036
S11343F0C20ED31EC7010E9431235C01006803FF73
S113440007C01BC0B30180E290E00E9447234A9496
S1134410842D9927A816B906A8F30FC0F70107FD44
S1134420859107FF81917F01B30199270E9447235A
S113443041104A940894A108B108A114B10471F779
S113444006C190E03EC0943611F0993691F507FF0D
S11344500AC0F601608171818281938124E030E099
S1134460C20ED31E0DC0F601808191819C01B90159
S1134470882777FD8095982F42E050E0C40ED51E22
S11344804FE6B42EB02297FF09C0909580957095A1
S113449061957F4F8F4F9F4F50E8B52A8E010F5F74
S11344A01F4F2AE030E0A8010E947423A82EA01A0E
S11344B04DC0953731F43FEEF32EF0222AE030E080
S11344C023C029EFF22EF0229F3661F0903720F4BA
S11344D0983509F0BFC012C0903739F0983709F009
S11344E0B9C005C028E030E00FC080E1F82AF4FE2E
S11344F002C094E0F92A20E130E006C0F4FE02C0D4
S1134500E6E0FE2A20E132E0F7FE0AC0F60160810F
S113451071818281938144E050E0C40ED51E0BC0AA
S1134520F60180819181AC01BA0188279927E2E0E4
S1134530F0E0CE0EDF1E8E010F5F1F4FA8010E9418
S11345407423A82EA01A8FE7B82EBF20B6FE10C081
S1134550FEEFBF22A51460F42B2D332724FF1AC0CD
S113456022FF02C0052D09C02FEEB222052D01C085
S11345700A2D2B2D332724FF0EC0FE01EA0DF11D59
S11345808081803319F439EEB32209C00F5F22FF12
S113459006C004C0052D822F867809F00F5FEB2C2E
S11345A0FF24E3FC14C0E0FE0FC0041510F05A2CE5
S11345B00BC0542C501A5A0C042D06C0B30180E2CF
S11345C090E00E9447230F5F0415C0F304C0041554
S11345D010F4401A01C04424E4FE10C0B30180E387
S11345E090E00E944723E2FE1EC0E1FE03C088E57E
S11345F090E002C088E790E0B3010CC08E2D86786D
S113460091F0E1FE02C08BE201C080E2B7FC8DE2D2
S1134610B30199270E94472306C0B30180E390E0C9
S11346200E9447235A94A514C0F3AA94FE01EA0DEC
S1134630F11D8181B30199270E944723AA2039F0F3
S1134640F4CFB30180E290E00E9447234A944420CF
S1134650C1F729CEF30186819781E0E12B960C9472
S1134660FD20FC010590615070400110D8F7809541
S113467090958E0F9F1F0895FC016150704001902A
S11346800110D8F7809590958E0F9F1F08950F9372
S11346901F93CF93DF938C01EB018B81992781FFCB
S11346A01BC082FF0DC02E813F818C819D81281704
S11346B0390764F4E881F9810193F983E88306C03A
S11346C0E885F985802F0995892B31F48E819F81A6
S11346D001969F838E8302C00FEF1FEFC801DF9105
S11346E0CF911F910F910895FA01AA27283051F113
S11346F0203181F1E8946F936E7F6E5F7F4F8F4F0F
S11347009F4FAF4FB1E03ED0B4E03CD0670F781F6D
S1134710891F9A1FA11D680F791F8A1F911DA11D52
S11347206A0F711D811D911DA11D20D009F468948B
S11347303F912AE0269F11243019305D3193DEF633
S1134740CF010895462F4770405D4193B3E00FD0E9
S1134750C9F7F6CF462F4F70405D4A3318F0495DD4
S113476031FD4052419302D0A9F7EACFB4E0A695B7
S11347709795879577956795BA95C9F700976105D9
S1134780710508959B01AC010A2E0694579547952F
S113479037952795BA95C9F7620F731F841F951F24
S10947A0A01D0895FFCFE7
S11347A62846464420257529203A205265636562C9
S11347B669002846464420257529203A206D6573EC
S11347C6736167655F747970653A2025752E0A00F2
S11347D62846464420257529203A204D656E736186
S11347E667656D205345542072656365626964612B
S11347F62064652025752E0A002846464420257522
S113480629203A204D656E736167656D20545552B3
S11348164E5F4149525F4F4E20726563656269641B
S1134826612064652025752E0A0028464644202505
S11348367529203A204D656E736167656D20545560
S1134846524E5F4149525F4F464620726563656228
S11348566964612064652025752E0A00284646444D
S113486620257529203A204D656E736167656D2094
S11348765455524E5F54565F4F4E207265636562BF
S11348866964612064652025752E0A00284646441D
S113489620257529203A204D656E736167656D2064
S11348A65455524E5F54565F4F46462072656365B3
S11348B6626964612064652025752E0A00284646CF
S11348C64420257529203A20496E696369616C691B
S11348D67A616E646F20464644202E2E2E0A00010D
S11348E600FFFFFFFF010022FFFFFF0101FF470357
S11348F67B0347030000000200000000040C0000D4
S10549060000AB
S9030000FC
