S01800006275696C642F6D6963617A2F6D61696E2E73726563E5
S11300000C9461010C9450070C945A070C946407E7
S11300100C946E070C9478070C9482070C948B0D47
S11300200C948C070C9480010C9480010C94591D41
S11300300C9486110C941A070C9430070C94550BED
S11300400C9409070C94BA130C9453090C94800172
S11300500C94CF090C9480010C9480010C948001C1
S11300600C9425070C94220B0C94010B0C940C0B90
S11300700C94170B0C94350B0C94E40A0C9480012B
S11300800C94F60A0C9480010C9480014D1498147D
S11300909E14EF140A1510154915041627163B165D
S11300A07218A518F2183D144119451472198619CD
S11300B0681A791A7B1A7E1AAF1AD11A0000211015
S11300C0422063308440A550C660E77008812991BE
S11300D04AA16BB18CC1ADD1CEE1EFF13112100266
S11300E073325222B5529442F772D662399318830E
S11300F07BB35AA3BDD39CC3FFF3DEE36224433432
S113010020040114E664C774A44485546AA54BB55D
S113011028850995EEE5CFF5ACC58DD55336722605
S113012011163006D776F6669556B4465BB77AA7AD
S113013019973887DFF7FEE79DD7BCC7C448E55851
S11301408668A7784008611802282338CCC9EDD9FD
S11301508EE9AFF9488969990AA92BB9F55AD44AA5
S1130160B77A966A711A500A333A122AFDDBDCCB4D
S1130170BFFB9EEB799B588B3BBB1AABA66C877C71
S1130180E44CC55C222C033C600C411CAEED8FFD9D
S1130190ECCDCDDD2AAD0BBD688D499D977EB66E45
S11301A0D55EF44E133E322E511E700E9FFFBEEFED
S11301B0DDDFFCCF1BBF3AAF599F788F8891A981AF
S11301C0CAB1EBA10CD12DC14EF16FE18010A10099
S11301D0C230E3200450254046706760B983989389
S11301E0FBA3DAB33DC31CD37FE35EF3B1029012E9
S11301F0F322D2323542145277625672EAB5CBA555
S1130200A89589856EF54FE52CD50DC5E234C32438
S1130210A01481046674476424540544DBA7FAB728
S11302209987B8975FE77EF71DC73CD7D326F23688
S11302309106B01657667676154634564CD96DC974
S11302400EF92FE9C899E9898AB9ABA944586548D8
S113025006782768C018E1088238A3287DCB5CDBC8
S11302603FEB1EFBF98BD89BBBAB9ABB754A545A28
S1130270376A167AF10AD01AB32A923A2EFD0FED94
S11302806CDD4DCDAABD8BADE89DC98D267C076C78
S1130290645C454CA23C832CE01CC10C1FEF3EFF68
S11302A05DCF7CDF9BAFBABFD98FF89F176E367EC8
S11302B0554E745E932EB23ED10EF01E00081C18EB
S11302C0141011241FBECFEFD0E1DEBFCDBF12E06A
S11302D0A0E0B1E0E0ECF7E400E00BBF02C007905F
S11302E00D92A83CB107D9F715E0A8ECB2E001C023
S11302F01D92A23EB107E1F70E940C1B0C94DF2370
S11303000C9400008FB7F894992708958FBF08952F
S1130310282F9FB7F894E82FFF27E75FFC4F8081D1
S11303208F3F81F4E091D605E21771F40BC020935E
S1130330900504C0FF27E75FFC4F20832093D60578
S113034020E007C025E005C0809190058F3F91F71C
S1130350EECF892F99278FBF822F992708951F9356
S11303601FB7F8948091D205882341F481E10E945B
S11303708801882319F481E08093D205812F99277D
S11303808FBF1F910895382FFA01422F2D3118F095
S113039082E090E008956683872F992785833387C9
S11303A021878091DA029091DB02892B19F085E094
S11303B090E008952FB7F894332785E08093DD0209
S11303C01092DE02F093D902E093D80282E090E02A
S11303D09093DB028093DA021092E0021092DF0223
S11303E0445F4093DC022FBF8FB7F894282F332744
S11303F0809118048A3011F42FBF19C02FBF9FB702
S1130400F89480918A03882311F020E006C081E0EB
S113041080938A0310928B0321E0892F99278FBF41
S1130420222329F00E94AF0180E090E00895109209
S1130430DB021092DA0281E090E00895CF93DF931B
S1130440DB01FB0135968183892F9927EB018D838D
S113045084E686838091590590915A05892B19F079
S113046085E090E029C070935A0560935905448350
S11304708091B202882319F480E090E01DC0868147
S1130480EB016D817727762F662721813327622B35
S1130490732B1092B202242FAD010E94C30199273D
S11304A0282F882339F081E08093B20210925A05F4
S11304B010925905822F9927DF91CF910895CF93F8
S11304C0DF931092B202A0915905B0915A0510978A
S11304D021F08091720380FF08C081E08093B20212
S11304E017C080E10E94880113C0FD013596248164
S11304F03327ED016D817727762F66278181992730
S1130500682B792BAD0186810E94C301882349F7AA
S1130510DF91CF910895809118048A3021F480915D
S11305202D03843021F081E08093D502089583E186
S11305300E9488011092D50208952FB7F8943327AA
S11305408CB95E9A2FBF0895FC016115710519F4E9
S113055081E090E008958091820390918303892B38
S113056019F085E090E008957093330560933205A7
S1130570F0938303E093820310922F0310922E03CF
S113058081E0809330035E9A569A808121E030E0C6
S113059030932F0320932E030E949D0280E090E06D
S11305A008958FB7F89499272091E6022E7F20931F
S11305B0E6022EE7209324038FBF61E070E084E21B
S11305C093E00E94A40299270895FC01828199274F
S11305D0582F442781819927482B592BCA01892FE9
S11305E0992786958695837090708230910559F08D
S11305F08330910559F0892B19F420E030E008C0CC
S11306002CE93FEF05C022E030E002C028E030E0F2
S1130610CA0184E0989F812D992711248230910585
S113062059F08330910559F0892B19F480E090E05A
S113063008C08CE99FEF05C082E090E002C088E02A
S113064090E0280F391F2A5F3F4FCF01820F931F7D
S11306500895282F9FB7F894662349F0E82FFF27C1
S1130660E05EFB4F8081882311F021E006C0E22F79
S1130670FF27E05EFB4F608320E0892F99278FBF1F
S1130680822F99270895E82F8FB7F894282F3327BE
S113069090E0FF27E05EFB4F8081861709F491E02C
S11306A02FBF892F99270895882311F06E9A0895F2
S11306B06E980895882311F06F9A08956F9808959D
S11306C080E00E945403BA9ABB98B99AB89A6C9A7B
S11306D080E00E945A036B986A9881E00E94540358
S11306E0709A8DB18C7F8DB908950F931F93CF931A
S11306F0DF93182F8FB7F894C82FDD270C2F61E0F4
S113070080E00E942903882321F0CFBF85E090E098
S113071024C08091AA028823A1F48091CE02823061
S113072081F409C082E08093CE021092AA020E9452
S11307306003B89AC0981093A70280E00FBF99276E
S11307400CC08091CE02882369F38FB7F89499275F
S1130750109220048FBF81E0F1CFDF91CF911F91E0
S11307600F9108951F93182F81E00E9454031FB91D
S1130770779BFECF8FB199271F9108958F929F92F7
S1130780AF92BF92CF92DF92EF92FF920F931F939B
S1130790CF93DF938FB7F8949927C0909A05D090A0
S11307A09B058090150490901604C0919903D091F4
S11307B09A032091ED023091EE02EAE0AE2EB12CC4
S11307C0AC0EBD1E2A153B0508F459018FBF7401F8
S11307D0EC0EFD1E86010C0F1D1F14C0C114D104A4
S11307E019F0F801808101C080E00E94B2038114F5
S11307F0910411F0F701808321960894E11CF11C07
S11308000F5F1F4FC5010197C817D90738F381E05F
S11308100E945A039FB7F894C114D10431F0CC0E4E
S1130820DD1EF60180818FB901C01FB8D0939A03F1
S1130830C0939903892F99278FBF80E090E0DF91BF
S1130840CF911F910F91FF90EF90DF90CF90BF90C9
S1130850AF909F908F9008952FB7F89433275093BB
S1130860EE024093ED0290939B0580939A0570935A
S113087016046093150410929A03109299032FBFE3
S1130880452B29F08FB10E94BE039927089587E074
S11308900E94880180E090E008958FB7F89499272A
S11308A0109222048FBF08957FB7F89462B7209105
S11308B0F0023091F1024091F2025091F30206B637
S11308C001FE0FC081B792B7280F311D411D511D84
S11308D02F5F3F4F4F4F5F4F290F311D411D511D5A
S11308E004C0260F311D411D511D872F99278FBF2D
S11308F0CA01B9010895EF92FF920F931F93E091FB
S1130900AC03E1FF2BC02091A4033091A5034091D7
S1130910A6035091A703E090A803F090A9030091C7
S1130920AA031091AB03621B730B840B950B6E151A
S11309307F058007910790F0E0FF04C0ED7FE0930E
S1130940AC030CC02E0D3F1D401F511F2093A40368
S11309503093A5034093A6035093A7038BE00E9412
S113096088011F910F91FF90EF900895DF92EF920D
S1130970FF920F931F938FB7F894282F3327D22E0B
S113098091B782B746B7981711F041FF02C02FBF45
S11309906AC0809190038823E1F10E945404E0909E
S11309A01C04F0901D0400911E0410911F0420915A
S11309B002033091030340910403509105036E191F
S11309C07F09800B910B621773078407950720F04A
S11309D01092900371E01EC02E0D3F1D401F511F49
S11309E08091F0029091F102A091F202B091F30291
S11309F0281B390B4A0B5B0B273E3105410551057A
S1130A0040F4822F223010F070E005C070E082E0E4
S1130A1002C070E086EE682F615000B601FCFDCF85
S1130A2082B7681709F46F5F2091F0023091F102E8
S1130A304091F2025091F302DA01C9010196A11D1D
S1130A40B11D860F911DA11DB11D82179307A40727
S1130A50B50710F4622F609561BFDFBE772319F0EC
S1130A608AE00E9488011F910F91FF90EF90DF9020
S1130A700895AFB7F894BB27E1E0E0939003609347
S1130A801C0470931D0480931E0490931F042093F0
S1130A900203309303034093040350930503AFBF51
S1130AA00E94B604089580E88093060310922C03F4
S1130AB01092940510928F05109228030895CF93F5
S1130AC0DF93FC0115A6DC019E96ED011B821A82C0
S1130AD0198280E886A7DF91CF9108952F923F92E3
S1130AE04F925F926F927F928F929F92AF92BF923A
S1130AF0CF92DF92EF92FF920F931F93CF93DF93E6
S1130B00CDB7DEB728970FB6F894DEBF0FBECDBFC2
S1130B1020906B0330906C0340906D0350906E03F3
S1130B20662477248824BEE4AB2EA3E8BA2ECC2412
S1130B30DD24EE24FF2400E010E0222D332D442D8B
S1130B40552D662D772D882D90E00E94F71E298360
S1130B503A834B835C836D837E838F839887822E55
S1130B60932EA42EB52E2401350100E20E94F51F18
S1130B70A22EB32EC42ED52EC301B201969587950D
S1130B80779567956A0D7B1D8C1D9D1D97FF05C08C
S1130B909F776F5F7F4F8F4F9F4F60936B0370936F
S1130BA06C0380936D0390936E0328960FB6F894AC
S1130BB0DEBF0FBECDBFDF91CF911F910F91FF908C
S1130BC0EF90DF90CF90BF90AF909F908F907F90E9
S1130BD06F905F904F903F902F9008958FB7F89447
S1130BE060919D0370919E032CB53DB506B602FE3F
S1130BF004C06F5F7F4F2CB53DB599278FBF882701
S1130C009927CB017727662744275527622B732B17
S1130C10842B952B0895EF92FF920F931F930E94BC
S1130C20EE057B018C0120917A0330917B03409186
S1130C307C0350917D038091740390917503A0917E
S1130C407603B0917703820F931FA41FB51FE2169A
S1130C50F3060407150730F082179307A407B507B6
S1130C6058F005C082179307A407B507E0F5E81606
S1130C70F9060A071B07B8F59C01AD012E193F09B7
S1130C80400B510B213060E8360760E0460760E016
S1130C90560768F180E090E8A0E0B0E0E80EF91EA5
S1130CA00A1F1B1FE0927A03F0927B0300937C03DC
S1130CB010937D0380E090E8AFEFBFEFE80EF91EDC
S1130CC00A1F1B1F2050304840405040209374039B
S1130CD030937503409376035093770320E030E814
S1130CE040E050E014C020E030E040E050E0809369
S1130CF07A0390937B03A0937C03B0937D031092BB
S1130D007403109275031092760310927703A9016D
S1130D10B7012CB53DB5C9018E199F0903968417F7
S1130D20950720F0B9016D5F7F4F02C0640F751FF6
S1130D306115710511F461E070E0615070407BBD94
S1130D406ABD80E186BF87B7806187BF1F910F911D
S1130D50FF90EF9008950F931F930FB7F894112706
S1130D6060937A0370937B0380937C0390937D0359
S1130D702093740330937503409376035093770361
S1130D800E940B060FBF1F910F91089597B79F7D87
S1130D9097BF90E296BF882319F08EB5806402C095
S1130DA08EB58F7B8EBD87B7806287BF80E090E071
S1130DB00895AF92BF92CF92DF92EF92FF920F937A
S1130DC01F93CF93DF93CDB7DEB728970FB6F89470
S1130DD0DEBF0FBECDBF20E070E0E091A502F09130
S1130DE0A60232E14DE65CE46FE48091A6029E2FF8
S1130DF028960FB6F894DEBF0FBECDBFDF91CF911A
S1130E001F910F91FF90EF90DF90CF90BF90AF9024
S1130E1008951F920F920FB60F9211248F9383B7E8
S1130E2083BF00B600FCFDCF8F910F900FBE0F90D3
S1130E301F90189578941F920F920FB60F92112459
S1130E400F900FBE0F901F90189578941F920F92D9
S1130E500FB60F9211240F900FBE0F901F9018958C
S1130E6078941F920F920FB60F9211242F933F93F1
S1130E708F939F932FB7F894332780919D0390917C
S1130E809E03019690939E0380939D032FBF9F9191
S1130E908F913F912F910F900FBE0F901F90189537
S1130EA01F920F920FB60F9211240F900FBE0F9046
S1130EB01F9018951F920F920FB60F9211240F9046
S1130EC00FBE0F901F9018951F920F920FB60F929E
S1130ED011240F900FBE0F901F9018951F920F9220
S1130EE00FB60F9211240F900FBE0F901F901895FC
S1130EF01F920F920FB60F9211240F900FBE0F90F6
S1130F001F9018951F920F920FB60F9211240F90F5
S1130F100FBE0F901F9018951F920F920FB60F924D
S1130F2011240F900FBE0F901F901895ECEBF0E07A
S1130F306927660FF11DE60FF11DC895982F802DC6
S1130F403196C89590250895982F8091E1028823C1
S1130F5089F5992379F531E03093E1028091B30268
S1130F608093E2022091D602822F8170809307033E
S1130F708091B8029091B9029093E4028093E302C5
S1130F808091D7028093E50232273170267EE32FC9
S1130F90FF27EE0FFF1FEC54FD4F8081918190934A
S1130FA0B9028093B802232B2093D60286E10E94D3
S1130FB0880108958091D60280FF02C08B7F01C012
S1130FC08D7F8093D60208950F931F93082F162FB9
S1130FD080912D038130D9F0813038F0823009F4CA
S1130FE04AC0833009F028C159C0002309F458C10C
S1130FF010922C0510922B0510921A0410923405AD
S1131000109265031092A00310929F0339C100232C
S113101009F046C180919F039091A0030E94960716
S11310209093A00380939F0382E080932D031093F9
S11310303405143409F000C125C18695869503C092
S11310408091D6028695817009F0F6C08091D6020F
S1131050992311F0846001C082608093D60280914C
S1131060D602877E88608093D6021092D7028FEFD3
S11310708093B30215C1002309F0DEC060936503B9
S113108080919F039091A0030E9496079093A003E0
S113109080939F0383E080932D0302C180911A04FF
S11310A08F3F09F4C9C0002309F461C0823008F4F9
S11310B0C3C0E0912B05EE2309F4EBC04E2F415041
S11310C0E42FFF27E55DFA4F82819927382F2227E5
S11310D0442311F4E2E002C0E42FE150FF27E55D70
S11310E0FA4F82819927282B392B80919F03909165
S11310F0A0032817390709F09FC080E00E94A407C5
S1131100309165038091910320919203982F9F5F02
S1131110963008F090E0921771F0E82FFF27EF5611
S1131120FC4F32838F5F80939103863010F01092CE
S113113091030E94AF0110922C0510922B0594E0AC
S113114090932D0310921A041092340510926503A3
S11311501092A00310929F038091E6028D7F8093EA
S1131160E6028091D502882309F49AC084C08230B3
S113117008F44EC0E0912C05FF27E55DFA4F82810B
S1131180482F5527342F2091D602822F8695869595
S11311908695837099278130910519F00297F9F4A7
S11311A00EC0277E20612093D602442311F485E0EB
S11311B001C080E08093D7023093B30210C08091C5
S11311C0D702843360F4E091B802F091B902E80FD9
S11311D0F11D40838091D7028F5F8093D702809165
S11311E02C05E82FFF27E55DFA4F62818F5F80931E
S11311F02C05833010F010922C05772780919F03E3
S11312009091A0030E9496079093A00380939F035C
S113121080912B05E82FFF27E55DFA4F12838F5F3E
S113122080932B05833010F010922B0580911A04C3
S11312308F5F80931A0434C010922C0510922B05F2
S113124014E010932D0310921A0410923405109296
S113125065031092A00310929F038091E6028D7F94
S11312608093E60281E00E94A4078091D50288233E
S113127029F010932D030E948B0212C0002381F0E9
S113128081E009CF8091D602982F917080FDD5CE50
S1131290D7CE80912F059927382F222742E01CCFE3
S11312A01F910F9108951F920F920FB60F92112460
S11312B02F933F934F935F936F937F938F939F935A
S11312C0AF93BF93EF93FF935F9B3DC06CB1E091ED
S11312D0A103F091A2033097F9F08091D005909189
S11312E0D105E80FF91F608301969093D10580938F
S11312F0D0052091DA053091DB058217930718F1A8
S11313001092A2031092A103809117048330D9F0A4
S113131057981092170417C06E3719F460E081E0F3
S113132010C08091E6026D3721F482608093E6025A
S11313300AC081FF05C08D7F8093E60280E26827A2
S113134080E00E94E407FF91EF91BF91AF919F91DC
S11313508F917F916F915F914F913F912F910F905A
S11313600FBE0F901F901895982F8D57823068F4F8
S11313708091E60281608093E60280E2892780936F
S113138019048DE78093240302C09093240361E041
S113139070E084E293E00E94A4029927089578946F
S11313A01F920F920FB60F921124FF920F931F9367
S11313B02F933F934F935F936F937F938F939F9359
S11313C0AF93BF93CF93DF93EF93FF9320912E03BB
S11313D030912F03809132059091330528173907F6
S11313E080F4E0918203F0918303E20FF31F808184
S11313F02F5F3F4F30932F0320932E030E949D02B3
S1131400CDC0109283031092820310923003569839
S1131410FFB6F8948091E60280FF0EC08E7F809321
S1131420E602809119048093240361E070E084E271
S113143093E00E94A402AFC080911804843009F4A0
S11314408CC0853040F4823021F18330B8F581308E
S113145009F09CC00DC0863009F48DC0863008F4B4
S113146083C0873009F48EC0883009F08FC091C0E2
S1131470809179030E94B409082F83E080931804B3
S1131480609179038091D8059091D9050E949607BF
S113149010C0809193050E94B409082F83E08093C3
S11314A01804609193058091D8059091D9050E9404
S11314B096079093D9058093D80566C0E091A3035D
S11314C0FF27EE0FFF1FE757FC4F80810E94B409EE
S11314D0082F1091A303C12FDD27FE01EE0FFF1F7C
S11314E0E757FC4F60818091D8059091D9050E94FF
S11314F096079093D9058093D805209173032F5FA5
S113150020937303113039F58091DD02E091D80204
S1131510F091D902E80FF11DE0818F5F8093DD0225
S11315209091DC02981730F482E080938A0340E0C3
S113153050E002C04E2F5527DE01AA0FBB1FFD014C
S1131540E857FC4F8081823031F02F3F21F0A757BC
S1131550BC4F4C9319C084E012C08091D8050E94FE
S1131560B409082F85E00BC08091D9050E94B40905
S1131570082F86E004C00E94D102082F87E08093E0
S1131580180402C088E003C0002329F089E0809396
S113159018040E94AF018F2D99278FBFFF91EF91FF
S11315A0DF91CF91BF91AF919F918F917F916F9177
S11315B05F914F913F912F911F910F91FF900F9049
S11315C00FBE0F901F9018951F920F920FB60F9297
S11315D011248F9380919B0087FF02C080919C000F
S11315E08F910F900FBE0F901F90189578941F92B3
S11315F00F920FB60F9211240F900FBE0F901F90F1
S1131600189578941F920F920FB60F9211240F9091
S11316100FBE0F901F90189578941F920F920FB6DB
S11316200F9211240F900FBE0F901F90189578946D
S11316301F920F920FB60F9211240F900FBE0F90AE
S11316401F90189578941F920F920FB60F92112441
S11316508F939F9380918000909181009F918F91AF
S11316600F900FBE0F901F90189578941F920F92B1
S11316700FB60F9211242F933F938F939F932FB7FD
S1131680F89433278091700390917103019690939D
S11316907103809370032FBF9F918F913F912F917E
S11316A00F900FBE0F901F9018951F920F920FB6B8
S11316B00F9211242F933F934F935F936F937F93D4
S11316C08F939F93AF93BF93EF93FF9383B783BF9E
S11316D000B600FCFDCF81B799270196AA27BB2746
S11316E02091F0023091F1024091F2025091F30204
S11316F0280F391F4A1F5B1F2093F0023093F10219
S11317004093F2025093F30278940E94B604FF913E
S1131710EF91BF91AF919F918F917F916F915F9165
S11317204F913F912F910F900FBE0F901F901895DE
S11317308091E9028C3118F04CE150E002C0482F4E
S113174055278CE1E8EAF5E011928A95E9F7909142
S1131750E9028091E70220E030E0A8EAB5E00FC09A
S1131760E82FFF27EF5CFB4FE081992329F08F5F7F
S11317708A3F09F480E09150ED932F5F3F4F241787
S1131780350771F79093E9028093E7024CE16CE925
S113179075E08FEF9FEF0E941E02882319F087E106
S11317A00E94880108958FB7F894282F33278091D9
S11317B0EA02813021F42FBF80E090E0089590E0A8
S11317C08091E902882309F491E0992321F02FBF45
S11317D081E090E0089581E08093EA022FBF0E94A7
S11317E0980B80E090E00895662351F48091E9021B
S11317F0882319F00E94980B08951092EA02089524
S113180087E10E94880108951F93182F8091EA02AE
S1131810882349F48091E9028D3728F081E0809390
S1131820EA020E94980B8FB7F894282F33279091DF
S1131830E9029A3FA8F48091E802E82FFF27EF5CC1
S1131840FB4F10838F5F8093E8028A3F11F410925C
S1131850E8029F5F9093E9022FBF80E090E003C00D
S11318602FBF8FEF9FEF1F9108950F931F93182F92
S11318700FB7F89461E080E00E942903882371F592
S11318801093A7028091AA028823A9F58091CE0221
S1131890823089F586E00CC00E9460038091CE02FC
S11318A0882349F481E08093CE021092290388E0D2
S11318B00E9488012AC0809178038F3F31F5E0911E
S11318C0A902EE2311F11CC01092A80204C0FF2744
S11318D0E858FC4F10821092A90217C081E090E0F2
S11318E002C0880F991F1A95E2F72091CD02282B88
S11318F02093CD020AC08091CE028823E1F6CCCF9A
S11319008091A8028F3F19F7DFCF802F99278FBFCF
S113191080E090E01F910F9108951F9383E00E944F
S113192075039927182F882319F083E00E94350C3A
S1131930812F99271F910895CF92DF92EF92FF9202
S11319400F931F93CF93DF938C01F62E6A01E22E3F
S11319508FB7F894C82FDD2760E080E00E9443032E
S1131960882321F0CFBF80E090E01EC0CFBF0F0DD1
S1131970111D802F80680E94B203F82E16950795DA
S1131980802F807C0E94B2030E2D0AC0EE2DFF270B
S1131990E01BF109EC0DFD1D80810E94B203015092
S11319A00023A1F78F2D9927DF91CF911F910F91DC
S11319B0FF90EF90DF90CF900895CF93DF93CDB752
S11319C0DEB72C970FB6F894DEBF0FBECDBF8FB72E
S11319D0F894282FAE014F5F5F4FDA01E6E2F4E09E
S11319E088E001900D928150E1F780916603909117
S11319F067038987892F99278A8780917E0390912D
S1131A007F038B87892F99278C872FBF2CE060E079
S1131A1080E691E00E949C0C2C960FB6F894DEBFF1
S1131A200FBECDBFDF91CF9108951F93CF93DF9366
S1131A30182F8FB7F894C82FDD2760E080E00E944C
S1131A404303882321F0CFBF80E090E005C0CFBFDF
S1131A50812F0E94B2039927DF91CF911F9108959E
S1131A60EF92FF920F931F93CF93DF93182F7B0175
S1131A70042F8FB7F894C82FDD2760E080E00E9420
S1131A804303882321F0CFBF80E090E014C0CFBF90
S1131A901064812F992790938503809384030E9477
S1131AA0B203182F402F5527B70180E090E00E9421
S1131AB02C04812F9927DF91CF911F910F91FF90D3
S1131AC0EF900895C0986091EB027091EC0241E0B0
S1131AD08FE30E94300D089582E090E090932203FA
S1131AE08093210381E080932C0320E030E08091F7
S1131AF0A702843011F421E030E0232B29F484E0A0
S1131B000E947503882319F40E94620D089584E0ED
S1131B100E94350C08951F920F920FB60F92112454
S1131B202F933F934F935F936F937F938F939F93E1
S1131B30AF93BF93EF93FF9380912103909122037E
S1131B40019749F482E090E090932203809321036B
S1131B500E946C0D05C0809128038F5F8093280339
S1131B60FF91EF91BF91AF919F918F917F916F9171
S1131B705F914F913F912F910F900FBE0F901F9047
S1131B8018951F938091CD02882309F04BC01091C2
S1131B90A7021F3F09F046C060E00E944303882368
S1131BA009F440C081E080932F04809108038823C6
S1131BB0E1F110922F0485E090E045C0923069F580
S1131BC0C09A8091A80220E030E08F3F11F421E018
S1131BD030E0232BE9F41093AA028F3F19F42FEF7E
S1131BE030E00DC0282F3327F901E858FC4F8081DD
S1131BF08093A8028F3F11F41093A90210832093BD
S1131C00290381E08093CE0288E00E94880105C008
S1131C101093AA021092CE0211C08091CE028823A2
S1131C2069F00FC081E090E00EC08091AA0290910B
S1131C30CE02882319F2923021F0EFCF80E00E9487
S1131C40540380E090E01F9108951F93CF93DF9396
S1131C509FB7F894C92FDD271C2F9091A7029817DE
S1131C6021F0CFBF81E090E03AC08FEF8093A702CC
S1131C703091CD023323F1F48FB7F8949927109261
S1131C8020048FBF0E94C10DCFBF11C02093A702B3
S1131C9081E090E002C0880F991F4A95E2F7809591
S1131CA038233093CD0286E00E9488011FBF80E074
S1131CB090E015C080E065E0E32FFF270E947820C4
S1131CC0292F492F5527CF01042E02C095958795BA
S1131CD00A94E2F780FDDACF822F8F5FEFCFDF9196
S1131CE0CF911F9108951F93CF93DF938FB7F894EB
S1131CF0C82FDD271C2F8091210390912203892B6B
S1131D0029F484E00E94250ECFBF1EC010922C033C
S1131D1080912803882311F0B79904C00E9908C054
S1131D20882319F08150809328030E946C0D0BC006
S1131D3081E090E090932203809321031092280382
S1131D4084E00E94250E1FBFDF91CF911F9108955B
S1131D500E945305C09AC09888E00E94150D88E03F
S1131D600E94150DC09A84E00E94250E0E94730EF5
S1131D700895FF920F931F93CF93DF93F82E8B0157
S1131D808FB7F894C82FDD2760E080E00E944303FA
S1131D90882321F0CFBF80E090E00CC0CFBF8F2D0F
S1131DA00E94B203812F99270E94B203802F0E94C0
S1131DB0B2039927DF91CF911F910F91FF9008955E
S1131DC01F931FB7F89480912703882319F460E0C8
S1131DD070E009C060E080919905882309F461E00E
S1131DE081E06827772780916803882319F480E0CD
S1131DF090E00AC090E080912504882309F491E0E2
S1131E0081E09827892F9927762F6627770F770FF8
S1131E10770FE4E0880F991FEA95E1F7826E9262EA
S1131E20682B792B81E10E94B90E812F99278FBFEE
S1131E301F9108958FB7F894992760912E048FBF4E
S1131E4085E0689FB0011124625D7E4F706488E173
S1131E500E94B90E0895EF92FF921F93CF93DF93E0
S1131E60E0906903F0906A03F70182A59927182F7F
S1131E70882309F41FE1C09880912603811749F053
S1131E80612F77276F717070606E706885E10E94B2
S1131E90B90E10932603F70110818FB7F894C82F59
S1131EA0DD2760E080E00E944303882311F0CFBF68
S1131EB012C0CFBF8EE390E0909385038093840398
S1131EC08EE30E94B2031150412F552760E070E069
S1131ED0C7010E942C04DF91CF911F91FF90EF90D6
S1131EE008950F931F93CF93DF93EC010FB7F894EA
S1131EF011270E94E502FC018FE380830FBF10923B
S1131F0097051092960561E082E00E9429038823D8
S1131F1019F085E090E072C0809130048F5F809367
S1131F20300481508B838FB7F894082F112762E017
S1131F3081E00E944303882329F40FBF0E944D04CB
S1131F4081E05BC08FB7F894992724E020932104A3
S1131F508FBFD0938F03C0938E030FBFFE013196C2
S1131F60818129819927982F88273327822B932BC6
S1131F7080729C7C8983892F992781832981982F5A
S1131F80882733272164822B932B8983892F9927D0
S1131F9081831CA618A619A619AA18AA1FA680E848
S1131FA08EA761E06093240440918E0350918F03C7
S1131FB08FB7F894282F33278091CF029091D002C5
S1131FC08830910511F0019711F02FBF15C082E000
S1131FD090E09093D0028093CF026093D705509302
S1131FE06A03409369031092EF022FBF0E948D0C85
S1131FF0882311F40E942B0F80E09927DF91CF9161
S11320001F910F910895EF92FF921F93CF93DF9347
S1132010182F7B01E82FFF27EE0FFF1FE556FC4F1B
S1132020118210821092B102A0919B03B0919C0383
S1132030109721F08091950580FF76C081E0809310
S1132040B10268C09927982F88273327822B932BB6
S1132050ED014B878E83892F99278F832FB7F894AF
S1132060332780916603909167032FBFFD0184831A
S1132070892F992785832FB7F89433278091AB0252
S11320809091AC022FBF8887892F99278987319631
S1132090818129819927982F8827332720643868DC
S11320A0822B932B8983892F99278183635F6C9378
S11320B06D508091AE02882351F01092AE02CD0192
S11320C00E94710F9927282F8823A9F417C0862FFF
S11320D0992790938D0380938C03B093D402A0939B
S11320E0D3028CE00E9488018091AE02882349F4D7
S11320F089E090E00AC08FEF8093AE02822F992787
S113210004C010926F0380E090E0892B19F08EE0F8
S11321100E948801112389F4E1E3EE16E3E0FE0650
S113212061F41092C80209C0ED014B858F812E81A4
S11321306C916D506D3158F785CFDF91CF911F9120
S1132140FF90EF9008959B018091B102882349F498
S113215060919B0370919C036217730711F40E94B2
S1132160031008951F93182F81E090E09093D002FC
S11321708093CF02109208030E94C10D8FB7F89488
S113218099271093C9028FBF82E00E9488011F9192
S1132190089561E081E00E9429038823E9F48FB760
S11321A0F894282F33278091CA029091CB02892B6F
S11321B011F02FBF20C081E090E09093CB02809378
S11321C0CA022FBFDD9A0E94EE0524E130E040E010
S11321D050E00E94AB060FC062E081E00E9443031E
S11321E0882319F089E090E0089561E081E00E947D
S11321F04303882319F080E090E0089585E090E09F
S11322000895CF92DF92EF92FF920F931F93CFB670
S1132210F894DD240E946E05DC01CB0166E470E0D5
S11322200E948420BBE0EB2EF12CE80EF91EF09204
S1132230D405E092D3050E94EE0500271127A801DA
S113224097010E94AB06CFBE1F910F91FF90EF90B4
S1132250DF90CF9008951F93CF93DF938FB7F894B7
S1132260C82FDD271C2F8091CF029091D0020897B0
S1132270C9F489E00E94150D83E00E94250EC09ADE
S113228081E090E09093D0028093CF028FB7F894CE
S1132290992723E02093C9028FBF82E00E9488011E
S11322A0CFBF30C0C0988091D705882311F085E056
S11322B001C084E00E94150D83FD09C080E00E94E6
S11322C0150D83FF04C085E090E020E003C083E0A7
S11322D090E021E09093D0028093CF02C09A1FBF78
S11322E0222341F01092EF0283E00E94250E0E9407
S11322F0011108C00E94EE0520E431E040E050E006
S11323000E94AB06DF91CF911F91089578941F929C
S11323100F920FB60F9211241F932F933F934F9355
S11323205F936F937F938F939F93AF93BF93EF9339
S1132330FF9387B78F7E87BF78941FB7F8948091F7
S1132340740390917503A0917603B091770300977D
S1132350A105B10509F051C08091CF029091D0023E
S11323608530910561F18630910530F48330910513
S113237049F0049781F51AC087309105F1F0089768
S113238051F514C0869B0FC084E090E09093D00276
S11323908093CF020E94EE0527E030E040E050E059
S11323A00E94AB0618C00E94011115C00E948D0C3A
S11323B0882389F40E942B110EC080E00AC089E0B2
S11323C00E94150D81E00E94C60683E00E94250E3E
S11323D087E00E94B2108091CA029091CB020197CB
S11323E071F482E090E09093CB028093CA02DE986D
S11323F0DE9A80E00E94350C02C00E940B06812FF9
S113240099278FBFFF91EF91BF91AF919F918F91CA
S11324107F916F915F914F913F912F911F910F90F9
S11324200FBE0F901F901895EF92FF920F931F937A
S1132430CF93DF938B01809184039091850386FF72
S113244040C18F7B8F3309F08EC1C091EB02D091D4
S1132450EC0258815093230380912103909122032D
S11324608530910509F443C08630910509F48AC08A
S1132470029709F01FC185E090E0909322038093B6
S1132480210340910603852F99270196242F332792
S1132490281739074CF1B79906C00E9904C0451B9B
S11324A0415040930603409123034A32E8F4442305
S11324B0A1F0BE016F5F7F4F483018F047E050E055
S11324C007C086E090E09093220380932103552770
S11324D080E090E00E942C0446C110922C03C09A24
S11324E084E00E94250EE3C00E94A80E3CC186E051
S11324F090E09093220380932103809168038823C2
S113250009F439C0809125048823A9F5898185FFC0
S113251032C08F814E812FB7F894332760917E03A8
S113252070917F032FBF9927982F88275527842BD5
S1132530952B8617970759F08F812E819927982F0D
S113254088273327822B932B8F5F9F4FA1F4898198
S11325508770813081F4C09AC0988AE00E94150D7A
S1132560C09AC0984091230347502896BE018FE338
S11325700E94300DF8C040912303475055272896F8
S1132580BE01A6CFC09A80912803882339F484E041
S11325900E94250E80912803882311F0B7990AC060
S11325A00E9B08C090918F05992321F080912303FD
S11325B08B3038F48091EB029091EC020E945F051D
S11325C03DC0913001F5E0919405FF27EE0FFF1F08
S11325D0EE0FFF1FE75CFA4F208131814281538166
S11325E0E091EB02F091EC0221ABBB27A52F942FD5
S11325F0832F80ABCA01AA27BB2787A7252F3327A0
S11326004427552726A7809194059927019668E0C9
S113261070E00E9498208093940580918F058150EA
S113262080938F05882351F08091EB029091EC0206
S11326300E945F051092940510928F0580912303E8
S1132640FE01E80FF11D808187FF31C0012B79F174
S113265069816770E091EB02F091EC02623019F548
S1132660A0916903B0916A03109709F18091CF0298
S11326709091D0020797D9F4ED019B81838198173B
S1132680B1F487B78F7E87BF908181E08CA7E90F73
S1132690F11D8291319688A780818F7789A780E088
S11326A00E94B21004C0613011F489E02AC00E9473
S11326B0730E59C010922C03C09A84E00E94250E18
S11326C052C08E3309F04FC0C09A8091CF029091CE
S11326D0D0020897C9F4C09889E00E94150DC09AE9
S11326E083E00E94250E81E090E09093D0028093D5
S11326F0CF028FB7F894992723E02093C9028FBFA4
S113270082E00E9488012FC08091D705882349F474
S113271084E090E09093D0028093CF020E942B112A
S113272022C083E00E94250E83E090E09093D002C3
S11327308093CF020E946E05DC01CB0166E371E059
S11327400E9484201BE0E12EF12CE80EF91EF09289
S11327500103E09200030E94EE0500271127A8015F
S113276097010E94AB06DF91CF911F910F91FF90CB
S1132770EF9008951F920F920FB60F9211242F938A
S11327803F934F935F936F937F938F939F93AF93F5
S1132790BF93EF93FF932FB1E0911504F0911604CA
S11327A0309739F08091990390919A03E80FF91FBB
S11327B020838091990390919A03019690939A03B0
S11327C08093990380E00E945A034091ED02509156
S11327D0EE028091990390919A038417950718F457
S11327E00E94BE031CC06091150470911604809170
S11327F09A0590919B05109216041092150410925C
S11328009B0510929A051092EE021092ED0210921E
S11328109A03109299032FB120E00E941412FF91A1
S1132820EF91BF91AF919F918F917F916F915F9144
S11328304F913F912F910F900FBE0F901F901895BD
S1132840DF92EF92FF920F931F93CF93DF93CDB755
S1132850DEB7A8970FB6F894DEBF0FBECDBFE82F42
S1132860FF27E831F10508F0ACC6EA5BFF4FEE0F35
S1132870FF1F0590F491E02D09948091950588231C
S113288009F49FC640E051E0D9C4809172038823C3
S113289009F497C690E011E002C50FB7F894112728
S11328A081E00E94C60641E0E42EF12CF092D002B1
S11328B0E092CF021092D1021092080310922603E4
S11328C00FBF0FB7F89411270E945305F09222030B
S11328D0E092210310922C0389B78F7B89BF80E497
S11328E088BF8AB780628ABF8AB78F7E8ABF89B75A
S11328F0806489BF0FBF8FB7F894082F1127809188
S1132900CA029091CB02049719F483E00E94150D3A
S11329100FBF0FB7F8941127C09A80E00E94250ECC
S11329200FBF8FB7F894992722E02093210437C66C
S11329308FB7F894992710922104F9CF8FB7F894A0
S11329409927F090C9028FBF63E081E00E9443039E
S1132950882359F10FB7F89411271092D0021092DE
S1132960CF0287B78F7E87BF87B78F7D87BF83E00E
S11329700E94250EC09A0FBF0FB7F894112710922A
S11329802203109221030E945305C09A89B78F7BBA
S113299089BF0FBF1092CB021092CA02DE98DD9855
S11329A0DE9A81E00E94880107C08FB7F8949927C6
S11329B022E0209321048FBF00918E0310918F0396
S11329C00E944D048091960590919705892B09F0FA
S11329D0F8C58FEF8093AE024F2DB80123C48FB793
S11329E0F894282F3327122F8091D505882301F5D9
S11329F081E08093D5058091CA029091CB0204971F
S1132A0021F481E00E94350C03C084E00E94880117
S1132A101FBFD7C58FB7F89499271092D50587CFD4
S1132A208FB7F894282F33278091CC02882311F094
S1132A302FBFC7C52FBF80B3992736E096958795DA
S1132A403A95E1F7182F11709091800380918103DA
S1132A508917D9F01917C9F484E090E09093CB0258
S1132A608093CA028FB7F894992721E02093CC026F
S1132A708FBF60E070E08DE10E94B90E0E94DD0C12
S1132A80C09AC09880E00E9488011093810385E079
S1132A9092C58FB7F89499271091A7028FBF12306F
S1132AA009F465C0133030F4112359F0113009F0E2
S1132AB088C548C0133009F474C0143009F081C5C6
S1132AC0A0C0C0988FB7F894082F11278091CA022C
S1132AD09091CB020297A1F583E090E09093CB0212
S1132AE08093CA0268E170E08DE10E94B90E81E032
S1132AF0809380031092CC0280B3992726E09695A8
S1132B0087952A95E1F7817090708093810385E021
S1132B100E94880181E00E94150D6FE772E08CE14C
S1132B200E94B90E0E941A0F0E94E00E66E57AE236
S1132B3087E10E94B90E6FEF70E885E10E94B90E3B
S1132B400FBF3FC5C09886E00E94150D0E941A0F62
S1132B500E94E00E0E94DD0CC09AC09883E00E949F
S1132B60150DC09A81E00E94250E84E024C5C0980A
S1132B708FB7F894082F112760E080E00E94430388
S1132B80882311F00FBF0AC00FBF83E50E94B20370
S1132B9080E00E94B20380E00E94B203C09A82E007
S1132BA02DC08FB7F89499272091CF028FBF24307E
S1132BB039F0283041F0223001F50E942B0F01C575
S1132BC00E942B11FEC4C09889E00E94150DC09A82
S1132BD083E00E94250E8FB7F894992721E030E016
S1132BE03093D0022093CF028FBF8FB7F8949927E8
S1132BF01093C9028FBF82E0DEC483E00E94250ED9
S1132C00E0C40E94620DDDC40FB7F894112740910F
S1132C10ED025091EE0260911504709116048091BA
S1132C209A0590919B051092160410921504109227
S1132C309B0510929A051092EE021092ED021092EA
S1132C409A031092990320E00E94141279CF2FB7AF
S1132C50F8943327809129038093AA0282E0809319
S1132C60CE022FBF8091AA02882309F0AAC4B89A81
S1132C70C09886E0A0C4A091EB02B091EC02DC9075
S1132C809D012D0D311DF9018081881F8827881F22
S1132C90FD0183A7F90180818F77FD0181A7215070
S1132CA03040F9018081FD0180A7A091EB02B09131
S1132CB0EC02FD0132818FB7F89499272091270304
S1132CC08FBF222309F490C0832F99279695879567
S1132CD096958795837090708230910541F5878130
S1132CE046812FB7F894332760917E0370917F0358
S1132CF02FBF9927982F88275527842B952B861724
S1132D00970719F481E090E06CC0FD01878126816A
S1132D1040E050E09927982F88273327822B932B64
S1132D208F5F9F4F11F441E050E0CA015AC00397EE
S1132D3009F0CFC19E012F5F3F4F46E254E088E087
S1132D40FA010190AF01F90101929F018150C1F78D
S1132D509E012F5D3F4FAE014F5F5F4F88E0FA0148
S1132D600190AF01F90101929F018150C1F79E01C9
S1132D70275F3F4FAE014F5D5F4F88E0FA0101903E
S1132D80AF01F90101929F018150C1F79E012F5EAD
S1132D903F4FAE01475F5F4F88E0FA010190AF01FA
S1132DA0F90101929F018150C1F79E01275E3F4FB7
S1132DB0AE014F5E5F4F88E0FA010190AF01F90167
S1132DC001929F018150C1F748E050E0BE01675E67
S1132DD07F4FCD0106960E942321892B09F079C1EA
S1132DE003C0882309F475C1FCE0FD1508F071C126
S1132DF0E090EB02F090EC02F7012281822F9927F8
S1132E0036E0969587953A95E1F7039719F468E0CB
S1132E1070E002C062E070E0822F99279695879552
S1132E209695879583709070039719F488E090E0E5
S1132E3002C082E090E026E030E0E20EF31E40E0C3
S1132E4050E020E030E0F701E80FF91F8AEF9FEF30
S1132E50E80EF91E05C08191480F511D2F5F3F4FA9
S1132E6026173707C4F3F70163818FEF8093980522
S1132E708FB7F894782F20E030E0E4EFF2E080811F
S1132E8091818417950731F48281861709F4FDC076
S1132E90209398052F5F3F4F33962430310579F7FF
S1132EA07FBF909198053FB7F8949F3F21F08091A0
S1132EB0D202891799F42091D202822F9927FC011A
S1132EC0EE0FFF1FE80FF91FEC50FD4F51834083B5
S1132ED062832F5F23702093D2020CC0892F99271D
S1132EE0FC01EE0FFF1FE80FF91FEC50FD4F51835B
S1132EF040836283832F99278FBF0FB7F8941127DC
S1132F00C7010E94E502FC0190810FBFF70183A570
S1132F10882309F4DAC09F3309F0D7C0878146813A
S1132F202FB7F89433276091AB027091AC022FBF96
S1132F309927982F88275527842B952B8617970731
S1132F4061F0878126819927982F88273327822B40
S1132F50932B8F5F9F4F09F0B8C0F70183858630AC
S1132F6009F0B3C0F4E1DF1609F0AFC0F7018585BD
S1132F709927813021F0833009F0A5C04BC0F701B7
S1132F80878520899927982F88273327822B932B8D
S1132F90009769F4848599279F938F938091A50264
S1132FA09091A6029F938F9380E091E07FC081303F
S1132FB0910571F4F701848599279F938F938091EC
S1132FC0A5029091A6029F938F9385E391E06EC032
S1132FD08230910571F4F701848599279F938F932B
S1132FE08091A5029091A6029F938F9384E691E02D
S1132FF05DC0039709F067C0F701848599279F9303
S11330008F938091A5029091A6029F938F9381E95B
S113301091E04CC0F70181899927823011F58685AA
S11330209927813069F4848599279F938F938091A0
S1133030A5029091A6029F938F938FEB91E036C0E7
S1133040882309F040C0F701848599279F938F93C3
S11330508091A5029091A6029F938F9380EF91E0B7
S113306025C0843081F5F70186859927813079F46C
S1133070848599279F938F938091A5029091A602AE
S11330809F938F9382E292E011C07FBF1EC088237A
S1133090D1F4F701848599279F938F938091A5029A
S11330A09091A6029F938F9382E592E09F938F93D2
S11330B00E9437212DB73EB72A5F3F4F0FB6F894D1
S11330C03EBF0FBE2DBF0E94D30BF092EC02E092E4
S11330D0EB028FB7F894992710922C038FBF0E94AC
S11330E0730E6FC280912503882361F52091350505
S11330F0309136054091370550913805EFB7F89473
S1133100FF2760911C0470911D0480911E0490910E
S11331101F04E0900203F090030300910403109154
S113312005036E0D7F1D801F911FEFBF2093350592
S11331303093360540933705509338051092250394
S11331400E9439050E9454043AC00E9454047B0131
S11331508C018FB7F8949927109290038FBF8091B8
S1133160AC0381FF2EC28091A4039091A503A0918A
S1133170A603B091A703A8019701281B390B4A0B9A
S11331805B0BDA01C9012091A8033091A903409196
S1133190AA035091AB03281B390B4A0B5B0B2F3F3F
S11331A08FEF38078FEF48078FE7580709F409C2F4
S11331B012161306140615062CF0C801B7010E9456
S11331C07B04FFC1209335053093360540933705C2
S11331D05093380581E080932503C801B7010E940C
S11331E03905EFC190916F038091AE02981709F4ED
S11331F0E8C19093AE029923D1F40091D3021091C7
S1133200D40260918C03C8010E94710F482F552786
S1133210442309F4D6C18FEF8093AE026091D302A8
S11332207091D402F80183850E94A310CAC18FEF64
S11332308093AE02C6C10E948B0282CC9091950508
S1133240852F8923C1F0E42FFF27EE0FFF1FE556DA
S1133250FC4F2081318111821082852F8095982323
S113326090939505442339F42153334009F0A6C1C2
S11332701092C802A3C14F5F483008F0A2C1550F95
S1133280DDCF8091B102E82FFF27EE0FFF1FE55637
S1133290FC4F6081718141E00E94031092C1209132
S11332A07203812F8223C1F0E92FFF27EE0FFF1F46
S11332B0E75AFA4F4081518111821082812F809503
S11332C0282320937203992339F463E0CA010E94EE
S11332D0F40B110F91E0E3CF9F5F983008F071C1B8
S11332E0110FDDCF1091B202E12FFF27EE0FFF1F68
S11332F0E75AFA4FE080F180118210820E945F0247
S1133300112309F05EC161E0C70126C18FB7F894AB
S11333101092D2052091180440E0283009F441E0CD
S113332030E0293009F431E0442311F4332351F01F
S113333010921804E091A303FF27EE0FFF1FE85734
S1133340FC4F108299278FBF442311F4332331F1AA
S11333509FB7F894809193058F5F80939305809134
S11333607903833479F42091920380919103821735
S113337079F0822F8F5F80939203863048F0109209
S1133380920306C0A0E0442309F4A1E071E002C066
S1133390A0E070E0892F99278FBF06C0222311F087
S11333A0FF246DC0A0E070E08FB7F89499272091B6
S11333B0D5028FBF222341F08FB7F89499272AE0D2
S11333C0209318048FBF42C08FB7F8949927609157
S11333D0880340918A038FBF8FB7F894282F33272F
S11333E050E09091910380919203981709F451E071
S11333F02FBF552341F5662331F55FB7F89482E07A
S1133400809388038FB7F894282F332740E0909156
S1133410910380919203981709F441E02FBF44234C
S113342011F080E006C0E0919203FF27EF56FC4FB5
S113343082818093890383E4809379031092A303A8
S1133440852F99270EC04150423010F0FF240CC044
S11334508FB7F894992725E42093790321E02093EA
S1133460A3038FBF11E0F12E772349F08FB7F894AF
S11334709927A093DE028FBF85E10E9488018FB750
S1133480F894082F1127809118048A3009F4D3CEB8
S11334900FBFFF2009F495C02FB7F894332710927B
S11334A0D9051092D8051092730381E08093180413
S11334B02FBF0E94D102882309F483C08FB7F894E8
S11334C0992729E0209318048FBF0E94AF0179C087
S11334D0569857981092170410923003539A549A9E
S11334E0579A8FB7F89499271092180410922D03C5
S11334F01ECA84E160C05398549863C01092DB02E2
S11335001092DA028FB7F8949927F090DE028FBFF9
S11335108091DF02882311F0B3E0FB2E2091D802C2
S11335203091D9028091E002882309F04AC0809149
S1133530B202882309F045C00091590510915A053B
S11335400217130709F03DC010925A05109259054D
S11335500E945F026F2DC8010E94F40B32C08FB726
S1133560F89499272091E3023091E40240910703F3
S11335708FBF8FB7F894E42FFF27EE0FFF1FEC5493
S1133580FD4F318320832091D602442311F02B7FF9
S113359001C02D7F2093D6021092E10299278FBF9C
S11335A010C04CE16CE975E08FEF9FEF0E941E02A2
S11335B0882339F087E10E94880103C0550F41E058
S11335C03DCEA8960FB6F894DEBF0FBECDBFDF91F7
S11335D0CF911F910F91FF90EF90DF90089580910C
S11335E090058F3FB1F0282F3327F901E75FFC4F97
S11335F08081809390058F3F11F48093D6058FEFDF
S113360080832F3F31F0822F0E94201481E090E0CC
S1133610089580E090E00895FF920F931F93CF9355
S1133620DF93CDB7DEB7E0970FB6F894DEBF0FBED9
S1133630CDBFFFB6F89448E150E06FEF70E089E049
S113364093E00E9430218FEF809390058093D605FC
S113365081E08EBD88E080BF83E083BF8CB59DB5DB
S11336604AE72CB53DB52817390708F441504423DF
S113367011F0C901F6CF92B782B78917E9F32CB5D7
S11336803DB592B782B78917E9F38CB59DB5821B16
S1133690930B4096F5E096958795FA95E1F790930C
S11336A092058093910513BE83B78EBD8EB580BFFE
S11336B012BE1DBC1CBC8FEF86BF86B780937C00F6
S11336C080B7992787709070892BD1F7D29AD19AB5
S11336D0D09ADA9AD99AD89A15BA8FEF84BBD4982B
S11336E0DC98109289001092880080917D0084609B
S11336F080937D0080918A00887F826080938A0015
S11337001DBC1CBC87B7846087BF8EB5887F84606E
S11337108EBD0E94EF1A8823E1F78AEB92E0909322
S1133720DF058093DE0512E006E06091910570915B
S1133730920588279927ECE0660F771F881F991F49
S1133740EA95D1F720E031EE40E050E00E94AB2052
S11337502150304029B9832F9927809390001BB9B9
S1133760009395001AB820939900809398001093C1
S11337709B0000939D0010929A0084E490E0909343
S11337803105809330051092880310928A038AE0F1
S11337908093180410927303109279031092930586
S11337A01092D9051092D8051092D2051092A30355
S11337B010922C0510922B0584E080932D03109217
S11337C01A0410923405109265031092A00310920B
S11337D09F0310929203109291031092EA028FEFCA
S11337E080932A03E4EFF2E08FEF9FEF91838083CD
S11337F01282339623E0E030F207C1F70E946E058F
S1133800609330048091A5029091A6020196AA27A4
S1133810BB2780936B0390936C03A0936D03B093C9
S11338206E0380B7886080BF8BE083BF86EE81BF64
S113383087B7826087BF0E94B6048BE595E09093BA
S1133840EC028093EB028E98B89A8C988FEF809359
S113385078031092200410922104109222041092F2
S11338602304B89AD69AD59A8FB7F89499272091B9
S1133870AB023091AC028FBF30937F0320937E0361
S11338800E94D90629A73AA74BA75CA76DA77EA7D4
S11338908FA798ABDE019196FE01B99688E001905E
S11338A00D928150E1F7DE015196FE01B19688E058
S11338B001900D928150E1F7DE015996FE01719657
S11338C088E001900D928150E1F7A6E2B4E0FE0198
S11338D0799688E001900D928150E1F78091AD02D4
S11338E0992790936703809366038FE180931B0469
S11338F08AE180932E040E94D90629A73AA74BA7F0
S11339005CA76DA77EA78FA798ABDE019196FE01F9
S1133910B99688E001900D928150E1F7DE0111968D
S1133920FE01B19688E001900D928150E1F7DE012D
S11339301996FE01319688E001900D928150E1F7CD
S1133940A6E2B4E0FE01399688E001900D92815020
S1133950E1F7A6E2B4E0FD0137969C9180818D9356
S11339609083319784E0E932F807B9F781E08093D6
S113397027031092990580936803109225040E94EE
S1133980EF1A8823E1F78F2D99278FBF78948FB78B
S1133990F894282F3327922F809118048A3031F01D
S11339A080912D03843011F02FBF04C09FBF82E1AA
S11339B00E9488018091A5029091A6029F938F9303
S11339C083E892E09F938F930E9437210E94D30B48
S11339D00E94C9100F900F900F900F908FB7F8941A
S11339E0482F55274BC087B7992783709070892B30
S11339F019F4E5E0F0E013C080B799278770907060
S1133A00892BD1F781B792B7891B8C3030F082B7FC
S1133A10853F18F4E3E0F0E002C0E2E0F0E087B7AD
S1133A20887BC1F480917D008B7FA1F46E9912C0D4
S1133A308AB190919A00892B887161F48091740005
S1133A4082FD08C0379B03C081E090E005C085E09B
S1133A5090E002C080E090E025B78E1708F4E82FCC
S1133A60FF27E454FD4FE491237E2062E22BE5BF5F
S1133A7078948895F89485B78F7D85BF809190055B
S1133A808F3F09F4B0CF282F3327F901E75FFC4FAC
S1133A908081809390058F3F11F48093D6058FEF3A
S1133AA080832F3F09F49FCF4FBF822F0E942014A1
S1133AB095CF78941F920F920FB60F9211242F92E4
S1133AC03F924F925F926F927F928F929F92AF92AA
S1133AD0BF92CF92DF92EF92FF920F931F932F9397
S1133AE03F934F935F936F937F938F939F93AF9382
S1133AF0BF93CF93DF93EF93FF93C6B5D7B58FB73B
S1133B00F894282E0E94EE059B012C1B3D0B4427A4
S1133B1055272B013C01421A530A640A750A809105
S1133B20CF029091D0028530910521F0069709F0DB
S1133B30E0C0BFC086E090E09093D0028093CF02B3
S1133B4031E0332E30922B031092D10280E00E9498
S1133B50C606E0916903F0916A0341AABB27A72D29
S1133B60962D852D80ABC301AA27BB2787A7872D58
S1133B709927AA27BB2786A7E0916903F0916A03D6
S1133B8085A5882309F484C06081655077274F0197
S1133B90860E971EF4012081E1808281A3809927FB
S1133BA0AA27BB27BA2FA92F982F88273327442762
S1133BB05527522F442733272227FF240027112774
S1133BC08701FF24EE242E293F29402B512BBB24AF
S1133BD0CC24DD242A293B294C295D29822B932BD3
S1133BE0A42BB52B84199509A609B7098383292F1A
S1133BF03A2F4B2F552722839D0144275527218394
S1133C008B2F9927AA27BB278083C09824E0A4017F
S1133C1080E090E00E949C0CC09AF4012081E18035
S1133C208281A3809927AA27BB27BA2FA92F982F6F
S1133C308827332744275527522F44273327222701
S1133C40FF24002711278701FF24EE242E293F2972
S1133C50402B512BBB24CC24DD242A293B294C297D
S1133C605D29822B932BA42BB52B840D951DA61DAA
S1133C70B71D8383292F3A2F4B2F552722839D016C
S1133C804427552721838B2F9927AA27BB27808375
S1133C90E0916903F0916A03818185FF02C030924B
S1133CA0080383E00E94250E87B78F7E87BF84991F
S1133CB07AC010922B0381E00E94C606E09169034A
S1133CC0F0916A03818185FF0FC087E090E09093B3
S1133CD0D0028093CF020E94EE0520E031E040E064
S1133CE050E00E94AB0603C080E00E94B210849BA7
S1133CF05AC08091D102882391F580912B038823A7
S1133D0071F511E010932B030E94C60680B3209135
S1133D108F05283098F4E0919405E20FFF27E770AF
S1133D20F070EE0FFF1FEE0FFF1FE75CFA4F4082AB
S1133D305182628273822F5F20938F051093D10288
S1133D40D0938703C093860384992DC09927A4E058
S1133D5096958795AA95E1F7182F117001C010E088
S1133D6080912B038130F9F410922B030E94C60634
S1133D701092D1021123B9F48091860390918703A4
S1133D80C81BD90B2A9778F480918F05882319F0E2
S1133D90815080938F058091690390916A03009705
S1133DA011F00E945F052FBEFF91EF91DF91CF913B
S1133DB0BF91AF919F918F917F916F915F914F913F
S1133DC03F912F911F910F91FF90EF90DF90CF9033
S1133DD0BF90AF909F908F907F906F905F904F9027
S1133DE03F902F900F900FBE0F901F901895ACE24C
S1133DF0B0E0EDEFFEE10C94EC20222E332E442EA5
S1133E00552E662E772E882E992EFE013196A8E027
S1133E101192AA95E9F729823A824B825C826D82DB
S1133E207E828F829886FE013996B8E01192BA9507
S1133E30E9F7A986BA86CB86DC86ED86FE860F87EF
S1133E40188B89819A81AB81BC8189A79AA7ABA77A
S1133E50BCA77C018D018FEF9FEFA0E0B0E0E822CA
S1133E60F9220A231B2389A59AA5ABA5BCA51D018C
S1133E704424552489859A85AB85BC858DA39EA34E
S1133E80AFA3B8A75C016D018FEF9FEFA0E0B0E096
S1133E90A822B922CA22DB228DA19EA1AFA1B8A576
S1133EA03D0188249924C801B701A60195010E9407
S1133EB0CD2069A37AA38BA39CA3C801B701A40155
S1133EC093010E94CD207B018C01C201B101A601A6
S1133ED095010E94CD205B016C01C201B101A401D6
S1133EE093010E94CD203B014C01EA0CFB1C0C1DEC
S1133EF01D1D89A19AA1ABA1BCA19D0144275527F1
S1133F002E0D3F1D401F511F2A153B054C055D0515
S1133F1040F480E090E0A1E0B0E0680E791E8A1ED3
S1133F209B1ECA01AA27BB27860D971DA81DB91D74
S1133F308D8F9E8FAF8FB8A3A9013327222789A124
S1133F409AA1ABA1BCA1A070B070280F391F4A1F61
S1133F505B1F298F3A8F4B8F5C8FA98CBA8CCB8CCB
S1133F60DC8CED8CFE8C0F8D18A1FE01719698E00F
S1133F7011929A95E9F7ED8AFE8A0F8B188F2D819D
S1133F803E814F8158856DA17EA18FA198A50E9485
S1133F90CD203B014C012D853E854F85588969A56F
S1133FA07AA58BA59CA50E94CD202D893E894F8999
S1133FB0588D260F371F481F591F260D371D481DC2
S1133FC0591D2D8B3E8B4F8B588F6D887E888F8823
S1133FD0988C2A2D3B2D4C2D5D2D662D772D882D0B
S1133FE0992DE2E1AC960C940821A0E1B0E0EBEF4E
S1133FF0FFE10C94EC20222E332E442E552E662EF7
S1134000772E882E992E002309F466C088E0FE01DD
S1134010319611928A95E9F729833A834B835C831D
S11340206D837E838F829887E0E2E01B1E16CCF5B9
S11340302D813E814F815885602F772767FD7095CC
S1134040DA01C901062E04C0B695A7959795879500
S11340500A94D2F78D879E87AF87B88B04C0220F4E
S1134060331F441F551FEA95D2F789819A81AB818A
S1134070BC8104C0B695A795979587956A95D2F7A4
S1134080282B392B4A2B5B2B29873A874B875C8754
S113409029843A844B845C846D847E848F849888DC
S11340A01BC01D861E861F86188A2E2F332727FDC8
S11340B03095309521953F4F8D819E81AF81B88594
S11340C004C0B695A795979587952A95D2F78987C1
S11340D09A87AB87BC87DCCF222D332D442D552DF9
S11340E0662D772D882D992DE2E160960C94082198
S11340F0991B79E004C0991F961708F0961B881F36
S11341007A95C9F780950895AA1BBB1B51E107C096
S1134110AA1FBB1FA617B70710F0A61BB70B881F53
S1134120991F5A95A9F780959095BC01CD010895E2
S113413097FB092E07260AD077FD04D0E5DF06D0C9
S113414000201AF4709561957F4F0895F6F79095C5
S113415081959F4F0895A1E21A2EAA1BBB1BFD0156
S11341600DC0AA1FBB1FEE1FFF1FA217B307E40752
S1134170F50720F0A21BB30BE40BF50B661F771FAA
S1134180881F991F1A9469F760957095809590958A
S11341909B01AC01BD01CF010895629FD001739FC3
S11341A0F001829FE00DF11D649FE00DF11D929FCF
S11341B0F00D839FF00D749FF00D659FF00D99270E
S11341C0729FB00DE11DF91F639FB00DE11DF91F32
S11341D0BD01CF01112408952F923F924F925F9217
S11341E06F927F928F929F92AF92BF92CF92DF9203
S11341F0EF92FF920F931F93CF93DF93CDB7DEB768
S1134200CA1BDB0B0FB6F894DEBF0FBECDBF0994FB
S11342102A88398848885F846E847D848C849B8452
S1134220AA84B984C884DF80EE80FD800C811B8160
S1134230AA81B981CE0FD11D0FB6F894DEBF0FBE8F
S1134240CDBFED010895FB01DC0104C08D91019007
S1134250801921F441505040C8F7881B990B0895E8
S1134260DC0101C06D9341505040E0F70895A2E095
S1134270B0E0EDE3F1E20C94FC20FE01379661918D
S11342807191FA83E983AF018091DE059091DF0596
S11342900E944E21E2E022960C941821ABE0B0E09B
S11342A0E4E5F1E20C94EE203C014B016A01FC01CF
S11342B017821682838181FD03C08FEF9FEFDAC1DD
S11342C0F3013381F40133FD859133FF81914F0173
S11342D0882309F4CCC1853239F433FD859133FF49
S11342E081914F01853229F4B30199270E94542307
S11342F0E7CF00E0442455244AE00032B0F48B3286
S113430069F08C3228F4803251F0833271F40BC09E
S11343108D3239F0803349F4016028C002600460B2
S113432025C0086023C0006121C007FD29C0282FD3
S113433020532A3078F406FF06C0549EC00111248D
S1134340522E580E13C0449EC0011124422E480E12
S113435000620CC08E3221F406FD89C1006406C0DF
S11343608C3611F4006802C0883651F4F40133FD30
S1134370859133FF81914F01882309F46FC0BDCF2C
S1134380982F8554833018F08052833038F424E019
S113439030E0C20ED31E8FE389830FC0933631F011
S11343A0933799F0933509F05BC023C0F6018081FF
S11343B0898322E030E0C20ED31E7E010894E11C02
S11343C0F11C51E0A52EB12C12C0F601E080F18061
S11343D006FD03C06FEF7FEF02C0652D772722E053
S11343E030E0C20ED31EC7010E9449235C010F773F
S11343F013C0F601E080F18006FD03C06FEF7FEF8C
S113440002C0652D772722E030E0C20ED31EC7011B
S11344100E943E235C01006803FF07C01BC0B30178
S113442080E290E00E9454234A94842D9927A81690
S1134430B906A8F30FC0F70107FD859107FF819125
S11344407F01B30199270E94542341104A94089490
S1134450A108B108A114B10471F706C190E03EC0EF
S1134460943611F0993691F507FF0AC0F601608180
S113447071818281938124E030E0C20ED31E0DC08D
S1134480F601808191819C01B901882777FD80958F
S1134490982F42E050E0C40ED51E4FE6B42EB02251
S11344A097FF09C090958095709561957F4F8F4FC8
S11344B09F4F50E8B52A8E010F5F1F4F2AE030E06E
S11344C0A8010E948123A82EA01A4DC0953731F46B
S11344D03FEEF32EF0222AE030E023C029EFF22E43
S11344E0F0229F3661F0903720F4983509F0BFC070
S11344F012C0903739F0983709F0B9C005C028E0E8
S113450030E00FC080E1F82AF4FE02C094E0F92AFA
S113451020E130E006C0F4FE02C0E6E0FE2A20E11D
S113452032E0F7FE0AC0F6016081718182819381D5
S113453044E050E0C40ED51E0BC0F6018081918189
S1134540AC01BA0188279927E2E0F0E0CE0EDF1E25
S11345508E010F5F1F4FA8010E948123A82EA01A6D
S11345608FE7B82EBF20B6FE10C0FEEFBF22A51401
S113457060F42B2D332724FF1AC022FF02C0052D1F
S113458009C02FEEB222052D01C00A2D2B2D332791
S113459024FF0EC0FE01EA0DF11D8081803319F461
S11345A039EEB32209C00F5F22FF06C004C0052DF7
S11345B0822F867809F00F5FEB2CFF24E3FC14C0F4
S11345C0E0FE0FC0041510F05A2C0BC0542C501AE6
S11345D05A0C042D06C0B30180E290E00E945423DB
S11345E00F5F0415C0F304C0041510F4401A01C091
S11345F04424E4FE10C0B30180E390E00E945423FD
S1134600E2FE1EC0E1FE03C088E590E002C088E738
S113461090E0B3010CC08E2D867891F0E1FE02C0CB
S11346208BE201C080E2B7FC8DE2B30199270E94BE
S1134630542306C0B30180E390E00E9454235A94AB
S1134640A514C0F3AA94FE01EA0DF11D8181B30102
S113465099270E945423AA2039F0F4CFB30180E2B1
S113466090E00E9454234A944420C1F729CEF301D8
S113467086819781E0E12B960C940A21FC01059038
S1134680615070400110D8F7809590958E0F9F1F50
S11346900895FC016150704001900110D8F7809595
S11346A090958E0F9F1F08950F931F93CF93DF93C1
S11346B08C01EB018B81992781FF1BC082FF0DC008
S11346C02E813F818C819D812817390764F4E8810C
S11346D0F9810193F983E88306C0E885F985802F81
S11346E00995892B31F48E819F8101969F838E8356
S11346F002C00FEF1FEFC801DF91CF911F910F91FF
S11347000895FA01AA27283051F1203181F1E89463
S11347106F936E7F6E5F7F4F8F4F9F4FAF4FB1E0B0
S11347203ED0B4E03CD0670F781F891F9A1FA11DAB
S1134730680F791F8A1F911DA11D6A0F711D811DAC
S1134740911DA11D20D009F468943F912AE0269F71
S113475011243019305D3193DEF6CF010895462FD0
S11347604770405D4193B3E00FD0C9F7F6CF462FB1
S11347704F70405D4A3318F0495D31FD405241931A
S113478002D0A9F7EACFB4E0A695979587957795D7
S11347906795BA95C9F700976105710508959B015E
S11347A0AC010A2E06945795479537952795BA95E7
S11347B0C9F7620F731F841F951FA01D0895FFCFB3
S11347C02846464420257529203A204D656E73619C
S11347D067656D205345545F54454D5045524154CF
S11347E05552452072656365626964612064652081
S11347F025752E0A002846464420257529203A208E
S11348004D656E736167656D205345545F4C494730
S1134810485420726563656269646120646520257B
S1134820752E0A002846464420257529203A204D35
S1134830656E736167656D205345545F564F4C2018
S113484072656365626964612064652025752E0A5A
S1134850002846464420257529203A204D656E736C
S11348606167656D205345545F4348414E2072652E
S11348706365626964612064652025752E0A0028D9
S113488046464420257529203A204D656E7361679C
S1134890656D205455524E5F4149525F4F4E207210
S11348A0656365626964612064652025752E0A006C
S11348B02846464420257529203A204D656E7361AB
S11348C067656D205455524E5F4149525F4F4646CD
S11348D02072656365626964612064652025752EB4
S11348E00A002846464420257529203A204D656E45
S11348F0736167656D205455524E5F54565F4F4E39
S11349002072656365626964612064652025752E83
S11349100A002846464420257529203A204D656E14
S1134920736167656D205455524E5F54565F4F4610
S1134930462072656365626964612064652025753B
S11349402E0A002846464420257529203A20496E1F
S1134950696369616C697A616E646F2046464420BC
S11349602E2E2E0A000100FFFFFFFF010022FFFF91
S1134970FF0101FFAD03E103AD03000000020000ED
S10B49800000040C000000001B
S9030000FC
