S01800006275696C642F6D6963617A2F6D61696E2E73726563E5
S11300000C9461010C94D8060C94E2060C94EC0652
S11300100C94F6060C9400070C940A070C946D0DCE
S11300200C9414070C9480010C9480010C94201EF1
S11300300C9455120C94A2060C94B8060C94DD0A88
S11300400C9491060C9489140C94DB080C94800194
S11300500C9457090C9480010C9480010C94800139
S11300600C94AD060C94AA0A0C94890A0C94940A74
S11300700C949F0A0C94BD0A0C946C0A0C94800195
S11300800C947E0A0C9480010C9480011F15521567
S1130090D51552165816A916C416CA160317BE1734
S11300A0E117F517BB190F15071A1715381A4C1A4B
S11300B0301B411B431B461B771B991B000021105F
S11300C0422063308440A550C660E77008812991BE
S11300D04AA16BB18CC1ADD1CEE1EFF13112100266
S11300E073325222B5529442F772D662399318830E
S11300F07BB35AA3BDD39CC3FFF3DEE36224433432
S113010020040114E664C774A44485546AA54BB55D
S113011028850995EEE5CFF5ACC58DD55336722605
S113012011163006D776F6669556B4465BB77AA7AD
S113013019973887DFF7FEE79DD7BCC7C448E55851
S11301408668A7784008611802282338CCC9EDD9FD
S11301508EE9AFF9488969990AA92BB9F55AD44AA5
S1130160B77A966A711A500A333A122AFDDBDCCB4D
S1130170BFFB9EEB799B588B3BBB1AABA66C877C71
S1130180E44CC55C222C033C600C411CAEED8FFD9D
S1130190ECCDCDDD2AAD0BBD688D499D977EB66E45
S11301A0D55EF44E133E322E511E700E9FFFBEEFED
S11301B0DDDFFCCF1BBF3AAF599F788F8891A981AF
S11301C0CAB1EBA10CD12DC14EF16FE18010A10099
S11301D0C230E3200450254046706760B983989389
S11301E0FBA3DAB33DC31CD37FE35EF3B1029012E9
S11301F0F322D2323542145277625672EAB5CBA555
S1130200A89589856EF54FE52CD50DC5E234C32438
S1130210A01481046674476424540544DBA7FAB728
S11302209987B8975FE77EF71DC73CD7D326F23688
S11302309106B01657667676154634564CD96DC974
S11302400EF92FE9C899E9898AB9ABA944586548D8
S113025006782768C018E1088238A3287DCB5CDBC8
S11302603FEB1EFBF98BD89BBBAB9ABB754A545A28
S1130270376A167AF10AD01AB32A923A2EFD0FED94
S11302806CDD4DCDAABD8BADE89DC98D267C076C78
S1130290645C454CA23C832CE01CC10C1FEF3EFF68
S11302A05DCF7CDF9BAFBABFD98FF89F176E367EC8
S11302B0554E745E932EB23ED10EF01E00081C18EB
S11302C0141011241FBECFEFD0E1DEBFCDBF12E06A
S11302D0A0E0B1E0EEE4F9E400E00BBF02C0079057
S11302E00D92AE33B107D9F715E0AEE3B2E001C029
S11302F01D92A336B107E1F70E94D31B0C94A624E8
S11303000C9400008FB7F894992708958FBF08952F
S1130310282F9FB7F894E82FFF27E158FD4F8081DD
S11303208F3F81F4E0915705E21771F40BC02093DD
S1130330110504C0FF27E158FD4F20832093570582
S113034020E007C025E005C0809111058F3F91F79B
S1130350EECF892F99278FBF822F992708951F9356
S11303601FB7F89480915305882341F481E10E94DA
S11303708801882319F481E080935305812F9927FC
S11303808FBF1F910895382FFA01422F2D3118F095
S113039082E090E008956683872F992785833387C9
S11303A021878091500290915102892B19F085E0A8
S11303B090E008952FB7F894332785E08093530293
S11303C010925402F0934F02E0934E0282E090E0C8
S11303D0909351028093500210925602109255024B
S11303E0445F409352022FBF8FB7F894282F3327CE
S11303F0809165038A3011F42FBF19C02FBF9FB7B6
S1130400F8948091CC02882311F020E006C081E0AA
S11304108093CC021092CD0221E0892F99278FBFBF
S1130420222329F00E94AF0180E090E00895109209
S113043051021092500281E090E00895CF93DF932F
S1130440DB01FB0135968183892F9927EB018D838D
S113045084E686838091DA049091DB04892B19F079
S113046085E090E029C07093DB046093DA04448350
S113047080912702882319F480E090E01DC08681D2
S1130480EB016D817727762F662721813327622B35
S1130490732B10922702242FAD010E94C3019927C8
S11304A0282F882339F081E0809327021092DB04FF
S11304B01092DA04822F9927DF91CF910895CF9378
S11304C0DF9310922702A091DA04B091DB04109715
S11304D021F08091B40280FF08C081E0809327025C
S11304E017C080E10E94880113C0FD013596248164
S11304F03327ED016D817727762F66278181992730
S1130500682B792BAD0186810E94C301882349F7AA
S1130510DF91CF910895809165038A3021F4809111
S1130520A302843021F081E080934B02089583E19B
S11305300E94880110924B0208952FB7F894332734
S11305408CB95E9A2FBF0895FC016115710519F4E9
S113055081E090E008958091C4029091C502892BB6
S113056019F085E090E008957093B4046093B304A7
S1130570F093C502E093C4021092A5021092A40263
S113058081E08093A6025E9A569A808121E030E051
S11305903093A5022093A4020E949D0280E090E083
S11305A008958FB7F894992720915C022E7F2093A9
S11305B05C022EE720939A028FBF61E070E08AE923
S11305C092E00E94A40299270895FC018281992750
S11305D0582F442781819927482B592BCA01892FE9
S11305E0992786958695837090708230910559F08D
S11305F08330910559F0892B19F420E030E008C0CC
S11306002CE93FEF05C022E030E002C028E030E0F2
S1130610CA0184E0989F812D992711248230910585
S113062059F08330910559F0892B19F480E090E05A
S113063008C08CE99FEF05C082E090E002C088E02A
S113064090E0280F391F2A5F3F4FCF01820F931F7D
S11306500895282F9FB7F894662349F0E82FFF27C1
S1130660E359FC4F8081882311F021E006C0E22F7A
S1130670FF27E359FC4F608320E0892F99278FBF20
S1130680822F99270895E82F8FB7F894282F3327BE
S113069090E0FF27E359FC4F8081861709F491E02D
S11306A02FBF892F99270895882311F06E9A0895F2
S11306B06E980895882311F06F9A08956F9808959D
S11306C080E00E945403BA9ABB98B99AB89A6C9A7B
S11306D080E00E945A036B986A9881E00E94540358
S11306E0709A8DB18C7F8DB908951F93182F81E076
S11306F00E9454031FB9779BFECF8FB199271F9196
S113070008958F929F92AF92BF92CF92DF92EF9211
S1130710FF920F931F93CF93DF938FB7F89499278A
S1130720C0901B05D0901C058090620390906303D9
S1130730C091DD02D091DE02209163023091640207
S1130740EAE0AE2EB12CAC0EBD1E2A153B0508F412
S113075059018FBF7401EC0EFD1E86010C0F1D1F85
S113076014C0C114D10419F0F801808101C080E0E3
S11307700E9475038114910411F0F701808321967E
S11307800894E11CF11C0F5F1F4FC5010197C817A6
S1130790D90738F381E00E945A039FB7F894C11433
S11307A0D10431F0CC0EDD1EF60180818FB901C079
S11307B01FB8D093DE02C093DD02892F99278FBF23
S11307C080E090E0DF91CF911F910F91FF90EF9027
S11307D0DF90CF90BF90AF909F908F9008952FB7E8
S11307E0F8943327509364024093630290931C055A
S11307F080931B0570936303609362031092DE027F
S11308001092DD022FBF452B29F08FB10E94810386
S11308109927089589E00E94880180E090E0089576
S11308208FB7F894992710926F038FBF089580E8CB
S113083080937C021092A20210921505109210056A
S113084010929E020895CF93DF93FC0115A6DC015C
S11308509E96ED011B821A82198280E886A7DF9199
S1130860CF9108952F923F924F925F926F927F9211
S11308708F929F92AF92BF92CF92DF92EF92FF92AC
S11308800F931F93CF93DF93CDB7DEB728970FB69F
S1130890F894DEBF0FBECDBF2090AD023090AE0203
S11308A04090AF025090B002662477248824BEE4BE
S11308B0AB2EA3E8BA2ECC24DD24EE24FF2400E0E2
S11308C010E0222D332D442D552D662D772D882DA6
S11308D090E00E94BE1F29833A834B835C836D831F
S11308E07E838F839887822E932EA42EB52E240187
S11308F0350100E20E94BC20A22EB32EC42ED52EB8
S1130900C301B20196958795779567956A0D7B1D0E
S11309108C1D9D1D97FF05C09F776F5F7F4F8F4F85
S11309209F4F6093AD027093AE028093AF02909399
S1130930B00228960FB6F894DEBF0FBECDBFDF918C
S1130940CF911F910F91FF90EF90DF90CF90BF90C8
S1130950AF909F908F907F906F905F904F903F905B
S11309602F9008958FB7F8946091E1027091E2029C
S11309702CB53DB506B602FE04C06F5F7F4F2CB5A3
S11309803DB599278FBF88279927CB0177276627FD
S113099044275527622B732B842B952B0895EF92B4
S11309A0FF920F931F930E94B2047B018C0120914C
S11309B0BC023091BD024091BE025091BF028091B1
S11309C0B6029091B702A091B802B091B902820F19
S11309D0931FA41FB51FE216F3060407150730F092
S11309E082179307A407B50758F005C08217930729
S11309F0A407B507E0F5E816F9060A071B07B8F5DA
S1130A009C01AD012E193F09400B510B213060E8C8
S1130A10360760E0460760E0560768F180E090E83A
S1130A20A0E0B0E0E80EF91E0A1F1B1FE092BC0212
S1130A30F092BD020093BE021093BF0280E090E8E2
S1130A40AFEFBFEFE80EF91E0A1F1B1F20503048FE
S1130A50404050402093B6023093B7024093B8020E
S1130A605093B90220E030E840E050E014C020E0A8
S1130A7030E040E050E08093BC029093BD02A0932C
S1130A80BE02B093BF021092B6021092B702109247
S1130A90B8021092B902A901B7012CB53DB5C9013C
S1130AA08E199F0903968417950720F0B9016D5F8D
S1130AB07F4F02C0640F751F6115710511F461E069
S1130AC070E0615070407BBD6ABD80E186BF87B72E
S1130AD0806187BF1F910F91FF90EF9008950F934E
S1130AE01F930FB7F89411276093BC027093BD0253
S1130AF08093BE029093BF022093B6023093B70254
S1130B004093B8025093B9020E94CF040FBF1F91C3
S1130B100F91089597B79F7D97BF90E296BF882362
S1130B2019F08EB5806402C08EB58F7B8EBD87B7F9
S1130B30806287BF80E090E008957FB7F89462B741
S1130B4020916602309167024091680250916902D7
S1130B5006B601FE0FC081B792B7280F311D411DA3
S1130B60511D2F5F3F4F4F4F5F4F290F311D411DC7
S1130B70511D04C0260F311D411D511D872F99277A
S1130B808FBFCA01B9010895DF92EF92FF920F93CC
S1130B901F938FB7F894282F3327D22E91B782B79B
S1130BA046B7981711F041FF02C02FBF6AC0809169
S1130BB0D4028823E1F10E949D05E0906903F0903E
S1130BC06A0300916B0310916C03209178023091B9
S1130BD0790240917A0250917B026E197F09800B51
S1130BE0910B621773078407950720F01092D402C3
S1130BF071E01EC02E0D3F1D401F511F80916602E3
S1130C0090916702A0916802B0916902281B390B88
S1130C104A0B5B0B273E31054105510540F4822FF9
S1130C20223010F070E005C070E082E002C070E095
S1130C3086EE682F615000B601FCFDCF82B76817BD
S1130C4009F46F5F20916602309167024091680257
S1130C5050916902DA01C9010196A11DB11D860FE7
S1130C60911DA11DB11D82179307A407B50710F4A8
S1130C70622F609561BFDFBE772319F080E00E9488
S1130C8088011F910F91FF90EF90DF900895AFB707
S1130C90F894BB27E1E0E093D40260936903709376
S1130CA06A0380936B0390936C03209378023093D0
S1130CB0790240937A0250937B02AFBF0E94C4052D
S1130CC00895AF92BF92CF92DF92EF92FF920F936B
S1130CD01F93CF93DF93CDB7DEB728970FB6F89461
S1130CE0DEBF0FBECDBF20E070E0E0911A02F091AC
S1130CF01B0232E14DE65CE46FE480911B029E2FFF
S1130D0028960FB6F894DEBF0FBECDBFDF91CF910A
S1130D101F910F91FF90EF90DF90CF90BF90AF9015
S1130D2008951F920F920FB60F9211248F9383B7D9
S1130D3083BF00B600FCFDCF8F910F900FBE0F90C4
S1130D401F90189578941F920F920FB60F9211244A
S1130D500F900FBE0F901F90189578941F920F92CA
S1130D600FB60F9211240F900FBE0F901F9018957D
S1130D7078941F920F920FB60F9211242F933F93E2
S1130D808F939F932FB7F89433278091E10290912A
S1130D90E20201969093E2028093E1022FBF9F91B9
S1130DA08F913F912F910F900FBE0F901F90189528
S1130DB01F920F920FB60F9211240F900FBE0F9037
S1130DC01F9018951F920F920FB60F9211240F9037
S1130DD00FBE0F901F9018951F920F920FB60F928F
S1130DE011240F900FBE0F901F9018951F920F9211
S1130DF00FB60F9211240F900FBE0F901F901895ED
S1130E001F920F920FB60F9211240F900FBE0F90E6
S1130E101F9018951F920F920FB60F9211240F90E6
S1130E200FBE0F901F9018951F920F920FB60F923E
S1130E3011240F900FBE0F901F901895ECEBF0E06B
S1130E406927660FF11DE60FF11DC895982F802DB7
S1130E503196C89590250895982F8091570288233C
S1130E6089F5992379F531E030935702809128026E
S1130E708093580220914C02822F817080937D02CE
S1130E8080912D0290912E0290935A0280935902E0
S1130E9080914D0280935B0232273170267EE32FCE
S1130EA0FF27EE0FFF1FE75DFD4F80819181909337
S1130EB02E0280932D02232B20934C0286E10E9464
S1130EC08801089580914C0280FF02C08B7F01C08D
S1130ED08D7F80934C0208950F931F93082F162F34
S1130EE08091A3028130D9F0813038F0823009F446
S1130EF04AC0833009F028C159C0002309F458C1FD
S1130F001092AD041092AC04109267031092B504D1
S1130F101092A7021092E4021092E30239C1002356
S1130F2009F046C18091E3029091E4020E941E07F9
S1130F309093E4028093E30282E08093A3021093EF
S1130F40B504143409F000C125C18695869503C003
S1130F5080914C028695817009F0F6C080914C0214
S1130F60992311F0846001C0826080934C028091C7
S1130F704C02877E886080934C0210924D028FEF62
S1130F808093280215C1002309F0DEC06093A702F4
S1130F908091E3029091E4020E941E079093E40280
S1130FA08093E30283E08093A30202C180916703EC
S1130FB08F3F09F4C9C0002309F461C0823008F4EA
S1130FC0C3C0E091AC04EE2309F4EBC04E2F4150B2
S1130FD0E42FFF27E455FB4F82819927382F2227DE
S1130FE0442311F4E2E002C0E42FE150FF27E4556A
S1130FF0FB4F82819927282B392B8091E302909112
S1131000E4022817390709F09FC080E00E942C07EA
S11310103091A7028091D5022091D602982F9F5F2C
S1131020963008F090E0921771F0E82FFF27EB520A
S1131030FD4F32838F5F8093D502863010F010927B
S1131040D5020E94AF011092AD041092AC0494E05A
S11310509093A302109267031092B5041092A70212
S11310601092E4021092E30280915C028D7F8093DF
S11310705C0280914B02882309F49AC084C08230B8
S113108008F44EC0E091AD04FF27E455FB4F828184
S1131090482F5527342F20914C02822F8695869510
S11310A08695837099278130910519F00297F9F498
S11310B00EC0277E206120934C02442311F485E066
S11310C001C080E080934D023093280210C08091CB
S11310D04D02843360F4E0912D02F0912E02E80F6A
S11310E0F11D408380914D028F5F80934D0280916A
S11310F0AD04E82FFF27E455FB4F62818F5F809397
S1131100AD04833010F01092AD0477278091E30290
S11311109091E4020E941E079093E4028093E302FC
S11311208091AC04E82FFF27E455FB4F12838F5FB7
S11311308093AC04833010F01092AC048091670368
S11311408F5F8093670334C01092AD041092AC0497
S113115014E01093A302109267031092B504109246
S1131160A7021092E4021092E30280915C028D7F48
S113117080935C0281E00E942C0780914B028823BB
S113118029F01093A3020E948B0212C0002381F065
S113119081E009CF80914C02982F917080FDD5CECB
S11311A0D7CE8091B0049927382F222742E01CCF54
S11311B01F910F9108951F920F920FB60F92112451
S11311C02F933F934F935F936F937F938F939F934B
S11311D0AF93BF93EF93FF935F9B3DC06CB1E091DE
S11311E0E502F091E6023097F9F080915105909173
S11311F05205E80FF91F608301969093520580937E
S1131200510520915B0530915C058217930718F115
S11312101092E6021092E502809164038330D9F0C3
S113122057981092640317C06E3719F460E081E098
S113123010C080915C026D3721F4826080935C025F
S11312400AC081FF05C08D7F80935C0280E268271D
S113125080E00E946C07FF91EF91BF91AF919F9145
S11312608F917F916F915F914F913F912F910F904B
S11312700FBE0F901F901895982F8D57823068F4E9
S113128080915C02816080935C0280E28927809374
S113129066038DE780939A0202C090939A0261E0FC
S11312A070E08AE992E00E94A40299270895789454
S11312B01F920F920FB60F921124FF920F931F9358
S11312C02F933F934F935F936F937F938F939F934A
S11312D0AF93BF93CF93DF93EF93FF932091A40237
S11312E03091A5028091B3049091B4042817390772
S11312F080F4E091C402F091C502E20FF31F8081F3
S11313002F5F3F4F3093A5022093A4020E949D02B9
S1131310CDC01092C5021092C4021092A602569833
S1131320FFB6F89480915C0280FF0EC08E7F80939C
S11313305C028091660380939A0261E070E08AE91E
S113134092E00E94A402AFC080916503843009F446
S11313508CC0853040F4823021F18330B8F581307F
S113136009F09CC00DC0863009F48DC0863008F4A5
S113137083C0873009F48EC0883009F08FC091C0D3
S11313808091BB020E943C09082F83E0809365038F
S11313906091BB028091590590915A050E941E07E5
S11313A010C0809114050E943C09082F83E08093AB
S11313B06503609114058091590590915A050E9426
S11313C01E0790935A058093590566C0E091E70281
S11313D0FF27EE0FFF1FE553FD4F80810E943C095C
S11313E0082F1091E702C12FDD27FE01EE0FFF1F2A
S11313F0E553FD4F60818091590590915A050E94F3
S11314001E0790935A05809359052091B5022F5FCA
S11314102093B502113039F580915302E0914E02C8
S1131420F0914F02E80FF11DE0818F5F809353022A
S113143090915202981730F482E08093CC0240E0FD
S113144050E002C04E2F5527DE01AA0FBB1FFD013D
S1131450E653FD4F8081823031F02F3F21F0A553B8
S1131460BD4F4C9319C084E012C0809159050E946D
S11314703C09082F85E00BC080915A050E943C0965
S1131480082F86E004C00E94D102082F87E08093D1
S1131490650302C088E003C0002329F089E080933B
S11314A065030E94AF018F2D99278FBFFF91EF91A4
S11314B0DF91CF91BF91AF919F918F917F916F9168
S11314C05F914F913F912F911F910F91FF900F903A
S11314D00FBE0F901F9018951F920F920FB60F9288
S11314E011248F9380919B0087FF02C080919C0000
S11314F08F910F900FBE0F901F90189578941F92A4
S11315000F920FB60F9211240F900FBE0F901F90E1
S1131510189578941F920F920FB60F9211240F9082
S11315200FBE0F901F90189578941F920F920FB6CC
S11315300F9211240F900FBE0F901F90189578945E
S11315401F920F920FB60F9211240F900FBE0F909F
S11315501F90189578941F920F920FB60F92112432
S11315608F939F9380918000909181009F918F91A0
S11315700F900FBE0F901F90189578941F920F92A2
S11315800FB60F9211242F933F938F939F932FB7EE
S1131590F89433278091B2029091B302019690930C
S11315A0B3028093B2022FBF9F918F913F912F91ED
S11315B00F900FBE0F901F9018951F920F920FB6A9
S11315C00F9211242F933F934F935F936F937F93C5
S11315D08F939F93AF93BF93EF93FF9383B783BF8F
S11315E000B600FCFDCF81B799270196AA27BB2737
S11315F0209166023091670240916802509169021D
S1131600280F391F4A1F5B1F20936602309367021D
S1131610409368025093690278940E94C405FF9134
S1131620EF91BF91AF919F918F917F916F915F9156
S11316304F913F912F910F900FBE0F901F901895CF
S11316400F931F93CF93DF93182F8FB7F894C82F5E
S1131650DD270C2F61E080E00E942903882321F01C
S1131660CFBF85E090E024C080911F028823A1F4BD
S113167080914402823081F409C082E08093440264
S113168010921F020E946003B89AC09810931C0223
S113169080E00FBF99270CC080914402882369F32E
S11316A08FB7F894992710926D038FBF81E0F1CF23
S11316B0DF91CF911F910F9108950F931F93182FCE
S11316C00FB7F89461E080E00E942903882371F544
S11316D010931C0280911F028823A9F58091440273
S11316E0823089F588E00CC00E9460038091440236
S11316F0882349F481E08093440210929F028AE097
S11317000E9488012AC08091BA028F3F31F5E0918E
S11317101E02EE2311F11CC010921D0204C0FF270B
S1131720E654FD4F108210921E0217C081E090E033
S113173002C0880F991F1A95E2F720914302282BC3
S1131740209343020AC0809144028823E1F6CCCF5F
S113175080911D028F3F19F7DFCF802F99278FBF0C
S113176080E090E01F910F9108951F9383E00E9401
S1131770200B9927182F882319F083E00E945D0B12
S1131780812F99271F91089580915F028C3118F061
S11317904CE150E002C0482F55278CE1E9E2F5E026
S11317A011928A95E9F790915F0280915D0220E0A1
S11317B030E0A9E2B5E00FC0E82FFF27EE54FC4F5C
S11317C0E081992329F08F5F8A3F09F480E09150EA
S11317D0ED932F5F3F4F2417350771F790935F0206
S11317E080935D024CE16DE175E08FEF9FEF0E9405
S11317F01E02882319F087E10E94880108958FB79B
S1131800F894282F332780916002813021F42FBF70
S113181080E090E0089590E080915F02882309F4CD
S113182091E0992321F02FBF81E090E0089581E0B9
S1131830809360022FBF0E94C40B80E090E0089563
S11318400F931F938C0180911A0290911B029F9316
S11318508F9380E091E09F938F930E94FE210E94DA
S1131860FF0B0F900F900F900F900357134011F43C
S113187010923E021F910F910895662351F48091B6
S11318805F02882319F00E94C40B0895109260022D
S1131890089587E10E94880108951F93182F80916D
S11318A06002882349F480915F028D3728F081E03B
S11318B0809360020E94C40B8FB7F894282F3327BB
S11318C090915F029A3FA8F480915E02E82FFF276F
S11318D0EE54FC4F10838F5F80935E028A3F11F4B5
S11318E010925E029F5F90935F022FBF80E090E0B2
S11318F003C02FBF8FEF9FEF1F910895CF92DF9208
S1131900EF92FF920F931F93CF93DF938C01F62EE8
S11319106A01E22E8FB7F894C82FDD2760E080E0DB
S11319200E944303882321F0CFBF80E090E01EC0D3
S1131930CFBF0F0D111D802F80680E947503F82EF4
S113194016950795802F807C0E9475030E2D0AC082
S1131950EE2DFF27E01BF109EC0DFD1D80810E9497
S1131960750301500023A1F78F2D9927DF91CF91A3
S11319701F910F91FF90EF90DF90CF900895CF9338
S1131980DF93CDB7DEB72C970FB6F894DEBF0FBE4A
S1131990CDBF8FB7F894282FAE014F5F5F4FDA01A8
S11319A0E7EAF3E088E001900D928150E1F780913D
S11319B0A8029091A9028987892F99278A87809103
S11319C0C0029091C1028B87892F99278C872FBFE2
S11319D02CE060E080E691E00E947E0C2C960FB62D
S11319E0F894DEBF0FBECDBFDF91CF9108951F9352
S11319F0CF93DF93182F8FB7F894C82FDD2760E0BB
S1131A0080E00E944303882321F0CFBF80E090E070
S1131A1005C0CFBF812F0E9475039927DF91CF9115
S1131A201F910895EF92FF920F931F93CF93DF932B
S1131A30182F7B01042F8FB7F894C82FDD2760E09F
S1131A4080E00E944303882321F0CFBF80E090E030
S1131A5014C0CFBF1064812F99279093C70280933D
S1131A60C6020E947503182F402F5527B70180E046
S1131A7090E00E94EF03812F9927DF91CF911F916E
S1131A800F91FF90EF900895C0986091610270915A
S1131A90620241E08FE30E94120D089582E090E01B
S1131AA0909398028093970281E08093A20220E0B1
S1131AB030E080911C02843011F421E030E0232BCB
S1131AC029F484E00E94200B882319F40E94440D19
S1131AD0089584E00E945D0B08951F920F920FB643
S1131AE00F9211242F933F934F935F936F937F93A0
S1131AF08F939F93AF93BF93EF93FF93809197023C
S1131B0090919802019749F482E090E090939802B2
S1131B10809397020E944E0D05C080919E028F5FB4
S1131B2080939E02FF91EF91BF91AF919F918F910E
S1131B307F916F915F914F913F912F910F900FBEC5
S1131B400F901F9018951F9380914302882309F0EA
S1131B504BC010911C021F3F09F046C060E00E9478
S1131B604303882309F440C081E08093B00380914B
S1131B707E028823E1F11092B00385E090E045C035
S1131B80923069F5C09A80911D0220E030E08F3FC9
S1131B9011F421E030E0232BE9F410931F028F3F6E
S1131BA019F42FEF30E00DC0282F3327F901E65444
S1131BB0FD4F808180931D028F3F11F410931E020C
S1131BC0108320939F0281E0809344028AE00E9464
S1131BD0880105C010931F021092440211C0809125
S1131BE04402882369F00FC081E090E00EC0809128
S1131BF01F0290914402882319F2923021F0EFCF12
S1131C0080E00E94540380E090E01F9108951F93A8
S1131C10CF93DF939FB7F894C92FDD271C2F9091A2
S1131C201C02981721F0CFBF81E090E03AC08FEFFB
S1131C3080931C02309143023323F1F48FB7F8945C
S1131C40992710926D038FBF0E94A30DCFBF11C0BF
S1131C5020931C0281E090E002C0880F991F4A95EE
S1131C60E2F7809538233093430288E00E9488018C
S1131C701FBF80E090E015C080E065E0E32FFF2700
S1131C800E943F21292F492F5527CF01042E02C03E
S1131C90959587950A94E2F780FDDACF822F8F5FBE
S1131CA0EFCFDF91CF911F9108951F93CF93DF93CF
S1131CB08FB7F894C82FDD271C2F8091970290913D
S1131CC09802892B29F484E00E94070ECFBF1EC01E
S1131CD01092A20280919E02882311F0B79904C049
S1131CE00E9908C0882319F0815080939E020E94A7
S1131CF04E0D0BC081E090E0909398028093970280
S1131D0010929E0284E00E94070E1FBFDF91CF91C4
S1131D101F9108950E941704C09AC09888E00E94F9
S1131D20F70C88E00E94F70CC09A84E00E94070E2A
S1131D300E94550E0895FF920F931F93CF93DF9344
S1131D40F82E8B018FB7F894C82FDD2760E080E070
S1131D500E944303882321F0CFBF80E090E00CC0B1
S1131D60CFBF8F2D0E947503812F99270E94750381
S1131D70802F0E9475039927DF91CF911F910F91B6
S1131D80FF9008951F931FB7F89480919D028823B4
S1131D9019F460E070E009C060E080911A058823BE
S1131DA009F461E081E0682777278091AA028823FB
S1131DB019F480E090E00AC090E0809172038823D7
S1131DC009F491E081E09827892F9927762F6627D7
S1131DD0770F770F770FE4E0880F991FEA95E1F703
S1131DE0826E9262682B792B81E10E949B0E812F77
S1131DF099278FBF1F9108958FB7F8949927609101
S1131E00AF038FBF85E0689FB0011124625D7E4FF0
S1131E10706488E10E949B0E0895EF92FF921F93D5
S1131E20CF93DF93E090AB02F090AC02F70182A570
S1131E309927182F882309F41FE1C09880919C02E8
S1131E40811749F0612F77276F717070606E706829
S1131E5085E10E949B0E10939C02F70110818FB7BD
S1131E60F894C82FDD2760E080E00E9443038823B4
S1131E7011F0CFBF12C0CFBF8EE390E09093C702A2
S1131E808093C6028EE30E9475031150412F55279B
S1131E9060E070E0C7010E94EF03DF91CF911F91D2
S1131EA0FF90EF9008950F931F93CF93DF93EC016E
S1131EB00FB7F89411270E94E502FC018FE3808399
S1131EC00FBF109218051092170561E082E00E947E
S1131ED02903882319F085E090E072C08091B10352
S1131EE08F5F8093B10381508B838FB7F894082F51
S1131EF0112762E081E00E944303882329F40FBF85
S1131F000E94100481E05BC08FB7F894992724E005
S1131F1020936E038FBFD093D102C093D0020FBF22
S1131F20FE013196818129819927982F88273327AB
S1131F30822B932B80729C7C8983892F99278183A0
S1131F402981982F882733272164822B932B898317
S1131F50892F992781831CA618A619A619AA18AA3D
S1131F601FA680E88EA761E0609371034091D002C0
S1131F705091D1028FB7F894282F332780914502CE
S1131F80909146028830910511F0019711F02FBF0E
S1131F9015C082E090E090934602809345026093DE
S1131FA058055093AC024093AB02109265022FBFC8
S1131FB00E94B50B882311F40E940D0F80E099272D
S1131FC0DF91CF911F910F910895CF93DF93DA01A1
S1131FD0422F2D3118F082E090E05EC0ED018B8736
S1131FE06E83872F99278F832FB7F8943327809197
S1131FF0A8029091A9022FBFFD018483892F9927FC
S113200085832FB7F8943327809120029091210281
S11320102FBF8887892F99278987319681812981C4
S11320209927982F8827332720643868822B932B8D
S11320308983892F99278183435F4C934D508091E5
S11320402302882359F010922302642FCD010E94A9
S1132050530F9927282F8823A9F417C0842F992771
S11320609093CF028093CE02B0934A02A093490288
S11320708CE00E94880180912302882349F489E03E
S113208090E00AC08FEF80932302822F992704C027
S11320901092B10280E090E0DF91CF910895AF9269
S11320A0BF92CF92DF92EF92FF920F931F935B0147
S11320B06C016091F00261FF20C02091E802309130
S11320C0E9024091EA025091EB02E090EC02F090B8
S11320D0ED020091EE021091EF02D601C501821BC0
S11320E0930BA40BB50B8E159F05A007B10728F021
S11320F0E8EEF2E0A0E0B0E022C0E1EFF2E06091AF
S1132100F90261FFA3C02091F1023091F2024091E3
S1132110F3025091F402E090F502F090F60200917F
S1132120F7021091F802A21AB30AC40AD50AAE142F
S1132130BF04C006D10608F489C0A1E0B0E060FF86
S113214004C080858D7F808708C02E0D3F1D401FF1
S1132150511F2083318342835383AA2309F076C01D
S113216080911A0290911B029F938F9382E391E0D6
S11321709F938F930E94FE210E94FF0B2091D20215
S11321803091D3022F5F3F4F3093D3022093D2027A
S11321900F900F900F900F9080913E02882309F0CA
S11321A055C080911A0290911B0280938003892F5D
S11321B0992780937F0320938203832F9927809309
S11321C0810343E753E08FEF8093790380937A038D
S11321D086E080937E038091DF029091E002892B58
S11321E0A9F55093E0024093DF0281E180937303E9
S11321F0809126028823A9F01092260224E06FEF32
S11322007FEF86E00E94E50F9927282F882349F065
S113221081E0809326021092E0021092DF022223D2
S1132220A9F480911A0290911B029F938F938EE4DC
S113223091E09F938F930E94FE210E94FF0B81E007
S113224080933E020F900F900F900F9081E00E94B8
S113225088011F910F91FF90EF90DF90CF90BF9076
S1132260AF9008950F931F93CF93DF93182FEB0133
S1132270042FE82FFF27EE0FFF1FE152FD4F1182BD
S1132280108210922602E091DF02F091E002309772
S113229021F08091160580FF0EC081E08093260214
S11322A003C08EE00E9488011123B9F4602FCE018F
S11322B00E94200C12C020812D503327678177277C
S11322C0762F662786819927682B792BAF01838522
S11322D00E94E50F882341F3E4CFDF91CF911F9152
S11322E00F9108959B0180912602882349F46091FF
S11322F0DF027091E0026217730711F40E94321139
S113230008951F93182F81E090E0909346028093E4
S1132310450210927E020E94A30D8FB7F89499276C
S113232010933F028FBF84E00E9488011F9108959B
S113233061E081E00E9429038823E9F48FB7F894CF
S1132340282F33278091400290914102892B11F06C
S11323502FBF20C081E090E090934102809340021F
S11323602FBFDD9A0E94B20424E130E040E050E047
S11323700E946F050FC062E081E00E94430388233E
S113238019F089E090E0089561E081E00E94430340
S1132390882319F080E090E0089585E090E00895A6
S11323A0CF92DF92EF92FF920F931F93CFB6F894E0
S11323B0DD240E943204DC01CB0166E470E00E945B
S11323C04B212BE0E22EF12CE80EF91EF09255057C
S11323D0E09254050E94B20400271127A801970136
S11323E00E946F05CFBE1F910F91FF90EF90DF9079
S11323F0CF9008951F93CF93DF938FB7F894C82F8E
S1132400DD271C2F80914502909146020897C9F45C
S113241089E00E94F70C83E00E94070EC09A81E0D5
S113242090E090934602809345028FB7F8949927E1
S113243023E020933F028FBF84E00E948801CFBF36
S113244030C0C09880915805882311F085E001C000
S113245084E00E94F70C83FD09C080E00E94F70C21
S113246083FF04C085E090E020E003C083E090E0B7
S113247021E09093460280934502C09A1FBF222315
S113248041F01092650283E00E94070E0E94D01171
S113249008C00E94B20420E431E040E050E00E9411
S11324A06F05DF91CF911F91089578941F920F9239
S11324B00FB60F9211241F932F933F934F935F9363
S11324C06F937F938F939F93AF93BF93EF93FF93F8
S11324D087B78F7E87BF78941FB7F8948091B60230
S11324E09091B702A091B802B091B9020097A105EA
S11324F0B10509F051C080914502909146028530A2
S1132500910561F18630910530F48330910549F0ED
S1132510049781F51AC087309105F1F0089751F5B9
S113252014C0869B0FC084E090E090934602809391
S113253045020E94B20427E030E040E050E00E94EF
S11325406F0518C00E94D01115C00E94B50B8823D6
S113255089F40E94FA110EC080E00AC089E00E944A
S1132560F70C81E00E948A0583E00E94070E87E051
S11325700E9481118091400290914102019771F46F
S113258082E090E09093410280934002DE98DE9ACC
S113259080E00E945D0B02C00E94CF04812F992726
S11325A08FBFFF91EF91BF91AF919F918F917F91D9
S11325B06F915F914F913F912F911F910F900FBE9B
S11325C00F901F901895EF92FF920F931F93CF9344
S11325D0DF938B018091C6029091C70286FF40C1B0
S11325E08F7B8F3309F08EC1C0916102D09162025A
S11325F05881509399028091970290919802853066
S1132600910509F443C08630910509F48AC0029704
S113261009F01FC185E090E090939802809397029F
S113262040917C02852F99270196242F3327281760
S113263039074CF1B79906C00E9904C0451B4150A7
S113264040937C02409199024A32E8F44423A1F079
S1132650BE016F5F7F4F483018F047E050E007C07D
S113266086E090E09093980280939702552780E04B
S113267090E00E94EF0346C11092A202C09A84E047
S11326800E94070EE3C00E948A0E3CC186E090E0DF
S113269090939802809397028091AA02882309F468
S11326A039C0809172038823A9F5898185FF32C0DE
S11326B08F814E812FB7F89433276091C0027091B7
S11326C0C1022FBF9927982F88275527842B952B34
S11326D08617970759F08F812E819927982F88277D
S11326E03327822B932B8F5F9F4FA1F489818770AF
S11326F0813081F4C09AC0988AE00E94F70CC09A95
S1132700C0984091990247502896BE018FE30E94D9
S1132710120DF8C040919902475055272896BE01E2
S1132720A6CFC09A80919E02882339F484E00E9447
S1132730070E80919E02882311F0B7990AC00E9B60
S113274008C090911005992321F0809199028B3053
S113275038F480916102909162020E9423043DC08A
S1132760913001F5E0911505FF27EE0FFF1FEE0FE5
S1132770FF1FE654FB4F2081318142815381E09158
S11327806102F091620221ABBB27A52F942F832F06
S113279080ABCA01AA27BB2787A7252F3327442745
S11327A0552726A7809115059927019668E070E0C2
S11327B00E945F21809315058091100581508093BC
S11327C01005882351F080916102909162020E9469
S11327D02304109215051092100580919902FE01B0
S11327E0E80FF11D808187FF31C0012B79F16981E8
S11327F06770E0916102F0916202623019F5A09174
S1132800AB02B091AC02109709F18091450290910E
S113281046020797D9F4ED019B8183819817B1F49F
S113282087B78F7E87BF908181E08CA7E90FF11D68
S11328308291319688A780818F7789A780E00E9452
S1132840811104C0613011F48BE02AC00E94550E3E
S113285059C01092A202C09A84E00E94070E52C08E
S11328608E3309F04FC0C09A809145029091460280
S11328700897C9F4C09889E00E94F70CC09A83E0D5
S11328800E94070E81E090E09093460280934502F7
S11328908FB7F894992723E020933F028FBF84E0F9
S11328A00E9488012FC080915805882349F484E050
S11328B090E090934602809345020E94FA1122C050
S11328C083E00E94070E83E090E090934602809399
S11328D045020E943204DC01CB0166E371E00E94F0
S11328E04B213BE0E32EF12CE80EF91EF092770227
S11328F0E09276020E94B20400271127A8019701F2
S11329000E946F05DF91CF911F910F91FF90EF907F
S113291008951F920F920FB60F9211242F933F9395
S11329204F935F936F937F938F939F93AF93BF93D3
S1132930EF93FF932FB1E0916203F091630330971B
S113294039F08091DD029091DE02E80FF91F2083B7
S11329508091DD029091DE0201969093DE028093D5
S1132960DD0280E00E945A034091630250916402A8
S11329708091DD029091DE028417950718F40E947D
S113298081031CC0609162037091630380911B05F5
S113299090911C05109263031092620310921C051F
S11329A010921B0510926402109263021092DE02D0
S11329B01092DD022FB120E00E94E312FF91EF910B
S11329C0BF91AF919F918F917F916F915F914F9143
S11329D03F912F910F900FBE0F901F901895AF92BB
S11329E0BF92CF92DF92EF92FF920F931F93CF93F8
S11329F0DF93CDB7DEB7A8970FB6F894DEBF0FBE4E
S1132A00CDBFE82FFF27E831F10508F09EC6EA5B49
S1132A10FF4FEE0FFF1F0590F491E02D0994809174
S1132A201605882309F491C690E011E0CDC4809185
S1132A30B402882309F489C690E011E0F6C48091B9
S1132A409B02882361F52091B6043091B70440912C
S1132A50B8045091B904EFB7F894FF276091690363
S1132A6070916A0380916B0390916C03E0907802FB
S1132A70F090790200917A0210917B026E0D7F1D15
S1132A80801F911FEFBF2093B6043093B704409387
S1132A90B8045093B90410929B020E9447060E9406
S1132AA09D056EC00E949D055B016C018FB7F89473
S1132AB099271092D4028FBF8091F00281FF25C024
S1132AC08091E8029091E902A091EA02B091EB02B0
S1132AD0A6019501281B390B4A0B5B0BE090EC0215
S1132AE0F090ED020091EE021091EF02E21AF30A67
S1132AF0040B150B3FEFE3163FEFF3063FEF03071D
S1132B003FE7130711F061E009C07FEFE72E7FEF85
S1132B10F72E7FEF072F7FE7172F60E08091F902F0
S1132B2081FF24C08091F1029091F202A091F302FE
S1132B30B091F402A6019501281B390B4A0B5B0BDB
S1132B40DA01C9012091F5023091F6024091F702B1
S1132B505091F802281B390B4A0B5B0B2E153F05CD
S1132B60400751071CF479018A0103C0662309F464
S1132B70ECC51E141F04100611062CF0C601B50185
S1132B800E944F10E2C5E092B604F092B70400939D
S1132B90B8041093B90481E080939B02A8019701C3
S1132BA0C601B5010E944706D0C50FB7F894112796
S1132BB081E00E948A0561E0E62EF12CF092460243
S1132BC0E09245021092470210927E0210929C02FB
S1132BD00FBF0FB7F89411270E941704F0929802C0
S1132BE0E09297021092A20289B78F7B89BF80E49A
S1132BF088BF8AB780628ABF8AB78F7E8ABF89B747
S1132C00806489BF0FBF8FB7F894082F1127809174
S1132C10400290914102049719F483E00E94F70C5A
S1132C200FBF0FB7F8941127C09A80E00E94070ED7
S1132C300FBF8FB7F894992722E020936E038FBFBC
S1132C4080911A0290911B029F938F9381E891E0E7
S1132C509F938F930E94FE210E94FF0B0E949D056B
S1132C606093E8027093E9028093EA029093EB0286
S1132C7080ED97E0A0E0B0E08093EC029093ED0249
S1132C80A093EE02B093EF028091F0028E7F8260F7
S1132C908093F00281E00E9488010F900F900F90C2
S1132CA00F9053C58FB7F894992710926E0371C093
S1132CB08FB7F8949927F0903F028FBF63E081E0CB
S1132CC00E944303882359F10FB7F89411271092F7
S1132CD046021092450287B78F7E87BF87B78F7DE4
S1132CE087BF83E00E94070EC09A0FBF0FB7F89406
S1132CF0112710929802109297020E941704C09A0A
S1132D0089B78F7B89BF0FBF109241021092400296
S1132D10DE98DD98DE9A83E00E94880107C08FB7B1
S1132D20F894992722E020936E038FBF0091D0027C
S1132D301091D1020E9410048091170590911805FA
S1132D40892B09F002C58FEF809323024F2DB80120
S1132D5032C38FB7F894282F3327122F809156054A
S1132D60882301F581E0809356058091400290917B
S1132D704102049721F481E00E945D0B03C086E0C8
S1132D800E9488011FBFE1C48FB7F894992710925D
S1132D905605CDC48FB7F894282F3327809142026B
S1132DA0882311F02FBFD1C42FBF80B3992756E0D9
S1132DB0969587955A95E1F7182F11709091C20254
S1132DC08091C3028917D9F01917C9F484E090E0FF
S1132DD090934102809340028FB7F894992721E0A1
S1132DE0209342028FBF60E070E08DE10E949B0E51
S1132DF00E94BF0CC09AC09882E00E948801109380
S1132E00C30287E0A0C48FB7F894992710911C02DD
S1132E108FBF123009F465C0133030F4112359F018
S1132E20113009F092C448C0133009F474C014304E
S1132E3009F08BC4A0C0C0988FB7F894082F11274D
S1132E4080914002909141020297A1F583E090E0C5
S1132E50909341028093400268E170E08DE10E940A
S1132E609B0E81E08093C2021092420280B39927A4
S1132E7046E0969587954A95E1F781709070809326
S1132E80C30287E00E94880181E00E94F70C6FE78B
S1132E9072E08CE10E949B0E0E94FC0E0E94C20E06
S1132EA066E57AE287E10E949B0E6FEF70E885E1A8
S1132EB00E949B0E0FBF49C4C09886E00E94F70C85
S1132EC00E94FC0E0E94C20E0E94BF0CC09AC098C1
S1132ED083E00E94F70CC09A81E00E94070E86E00E
S1132EE032C4C0988FB7F894082F112760E080E0AF
S1132EF00E944303882311F00FBF0AC00FBF83E56C
S1132F000E94750380E00E94750380E00E947503AF
S1132F10C09A82E02DC08FB7F8949927209145027A
S1132F208FBF243039F0283041F0223001F50E945F
S1132F300D0F0BC40E94FA1108C4C09889E00E94C6
S1132F40F70CC09A83E00E94070E8FB7F894992774
S1132F5021E030E030934602209345028FBF8FB7C3
S1132F60F894992710933F028FBF84E0ECC383E069
S1132F700E94070EEAC30E94440DE7C30FB7F894FA
S1132F801127409163025091640260916203709131
S1132F90630380911B0590911C05109263031092AA
S1132FA0620310921C0510921B0510926402109289
S1132FB063021092DE021092DD0220E00E94E3120E
S1132FC079CF2FB7F894332780919F0280931F0203
S1132FD082E0809344022FBF80911F02882309F06E
S1132FE0B4C3B89AC09888E0AEC3A0916102B0910E
S1132FF06202DC909D012D0D311DF9018081881F35
S11330008827881FFD0183A7F90180818F77FD013F
S113301081A721503040F9018081FD0180A7A09152
S11330206102B0916202FD0132818FB7F894992751
S113303020919D028FBF222309F490C0832F9927EA
S113304096958795969587958370907082309105B3
S113305041F5878146812FB7F89433276091C002E8
S11330607091C1022FBF9927982F88275527842B49
S1133070952B8617970719F481E090E06CC0FD0149
S11330808781268140E050E09927982F88273327AD
S1133090822B932B8F5F9F4F11F441E050E0CA01C4
S11330A05AC0039709F05EC19E012F5F3F4F47EA64
S11330B053E088E0FA010190AF01F90101929F0108
S11330C08150C1F79E012F5D3F4FAE014F5F5F4FAF
S11330D088E0FA010190AF01F90101929F0181504A
S11330E0C1F79E01275F3F4FAE014F5D5F4F88E000
S11330F0FA010190AF01F90101929F018150C1F7DA
S11331009E012F5E3F4FAE01475F5F4F88E0FA019B
S11331100190AF01F90101929F018150C1F79E0115
S1133120275E3F4FAE014F5E5F4F88E0FA0101908A
S1133130AF01F90101929F018150C1F748E050E0CD
S1133140BE01675E7F4FCD0106960E94EA21892B5E
S113315009F008C103C0882309F404C1FCE0FD158B
S113316008F000C1E0906102F0906202F701228150
S1133170822F992716E0969587951A95E1F703977C
S113318019F468E070E002C062E070E0822F9927D1
S1133190969587959695879583709070039719F403
S11331A088E090E002C082E090E026E030E0E20EA9
S11331B0F31E40E050E020E030E0F701E80FF91F93
S11331C08AEF9FEFE80EF91E05C08191480F511D4B
S11331D02F5F3F4F26173707C4F3F70163818FEF43
S11331E0809319058FB7F894782F20E030E0EAE651
S11331F0F2E0808191818417950731F482818617EA
S113320009F487C0209319052F5F3F4F339624306C
S1133210310579F77FBF909119053FB7F8949F3F27
S113322021F080914802891799F420914802822F55
S11332309927FC01EE0FFF1FE80FF91FE659FD4F18
S11332405183408362832F5F2370209348020CC014
S1133250892F9927FC01EE0FFF1FE80FF91FE6598C
S1133260FD4F518340836283832F99278FBF0FB70C
S1133270F8941127C7010E94E502FC0190810FBF59
S1133280F70183A5882309F469C09F3309F066C058
S1133290878146812FB7F89433276091200270917B
S11332A021022FBF9927982F88275527842B952BE8
S11332B08617970761F0878126819927982F882799
S11332C03327822B932B8F5F9F4F09F047C0F70161
S11332D08385863009F042C0F1E1DF1609F03EC073
S11332E0D7011C96F701868527859927982F88276B
S11332F03327822B932B80FF02C0DA9801C0DA9A1D
S113330081FF02C0D99801C0D99A82FF04C0D8981D
S113331003C07FBF23C0D89A8C91FD0121819927D6
S1133320982F88273327822B932B9F938F938091F9
S11333301A0290911B029F938F938EEA91E09F93C0
S11333408F930E94FE210E94FF0B2DB73EB72A5F88
S11333503F4F0FB6F8943EBF0FBE2DBFF0926202EE
S1133360E09261028FB7F89499271092A2028FBF5E
S11333700E94550EEAC19091B102809123029817E0
S113338009F4E3C1909323029923D1F400914902F3
S113339010914A026091CE02C8010E94530F482F37
S11333A05527442309F4D1C18FEF80932302609100
S11333B0490270914A02F80183850E947211C5C1C5
S11333C08FEF80932302C1C120911605812F8223A0
S11333D0C1F0E92FFF27EE0FFF1FE152FD4F40819F
S11333E0518111821082812F809528232093160504
S11333F0992339F463E0CA010E94200C110F91E073
S1133400E3CF9F5F983008F0A0C1110FDDCF80910A
S11334102602E82FFF27EE0FFF1FE152FD4F6081C8
S1133420718141E00E94321190C12091B402812F38
S11334308223C1F0E92FFF27EE0FFF1FE652FB4F57
S11334404081518111821082812F809528232093FD
S1133450B402992339F463E0CA010E943D0C110FB0
S113346091E0E3CF9F5F983008F06FC1110FDDCF7B
S113347010912702E12FFF27EE0FFF1FE652FB4FAB
S1133480E080F180118210820E945F02112309F012
S11334905CC161E0C70128C18FB7F894109253054D
S11334A02091650340E0283009F441E030E0293000
S11334B009F431E0442311F4332351F010926503ED
S11334C0E091E702FF27EE0FFF1FE653FD4F108246
S11334D099278FBF442311F4332331F19FB7F89414
S11334E0809114058F5F809314058091BB0283340F
S11334F079F42091D6028091D502821779F0822F37
S11335008F5F8093D602863048F01092D60206C0B0
S1133510A0E0442309F4A1E071E002C0A0E070E05F
S1133520892F99278FBF06C0222311F0FF246DC075
S1133530A0E070E08FB7F894992720914B028FBFD9
S1133540222341F08FB7F89499272AE0209365034A
S11335508FBF42C08FB7F89499276091CA024091F7
S1133560CC028FBF8FB7F894282F332750E0909167
S1133570D5028091D602981709F451E02FBF552344
S113358041F5662331F55FB7F89482E08093CA026F
S11335908FB7F894282F332740E09091D50280917B
S11335A0D602981709F441E02FBF442311F080E0BC
S11335B006C0E091D602FF27EB52FD4F8281809333
S11335C0CB0283E48093BB021092E702852F9927F4
S11335D00EC04150423010F0FF240CC08FB7F89455
S11335E0992725E42093BB0221E02093E7028FBFB3
S11335F031E0F32E772349F08FB7F8949927A093FD
S113360054028FBF85E10E9488018FB7F894082F78
S11336101127809165038A3019F40E948B024ACCE9
S11336200FBFFF2009F491C02FB7F89433271092ED
S11336305A05109259051092B50281E080936503F2
S11336402FBF0E94D102882309F47FC08FB7F8945A
S1133650992729E0209365038FBF0E94AF0175C0AD
S113366056985798109264031092A602539A549A4B
S1133670579A8FB7F8949927109265031092A30272
S113368088CB84E160C0539854985FC01092510273
S1133690109250028FB7F8949927F09054028FBF7C
S11336A080915502882311F023E0F22E20914E02DE
S11336B030914F0280915602882309F046C08091D0
S11336C02702882309F041C00091DA041091DB0439
S11336D00217130709F039C01092DB041092DA04C0
S11336E00E945F026F2DC8010E943D0C2EC08FB74F
S11336F0F89499272091590230915A0240917D0201
S11337008FBF8FB7F894E42FFF27EE0FFF1FE75DFD
S1133710FD4F3183208320914C02442311F02B7FF1
S113372001C02D7F20934C021092570299278FBF1E
S11337300CC04CE16DE175E08FEF9FEF0E941E021B
S1133740882319F087E10E948801A8960FB6F8949F
S1133750DEBF0FBECDBFDF91CF911F910F91FF90C0
S1133760EF90DF90CF90BF90AF90089580911105B6
S11337708F3FB1F0282F3327F901E158FD4F8081A5
S1133780809311058F3F11F4809357058FEF808349
S11337902F3F31F0822F0E94EF1481E090E00895D2
S11337A080E090E00895FF920F931F93CF93DF93EF
S11337B0CDB7DEB7E0970FB6F894DEBF0FBECDBF2E
S11337C0FFB6F89448E150E06FEF70E08FE792E0C5
S11337D00E94F7218FEF809311058093570581E0B4
S11337E08EBD88E080BF83E083BF8CB59DB54AE77A
S11337F02CB53DB52817390708F44150442311F07E
S1133800C901F6CF92B782B78917E9F32CB53DB554
S113381092B782B78917E9F38CB59DB5821B930BD8
S11338204096A5E096958795AA95E1F790931305A0
S11338308093120513BE83B78EBD8EB580BF12BEB2
S11338401DBC1CBC8FEF86BF86B780937C0080B7FD
S1133850992787709070892BD1F7D29AD19AD09AF0
S1133860DA9AD99AD89A15BA8FEF84BBD498DC988F
S1133870109289001092880080917D00846080936A
S11338807D0080918A00887F826080938A001DBCBD
S11338901CBC87B7846087BF8EB5887F84608EBD6B
S11338A00E94B61B8823E1F78FE292E090936005B3
S11338B080935F0512E006E0609112057091130594
S11338C088279927FCE0660F771F881F991FFA95B0
S11338D0D1F720E031EE40E050E00E947221215007
S11338E0304029B9832F9927809390001BB9009306
S11338F095001AB8209399008093980010939B0028
S113390000939D0010929A0084E490E09093B20496
S11339108093B1041092CA021092CC028AE0809380
S113392065031092B5021092BB0210921405109216
S11339305A0510925905109253051092E7021092FD
S1133940AD041092AC0484E08093A3021092670348
S11339501092B5041092A7021092E4021092E302AE
S11339601092D6021092D502109260028FEF8093CB
S1133970A002EAE6F2E08FEF9FEF91838083128248
S1133980339622E0E637F207C1F70E9432046093CF
S1133990B10380911A0290911B020196AA27BB27BA
S11339A08093AD029093AE02A093AF02B093B002A5
S11339B08CED94E090936202809361028E98B89AA1
S11339C08C988FEF8093BA0210926D0310926E035D
S11339D010926F0310927003B89AD69AD59A8FB743
S11339E0F894992720912002309121028FBF3093BF
S11339F0C1022093C0020E94610629A73AA74BA7DF
S1133A005CA76DA77EA78FA798ABDE019196FE01F8
S1133A10B99688E001900D928150E1F7DE0151964C
S1133A20FE01B19688E001900D928150E1F7DE012C
S1133A305996FE01719688E001900D928150E1F74C
S1133A40A7EAB3E0FE01799688E001900D928150D7
S1133A50E1F78091220299279093A9028093A8020A
S1133A608FE1809368038AE18093AF030E9461062B
S1133A7029A73AA74BA75CA76DA77EA78FA798ABEA
S1133A80DE019196FE01B99688E001900D92815075
S1133A90E1F7DE011196FE01B19688E001900D92E6
S1133AA08150E1F7DE011996FE01319688E001901C
S1133AB00D928150E1F7A7EAB3E0FE01399688E060
S1133AC001900D928150E1F7A7EAB3E0FD0137962A
S1133AD09C9180818D939083319783E0EA3AF80733
S1133AE0B9F781E080939D0210921A058093AA028F
S1133AF01092720380B7886080BF8BE083BF86EE2C
S1133B0081BF87B7826087BF0E94C4050E94B61B2D
S1133B108823E1F78F2D99278FBF78948FB7F89476
S1133B20282F3327922F809165038A3031F08091BA
S1133B30A302843011F02FBF04C09FBF82E10E9412
S1133B40880180911A0290911B029F938F9380E0C9
S1133B5092E09F938F930E94FE210E94FF0B0E948C
S1133B6098110F900F900F900F908FB7F894482FE3
S1133B7055274BC087B7992783709070892B19F408
S1133B80E5E0F0E013C080B7992787709070892B27
S1133B90D1F781B792B7891B8C3030F082B7853F5B
S1133BA018F4E3E0F0E002C0E2E0F0E087B7887BDD
S1133BB0C1F480917D008B7FA1F46E9912C08AB10B
S1133BC090919A00892B887161F48091740082FD30
S1133BD008C0379B03C081E090E005C085E090E019
S1133BE002C080E090E025B78E1708F4E82FFF2785
S1133BF0E454FD4FE491237E2062E22BE5BF7894E8
S1133C008895F89485B78F7D85BF809111058F3F86
S1133C1009F4B0CF282F3327F901E158FD4F8081F3
S1133C20809311058F3F11F4809357058FEF8083A4
S1133C302F3F09F49FCF4FBF822F0E94EF1495CFDF
S1133C4078941F920F920FB60F9211242F923F92E5
S1133C504F925F926F927F928F929F92AF92BF9298
S1133C60CF92DF92EF92FF920F931F932F933F9384
S1133C704F935F936F937F938F939F93AF93BF9370
S1133C80CF93DF93EF93FF93C6B5D7B58FB7F8946F
S1133C90282E0E94B2049B012C1B3D0B4427552760
S1133CA02B013C01421A530A640A750A80914502A9
S1133CB0909146028530910521F0069709F0E0C005
S1133CC0BFC086E090E0909346028093450231E0C5
S1133CD0332E3092A1021092470280E00E948A059E
S1133CE0E091AB02F091AC0241AABB27A72D962D1F
S1133CF0852D80ABC301AA27BB2787A7872D9927CA
S1133D00AA27BB2786A7E091AB02F091AC0285A558
S1133D10882309F484C06081655077274F01860E9B
S1133D20971EF4012081E1808281A3809927AA272C
S1133D30BB27BA2FA92F982F882733274427552725
S1133D40522F442733272227FF24002711278701D6
S1133D50FF24EE242E293F29402B512BBB24CC24B5
S1133D60DD242A293B294C295D29822B932BA42B62
S1133D70B52B84199509A609B7098383292F3A2FEE
S1133D804B2F552722839D014427552721838B2FB1
S1133D909927AA27BB278083C09824E0A40180E048
S1133DA090E00E947E0CC09AF4012081E18082811F
S1133DB0A3809927AA27BB27BA2FA92F982F882732
S1133DC0332744275527522F442733272227FF24FC
S1133DD0002711278701FF24EE242E293F29402B99
S1133DE0512BBB24CC24DD242A293B294C295D29D1
S1133DF0822B932BA42BB52B840D951DA61DB71DCB
S1133E008383292F3A2F4B2F552722839D01442743
S1133E10552721838B2F9927AA27BB278083E091DD
S1133E20AB02F091AC02818185FF02C030927E0228
S1133E3083E00E94070E87B78F7E87BF84997AC07C
S1133E401092A10281E00E948A05E091AB02F091F8
S1133E50AC02818185FF0FC087E090E09093460219
S1133E60809345020E94B20420E031E040E050E03B
S1133E700E946F0503C080E00E948111849B5AC098
S1133E8080914702882391F58091A102882371F5DE
S1133E9011E01093A1020E948A0580B320911005BD
S1133EA0283098F4E0911505E20FFF27E770F070D1
S1133EB0EE0FFF1FEE0FFF1FE654FB4F40825182AF
S1133EC0628273822F5F2093100510934702D09370
S1133ED0C902C093C80284992DC09927B4E096956D
S1133EE08795BA95E1F7182F117001C010E0809101
S1133EF0A1028130F9F41092A1020E948A05109265
S1133F0047021123B9F48091C8029091C902C81BD9
S1133F10D90B2A9778F480911005882319F08150E1
S1133F20809310058091AB029091AC02009711F040
S1133F300E9423042FBEFF91EF91DF91CF91BF9197
S1133F40AF919F918F917F916F915F914F913F912D
S1133F502F911F910F91FF90EF90DF90CF90BF9022
S1133F60AF909F908F907F906F905F904F903F9015
S1133F702F900F900FBE0F901F901895ACE2B0E0F9
S1133F80E4ECFFE10C94B321222E332E442E552E63
S1133F90662E772E882E992EFE013196A8E0119276
S1133FA0AA95E9F729823A824B825C826D827E82ED
S1133FB08F829886FE013996B8E01192BA95E9F796
S1133FC0A986BA86CB86DC86ED86FE860F87188B9B
S1133FD089819A81AB81BC8189A79AA7ABA7BCA729
S1133FE07C018D018FEF9FEFA0E0B0E0E822F92281
S1133FF00A231B2389A59AA5ABA5BCA51D014424AE
S1134000552489859A85AB85BC858DA39EA3AFA3D2
S1134010B8A75C016D018FEF9FEFA0E0B0E0A8228C
S1134020B922CA22DB228DA19EA1AFA1B8A53D0170
S113403088249924C801B701A60195010E949421FE
S113404069A37AA38BA39CA3C801B701A40193011C
S11340500E9494217B018C01C201B101A60195014A
S11340600E9494215B016C01C201B101A40193017E
S11340700E9494213B014C01EA0CFB1C0C1D1D1DEC
S113408089A19AA1ABA1BCA19D01442755272E0D5E
S11340903F1D401F511F2A153B054C055D0540F48B
S11340A080E090E0A1E0B0E0680E791E8A1E9B1EBD
S11340B0CA01AA27BB27860D971DA81DB91D8D8F80
S11340C09E8FAF8FB8A3A9013327222789A19AA174
S11340D0ABA1BCA1A070B070280F391F4A1F5B1F91
S11340E0298F3A8F4B8F5C8FA98CBA8CCB8CDC8C4C
S11340F0ED8CFE8C0F8D18A1FE01719698E0119243
S11341009A95E9F7ED8AFE8A0F8B188F2D813E81EF
S11341104F8158856DA17EA18FA198A50E949421FD
S11341203B014C012D853E854F85588969A57AA5AB
S11341308BA59CA50E9494212D893E894F89588D79
S1134140260F371F481F591F260D371D481D591D9F
S11341502D8B3E8B4F8B588F6D887E888F88988CE3
S11341602A2D3B2D4C2D5D2D662D772D882D992DD7
S1134170E2E1AC960C94CF21A0E1B0E0E2ECF0E2F5
S11341800C94B321222E332E442E552E662E772ED8
S1134190882E992E002309F466C088E0FE0131962A
S11341A011928A95E9F729833A834B835C836D8363
S11341B07E838F829887E0E2E01B1E16CCF52D816A
S11341C03E814F815885602F772767FD7095DA010E
S11341D0C901062E04C0B695A795979587950A94AC
S11341E0D2F78D879E87AF87B88B04C0220F331F09
S11341F0441F551FEA95D2F789819A81AB81BC810E
S113420004C0B695A795979587956A95D2F7282BFC
S1134210392B4A2B5B2B29873A874B875C87298468
S11342203A844B845C846D847E848F8498881BC01C
S11342301D861E861F86188A2E2F332727FD30954C
S1134240309521953F4F8D819E81AF81B88504C003
S1134250B695A795979587952A95D2F789879A87D2
S1134260AB87BC87DCCF222D332D442D552D662DF5
S1134270772D882D992DE2E160960C94CF21991B1E
S113428079E004C0991F961708F0961B881F7A9549
S1134290C9F780950895AA1BBB1B51E107C0AA1F4B
S11342A0BB1FA617B70710F0A61BB70B881F991FD3
S11342B05A95A9F780959095BC01CD01089597FB77
S11342C0092E07260AD077FD04D0E5DF06D00020AA
S11342D01AF4709561957F4F0895F6F7909581953E
S11342E09F4F0895A1E21A2EAA1BBB1BFD010DC00E
S11342F0AA1FBB1FEE1FFF1FA217B307E407F50792
S113430020F0A21BB30BE40BF50B661F771F881F6D
S1134310991F1A9469F760957095809590959B0103
S1134320AC01BD01CF010895629FD001739FF001DC
S1134330829FE00DF11D649FE00DF11D929FF00D31
S1134340839FF00D749FF00D659FF00D9927729F68
S1134350B00DE11DF91F639FB00DE11DF91FBD01F3
S1134360CF01112408952F923F924F925F926F9242
S11343707F928F929F92AF92BF92CF92DF92EF92F1
S1134380FF920F931F93CF93DF93CDB7DEB7CA1B72
S1134390DB0B0FB6F894DEBF0FBECDBF09942A889D
S11343A0398848885F846E847D848C849B84AA8445
S11343B0B984C884DF80EE80FD800C811B81AA81D2
S11343C0B981CE0FD11D0FB6F894DEBF0FBECDBF9D
S11343D0ED010895FB01DC0104C08D910190801969
S11343E021F441505040C8F7881B990B0895DC0113
S11343F001C06D9341505040E0F70895A2E0B0E051
S1134400E4E0F2E20C94C321FE01379661917191CC
S1134410FA83E983AF0180915F05909160050E9462
S11344201522E2E022960C94DF21ABE0B0E0EBE150
S1134430F2E20C94B5213C014B016A01FC011782A4
S11344401682838181FD03C08FEF9FEFDAC1F301F0
S11344503381F40133FD859133FF81914F0188232A
S113446009F4CCC1853239F433FD859133FF819150
S11344704F01853229F4B30199270E941B24E7CF09
S113448000E0442455244AE00032B0F48B3269F051
S11344908C3228F4803251F0833271F40BC08D32A7
S11344A039F0803349F4016028C00260046025C0FB
S11344B0086023C0006121C007FD29C0282F2053B4
S11344C02A3078F406FF06C0549EC0011124522EEF
S11344D0580E13C0449EC0011124422E480E00629F
S11344E00CC08E3221F406FD89C1006406C08C36EE
S11344F011F4006802C0883651F4F40133FD85914B
S113450033FF81914F01882309F46FC0BDCF982FE9
S11345108554833018F08052833038F424E030E03E
S1134520C20ED31E8FE389830FC0933631F09337C5
S113453099F0933509F05BC023C0F601808189832B
S113454022E030E0C20ED31E7E010894E11CF11C6F
S113455051E0A52EB12C12C0F601E080F18006FDD9
S113456003C06FEF7FEF02C0652D772722E030E0B4
S1134570C20ED31EC7010E9410245C010F7713C022
S1134580F601E080F18006FD03C06FEF7FEF02C00B
S1134590652D772722E030E0C20ED31EC7010E94AA
S11345A005245C01006803FF07C01BC0B30180E25F
S11345B090E00E941B244A94842D9927A816B906DA
S11345C0A8F30FC0F70107FD859107FF81917F01D3
S11345D0B30199270E941B2441104A940894A1080E
S11345E0B108A114B10471F706C190E03EC094363D
S11345F011F0993691F507FF0AC0F60160817181C7
S11346008281938124E030E0C20ED31E0DC0F601F6
S1134610808191819C01B901882777FD8095982F2D
S113462042E050E0C40ED51E4FE6B42EB02297FFF0
S113463009C090958095709561957F4F8F4F9F4FDE
S113464050E8B52A8E010F5F1F4F2AE030E0A80121
S11346500E944824A82EA01A4DC0953731F43FEE8D
S1134660F32EF0222AE030E023C029EFF22EF022CC
S11346709F3661F0903720F4983509F0BFC012C01E
S1134680903739F0983709F0B9C005C028E030E018
S11346900FC080E1F82AF4FE02C094E0F92A20E178
S11346A030E006C0F4FE02C0E6E0FE2A20E132E07B
S11346B0F7FE0AC0F601608171818281938144E032
S11346C050E0C40ED51E0BC0F60180819181AC016F
S11346D0BA0188279927E2E0F0E0CE0EDF1E8E01B2
S11346E00F5F1F4FA8010E944824A82EA01A8FE72D
S11346F0B82EBF20B6FE10C0FEEFBF22A51460F492
S11347002B2D332724FF1AC022FF02C0052D09C018
S11347102FEEB222052D01C00A2D2B2D332724FFA5
S11347200EC0FE01EA0DF11D8081803319F439EECB
S1134730B32209C00F5F22FF06C004C0052D822FDB
S1134740867809F00F5FEB2CFF24E3FC14C0E0FE35
S11347500FC0041510F05A2C0BC0542C501A5A0CCC
S1134760042D06C0B30180E290E00E941B240F5F79
S11347700415C0F304C0041510F4401A01C0442405
S1134780E4FE10C0B30180E390E00E941B24E2FE2B
S11347901EC0E1FE03C088E590E002C088E790E017
S11347A0B3010CC08E2D867891F0E1FE02C08BE23D
S11347B001C080E2B7FC8DE2B30199270E941B245B
S11347C006C0B30180E390E00E941B245A94A51410
S11347D0C0F3AA94FE01EA0DF11D8181B30199276A
S11347E00E941B24AA2039F0F4CFB30180E290E0A8
S11347F00E941B244A944420C1F729CEF3018681E8
S11348009781E0E12B960C94D121FC010590615035
S113481070400110D8F7809590958E0F9F1F0895D2
S1134820FC016150704001900110D8F7809590957B
S11348308E0F9F1F08950F931F93CF93DF938C01C7
S1134840EB018B81992781FF1BC082FF0DC02E8154
S11348503F818C819D812817390764F4E881F981AF
S11348600193F983E88306C0E885F985802F0995CB
S1134870892B31F48E819F8101969F838E8302C0A0
S11348800FEF1FEFC801DF91CF911F910F91089592
S1134890FA01AA27283051F1203181F1E8946F936D
S11348A06E7F6E5F7F4F8F4F9F4FAF4FB1E03ED013
S11348B0B4E03CD0670F781F891F9A1FA11D680FB1
S11348C0791F8A1F911DA11D6A0F711D811D911DE4
S11348D0A11D20D009F468943F912AE0269F112459
S11348E03019305D3193DEF6CF010895462F4770BD
S11348F0405D4193B3E00FD0C9F7F6CF462F4F7018
S1134900405D4A3318F0495D31FD4052419302D075
S1134910A9F7EACFB4E0A69597958795779567951B
S1134920BA95C9F700976105710508959B01AC011B
S11349300A2E06945795479537952795BA95C9F742
S1114940620F731F841F951FA01D0895FFCFE3
S113494E284E4F444520257529203A20477265612B
S113495E742120546865206D6573736167652077D3
S113496E617320746F74616C6C792073656E742E30
S113497E0A00284E4F444520257529203A205469B3
S113498E6D657220302066697265642E0A00284EA9
S113499E4F444520257529203A204F6820596561DA
S11349AE6821212120546865206D657373616765E4
S11349BE206973206265696E672073656E742E0AB2
S11349CE00284E4F444520257529203A2052616413
S11349DE696F20696E697469616C697A65642073A4
S11349EE75636365737366756C6C79200A00284E63
S11349FE4F444520257529203A205768617420615B
S1134A0E206772656174206E6577732121212057AA
S1134A1E65277665206A7573742072656365697699
S1134A2E65642061206D6573736167652066726FBE
S1134A3E6D20746865206E6F64652025752E0A00DE
S1134A4E284E4F444520257529203A20537461720F
S1134A5E74696E67202E2E2E0A000100FFFFFFFFE1
S1134A6E010022FFFFFF0101FFFA022E03FA0200EA
S1114A7E000002000000004D0C0000000000CB
S9030000FC
