S01800006275696C642F6D6963617A2F6D61696E2E73726563E5
S11300000C9461010C9487070C9491070C949B0742
S11300100C94A5070C94AF070C94B9070C944211E7
S11300200C94C3070C9480010C9480010C94181553
S11300300C94B6160C9451070C9467070C948C0B13
S11300400C9440070C94B2140C948A090C9480010B
S11300500C94060A0C9480010C9480010C94800189
S11300600C945C070C94590B0C94380B0C94430BB4
S11300700C944E0B0C946C0B0C941B0B0C94800185
S11300800C942D0B0C9480010C948001AC17DF1799
S11300906218CB18D11822193D1943197C19371A43
S11300A05A1A6E1A3A1C9C17891CA417BA1CCE1C27
S11300B0B01DC11DC31DC61DF71D191E0000211052
S11300C0422063308440A550C660E77008812991BE
S11300D04AA16BB18CC1ADD1CEE1EFF13112100266
S11300E073325222B5529442F772D662399318830E
S11300F07BB35AA3BDD39CC3FFF3DEE36224433432
S113010020040114E664C774A44485546AA54BB55D
S113011028850995EEE5CFF5ACC58DD55336722605
S113012011163006D776F6669556B4465BB77AA7AD
S113013019973887DFF7FEE79DD7BCC7C448E55851
S11301408668A7784008611802282338CCC9EDD9FD
S11301508EE9AFF9488969990AA92BB9F55AD44AA5
S1130160B77A966A711A500A333A122AFDDBDCCB4D
S1130170BFFB9EEB799B588B3BBB1AABA66C877C71
S1130180E44CC55C222C033C600C411CAEED8FFD9D
S1130190ECCDCDDD2AAD0BBD688D499D977EB66E45
S11301A0D55EF44E133E322E511E700E9FFFBEEFED
S11301B0DDDFFCCF1BBF3AAF599F788F8891A981AF
S11301C0CAB1EBA10CD12DC14EF16FE18010A10099
S11301D0C230E3200450254046706760B983989389
S11301E0FBA3DAB33DC31CD37FE35EF3B1029012E9
S11301F0F322D2323542145277625672EAB5CBA555
S1130200A89589856EF54FE52CD50DC5E234C32438
S1130210A01481046674476424540544DBA7FAB728
S11302209987B8975FE77EF71DC73CD7D326F23688
S11302309106B01657667676154634564CD96DC974
S11302400EF92FE9C899E9898AB9ABA944586548D8
S113025006782768C018E1088238A3287DCB5CDBC8
S11302603FEB1EFBF98BD89BBBAB9ABB754A545A28
S1130270376A167AF10AD01AB32A923A2EFD0FED94
S11302806CDD4DCDAABD8BADE89DC98D267C076C78
S1130290645C454CA23C832CE01CC10C1FEF3EFF68
S11302A05DCF7CDF9BAFBABFD98FF89F176E367EC8
S11302B0554E745E932EB23ED10EF01E00081C18EB
S11302C0141011241FBECFEFD0E1DEBFCDBF13E069
S11302D0A0E0B1E0EAE1FBE400E00BBF02C007905C
S11302E00D92A63CB107D9F716E0A6ECB3E001C025
S11302F01D92AB3EB107E1F70E94571E0C948C256A
S11303000C9400008FB7F894992708958FBF08952F
S1130310282F9FB7F894E82FFF27E55CFB4F8081D7
S11303208F3F81F4E091DF06E21771F40BC0209354
S1130330990604C0FF27E55CFB4F20832093DF066A
S113034020E007C025E005C0809199068F3F91F712
S1130350EECF892F99278FBF822F992708951F9356
S11303601FB7F8948091DB06882341F481E10E9451
S11303708801882319F481E08093DB06812F992773
S11303808FBF1F910895382FFA01422F2D3118F095
S113039082E090E008956683872F992785833387C9
S11303A021878091D8039091D903892B19F085E096
S11303B090E008952FB7F894332785E08093DB030A
S11303C01092DC03F093D703E093D60382E090E02D
S11303D09093D9038093D8031092DE031092DD0327
S11303E0445F4093DA032FBF8FB7F894282F332745
S11303F0809121058A3011F42FBF19C02FBF9FB7F8
S1130400F89480918A04882311F020E006C081E0EA
S113041080938A0410928B0421E0892F99278FBF3F
S1130420222329F00E94AF0180E090E00895109209
S1130430D9031092D80381E090E00895CF93DF931D
S1130440DB01FB0135968183892F9927EB018D838D
S113045084E686838091620690916306892B19F065
S113046085E090E029C0709363066093620644833C
S11304708091B003882319F480E090E01DC0868148
S1130480EB016D817727762F662721813327622B35
S1130490732B1092B003242FAD010E94C30199273E
S11304A0282F882339F081E08093B00310926306EB
S11304B010926206822F9927DF91CF910895CF93EE
S11304C0DF931092B003A0916206B0916306109777
S11304D021F08091720480FF08C081E08093B00312
S11304E017C080E10E94880113C0FD013596248164
S11304F03327ED016D817727762F66278181992730
S1130500682B792BAD0186810E94C301882349F7AA
S1130510DF91CF910895809121058A3021F4809153
S11305206104843021F081E08093D303089583E152
S11305300E9488011092D30308952FB7F8943327AB
S11305408CB95E9A2FBF0895FC016115710519F4E9
S113055081E090E008958091820490918304892B36
S113056019F085E090E0089570933C0660933B0693
S1130570F0938304E0938204109263041092620463
S113058081E0809364045E9A569A808121E030E091
S113059030936304209362040E949D0280E090E003
S11305A008958FB7F89499272091E4032E7F209320
S11305B0E4032EE7209356048FBF61E070E086E5E4
S11305C094E00E94A40299270895FC01828199274E
S11305D0582F442781819927482B592BCA01892FE9
S11305E0992786958695837090708230910559F08D
S11305F08330910559F0892B19F420E030E008C0CC
S11306002CE93FEF05C022E030E002C028E030E0F2
S1130610CA0184E0989F812D992711248230910585
S113062059F08330910559F0892B19F480E090E05A
S113063008C08CE99FEF05C082E090E002C088E02A
S113064090E0280F391F2A5F3F4FCF01820F931F7D
S11306500895282F9FB7F894662349F0E82FFF27C1
S1130660E75DFA4F8081882311F021E006C0E22F74
S1130670FF27E75DFA4F608320E0892F99278FBF1A
S1130680822F99270895E82F8FB7F894282F3327BE
S113069090E0FF27E75DFA4F8081861709F491E027
S11306A02FBF892F99270895882311F06E9A0895F2
S11306B06E980895882311F06F9A08956F9808959D
S11306C080E00E945403BA9ABB98B99AB89A6C9A7B
S11306D080E00E945A036B986A9881E00E94540358
S11306E0709A8DB18C7F8DB908950F931F93CF931A
S11306F0DF93182F8FB7F894C82FDD270C2F61E0F4
S113070080E00E942903882321F0CFBF85E090E098
S113071024C08091A8038823A1F48091CC03823063
S113072081F409C082E08093CC031092A8030E9454
S11307306003B89AC0981093A50380E00FBF99276F
S11307400CC08091CC03882369F38FB7F894992760
S1130750109229058FBF81E0F1CFDF91CF911F91D6
S11307600F9108951F93182F81E00E9454031FB91D
S1130770779BFECF8FB199271F910895FF920F9316
S11307801F93CF93DF93F82E8B018FB7F894C82F64
S1130790DD2760E080E00E944303882321F0CFBF7F
S11307A080E090E00CC0CFBF8F2D0E94B203812F58
S11307B099270E94B203802F0E94B2039927DF91E8
S11307C0CF911F910F91FF9008958F929F92AF92B6
S11307D0BF92CF92DF92EF92FF920F931F93CF932A
S11307E0DF938FB7F8949927C090A306D090A406FE
S11307F080901E0590901F05C0919904D0919A0491
S11308002091EB033091EC03FAE0AF2EB12CAC0E47
S1130810BD1E2A153B0508F459018FBF7401EC0E67
S1130820FD1E86010C0F1D1F14C0C114D10419F044
S1130830F801808101C080E00E94B2038114910418
S113084011F0F701808321960894E11CF11C0F5FDD
S11308501F4FC5010197C817D90738F381E00E94DB
S11308605A039FB7F894C114D10431F0CC0EDD1EA5
S1130870F60180818FB901C01FB8D0939A04C09348
S11308809904892F99278FBF80E090E0DF91CF9161
S11308901F910F91FF90EF90DF90CF90BF90AF909A
S11308A09F908F9008952FB7F89433275093EC03BB
S11308B04093EB039093A4068093A30670931F05C3
S11308C060931E0510929A04109299042FBF452B31
S11308D029F08FB10E94E5039927089589E00E94C9
S11308E0880180E090E008958FB7F89499271092DA
S11308F02B058FBF089580E880933804109260041C
S113090010929D061092980610925A040895CF935F
S1130910DF93FC0115A6DC019E96ED011B821A8271
S1130920198280E886A7DF91CF9108952F923F9294
S11309304F925F926F927F928F929F92AF92BF92EB
S1130940CF92DF92EF92FF920F931F93CF93DF9397
S1130950CDB7DEB728970FB6F894DEBF0FBECDBF74
S113096020906B0430906C0440906D0450906E04A1
S11309706624772488241EE4A12EB3E8BB2ECC245D
S1130980DD24EE24FF2400E010E0222D332D442D3D
S1130990552D662D772D882D90E00E94A420298363
S11309A03A834B835C836D837E838F839887822E07
S11309B0932EA42EB52E2401350100E20E94A2211B
S11309C0A22EB32EC42ED52EC301B20196958795BF
S11309D0779567956A0D7B1D8C1D9D1D97FF05C03E
S11309E09F776F5F7F4F8F4F9F4F60936B04709320
S11309F06C0480936D0490936E0428960FB6F8945B
S1130A00DEBF0FBECDBFDF91CF911F910F91FF903D
S1130A10EF90DF90CF90BF90AF909F908F907F909A
S1130A206F905F904F903F902F9008958FB7F894F8
S1130A3060919D0470919E042CB53DB506B602FEEE
S1130A4004C06F5F7F4F2CB53DB599278FBF8827B2
S1130A509927CB017727662744275527622B732BC9
S1130A60842B952B0895EF92FF920F931F930E946E
S1130A7016057B018C0120917A0430917B0440910E
S1130A807C0450917D048091740490917504A0912C
S1130A907604B0917704820F931FA41FB51FE2164A
S1130AA0F3060407150730F082179307A407B50768
S1130AB058F005C082179307A407B507E0F5E816B8
S1130AC0F9060A071B07B8F59C01AD012E193F0969
S1130AD0400B510B213060E8360760E0460760E0C8
S1130AE0560768F180E090E8A0E0B0E0E80EF91E57
S1130AF00A1F1B1FE0927A04F0927B0400937C048B
S1130B0010937D0480E090E8AFEFBFEFE80EF91E8C
S1130B100A1F1B1F2050304840405040209374044B
S1130B2030937504409376045093770420E030E8C2
S1130B3040E050E014C020E030E040E050E080931A
S1130B407A0490937B04A0937C04B0937D04109268
S1130B507404109275041092760410927704A9011B
S1130B60B7012CB53DB5C9018E199F0903968417A9
S1130B70950720F0B9016D5F7F4F02C0640F751FA8
S1130B806115710511F461E070E0615070407BBD46
S1130B906ABD80E186BF87B7806187BF1F910F91CF
S1130BA0FF90EF9008950F931F930FB7F8941127B8
S1130BB060937A0470937B0480937C0490937D0407
S1130BC0209374043093750440937604509377040F
S1130BD00E9433050FBF1F910F9108958FB7F894AA
S1130BE09927609137058FBF85E0689FB001112474
S1130BF0625D7E4F706488E10E94BE0308951F9376
S1130C001FB7F89480915904882319F460E070E0C8
S1130C1009C060E08091A206882309F461E081E0C4
S1130C206827772780916804882319F480E090E08E
S1130C300AC090E080912E05882309F491E081E0B8
S1130C409827892F9927762F6627770F770F770FA5
S1130C5054E0880F991F5A95E1F7826E9262682BCF
S1130C60792B81E10E94BE03812F99278FBF1F91A9
S1130C70089597B79F7D97BF90E296BF882319F098
S1130C808EB5806402C08EB58F7B8EBD87B78062BF
S1130C9087BF80E090E008957FB7F89462B7209111
S1130CA0220430912304409124045091250406B673
S1130CB001FE0FC081B792B7280F311D411D511D90
S1130CC02F5F3F4F4F4F5F4F290F311D411D511D66
S1130CD004C0260F311D411D511D872F99278FBF39
S1130CE0CA01B9010895DF92EF92FF920F931F9307
S1130CF08FB7F894282F3327D22E91B782B746B7EF
S1130D00981711F041FF02C02FBF6AC08091900470
S1130D108823E1F10E944C06E0902505F090260519
S1130D200091270510912805209134043091350451
S1130D3040913604509137046E197F09800B910B52
S1130D40621773078407950720F01092900471E0EE
S1130D501EC02E0D3F1D401F511F809122049091F3
S1130D602304A0912404B0912504281B390B4A0BB9
S1130D705B0B273E31054105510540F4822F22309B
S1130D8010F070E005C070E082E002C070E086EE12
S1130D90682F615000B601FCFDCF82B7681709F4D3
S1130DA06F5F2091220430912304409124045091D8
S1130DB02504DA01C9010196A11DB11D860F911DFB
S1130DC0A11DB11D82179307A407B50710F4622F64
S1130DD0609561BFDFBE772319F080E00E9488012F
S1130DE01F910F91FF90EF90DF900895AFB7F894A3
S1130DF0BB27E1E0E09390046093250570932605FA
S1130E008093270590932805209334043093350468
S1130E104093360450933704AFBF0E94730608957D
S1130E20AF92BF92CF92DF92EF92FF920F931F93F4
S1130E30CF93DF93CDB7DEB728970FB6F894DEBF14
S1130E400FBECDBF20E070E0E091A303F091A403B6
S1130E5032E14DE65CE46FE48091A4039E2F289672
S1130E600FB6F894DEBF0FBECDBFDF91CF911F91B7
S1130E700F91FF90EF90DF90CF90BF90AF900895C7
S1130E801F920F920FB60F9211248F9383B783BFD3
S1130E9000B600FCFDCF8F910F900FBE0F901F90F6
S1130EA0189578941F920F920FB60F9211240F90F9
S1130EB00FBE0F901F90189578941F920F920FB643
S1130EC00F9211240F900FBE0F901F9018957894D5
S1130ED01F920F920FB60F9211242F933F938F936B
S1130EE09F932FB7F894332780919D0490919E048B
S1130EF0019690939E0480939D042FBF9F918F91A0
S1130F003F912F910F900FBE0F901F9018951F9235
S1130F100F920FB60F9211240F900FBE0F901F90D7
S1130F2018951F920F920FB60F9211240F900FBEB7
S1130F300F901F9018951F920F920FB60F921124C5
S1130F400F900FBE0F901F9018951F920F920FB61F
S1130F500F9211240F900FBE0F901F9018951F929F
S1130F600F920FB60F9211240F900FBE0F901F9087
S1130F7018951F920F920FB60F9211240F900FBE67
S1130F800F901F9018951F920F920FB60F92112475
S1130F900F900FBE0F901F901895ECEBF0E06927AF
S1130FA0660FF11DE60FF11DC895982F802D31961F
S1130FB0C89590250895982F8091DF03882389F59B
S1130FC0992379F531E03093DF038091B103809365
S1130FD0E0032091D403822F81708093390480919F
S1130FE0B6039091B7039093E2038093E103809159
S1130FF0D5038093E30332273170267EE32FFF2746
S1131000EE0FFF1FEE54FC4F808191819093B70344
S11310108093B603232B2093D40386E10E94880196
S113102008958091D40380FF02C08B7F01C08D7F1F
S11310308093D40308950F931F93082F162F809144
S113104061048130D9F0813038F0823009F44AC02B
S1131050833009F028C159C0002309F458C1109203
S11310603506109234061092230510923D06109214
S113107065041092A00410929F0439C1002309F062
S113108046C180919F049091A0040E94CD07909343
S1131090A00480939F0482E08093610410933D0632
S11310A0143409F000C125C18695869503C080914A
S11310B0D4038695817009F0F6C08091D4039923F6
S11310C011F0846001C082608093D4038091D403C2
S11310D0877E88608093D4031092D5038FEF80932A
S11310E0B10315C1002309F0DEC06093650480914B
S11310F09F049091A0040E94CD079093A004809334
S11311009F0483E08093610402C1809123058F3F93
S113111009F4C9C0002309F461C0823008F4C3C0D3
S1131120E0913406EE2309F4EBC04E2F4150E42F36
S1131130FF27EC5CF94F82819927382F222744231B
S113114011F4E2E002C0E42FE150FF27EC5CF94F18
S113115082819927282B392B80919F049091A00498
S11311602817390709F09FC080E00E94DB073091FF
S113117065048091910420919204982F9F5F96308A
S113118008F090E0921771F0E82FFF27EF56FB4F1D
S113119032838F5F80939104863010F01092910413
S11311A00E94AF01109235061092340694E0909399
S11311B061041092230510923D061092650410926A
S11311C0A00410929F048091E4038D7F8093E40334
S11311D08091D303882309F49AC084C0823008F430
S11311E04EC0E0913506FF27EC5CF94F8281482F11
S11311F05527342F2091D403822F86958695869582
S1131200837099278130910519F00297F9F40EC083
S1131210277E20612093D403442311F485E001C088
S113122080E08093D5033093B10310C08091D5033F
S1131230843360F4E091B603F091B703E80FF11D35
S113124040838091D5038F5F8093D50380913506C9
S1131250E82FFF27EC5CF94F62818F5F809335069E
S1131260833010F010923506772780919F04909177
S1131270A0040E94CD079093A00480939F048091C2
S11312803406E82FFF27EC5CF94F12838F5F8093BD
S11312903406833010F010923406809123058F5F5A
S11312A08093230534C0109235061092340614E05E
S11312B0109361041092230510923D061092650468
S11312C01092A00410929F048091E4038D7F809378
S11312D0E40381E00E94DB078091D303882329F093
S11312E0109361040E948B0212C0002381F081E0FC
S11312F009CF8091D403982F917080FDD5CED7CE9D
S1131300809138069927382F222742E01CCF1F915D
S11313100F9108951F920F920FB60F9211242F93DD
S11313203F934F935F936F937F938F939F93AF9369
S1131330BF93EF93FF935F9B3DC06CB1E091A10419
S1131340F091A2043097F9F08091D9069091DA06D1
S1131350E80FF91F608301969093DA068093D9060B
S11313602091E3063091E4068217930718F1109256
S1131370A2041092A104809120058330D9F05798DB
S11313801092200517C06E3719F460E081E010C098
S11313908091E4036D3721F482608093E4030AC0F2
S11313A081FF05C08D7F8093E40380E2682780E09D
S11313B00E941B08FF91EF91BF91AF919F918F9174
S11313C07F916F915F914F913F912F910F900FBE3D
S11313D00F901F901895982F8D57823068F4809144
S11313E0E40381608093E40380E2892780932205EB
S11313F08DE78093560402C09093560461E070E038
S113140086E594E00E94A4029927089578941F9297
S11314100F920FB60F921124FF920F931F932F93E5
S11314203F934F935F936F937F938F939F93AF9368
S1131430BF93CF93DF93EF93FF9320916204309196
S1131440630480913B0690913C062817390780F489
S1131450E0918204F0918304E20FF31F80812F5FF7
S11314603F4F30936304209362040E949D02CDC0D9
S11314701092830410928204109264045698FFB66A
S1131480F8948091E40380FF0EC08E7F8093E40380
S1131490809122058093560461E070E086E594E033
S11314A00E94A402AFC080912105843009F48CC04D
S11314B0853040F4823021F18330B8F5813009F071
S11314C09CC00DC0863009F48DC0863008F483C0FA
S11314D0873009F48EC0883009F08FC091C08091A4
S11314E079040E94EB09082F83E080932105609121
S11314F079048091E1069091E2060E94CD0710C024
S113150080919C060E94EB09082F83E080932105BB
S113151060919C068091E1069091E2060E94CD07BD
S11315209093E2068093E10666C0E091A304FF274E
S1131530EE0FFF1FE757FB4F80810E94EB09082F36
S11315401091A304C12FDD27FE01EE0FFF1FE75703
S1131550FB4F60818091E1069091E2060E94CD07E5
S11315609093E2068093E106209173042F5F209309
S11315707304113039F58091DB03E091D603F091C7
S1131580D703E80FF11DE0818F5F8093DB03909117
S1131590DA03981730F482E080938A0440E050E044
S11315A002C04E2F5527DE01AA0FBB1FFD01E857CD
S11315B0FB4F8081823031F02F3F21F0A757BB4F82
S11315C04C9319C084E012C08091E1060E94EB099B
S11315D0082F85E00BC08091E2060E94EB09082FDA
S11315E086E004C00E94D102082F87E08093210581
S11315F002C088E003C0002329F089E0809321051C
S11316000E94AF018F2D99278FBFFF91EF91DF913A
S1131610CF91BF91AF919F918F917F916F915F9186
S11316204F913F912F911F910F91FF900F900FBEFB
S11316300F901F9018951F920F920FB60F921124BE
S11316408F9380919B0087FF02C080919C008F91B3
S11316500F900FBE0F901F90189578941F920F92C1
S11316600FB60F9211240F900FBE0F901F90189574
S113167078941F920F920FB60F9211240F900FBE01
S11316800F901F90189578941F920F920FB60F9297
S113169011240F900FBE0F901F90189578941F92ED
S11316A00F920FB60F9211240F900FBE0F901F9040
S11316B0189578941F920F920FB60F9211248F935E
S11316C09F9380918000909181009F918F910F90C2
S11316D00FBE0F901F90189578941F920F920FB61B
S11316E00F9211242F933F938F939F932FB7F894C6
S11316F03327809170049091710401969093710442
S1131700809370042FBF9F918F913F912F910F90E1
S11317100FBE0F901F9018951F920F920FB60F9245
S113172011242F933F934F935F936F937F938F93E2
S11317309F93AF93BF93EF93FF9383B783BF00B699
S113174000FCFDCF81B799270196AA27BB272091DA
S11317502204309123044091240450912504280F3D
S1131760391F4A1F5B1F20932204309323044093A4
S113177024045093250478940E947306FF91EF91FA
S1131780BF91AF919F918F917F916F915F914F9195
S11317903F912F910F900FBE0F901F90189580913D
S11317A0E7038C3118F04CE150E002C0482F552774
S11317B08CE1E1EBF6E011928A95E9F79091E70369
S11317C08091E50320E030E0A1EBB6E00FC0E82F04
S11317D0FF27E65CFA4FE081992329F08F5F8A3F67
S11317E009F480E09150ED932F5F3F4F24173507A4
S11317F071F79093E7038093E5034CE165EA76E0A3
S11318008FEF9FEF0E941E02882319F087E10E9448
S1131810880108958FB7F894282F33278091E8031F
S1131820813021F42FBF80E090E0089590E0809112
S1131830E703882309F491E0992321F02FBF81E085
S113184090E0089581E08093E8032FBF0E94CF0BBE
S113185080E090E008951F93182F8091E803882377
S113186049F48091E7038D3728F081E08093E80301
S11318700E94CF0B8FB7F894282F33279091E7035A
S11318809A3FA8F48091E603E82FFF27E65CFA4F1D
S113189010838F5F8093E6038A3F11F41092E6036E
S11318A09F5F9093E7032FBF80E090E003C02FBFBA
S11318B08FEF9FEF1F9108950F931F93182F0FB76A
S11318C0F89461E080E00E942903882371F5109365
S11318D0A5038091A8038823A9F58091CC038230C5
S11318E089F588E00CC00E9460038091CC038823B2
S11318F049F481E08093CC0310925B048AE00E9457
S113190088012AC0809178048F3F31F5E091A703C4
S1131910EE2311F11CC01092A60304C0FF27E8585F
S1131920FB4F10821092A70317C081E090E002C021
S1131930880F991F1A95E2F72091CB03282B209347
S1131940CB030AC08091CC038823E1F6CCCF8091ED
S1131950A6038F3F19F7DFCF802F99278FBF80E031
S113196090E01F910F9108951F9383E00E947503E7
S11319709927182F882319F083E00E945C0C812F8B
S113198099271F910895662351F48091E7038823D2
S113199019F00E94CF0B08951092E803089587E18F
S11319A00E9488010895CF92DF92EF92FF920F93E5
S11319B01F93CF93DF938C01F62E6A01E22E8FB72B
S11319C0F894C82FDD2760E080E00E944303882359
S11319D021F0CFBF80E090E01EC0CFBF0F0D111DDE
S11319E0802F80680E94B203F82E16950795802FE9
S11319F0807C0E94B2030E2D0AC0EE2DFF27E01B4F
S1131A00F109EC0DFD1D80810E94B20301500023F9
S1131A10A1F78F2D9927DF91CF911F910F91FF90FF
S1131A20EF90DF90CF900895CF93DF93CDB7DEB7DB
S1131A302C970FB6F894DEBF0FBECDBF8FB7F894C6
S1131A40282FAE014F5F5F4FDA01EFE2F5E088E047
S1131A5001900D928150E1F78091660490916704A2
S1131A608987892F99278A8780917E0490917F04A2
S1131A708B87892F99278C872FBF2CE060E080E625
S1131A8091E00E94D30C2C960FB6F894DEBF0FBEE3
S1131A90CDBFDF91CF910895EF92FF921F93CF9323
S1131AA0DF93E0906904F0906A04F70182A5992716
S1131AB0182F882309F41FE1C098809158048117D6
S1131AC049F0612F77276F717070606E706885E1DF
S1131AD00E94BE0310935804F70110818FB7F89445
S1131AE0C82FDD2760E080E00E944303882311F0C3
S1131AF0CFBF12C0CFBF8EE390E090938504809354
S1131B0084048EE30E94B2031150412F552760E0F4
S1131B1070E0C7010E945304DF91CF911F91FF90A1
S1131B20EF9008950F931F93CF93DF93EC010FB7BA
S1131B30F89411270E94E502FC018FE380830FBF14
S1131B401092A00610929F0661E082E00E94290391
S1131B50882319F085E090E072C0809139058F5F89
S1131B608093390581508B838FB7F894082F112700
S1131B7062E081E00E944303882329F40FBF0E949E
S1131B80740481E05BC08FB7F894992724E0209314
S1131B902A058FBFD0938F04C0938E040FBFFE011C
S1131BA03196818129819927982F88273327822B81
S1131BB0932B80729C7C8983892F99278183298127
S1131BC0982F882733272164822B932B8983892F8D
S1131BD0992781831CA618A619A619AA18AA1FA6B4
S1131BE080E88EA761E060932D0540918E045091AA
S1131BF08F048FB7F894282F33278091CD039091C9
S1131C00CE038830910511F0019711F02FBF15C054
S1131C1082E090E09093CE038093CD036093E0063E
S1131C2050936A0440936904109221042FBF0E94C8
S1131C30B40C882311F40E944C0D80E09927DF91A5
S1131C40CF911F910F910895CF93DF93DA01422F23
S1131C502D3118F082E090E05EC0ED018B876E8339
S1131C60872F99278F832FB7F894332780916604A1
S1131C70909167042FBFFD018483892F9927858361
S1131C802FB7F89433278091A9039091AA032FBF0B
S1131C908887892F99278987319681812981992776
S1131CA0982F8827332720643868822B932B8983C5
S1131CB0892F99278183435F4C934D508091AC03C6
S1131CC0882359F01092AC03642FCD010E94920D29
S1131CD09927282F8823A9F417C0842F9927909334
S1131CE08D0480938C04B093D203A093D1038CE031
S1131CF00E9488018091AC03882349F489E090E034
S1131D000AC08FEF8093AC03822F992704C01092EE
S1131D106F0480E090E0DF91CF9108950F93982FA6
S1131D208091C603882309F046C08091A303809361
S1131D30F9039093FA036093FD03872F9927809307
S1131D40FC034093FB032093FF030093FE03622FE5
S1131D5077274DEE53E06093F303872F9927809301
S1131D60F40386E08093F80380919B0490919C0493
S1131D70892B09F550939C0440939B0484E1809340
S1131D80ED038091AF03882399F01092AF0327E00D
S1131D9086E00E94240E9927282F882349F081E0A9
S1131DA08093AF0310929C0410929B04222319F495
S1131DB081E08093C6030F910895AF92BF92CF92B2
S1131DC0DF92EF92FF920F931F935B016C0160917E
S1131DD0AC0461FF20C02091A4043091A50440917B
S1131DE0A6045091A704E090A804F090A9040091DF
S1131DF0AA041091AB04D601C501821B930BA40B5A
S1131E00B50B8E159F05A007B10728F0E4EAF4E0AE
S1131E10A0E0B0E022C0EDEAF4E06091B50461FF17
S1131E2062C12091AD043091AE044091AF04509151
S1131E30B004E090B104F090B2040091B3041091A6
S1131E40B404A21AB30AC40AD50AAE14BF04C00665
S1131E50D10608F448C1A1E0B0E060FF04C0808569
S1131E608D7F808708C02E0D3F1D401F511F20838A
S1131E70318342835383AA2309F035C180915C04E2
S1131E809927982F882720915D043327822B932B41
S1131E906AE070E00E9431228430910509F48BC01D
S1131EA08530910570F481309105C9F18130910537
S1131EB0F8F08230910509F452C0039709F000C18B
S1131EC064C08730910509F4AEC08830910540F4B0
S1131ED08530910509F481C0069709F0F1C08FC0DF
S1131EE08830910509F4B6C0099709F0E9C0C8C063
S1131EF086E090E09F938F938091A3039091A40335
S1131F009F938F9380E091E09F938F930E94E422AC
S1131F100FEF26E04FEF60E070E080E0C7C086E09E
S1131F2090E09F938F938091A3039091A4039F9338
S1131F308F9386E391E09F938F930E94E4220FEFA7
S1131F4026E04FEF61E070E080E00E948E0E8DB7D6
S1131F509EB706960FB6F8949EBF0FBE8DBF82E063
S1131F6090E09F938F938091A3039091A4039F93F8
S1131F708F938AE691E09F938F930E94E42202E07C
S1131F8022E044E160E070E090C082E090E09F9342
S1131F908F938091A3039091A4039F938F9380EADE
S1131FA091E09F938F930E94E42203E022E04EE1AC
S1131FB061E070E07AC082E090E09F938F9380911B
S1131FC0A3039091A4039F938F9384ED91E09F9337
S1131FD08F930E94E42202E023C082E090E09F936A
S1131FE08F938091A3039091A4039F938F9386E092
S1131FF092E09F938F930E94E42202E025C082E046
S113200090E09F938F938091A3039091A4039F9357
S11320108F9389E392E09F938F930E94E42204E0DC
S113202022E041E013C082E090E09F938F9380917F
S1132030A3039091A4039F938F938AE692E09F93C6
S11320408F930E94E42204E022E040E06FEF7FEFF0
S113205083E02CC082E090E09F938F938091A30350
S11320609091A4039F938F938CE992E09F938F9315
S11320700E94E42204E022E044E662E070E015C03D
S113208082E090E09F938F938091A3039091A403A7
S11320909F938F938DEC92E09F938F930E94E42201
S11320A004E022E046E563E070E081E00E948E0EE9
S11320B08DB79EB706960FB6F8949EBF0FBE8DBF20
S11320C00E940A0C80915C049927982F88272091FC
S11320D05D043327822B932B019680935D04892F13
S11320E0992780935C0481E00E9488011F910F91DD
S11320F0FF90EF90DF90CF90BF90AF9008951F9323
S1132100CF93DF93182FEB01E82FFF27EE0FFF1F6C
S1132110E556FB4F118210821092AF03E0919B04AD
S1132120F0919C04309721F080919E0680FF0FC0AF
S113213081E08093AF0303C08EE00E9488011123E5
S1132140C1F4CD5ED340A9F41092C60312C020811D
S11321502D50332767817727762F66278681992725
S1132160682B792BAF0183850E94240E882339F3D1
S1132170E3CFDF91CF911F9108959B018091AF032D
S1132180882349F460919B0470919C04621773073F
S113219011F40E947F1008951F93CF93DF93182F9B
S11321A08FB7F894C82FDD2760E080E00E944303D6
S11321B0882321F0CFBF80E090E005C0CFBF812FFE
S11321C00E94B2039927DF91CF911F910895EF9256
S11321D0FF920F931F93CF93DF93182F7B01042F4C
S11321E08FB7F894C82FDD2760E080E00E94430396
S11321F0882321F0CFBF80E090E014C0CFBF1064EB
S1132200812F992790938504809384040E94B203BC
S1132210182F402F5527B70180E090E00E94530407
S1132220812F9927DF91CF911F910F91FF90EF900C
S11322300895C0986091E9037091EA0341E08FE347
S11322400E94E710089582E090E0909354048093F4
S1132250530481E08093600420E030E08091A50382
S1132260843011F421E030E0232B29F484E00E942F
S11322707503882319F40E941911089584E00E94BB
S11322805C0C08951F920F920FB60F9211242F9396
S11322903F934F935F936F937F938F939F93AF93EA
S11322A0BF93EF93FF93809153049091540401974B
S11322B049F482E090E090935404809353040E9484
S11322C0231105C080915A048F5F80935A04FF91B3
S11322D0EF91BF91AF919F918F917F916F915F919A
S11322E04F913F912F910F900FBE0F901F90189513
S11322F01F938091CB03882309F04BC01091A50351
S11323001F3F09F046C060E00E944303882309F49C
S113231040C081E08093380580913A048823E1F13C
S11323201092380585E090E045C0923069F5C09A76
S11323308091A60320E030E08F3F11F421E030E0EB
S1132340232BE9F41093A8038F3F19F42FEF30E007
S11323500DC0282F3327F901E858FB4F8081809363
S1132360A6038F3F11F41093A703108320935B04FB
S113237081E08093CC038AE00E94880105C0109319
S1132380A8031092CC0311C08091CC03882369F078
S11323900FC081E090E00EC08091A8039091CC031F
S11323A0882319F2923021F0EFCF80E00E94540389
S11323B080E090E01F9108951F93CF93DF939FB720
S11323C0F894C92FDD271C2F9091A503981721F0AD
S11323D0CFBF81E090E03AC08FEF8093A5033091A6
S11323E0CB033323F1F48FB7F8949927109229057E
S11323F08FBF0E947811CFBF11C02093A50381E045
S113240090E002C0880F991F4A95E2F7809538231F
S11324103093CB0388E00E9488011FBF80E090E0E6
S113242015C080E065E0E32FFF270E942522292FB5
S1132430492F5527CF01042E02C0959587950A94FC
S1132440E2F780FDDACF822F8F5FEFCFDF91CF915C
S11324501F9108951F93CF93DF938FB7F894C82FDC
S1132460DD271C2F8091530490915404892B29F467
S113247084E00E94DC11CFBF1EC0109260048091E2
S11324805A04882311F0B79904C00E9908C0882310
S113249019F0815080935A040E9423110BC081E0EB
S11324A090E0909354048093530410925A0484E06F
S11324B00E94DC111FBFDF91CF911F9108950E94EC
S11324C07B04C09AC09888E00E94CC1088E00E94E7
S11324D0CC10C09A84E00E94DC110E942A12089554
S11324E01F93182F81E090E09093CE038093CD0347
S11324F010923A040E9478118FB7F8949927109398
S1132500C7038FBF84E00E9488011F910895CF9272
S1132510DF92EF92FF920F931F93CFB6F894DD24CE
S11325200E949604DC01CB0166E470E00E94312233
S11325302BE0E22EF12CE80EF91EF092DD06E0927B
S1132540DC060E94160500271127A80197010E94A6
S1132550D305CFBE1F910F91FF90EF90DF90CF90E6
S113256008951F93CF93DF938FB7F894C82FDD2777
S11325701C2F8091CD039091CE030897C9F489E074
S11325800E94CC1083E00E94DC11C09A81E090E0AC
S11325909093CE038093CD038FB7F894992723E0CB
S11325A02093C7038FBF84E00E948801CFBF30C04F
S11325B0C0988091E006882311F085E001C084E092
S11325C00E94CC1083FD09C080E00E94CC1083FFE0
S11325D004C085E090E020E003C083E090E021E0C7
S11325E09093CE038093CD03C09A1FBF222341F062
S11325F01092210483E00E94DC110E94871208C01B
S11326000E94160520E431E040E050E00E94D3052A
S1132610DF91CF911F910895EF92FF920F931F9333
S1132620CF93DF938B01809184049091850486FF7E
S113263040C18F7B8F3309F08EC1C091E903D091E3
S1132640EA035881509355048091530490915404A3
S11326508530910509F443C08630910509F48AC098
S1132660029709F01FC185E090E090935404809391
S1132670530440913804852F99270196242F33273A
S1132680281739074CF1B79906C00E9904C0451BA9
S1132690415040933804409155044A32E8F44423AD
S11326A0A1F0BE016F5F7F4F483018F047E050E063
S11326B007C086E090E09093540480935304552718
S11326C080E090E00E94530446C110926004C09AD6
S11326D084E00E94DC11E3C00E945F123CC186E0EA
S11326E090E0909354048093530480916804882369
S11326F009F439C080912E058823A9F5898185FFC5
S113270032C08F814E812FB7F894332760917E04B5
S113271070917F042FBF9927982F88275527842BE2
S1132720952B8617970759F08F812E819927982F1B
S113273088273327822B932B8F5F9F4FA1F48981A6
S11327408770813081F4C09AC0988AE00E94CC10CE
S1132750C09AC0984091550447502896BE018FE313
S11327600E94E710F8C04091550447505527289619
S1132770BE01A6CFC09A80915A04882339F484E01C
S11327800E94DC1180915A04882311F0B7990AC081
S11327900E9B08C090919806992321F080915504CE
S11327A08B3038F48091E9039091EA030E94870406
S11327B03DC0913001F5E0919D06FF27EE0FFF1F0C
S11327C0EE0FFF1FEE5BF94F20813181428153816F
S11327D0E091E903F091EA0321ABBB27A52F942FE5
S11327E0832F80ABCA01AA27BB2787A7252F3327AE
S11327F04427552726A780919D069927019668E0CE
S113280070E00E94452280939D0680919806815035
S113281080939806882351F08091E9039091EA030C
S11328200E94870410929D06109298068091550488
S1132830FE01E80FF11D808187FF31C0012B79F182
S113284069816770E091E903F091EA03623019F558
S1132850A0916904B0916A04109709F18091CD03A5
S11328609091CE030797D9F4ED019B81838198174A
S1132870B1F487B78F7E87BF908181E08CA7E90F81
S1132880F11D8291319688A780818F7789A780E096
S11328900E94701204C0613011F48BE02AC00E94BF
S11328A02A1259C010926004C09A84E00E94DC117C
S11328B052C08E3309F04FC0C09A8091CD039091DD
S11328C0CE030897C9F4C09889E00E94CC10C09A3E
S11328D083E00E94DC1181E090E09093CE0380932A
S11328E0CD038FB7F894992723E02093C7038FBFB4
S11328F084E00E9488012FC08091E006882349F477
S113290084E090E09093CE038093CD030E94B112B3
S113291022C083E00E94DC1183E090E09093CE0318
S11329208093CD030E949604DC01CB0166E371E041
S11329300E9431223BE0E32EF12CE80EF91EF092C6
S11329403304E09232040E94160500271127A801DF
S113295097010E94D305DF91CF911F910F91FF90B2
S1132960EF9008951F920F920FB60F9211242F9398
S11329703F934F935F936F937F938F939F93AF9303
S1132980BF93EF93FF932FB1E0911E05F0911F05C4
S1132990309739F08091990490919A04E80FF91FC7
S11329A020838091990490919A04019690939A04BB
S11329B08093990480E00E945A034091EB03509164
S11329C0EC038091990490919A048417950718F464
S11329D00E94E5031CC060911E0570911F05809143
S11329E0A3069091A40610921F0510921E05109242
S11329F0A4061092A3061092EC031092EB0310921B
S1132A009A04109299042FB120E00E940C13FF91B4
S1132A10EF91BF91AF919F918F917F916F915F9152
S1132A204F913F912F910F900FBE0F901F901895CB
S1132A3078941F920F920FB60F9211242F923F9207
S1132A404F925F926F927F928F929F92AF92BF92BA
S1132A50CF92DF92EF92FF920F931F932F933F93A6
S1132A604F935F936F937F938F939F93AF93BF9392
S1132A70CF93DF93EF93FF93C6B5D7B58FB7F89491
S1132A80282E0E9416059B012C1B3D0B442755271D
S1132A902B013C01421A530A640A750A8091CD0342
S1132AA09091CE038530910521F0069709F0E0C09E
S1132AB0BFC086E090E09093CE038093CD0331E0D5
S1132AC0332E30925F041092CF0380E00E943906C7
S1132AD0E0916904F0916A0441AABB27A72D962DC1
S1132AE0852D80ABC301AA27BB2787A7872D9927EC
S1132AF0AA27BB2786A7E0916904F0916A0485A5FB
S1132B00882309F484C06081655077274F01860EBD
S1132B10971EF4012081E1808281A3809927AA274E
S1132B20BB27BA2FA92F982F882733274427552747
S1132B30522F442733272227FF24002711278701F8
S1132B40FF24EE242E293F29402B512BBB24CC24D7
S1132B50DD242A293B294C295D29822B932BA42B84
S1132B60B52B84199509A609B7098383292F3A2F10
S1132B704B2F552722839D014427552721838B2FD3
S1132B809927AA27BB278083C09824E0A40180E06A
S1132B9090E00E94D30CC09AF4012081E1808281EC
S1132BA0A3809927AA27BB27BA2FA92F982F882754
S1132BB0332744275527522F442733272227FF241E
S1132BC0002711278701FF24EE242E293F29402BBB
S1132BD0512BBB24CC24DD242A293B294C295D29F3
S1132BE0822B932BA42BB52B840D951DA61DB71DED
S1132BF08383292F3A2F4B2F552722839D01442766
S1132C00552721838B2F9927AA27BB278083E091FF
S1132C106904F0916A04818185FF02C030923A040C
S1132C2083E00E94DC1187B78F7E87BF84997AC0C6
S1132C3010925F0481E00E943906E0916904F091EA
S1132C406A04818185FF0FC087E090E09093CE03F2
S1132C508093CD030E94160520E031E040E050E06F
S1132C600E94D30503C080E00E947012849B5AC066
S1132C708091CF03882391F580915F04882371F5B7
S1132C8011E010935F040E94390680B320919806E6
S1132C90283098F4E0919D06E20FFF27E770F0706A
S1132CA0EE0FFF1FEE0FFF1FEE5BF94F40825182C4
S1132CB0628273822F5F209398061093CF03D09380
S1132CC08704C093860484992DC0992724E096959F
S1132CD087952A95E1F7182F117001C010E08091B3
S1132CE05F048130F9F410925F040E943906109257
S1132CF0CF031123B9F48091860490918704C81BF3
S1132D00D90B2A9778F480919806882319F081507A
S1132D10809398068091690490916A04009711F059
S1132D200E9487042FBEFF91EF91DF91CF91BF9155
S1132D30AF919F918F917F916F915F914F913F914F
S1132D402F911F910F91FF90EF90DF90CF90BF9044
S1132D50AF909F908F907F906F905F904F903F9037
S1132D602F900F900FBE0F901F90189578941F927C
S1132D700F920FB60F9211241F932F933F934F93EB
S1132D805F936F937F938F939F93AF93BF93EF93CF
S1132D90FF9387B78F7E87BF78941FB7F89480918D
S1132DA0740490917504A0917604B091770400970F
S1132DB0A105B10509F051C08091CD039091CE03D6
S1132DC08530910561F18630910530F483309105A9
S1132DD049F0049781F51AC087309105F1F00897FE
S1132DE051F514C0869B0FC084E090E09093CE030D
S1132DF08093CD030E94160527E030E040E050E0C8
S1132E000E94D30518C00E94871215C00E94B40CFA
S1132E10882389F40E94B1120EC080E00AC089E0C0
S1132E200E94CC1081E00E94390683E00E94DC11EC
S1132E3087E00E9470128091C8039091C9030197A2
S1132E4071F482E090E09093C9038093C803DE9804
S1132E50DE9A80E00E945C0C02C00E943305812F40
S1132E6099278FBFFF91EF91BF91AF919F918F9160
S1132E707F916F915F914F913F912F911F910F908F
S1132E800FBE0F901F90189561E081E00E94290306
S1132E908823E9F48FB7F894282F33278091C80347
S1132EA09091C903892B11F02FBF20C081E090E0DD
S1132EB09093C9038093C8032FBFDD9A0E9416051F
S1132EC024E130E040E050E00E94D3050FC062E00E
S1132ED081E00E944303882319F089E090E008957B
S1132EE061E081E00E944303882319F080E090E0D0
S1132EF0089585E090E00895AF92BF92CF92DF925B
S1132F00EF92FF920F931F93CF93DF93CDB7DEB76A
S1132F10A8970FB6F894DEBF0FBECDBFE82FFF27EA
S1132F20E831F10508F095C6EA5BFF4FEE0FFF1F8D
S1132F300590F491E02D099480919E06882309F46C
S1132F4088C640E051E0C2C480917204882309F429
S1132F5080C690E011E0EBC480915704882361F5AA
S1132F6020913E0630913F06409140065091410623
S1132F70EFB7F894FF27609125057091260580919D
S1132F80270590912805E0903404F09035040091D1
S1132F903604109137046E0D7F1D801F911FEFBF03
S1132FA020933E0630933F064093400650934106DB
S1132FB0109257040E94F6060E944C066EC00E94AE
S1132FC04C065B016C018FB7F8949927109290041A
S1132FD08FBF8091AC0481FF25C08091A40490919F
S1132FE0A504A091A604B091A704A6019501281BED
S1132FF0390B4A0B5B0BE090A804F090A9040091F4
S1133000AA041091AB04E21AF30A040B150B3FEF68
S1133010E3163FEFF3063FEF03073FE7130711F013
S113302061E009C07FEFE72E7FEFF72E7FEF072FD8
S11330307FE7172F60E08091B50481FF24C0809161
S1133040AD049091AE04A091AF04B091B004A60178
S11330509501281B390B4A0B5B0BDA01C90120913E
S1133060B1043091B2044091B3045091B404281BCC
S1133070390B4A0B5B0B2E153F05400751071CF417
S113308079018A0103C0662309F4E3C51E141F04F1
S1133090100611062CF0C601B5010E94DD0ED9C53B
S11330A0E0923E06F0923F060093400610934106DC
S11330B081E080935704A8019701C601B5010E94DD
S11330C0F606C7C50FB7F894112781E00E943906A8
S11330D061E0E62EF12CF092CE03E092CD03109243
S11330E0CF0310923A04109258040FBF0FB7F8940C
S11330F011270E947B04F0925404E092530410922E
S1133100600489B78F7B89BF80E488BF8AB78062F7
S11331108ABF8AB78F7E8ABF89B7806489BF0FBF91
S11331208FB7F894082F11278091C8039091C90391
S1133130049719F483E00E94CC100FBF0FB7F894E2
S11331401127C09A80E00E94DC110FBF8FB7F8945A
S1133150992722E020932A058FBF0E944C06609392
S1133160A4047093A5048093A6049093A70488E80C
S113317093E1A0E0B0E08093A8049093A904A09305
S1133180AA04B093AB048091AC048E7F82608093D8
S1133190AC0481E058C58FB7F894992710922A059A
S11331A071C08FB7F8949927F090C7038FBF63E07D
S11331B081E00E944303882359F10FB7F894112743
S11331C01092CE031092CD0387B78F7E87BF87B747
S11331D08F7D87BF83E00E94DC11C09A0FBF0FB7B9
S11331E0F894112710925404109253040E947B0403
S11331F0C09A89B78F7B89BF0FBF1092C903109201
S1133200C803DE98DD98DE9A83E00E94880107C037
S11332108FB7F894992722E020932A058FBF009155
S11332208E0410918F040E94740480919F069091E3
S1133230A006892B09F00DC58FEF8093AC034F2DA9
S1133240B80138C38FB7F894282F3327122F8091F1
S1133250DE06882301F581E08093DE068091C803B1
S11332609091C903049721F481E00E945C0C03C08F
S113327086E00E9488011FBFECC48FB7F894992799
S11332801092DE06D4C48FB7F894282F3327809188
S1133290CA03882311F02FBFDCC42FBF80B3992742
S11332A056E0969587955A95E1F7182F11709091ED
S11332B08004809181048917D9F01917C9F484E036
S11332C090E09093C9038093C8038FB7F89499272B
S11332D021E02093CA038FBF60E070E08DE10E947B
S11332E0BE030E94140DC09AC09882E00E94880117
S11332F01093810487E0A7C48FB7F894992710919D
S1133300A5038FBF123009F465C0133030F41123C4
S113331059F0113009F09DC448C0133009F474C049
S1133320143009F096C4A0C0C0988FB7F894082F41
S113333011278091C8039091C9030297A1F583E0F6
S113334090E09093C9038093C80368E170E08DE135
S11333500E94BE0381E0809380041092CA0380B36C
S1133360992746E0969587954A95E1F78170907084
S11333708093810487E00E94880181E00E94CC1040
S11333806FE772E08CE10E94BE030E94EE050E948A
S1133390FF0566E57AE287E10E94BE036FEF70E8FD
S11333A085E10E94BE030FBF54C4C09886E00E940A
S11333B0CC100E94EE050E94FF050E94140DC09AD5
S11333C0C09883E00E94CC10C09A81E00E94DC1176
S11333D086E039C4C0988FB7F894082F112760E0AD
S11333E080E00E944303882311F00FBF0AC00FBF7F
S11333F083E50E94B20380E00E94B20380E00E9451
S1133400B203C09A82E02DC08FB7F8949927209117
S1133410CD038FBF243039F0283041F0223001F53C
S11334200E944C0D16C40E94B11213C4C09889E0C6
S11334300E94CC10C09A83E00E94DC118FB7F894EC
S1133440992721E030E03093CE032093CD038FBF42
S11334508FB7F89499271093C7038FBF84E0F3C301
S113346083E00E94DC11F5C30E941911F2C30FB767
S1133470F89411274091EB035091EC0360911E05E1
S113348070911F058091A3069091A40610921F05C8
S113349010921E051092A4061092A3061092EC033B
S11334A01092EB0310929A041092990420E00E9467
S11334B00C1379CF2FB7F894332780915B04809352
S11334C0A80382E08093CC032FBF8091A8038823B4
S11334D009F0BFC3B89AC09888E0B5C3A091E903C6
S11334E0B091EA03DC909D012D0D311DF90180811D
S11334F0881F8827881FFD0183A7F90180818F77A2
S1133500FD0181A721503040F9018081FD0180A790
S1133510A091E903B091EA03FD0132818FB7F894D9
S11335209927209159048FBF222309F490C0832F37
S11335309927969587959695879583709070823094
S1133540910541F5878146812FB7F894332760911F
S11335507E0470917F042FBF9927982F88275527C1
S1133560842B952B8617970719F481E090E06CC0A3
S1133570FD018781268140E050E09927982F882714
S11335803327822B932B8F5F9F4F11F441E050E040
S1133590CA015AC0039709F064C19E012F5F3F4FCF
S11335A04FE255E088E0FA010190AF01F901019280
S11335B09F018150C1F79E012F5D3F4FAE014F5FC8
S11335C05F4F88E0FA010190AF01F90101929F0178
S11335D08150C1F79E01275F3F4FAE014F5D5F4FA2
S11335E088E0FA010190AF01F90101929F01815035
S11335F0C1F79E012F5E3F4FAE01475F5F4F88E0EA
S1133600FA010190AF01F90101929F018150C1F7C4
S11336109E01275E3F4FAE014F5E5F4F88E0FA0187
S11336200190AF01F90101929F018150C1F748E077
S113363050E0BE01675E7F4FCD0106960E94D02206
S1133640892B09F00EC103C0882309F40AC1FCE0E8
S1133650FD1508F006C1E090E903F090EA03F701D4
S11336602281822F992716E0969587951A95E1F77E
S1133670039719F468E070E002C062E070E0822F02
S1133680992796958795969587958370907003975B
S113369019F488E090E002C082E090E026E030E097
S11336A0E20EF31E40E050E020E030E0F701E80FC6
S11336B0F91F8AEF9FEFE80EF91E05C08191480FAC
S11336C0511D2F5F3F4F26173707C4F3F70163815E
S11336D08FEF8093A1068FB7F894782F20E030E025
S11336E0E6E2F4E0808191818417950731F48281C8
S11336F0861709F48EC02093A1062F5F3F4F33969F
S11337002430310579F77FBF9091A1063FB7F89433
S11337109F3F21F08091D003891799F42091D00321
S1133720822F9927FC01EE0FFF1FE80FF91FEA5DB6
S1133730FB4F5183408362832F5F23702093D00318
S11337400CC0892F9927FC01EE0FFF1FE80FF91F0A
S1133750EA5DFB4F518340836283832F99278FBF98
S11337600FB7F8941127C7010E94E502FC0190816C
S11337700FBFF70183A5882309F46FC09F3309F0B5
S11337806CC0878146812FB7F89433276091A903D1
S11337907091AA032FBF9927982F88275527842B28
S11337A0952B8617970761F0878126819927982F93
S11337B088273327822B932B8F5F9F4F09F04DC0AF
S11337C0F7018385863009F048C0F4E1DF1609F07B
S11337D044C0F7018585823009F03FC08785208980
S11337E09927982F88273327822B932B009799F4B6
S11337F0848599279F938F93868599279F938F9389
S11338008091A3039091A4039F938F938FEF92E0F1
S113381015C07FBF22C00197F1F4F7018485992771
S11338209F938F93868599279F938F938091A3036A
S11338309091A4039F938F9388E393E09F938F9336
S11338400E94E4222DB73EB7285F3F4F0FB6F8948D
S11338503EBF0FBE2DBF0E940A0CF092EA03E09215
S1133860E9038FB7F8949927109260048FBF0E94E0
S11338702A12EFC190916F048091AC03981709F458
S1133880E8C19093AC039923D1F40091D103109132
S1133890D20360918C04C8010E94920D482F5527D1
S11338A0442309F4D6C18FEF8093AC036091D10314
S11338B07091D203F80183850E94BD10CAC18FEFB5
S11338C08093AC03C6C10E948B026DCD90919E067D
S11338D0852F8923C1F0E42FFF27EE0FFF1FE55644
S11338E0FB4F2081318111821082852F809598238E
S11338F090939E06442339F42D5E334009F0A6C10B
S11339001092C603A3C14F5F483008F0A2C1550FFF
S1133910DDCF8091AF03E82FFF27EE0FFF1FE556A1
S1133920FB4F6081718141E00E947F1092C1209120
S11339307204812F8223C1F0E92FFF27EE0FFF1FAE
S1133940EE59F94F4081518111821082812F809567
S1133950282320937204992339F463E0CA010E9456
S1133960C30C110F91E0E3CF9F5F983008F071C151
S1133970110FDDCF1091B003E12FFF27EE0FFF1FD2
S1133980EE59F94FE080F180118210820E945F02AB
S1133990112309F05EC161E0C70126C18FB7F89415
S11339A01092DB062091210540E0283009F441E023
S11339B030E0293009F431E0442311F4332351F089
S11339C010922105E091A304FF27EE0FFF1FE85793
S11339D0FB4F108299278FBF442311F4332331F115
S11339E09FB7F89480919C068F5F80939C0680918A
S11339F07904833479F4209192048091910482179C
S1133A0079F0822F8F5F80939204863048F0109271
S1133A10920406C0A0E0442309F4A1E071E002C0CE
S1133A20A0E070E0892F99278FBF06C0222311F0F0
S1133A30FF246DC0A0E070E08FB7F894992720911F
S1133A40D3038FBF222341F08FB7F89499272AE03C
S1133A50209321058FBF42C08FB7F89499276091B6
S1133A60880440918A048FBF8FB7F894282F332796
S1133A7050E09091910480919204981709F451E0D8
S1133A802FBF552341F5662331F55FB7F89482E0E3
S1133A90809388048FB7F894282F332740E09091BF
S1133AA0910480919204981709F441E02FBF4423B4
S1133AB011F080E006C0E0919204FF27EF56FB4F1F
S1133AC082818093890483E4809379041092A3040F
S1133AD0852F99270EC04150423010F0FF240CC0AE
S1133AE08FB7F894992725E42093790421E0209353
S1133AF0A3048FBFE1E0FE2E772349F08FB7F8943B
S1133B009927A093DC038FBF85E10E9488018FB7BA
S1133B10F894082F1127809121058A3009F4D3CE17
S1133B200FBFFF2009F495C02FB7F89433271092E4
S1133B30E2061092E1061092730481E0809321055D
S1133B402FBF0E94D102882309F483C08FB7F89451
S1133B50992729E0209321058FBF0E94AF0179C0E6
S1133B60569857981092200510926404539A549AC8
S1133B70579A8FB7F89499271092210510926104EF
S1133B8081CB84E160C05398549863C01092D903E8
S1133B901092D8038FB7F8949927F090DC038FBF65
S1133BA08091DD03882311F063E0F62E2091D60383
S1133BB03091D7038091DE03882309F04AC08091B5
S1133BC0B003882309F045C0009162061091630692
S1133BD00217130709F03DC01092630610926206A3
S1133BE00E945F026F2DC8010E94C30C32C08FB7C0
S1133BF0F89499272091E1033091E203409139042C
S1133C008FBF8FB7F894E42FFF27EE0FFF1FEE54FA
S1133C10FC4F318320832091D403442311F02B7F64
S1133C2001C02D7F2093D4031092DF0399278FBF07
S1133C3010C04CE165EA76E08FEF9FEF0E941E0210
S1133C40882339F087E10E94880103C0550F41E0C1
S1133C503DCEA8960FB6F894DEBF0FBECDBFDF9160
S1133C60CF911F910F91FF90EF90DF90CF90BF9075
S1133C70AF900895809199068F3FB1F0282F332794
S1133C80F901E55CFB4F8081809399068F3F11F425
S1133C908093DF068FEF80832F3F31F0822F0E94C5
S1133CA07C1781E090E0089580E090E00895FF9211
S1133CB00F931F93CF93DF93CDB7DEB7E0970FB683
S1133CC0F894DEBF0FBECDBFFFB6F89448E150E0D4
S1133CD06FEF70E08BE394E00E94DD228FEF80931E
S1133CE099068093DF0681E08EBD88E080BF83E083
S1133CF083BF8CB59DB54AE72CB53DB52817390768
S1133D0008F44150442311F0C901F6CF92B782B7A9
S1133D108917E9F32CB53DB592B782B78917E9F352
S1133D208CB59DB5821B930B4096A5E0969587951F
S1133D30AA95E1F790939B0680939A0613BE83B7E6
S1133D408EBD8EB580BF12BE1DBC1CBC8FEF86BF5E
S1133D5086B780937C0080B7992787709070892BF1
S1133D60D1F7D29AD19AD09ADA9AD99AD89A15BA1E
S1133D708FEF84BBD498DC9810928900109288004D
S1133D8080917D00846080937D0080918A00887F8B
S1133D90826080938A001DBC1CBC87B7846087BF87
S1133DA08EB5887F84608EBD0E943A1E8823E1F719
S1133DB088EB93E09093E8068093E70612E006E030
S1133DC060919A0670919B0688279927FCE0660FFC
S1133DD0771F881F991FFA95D1F720E031EE40E054
S1133DE050E00E9458222150304029B9832F99274E
S1133DF0809390001BB9009395001AB82093990002
S1133E008093980010939B0000939D0010929A0059
S1133E1084E490E090933A068093390610928804E3
S1133E2010928A048AE08093210510927304109200
S1133E30790410929C061092E2061092E106109208
S1133E40DB061092A304109235061092340684E027
S1133E50809361041092230510923D06109265042C
S1133E601092A00410929F04109292041092910454
S1133E701092E8038FEF80935E04E6E2F4E08FEFA4
S1133E809FEF918380831282339624E0E233F2071A
S1133E90C1F70E949604609339058091A303909121
S1133EA0A4030196AA27BB2780936B0490936C0408
S1133EB0A0936D04B0936E0484E696E09093EA03B5
S1133EC08093E9038E98B89A8C988FEF8093780446
S1133ED01092290510922A0510922B0510922C0598
S1133EE0B89AD69AD59A8FB7F89499272091A903AE
S1133EF03091AA038FBF30937F0420937E040E94E5
S1133F00100729A73AA74BA75CA76DA77EA78FA781
S1133F1098ABDE019196FE01B99688E001900D926E
S1133F208150E1F7DE015196FE01B19688E00190DF
S1133F300D928150E1F7DE015996FE01719688E0F9
S1133F4001900D928150E1F7AFE2B5E0FE01799660
S1133F5088E001900D928150E1F78091AB0399279D
S1133F6090936704809366048FE1809324058AE12B
S1133F70809337050E94100729A73AA74BA75CA78F
S1133F806DA77EA78FA798ABDE019196FE01B99627
S1133F9088E001900D928150E1F7DE011196FE0157
S1133FA0B19688E001900D928150E1F7DE011996F7
S1133FB0FE01319688E001900D928150E1F7AFE265
S1133FC0B5E0FE01399688E001900D928150E1F749
S1133FD0AFE2B5E0FD0137969C9180818D9390838B
S1133FE0319785E0E233F807B9F781E0809359040B
S1133FF01092A2068093680410922E0580B7886000
S113400080BF8BE083BF86EE81BF87B7826087BFA6
S11340100E9473060E943A1E8823E1F78F2D992788
S11340208FBF78948FB7F894282F3327922F8091DD
S113403021058A3031F080916104843011F02FBF62
S113404004C09FBF82E10E9488018091A3039091E4
S1134050A4039F938F9381E793E09F938F930E9490
S1134060E4220E940A0C0E9444170F900F900F90B4
S11340700F908FB7F894482F55274BC087B79927CF
S113408083709070892B19F4E5E0F0E013C080B7D9
S1134090992787709070892BD1F781B792B7891BC4
S11340A08C3030F082B7853F18F4E3E0F0E002C0D2
S11340B0E2E0F0E087B7887BC1F480917D008B7FDC
S11340C0A1F46E9912C08AB190919A00892B8871DB
S11340D061F48091740082FD08C0379B03C081E0C5
S11340E090E005C085E090E002C080E090E025B754
S11340F08E1708F4E82FFF27E454FD4FE491237E44
S11341002062E22BE5BF78948895F89485B78F7D7B
S113411085BF809199068F3F09F4B0CF282F3327AC
S1134120F901E55CFB4F8081809399068F3F11F480
S11341308093DF068FEF80832F3F09F49FCF4FBF1B
S1134140822F0E947C1795CFACE2B0E0EAEAF0E25D
S11341500C949922222E332E442E552E662E772E21
S1134160882E992EFE013196A8E01192AA95E9F7BE
S113417029823A824B825C826D827E828F8298860B
S1134180FE013996B8E01192BA95E9F7A986BA8684
S1134190CB86DC86ED86FE860F87188B89819A8113
S11341A0AB81BC8189A79AA7ABA7BCA77C018D0171
S11341B08FEF9FEFA0E0B0E0E822F9220A231B234F
S11341C089A59AA5ABA5BCA51D01442455248985C0
S11341D09A85AB85BC858DA39EA3AFA3B8A75C01CC
S11341E06D018FEF9FEFA0E0B0E0A822B922CA22B0
S11341F0DB228DA19EA1AFA1B8A53D0188249924FD
S1134200C801B701A60195010E947A2269A37AA385
S11342108BA39CA3C801B701A40193010E947A2235
S11342207B018C01C201B101A60195010E947A2291
S11342305B016C01C201B101A40193010E947A22C5
S11342403B014C01EA0CFB1C0C1D1D1D89A19AA10C
S1134250ABA1BCA19D01442755272E0D3F1D401F36
S1134260511F2A153B054C055D0540F480E090E0A4
S1134270A1E0B0E0680E791E8A1E9B1ECA01AA271F
S1134280BB27860D971DA81DB91D8D8F9E8FAF8FDF
S1134290B8A3A9013327222789A19AA1ABA1BCA164
S11342A0A070B070280F391F4A1F5B1F298F3A8FE7
S11342B04B8F5C8FA98CBA8CCB8CDC8CED8CFE8CF8
S11342C00F8D18A1FE01719698E011929A95E9F765
S11342D0ED8AFE8A0F8B188F2D813E814F81588580
S11342E06DA17EA18FA198A50E947A223B014C0169
S11342F02D853E854F85588969A57AA58BA59CA5F2
S11343000E947A222D893E894F89588D260F371FA6
S1134310481F591F260D371D481D591D2D8B3E8BD7
S11343204F8B588F6D887E888F88988C2A2D3B2DD3
S11343304C2D5D2D662D772D882D992DE2E1AC96BF
S11343400C94B522A0E1B0E0E8EAF1E20C949922E1
S1134350222E332E442E552E662E772E882E992EFD
S1134360002309F466C088E0FE01319611928A9513
S1134370E9F729833A834B835C836D837E838F8241
S11343809887E0E2E01B1E16CCF52D813E814F811B
S11343905885602F772767FD7095DA01C901062ECD
S11343A004C0B695A795979587950A94D2F78D87FB
S11343B09E87AF87B88B04C0220F331F441F551F3D
S11343C0EA95D2F789819A81AB81BC8104C0B69504
S11343D0A795979587956A95D2F7282B392B4A2B61
S11343E05B2B29873A874B875C8729843A844B84E3
S11343F05C846D847E848F8498881BC01D861E8691
S11344001F86188A2E2F332727FD30953095219546
S11344103F4F8D819E81AF81B88504C0B695A79525
S1134420979587952A95D2F789879A87AB87BC8712
S1134430DCCF222D332D442D552D662D772D882D3F
S1134440992DE2E160960C94B522991B79E004C0A1
S1134450991F961708F0961B881F7A95C9F78095BF
S11344600895AA1BBB1B51E107C0AA1FBB1FA617B7
S1134470B70710F0A61BB70B881F991F5A95A9F709
S113448080959095BC01CD01089597FB092E0726D0
S11344900AD077FD04D0E5DF06D000201AF4709529
S11344A061957F4F0895F6F7909581959F4F0895F4
S11344B0A1E21A2EAA1BBB1BFD010DC0AA1FBB1F24
S11344C0EE1FFF1FA217B307E407F50720F0A21B96
S11344D0B30BE40BF50B661F771F881F991F1A9403
S11344E069F760957095809590959B01AC01BD012D
S11344F0CF010895629FD001739FF001829FE00D68
S1134500F11D649FE00DF11D929FF00D839FF00D4E
S1134510749FF00D659FF00D9927729FB00DE11DFA
S1134520F91F639FB00DE11DF91FBD01CF011124D7
S113453008952F923F924F925F926F927F928F9243
S11345409F92AF92BF92CF92DF92EF92FF920F931E
S11345501F93CF93DF93CDB7DEB7CA1BDB0B0FB628
S1134560F894DEBF0FBECDBF09942A8839884888E5
S11345705F846E847D848C849B84AA84B984C8847B
S1134580DF80EE80FD800C811B81AA81B981CE0F72
S1134590D11D0FB6F894DEBF0FBECDBFED01089557
S11345A0FB01DC0104C08D910190801921F441507C
S11345B05040C8F7881B990B0895DC0101C06D9326
S11345C041505040E0F70895A2E0B0E0EAEEF2E294
S11345D00C94A922FE01379661917191FA83E983C3
S11345E0AF018091E7069091E8060E94FB22E2E089
S11345F022960C94C522ABE0B0E0E1E0F3E20C9427
S11346009B223C014B016A01FC01178216828381C3
S113461081FD03C08FEF9FEFDAC1F3013381F40111
S113462033FD859133FF81914F01882309F4CCC177
S1134630853239F433FD859133FF81914F01853201
S113464029F4B30199270E940125E7CF00E044240F
S113465055244AE00032B0F48B3269F08C3228F4ED
S1134660803251F0833271F40BC08D3239F08033D3
S113467049F4016028C00260046025C0086023C0BA
S1134680006121C007FD29C0282F20532A3078F467
S113469006FF06C0549EC0011124522E580E13C0AA
S11346A0449EC0011124422E480E00620CC08E327A
S11346B021F406FD89C1006406C08C3611F400683B
S11346C002C0883651F4F40133FD859133FF8191A2
S11346D04F01882309F46FC0BDCF982F85548330D0
S11346E018F08052833038F424E030E0C20ED31E38
S11346F08FE389830FC0933631F0933799F0933564
S113470009F05BC023C0F6018081898322E030E098
S1134710C20ED31E7E010894E11CF11C51E0A52EAB
S1134720B12C12C0F601E080F18006FD03C06FEFEA
S11347307FEF02C0652D772722E030E0C20ED31E42
S1134740C7010E94F6245C010F7713C0F601E080D4
S1134750F18006FD03C06FEF7FEF02C0652D772760
S113476022E030E0C20ED31EC7010E94EB245C019C
S1134770006803FF07C01BC0B30180E290E00E9401
S113478001254A94842D9927A816B906A8F30FC0C9
S1134790F70107FD859107FF81917F01B3019927F7
S11347A00E94012541104A940894A108B108A1145B
S11347B0B10471F706C190E03EC0943611F0993609
S11347C091F507FF0AC0F6016081718182819381AE
S11347D024E030E0C20ED31E0DC0F6018081918129
S11347E09C01B901882777FD8095982F42E050E01D
S11347F0C40ED51E4FE6B42EB02297FF09C0909583
S11348008095709561957F4F8F4F9F4F50E8B52AE3
S11348108E010F5F1F4F2AE030E0A8010E942E2571
S1134820A82EA01A4DC0953731F43FEEF32EF02296
S11348302AE030E023C029EFF22EF0229F3661F007
S1134840903720F4983509F0BFC012C0903739F082
S1134850983709F0B9C005C028E030E00FC080E106
S1134860F82AF4FE02C094E0F92A20E130E006C000
S1134870F4FE02C0E6E0FE2A20E132E0F7FE0AC0C0
S1134880F601608171818281938144E050E0C40E1D
S1134890D51E0BC0F60180819181AC01BA01882735
S11348A09927E2E0F0E0CE0EDF1E8E010F5F1F4F6E
S11348B0A8010E942E25A82EA01A8FE7B82EBF208B
S11348C0B6FE10C0FEEFBF22A51460F42B2D3327D3
S11348D024FF1AC022FF02C0052D09C02FEEB22208
S11348E0052D01C00A2D2B2D332724FF0EC0FE01F8
S11348F0EA0DF11D8081803319F439EEB32209C029
S11349000F5F22FF06C004C0052D822F867809F0B0
S11349100F5FEB2CFF24E3FC14C0E0FE0FC0041572
S113492010F05A2C0BC0542C501A5A0C042D06C0EB
S1134930B30180E290E00E9401250F5F0415C0F3EB
S113494004C0041510F4401A01C04424E4FE10C04D
S1134950B30180E390E00E940125E2FE1EC0E1FE67
S113496003C088E590E002C088E790E0B3010CC082
S11349708E2D867891F0E1FE02C08BE201C080E2C8
S1134980B7FC8DE2B30199270E94012506C0B3014B
S113499080E390E00E9401255A94A514C0F3AA94E0
S11349A0FE01EA0DF11D8181B30199270E940125C1
S11349B0AA2039F0F4CFB30180E290E00E940125EF
S11349C04A944420C1F729CEF30186819781E0E11E
S11349D02B960C94B722FC01059061507040011095
S11349E0D8F7809590958E0F9F1F0895FC01615014
S11349F0704001900110D8F7809590958E0F9F1FFD
S1134A0008950F931F93CF93DF938C01EB018B8158
S1134A10992781FF1BC082FF0DC02E813F818C81AD
S1134A209D812817390764F4E881F9810193F9839A
S1134A30E88306C0E885F985802F0995892B31F430
S1134A408E819F8101969F838E8302C00FEF1FEF9B
S1134A50C801DF91CF911F910F910895FA01AA2700
S1134A60283051F1203181F1E8946F936E7F6E5FAD
S1134A707F4F8F4F9F4FAF4FB1E03ED0B4E03CD05B
S1134A80670F781F891F9A1FA11D680F791F8A1F3E
S1134A90911DA11D6A0F711D811D911DA11D20D0A5
S1134AA009F468943F912AE0269F11243019305D5F
S1134AB03193DEF6CF010895462F4770405D419350
S1134AC0B3E00FD0C9F7F6CF462F4F70405D4A339D
S1134AD018F0495D31FD4052419302D0A9F7EACF65
S1134AE0B4E0A6959795879577956795BA95C9F794
S1134AF000976105710508959B01AC010A2E069487
S1134B005795479537952795BA95C9F7620F731F3F
S10D4B10841F951FA01D0895FFCF18
S1134B1A28436F6F7264656E61646F72202575290C
S1134B2A203A20456E7669616E646F204745545F6A
S1134B3A54454D5045524154555245207061726155
S1134B4A2025752E0A0028436F6F7264656E6164AE
S1134B5A6F7220257529203A20456E7669616E6444
S1134B6A6F204745545F4C494748544E4553532098
S1134B7A706172612025752E0A0028436F6F726472
S1134B8A656E61646F7220257529203A20456E7618
S1134B9A69616E646F205345545F54454D504552C4
S1134BAA415455524520706172612025752E0A00C0
S1134BBA28436F6F7264656E61646F72202575296C
S1134BCA203A20456E7669616E646F205345545FBE
S1134BDA4C494748544E455353207061726120250D
S1134BEA752E0A0028436F6F7264656E61646F7272
S1134BFA20257529203A20456E7669616E646F20F6
S1134C0A5455524E5F4149525F4F4E207061726152
S1134C1A2025752E0A0028436F6F7264656E6164DD
S1134C2A6F7220257529203A20456E7669616E6473
S1134C3A6F205455524E5F4149525F4F4646207089
S1134C4A6172612025752E0A0028436F6F726465AC
S1134C5A6E61646F7220257529203A20456E766943
S1134C6A616E646F205455524E5F54565F4F4E2006
S1134C7A706172612025752E0A0028436F6F726471
S1134C8A656E61646F7220257529203A20456E7617
S1134C9A69616E646F205455524E5F54565F4F4695
S1134CAA4620706172612025752E0A0028436F6FB1
S1134CBA7264656E61646F7220257529203A2045F5
S1134CCA6E7669616E646F205345545F54565F561D
S1134CDA4F4C20706172612025752E0A0028436F9B
S1134CEA6F7264656E61646F7220257529203A209B
S1134CFA456E7669616E646F205345545F54565FFE
S1134D0A4348414E20706172612025752E0A00289D
S1134D1A436F6F7264656E61646F72202575292012
S1134D2A3A2054656D7065726174757261202575D7
S1134D3A20677261757320726563656269646120B4
S1134D4A64652025752E0A0028436F6F7264656EA8
S1134D5A61646F7220257529203A204C756D696E3D
S1134D6A6F736964616465202575206C75782020E9
S1134D7A72656365626964612064652025752E0A1B
S1134D8A0028436F6F7264656E61646F72202575C3
S1134D9A29203A20496E696369616C697A616E6493
S1134DAA6F20436F6F7264656E61646F72202E2E7A
S1134DBA2E0A000100FFFFFFFF010022FFFFFF018F
S1134DCA01FFB604EA04B604000000020000000071
S1094DDA2B0C0000000098
S9030000FC
