S01800006275696C642F6D6963617A2F6D61696E2E73726563E5
S11300000C9461010C9487070C9491070C949B0742
S11300100C94A5070C94AF070C94B9070C943A10F0
S11300200C94C3070C9480010C9480010C9410145C
S11300300C94AE150C9451070C9467070C94190C8E
S11300400C9440070C94AA130C948A090C94800114
S11300500C94060A0C9480010C9480010C94800189
S11300600C945C070C94590B0C94380B0C94430BB4
S11300700C944E0B0C946C0B0C941B0B0C94800185
S11300800C942D0B0C9480010C948001A416D716AB
S11300905A17C317C9171A1835183B1874182F198B
S11300A052196619081B9416571B9C16881B9C1B17
S11300B07E1C8F1C911C941CC51CE71C0000211085
S11300C0422063308440A550C660E77008812991BE
S11300D04AA16BB18CC1ADD1CEE1EFF13112100266
S11300E073325222B5529442F772D662399318830E
S11300F07BB35AA3BDD39CC3FFF3DEE36224433432
S113010020040114E664C774A44485546AA54BB55D
S113011028850995EEE5CFF5ACC58DD55336722605
S113012011163006D776F6669556B4465BB77AA7AD
S113013019973887DFF7FEE79DD7BCC7C448E55851
S11301408668A7784008611802282338CCC9EDD9FD
S11301508EE9AFF9488969990AA92BB9F55AD44AA5
S1130160B77A966A711A500A333A122AFDDBDCCB4D
S1130170BFFB9EEB799B588B3BBB1AABA66C877C71
S1130180E44CC55C222C033C600C411CAEED8FFD9D
S1130190ECCDCDDD2AAD0BBD688D499D977EB66E45
S11301A0D55EF44E133E322E511E700E9FFFBEEFED
S11301B0DDDFFCCF1BBF3AAF599F788F8891A981AF
S11301C0CAB1EBA10CD12DC14EF16FE18010A10099
S11301D0C230E3200450254046706760B983989389
S11301E0FBA3DAB33DC31CD37FE35EF3B1029012E9
S11301F0F322D2323542145277625672EAB5CBA555
S1130200A89589856EF54FE52CD50DC5E234C32438
S1130210A01481046674476424540544DBA7FAB728
S11302209987B8975FE77EF71DC73CD7D326F23688
S11302309106B01657667676154634564CD96DC974
S11302400EF92FE9C899E9898AB9ABA944586548D8
S113025006782768C018E1088238A3287DCB5CDBC8
S11302603FEB1EFBF98BD89BBBAB9ABB754A545A28
S1130270376A167AF10AD01AB32A923A2EFD0FED94
S11302806CDD4DCDAABD8BADE89DC98D267C076C78
S1130290645C454CA23C832CE01CC10C1FEF3EFF68
S11302A05DCF7CDF9BAFBABFD98FF89F176E367EC8
S11302B0554E745E932EB23ED10EF01E00081C18EB
S11302C0141011241FBECFEFD0E1DEBFCDBF11E06B
S11302D0A0E0B1E0E6EBF8E400E00BBF02C0079059
S11302E00D92AC3EB107D9F715E0ACEEB1E001C018
S11302F01D92A131B107E1F70E94251D0C945A24E7
S11303000C9400008FB7F894992708958FBF08952F
S1130310282F9FB7F894E82FFF27EF59FD4F8081CE
S11303208F3F81F4E0910505E21771F40BC020932F
S1130330BF0404C0FF27EF59FD4F20832093050518
S113034020E007C025E005C08091BF048F3F91F7EE
S1130350EECF892F99278FBF822F992708951F9356
S11303601FB7F89480910105882341F481E10E942C
S11303708801882319F481E080930105812F99274E
S11303808FBF1F910895382FFA01422F2D3118F095
S113039082E090E008956683872F992785833387C9
S11303A021878091FE019091FF01892B19F085E04E
S11303B090E008952FB7F894332785E080930102E5
S11303C010920202F093FD01E093FC0182E090E0C0
S11303D09093FF018093FE01109204021092030295
S11303E0445F409300022FBF8FB7F894282F332720
S11303F0809147038A3011F42FBF19C02FBF9FB7D4
S1130400F8948091B002882311F020E006C081E0C6
S11304108093B0021092B10221E0892F99278FBFF7
S1130420222329F00E94AF0180E090E00895109209
S1130430FF011092FE0181E090E00895CF93DF93D5
S1130440DB01FB0135968183892F9927EB018D838D
S113045084E686838091880490918904892B19F01D
S113046085E090E029C070938904609388044483F4
S11304708091D601882319F480E090E01DC0868124
S1130480EB016D817727762F662721813327622B35
S1130490732B1092D601242FAD010E94C30199271A
S11304A0282F882339F081E08093D60110928904A3
S11304B010928804822F9927DF91CF910895CF93CA
S11304C0DF931092D601A0918804B091890410970B
S11304D021F08091980280FF08C081E08093D601CA
S11304E017C080E10E94880113C0FD013596248164
S11304F03327ED016D817727762F66278181992730
S1130500682B792BAD0186810E94C301882349F7AA
S1130510DF91CF910895809147038A3021F480912F
S11305208702843021F081E08093F901089583E10A
S11305300E9488011092F90108952FB7F894332787
S11305408CB95E9A2FBF0895FC016115710519F4E9
S113055081E090E008958091A8029091A902892BEE
S113056019F085E090E0089570936204609361044B
S1130570F093A902E093A8021092890210928802D3
S113058081E080938A025E9A569A808121E030E06D
S113059030938902209388020E949D0280E090E0BB
S11305A008958FB7F894992720910A022E7F2093FB
S11305B00A022EE720937C028FBF61E070E08CE793
S11305C092E00E94A40299270895FC018281992750
S11305D0582F442781819927482B592BCA01892FE9
S11305E0992786958695837090708230910559F08D
S11305F08330910559F0892B19F420E030E008C0CC
S11306002CE93FEF05C022E030E002C028E030E0F2
S1130610CA0184E0989F812D992711248230910585
S113062059F08330910559F0892B19F480E090E05A
S113063008C08CE99FEF05C082E090E002C088E02A
S113064090E0280F391F2A5F3F4FCF01820F931F7D
S11306500895282F9FB7F894662349F0E82FFF27C1
S1130660E15BFC4F8081882311F021E006C0E22F7A
S1130670FF27E15BFC4F608320E0892F99278FBF20
S1130680822F99270895E82F8FB7F894282F3327BE
S113069090E0FF27E15BFC4F8081861709F491E02D
S11306A02FBF892F99270895882311F06E9A0895F2
S11306B06E980895882311F06F9A08956F9808959D
S11306C080E00E945403BA9ABB98B99AB89A6C9A7B
S11306D080E00E945A036B986A9881E00E94540358
S11306E0709A8DB18C7F8DB908950F931F93CF931A
S11306F0DF93182F8FB7F894C82FDD270C2F61E0F4
S113070080E00E942903882321F0CFBF85E090E098
S113071024C08091CE018823A1F48091F20182301B
S113072081F409C082E08093F2011092CE010E940C
S11307306003B89AC0981093CB0180E00FBF99274B
S11307400CC08091F201882369F38FB7F89499273C
S113075010924F038FBF81E0F1CFDF91CF911F91B2
S11307600F9108951F93182F81E00E9454031FB91D
S1130770779BFECF8FB199271F910895FF920F9316
S11307801F93CF93DF93F82E8B018FB7F894C82F64
S1130790DD2760E080E00E944303882321F0CFBF7F
S11307A080E090E00CC0CFBF8F2D0E94B203812F58
S11307B099270E94B203802F0E94B2039927DF91E8
S11307C0CF911F910F91FF9008958F929F92AF92B6
S11307D0BF92CF92DF92EF92FF920F931F93CF932A
S11307E0DF938FB7F8949927C090C904D090CA04B6
S11307F08090440390904503C091BF02D091C00201
S11308002091110230911202FAE0AF2EB12CAC0EFD
S1130810BD1E2A153B0508F459018FBF7401EC0E67
S1130820FD1E86010C0F1D1F14C0C114D10419F044
S1130830F801808101C080E00E94B2038114910418
S113084011F0F701808321960894E11CF11C0F5FDD
S11308501F4FC5010197C817D90738F381E00E94DB
S11308605A039FB7F894C114D10431F0CC0EDD1EA5
S1130870F60180818FB901C01FB8D093C002C09324
S1130880BF02892F99278FBF80E090E0DF91CF913D
S11308901F910F91FF90EF90DF90CF90BF90AF909A
S11308A09F908F9008952FB7F89433275093120296
S11308B0409311029093CA048093C9047093450332
S11308C0609344031092C0021092BF022FBF452BC5
S11308D029F08FB10E94E5039927089589E00E94C9
S11308E0880180E090E008958FB7F89499271092DA
S11308F051038FBF089580E880935E0210928602B0
S11309001092C3041092BE04109280020895CF93F3
S1130910DF93FC0115A6DC019E96ED011B821A8271
S1130920198280E886A7DF91CF9108952F923F9294
S11309304F925F926F927F928F929F92AF92BF92EB
S1130940CF92DF92EF92FF920F931F93CF93DF9397
S1130950CDB7DEB728970FB6F894DEBF0FBECDBF74
S11309602090910230909202409093025090940211
S11309706624772488241EE4A12EB3E8BB2ECC245D
S1130980DD24EE24FF2400E010E0222D332D442D3D
S1130990552D662D772D882D90E00E94721F298396
S11309A03A834B835C836D837E838F839887822E07
S11309B0932EA42EB52E2401350100E20E9470204E
S11309C0A22EB32EC42ED52EC301B20196958795BF
S11309D0779567956A0D7B1D8C1D9D1D97FF05C03E
S11309E09F776F5F7F4F8F4F9F4F609391027093FC
S11309F09202809393029093940228960FB6F894EF
S1130A00DEBF0FBECDBFDF91CF911F910F91FF903D
S1130A10EF90DF90CF90BF90AF909F908F907F909A
S1130A206F905F904F903F902F9008958FB7F894F8
S1130A306091C3027091C4022CB53DB506B602FEA6
S1130A4004C06F5F7F4F2CB53DB599278FBF8827B2
S1130A509927CB017727662744275527622B732BC9
S1130A60842B952B0895EF92FF920F931F930E946E
S1130A7016057B018C012091A0023091A1024091C6
S1130A80A2025091A30280919A0290919B02A0919C
S1130A909C02B0919D02820F931FA41FB51FE21602
S1130AA0F3060407150730F082179307A407B50768
S1130AB058F005C082179307A407B507E0F5E816B8
S1130AC0F9060A071B07B8F59C01AD012E193F0969
S1130AD0400B510B213060E8360760E0460760E0C8
S1130AE0560768F180E090E8A0E0B0E0E80EF91E57
S1130AF00A1F1B1FE092A002F092A1020093A2021F
S1130B001093A30280E090E8AFEFBFEFE80EF91E68
S1130B100A1F1B1F205030484040504020939A0227
S1130B2030939B0240939C0250939D0220E030E856
S1130B3040E050E014C020E030E040E050E080931A
S1130B40A0029093A102A093A202B093A3021092D8
S1130B509A0210929B0210929C0210929D02A9018B
S1130B60B7012CB53DB5C9018E199F0903968417A9
S1130B70950720F0B9016D5F7F4F02C0640F751FA8
S1130B806115710511F461E070E0615070407BBD46
S1130B906ABD80E186BF87B7806187BF1F910F91CF
S1130BA0FF90EF9008950F931F930FB7F8941127B8
S1130BB06093A0027093A1028093A2029093A30277
S1130BC020939A0230939B0240939C0250939D027F
S1130BD00E9433050FBF1F910F9108958FB7F894AA
S1130BE0992760915D038FBF85E0689FB001112450
S1130BF0625D7E4F706488E10E94BE0308951F9376
S1130C001FB7F89480917F02882319F460E070E0A4
S1130C1009C060E08091C804882309F461E081E0A0
S1130C206827772780918E02882319F480E090E06A
S1130C300AC090E080915403882309F491E081E094
S1130C409827892F9927762F6627770F770F770FA5
S1130C5054E0880F991F5A95E1F7826E9262682BCF
S1130C60792B81E10E94BE03812F99278FBF1F91A9
S1130C70089597B79F7D97BF90E296BF882319F098
S1130C808EB5806402C08EB58F7B8EBD87B78062BF
S1130C9087BF80E090E008957FB7F89462B7209111
S1130CA048023091490240914A0250914B0206B6E3
S1130CB001FE0FC081B792B7280F311D411D511D90
S1130CC02F5F3F4F4F4F5F4F290F311D411D511D66
S1130CD004C0260F311D411D511D872F99278FBF39
S1130CE0CA01B9010895DF92EF92FF920F931F9307
S1130CF08FB7F894282F3327D22E91B782B746B7EF
S1130D00981711F041FF02C02FBF6AC08091B6024C
S1130D108823E1F10E944C06E0904B03F0904C03D1
S1130D2000914D0310914E0320915A0230915B02C1
S1130D3040915C0250915D026E197F09800B910B0A
S1130D40621773078407950720F01092B60271E0CA
S1130D501EC02E0D3F1D401F511F809148029091CF
S1130D604902A0914A02B0914B02281B390B4A0B4D
S1130D705B0B273E31054105510540F4822F22309B
S1130D8010F070E005C070E082E002C070E086EE12
S1130D90682F615000B601FCFDCF82B7681709F4D3
S1130DA06F5F209148023091490240914A0250916C
S1130DB04B02DA01C9010196A11DB11D860F911DD7
S1130DC0A11DB11D82179307A407B50710F4622F64
S1130DD0609561BFDFBE772319F080E00E9488012F
S1130DE01F910F91FF90EF90DF900895AFB7F894A3
S1130DF0BB27E1E0E093B60260934B0370934C038E
S1130E0080934D0390934E0320935A0230935B02D8
S1130E1040935C0250935D02AFBF0E947306089535
S1130E20AF92BF92CF92DF92EF92FF920F931F93F4
S1130E30CF93DF93CDB7DEB728970FB6F894DEBF14
S1130E400FBECDBF20E070E0E091C901F091CA016E
S1130E5032E14DE65CE46FE48091CA019E2F28964E
S1130E600FB6F894DEBF0FBECDBFDF91CF911F91B7
S1130E700F91FF90EF90DF90CF90BF90AF900895C7
S1130E801F920F920FB60F9211248F9383B783BFD3
S1130E9000B600FCFDCF8F910F900FBE0F901F90F6
S1130EA0189578941F920F920FB60F9211240F90F9
S1130EB00FBE0F901F90189578941F920F920FB643
S1130EC00F9211240F900FBE0F901F9018957894D5
S1130ED01F920F920FB60F9211242F933F938F936B
S1130EE09F932FB7F89433278091C3029091C40243
S1130EF001969093C4028093C3022FBF9F918F9158
S1130F003F912F910F900FBE0F901F9018951F9235
S1130F100F920FB60F9211240F900FBE0F901F90D7
S1130F2018951F920F920FB60F9211240F900FBEB7
S1130F300F901F9018951F920F920FB60F921124C5
S1130F400F900FBE0F901F9018951F920F920FB61F
S1130F500F9211240F900FBE0F901F9018951F929F
S1130F600F920FB60F9211240F900FBE0F901F9087
S1130F7018951F920F920FB60F9211240F900FBE67
S1130F800F901F9018951F920F920FB60F92112475
S1130F900F900FBE0F901F901895ECEBF0E06927AF
S1130FA0660FF11DE60FF11DC895982F802D31961F
S1130FB0C89590250895982F80910502882389F576
S1130FC0992379F531E0309305028091D70180931C
S1130FD006022091FA01822F817080935F02809132
S1130FE0DC019091DD0190930802809307028091C7
S1130FF0FB018093090232273170267EE32FFF27FD
S1131000EE0FFF1FE852FE4F808191819093DD0126
S11310108093DC01232B2093FA0186E10E9488014E
S113102008958091FA0180FF02C08B7F01C08D7FFB
S11310308093FA0108950F931F93082F162F809120
S113104087028130D9F0813038F0823009F44AC007
S1131050833009F028C159C0002309F458C1109203
S11310605B0410925A041092490310926304109284
S11310708B021092C6021092C50239C1002309F0F6
S113108046C18091C5029091C6020E94CD079093FB
S1131090C6028093C50282E08093870210936304A2
S11310A0143409F000C125C18695869503C080914A
S11310B0FA018695817009F0F6C08091FA019923AE
S11310C011F0846001C082608093FA018091FA017A
S11310D0877E88608093FA011092FB018FEF8093E2
S11310E0D70115C1002309F0DEC060938B02809103
S11310F0C5029091C6020E94CD079093C6028093C8
S1131100C50283E08093870202C1809149038F3F27
S113111009F4C9C0002309F461C0823008F4C3C0D3
S1131120E0915A04EE2309F4EBC04E2F4150E42F12
S1131130FF27E65AFB4F82819927382F2227442321
S113114011F4E2E002C0E42FE150FF27E65AFB4F1E
S113115082819927282B392B8091C5029091C60250
S11311602817390709F09FC080E00E94DB073091FF
S11311708B028091B7022091B802982F9F5F96301E
S113118008F090E0921771F0E82FFF27E954FD4F23
S113119032838F5F8093B702863010F01092B702CB
S11311A00E94AF0110925B0410925A0494E0909351
S11311B08702109249031092630410928B021092DA
S11311C0C6021092C50280910A028D7F80930A02A2
S11311D08091F901882309F49AC084C0823008F40C
S11311E04EC0E0915B04FF27E65AFB4F8281482FF3
S11311F05527342F2091FA01822F8695869586955E
S1131200837099278130910519F00297F9F40EC083
S1131210277E20612093FA01442311F485E001C064
S113122080E08093FB013093D70110C08091FB01D3
S1131230843360F4E091DC01F091DD01E80FF11DED
S113124040838091FB018F5F8093FB0180915B045D
S1131250E82FFF27E65AFB4F62818F5F80935B0480
S1131260833010F010925B0477278091C50290912F
S1131270C6020E94CD079093C6028093C502809156
S11312805A04E82FFF27E65AFB4F12838F5F80939F
S11312905A04833010F010925A04809149038F5FEE
S11312A08093490334C010925B0410925A0414E0F2
S11312B010938702109249031092630410928B02D8
S11312C01092C6021092C50280910A028D7F80930B
S11312D00A0281E00E94DB078091F901882329F04A
S11312E0109387020E948B0212C0002381F081E0D8
S11312F009CF8091FA01982F917080FDD5CED7CE79
S113130080915E049927382F222742E01CCF1F9139
S11313100F9108951F920F920FB60F9211242F93DD
S11313203F934F935F936F937F938F939F93AF9369
S1131330BF93EF93FF935F9B3DC06CB1E091C702F5
S1131340F091C8023097F9F08091FF049091000564
S1131350E80FF91F60830196909300058093FF04C2
S11313602091090530910A058217930718F110920C
S1131370C8021092C702809146038330D9F057986F
S11313801092460317C06E3719F460E081E010C074
S113139080910A026D3721F4826080930A020AC0A8
S11313A081FF05C08D7F80930A0280E2682780E078
S11313B00E941B08FF91EF91BF91AF919F918F9174
S11313C07F916F915F914F913F912F910F900FBE3D
S11313D00F901F901895982F8D57823068F4809144
S11313E00A02816080930A0280E28927809348037D
S11313F08DE780937C0202C090937C0261E070E0F0
S11314008CE792E00E94A4029927089578941F9291
S11314100F920FB60F921124FF920F931F932F93E5
S11314203F934F935F936F937F938F939F93AF9368
S1131430BF93CF93DF93EF93FF9320918802309172
S1131440890280916104909162042817390780F41D
S1131450E091A802F091A902E20FF31F80812F5FAF
S11314603F4F30938902209388020E949D02CDC091
S11314701092A9021092A80210928A025698FFB6FE
S1131480F89480910A0280FF0EC08E7F80930A0236
S11314908091480380937C0261E070E08CE792E0E5
S11314A00E94A402AFC080914703843009F48CC029
S11314B0853040F4823021F18330B8F5813009F071
S11314C09CC00DC0863009F48DC0863008F483C0FA
S11314D0873009F48EC0883009F08FC091C08091A4
S11314E09F020E94EB09082F83E0809347036091D9
S11314F09F0280910705909108050E94CD0710C0B6
S11315008091C2040E94EB09082F83E08093470373
S11315106091C20480910705909108050E94CD074F
S1131520909308058093070566C0E091C902FF27E0
S1131530EE0FFF1FE155FD4F80810E94EB09082F3C
S11315401091C902C12FDD27FE01EE0FFF1FE155E7
S1131550FD4F608180910705909108050E94CD0799
S11315609093080580930705209199022F5F20939B
S11315709902113039F580910102E091FC01F0915A
S1131580FD01E80FF11DE0818F5F809301029091CE
S11315900002981730F482E08093B00240E050E0FB
S11315A002C04E2F5527DE01AA0FBB1FFD01E255D5
S11315B0FD4F8081823031F02F3F21F0A155BD4F86
S11315C04C9319C084E012C0809107050E94EB0976
S11315D0082F85E00BC0809108050E94EB09082FB5
S11315E086E004C00E94D102082F87E0809347035D
S11315F002C088E003C0002329F089E080934703F8
S11316000E94AF018F2D99278FBFFF91EF91DF913A
S1131610CF91BF91AF919F918F917F916F915F9186
S11316204F913F912F911F910F91FF900F900FBEFB
S11316300F901F9018951F920F920FB60F921124BE
S11316408F9380919B0087FF02C080919C008F91B3
S11316500F900FBE0F901F90189578941F920F92C1
S11316600FB60F9211240F900FBE0F901F90189574
S113167078941F920F920FB60F9211240F900FBE01
S11316800F901F90189578941F920F920FB60F9297
S113169011240F900FBE0F901F90189578941F92ED
S11316A00F920FB60F9211240F900FBE0F901F9040
S11316B0189578941F920F920FB60F9211248F935E
S11316C09F9380918000909181009F918F910F90C2
S11316D00FBE0F901F90189578941F920F920FB61B
S11316E00F9211242F933F938F939F932FB7F894C6
S11316F033278091960290919702019690939702D6
S1131700809396022FBF9F918F913F912F910F90BD
S11317100FBE0F901F90189580910D028C3118F018
S11317204CE150E002C0482F55278CE1E7EDF4E08E
S113173011928A95E9F790910D0280910B0220E0B5
S113174030E0A7EDB4E00FC0E82FFF27E05AFC4FCC
S1131750E081992329F08F5F8A3F09F480E091505A
S1131760ED932F5F3F4F2417350771F790930D02C8
S113177080930B024CE16BEC74E08FEF9FEF0E94BF
S11317801E02882319F087E10E94880108958FB70B
S1131790F894282F332780910E02813021F42FBF33
S11317A080E090E0089590E080910D02882309F490
S11317B091E0992321F02FBF81E090E0089581E02A
S11317C080930E022FBF0E948C0B80E090E008955E
S11317D01F93182F80910E02882349F480910D02E3
S11317E08D3728F081E080930E020E948C0B8FB716
S11317F0F894282F332790910D029A3FA8F48091F2
S11318000C02E82FFF27E05AFC4F10838F5F809370
S11318100C028A3F11F410920C029F5F90930D0208
S11318202FBF80E090E003C02FBF8FEF9FEF1F9189
S113183008951F920F920FB60F9211242F933F9386
S11318404F935F936F937F938F939F93AF93BF93C4
S1131850EF93FF9383B783BF00B600FCFDCF81B73E
S113186099270196AA27BB27209148023091490263
S113187040914A0250914B02280F391F4A1F5B1FA7
S1131880209348023093490240934A0250934B02FA
S113189078940E947306FF91EF91BF91AF919F914D
S11318A08F917F916F915F914F913F912F910F9005
S11318B00FBE0F901F9018950F931F93182F0FB7FB
S11318C0F89461E080E00E942903882371F5109365
S11318D0CB018091CE018823A9F58091F201823059
S11318E089F588E00CC00E9460038091F20188238E
S11318F049F481E08093F201109281028AE00E940F
S113190088012AC080919E028F3F31F5E091CD017C
S1131910EE2311F11CC01092CC0104C0FF27E25643
S1131920FD4F10821092CD0117C081E090E002C0FB
S1131930880F991F1A95E2F72091F101282B209323
S1131940F1010AC08091F2018823E1F6CCCF8091A5
S1131950CC018F3F19F7DFCF802F99278FBF80E00D
S113196090E01F910F9108951F9383E00E947503E7
S11319709927182F882319F083E00E945C0C812F8B
S113198099271F910895662351F480910D028823AD
S113199019F00E948C0B089510920E02089587E1AD
S11319A00E9488010895CF92DF92EF92FF920F93E5
S11319B01F93CF93DF938C01F62E6A01E22E8FB72B
S11319C0F894C82FDD2760E080E00E944303882359
S11319D021F0CFBF80E090E01EC0CFBF0F0D111DDE
S11319E0802F80680E94B203F82E16950795802FE9
S11319F0807C0E94B2030E2D0AC0EE2DFF27E01B4F
S1131A00F109EC0DFD1D80810E94B20301500023F9
S1131A10A1F78F2D9927DF91CF911F910F91FF90FF
S1131A20EF90DF90CF900895CF93DF93CDB7DEB7DB
S1131A302C970FB6F894DEBF0FBECDBF8FB7F894C6
S1131A40282FAE014F5F5F4FDA01E5E5F3E088E050
S1131A5001900D928150E1F780918C0290918D025A
S1131A608987892F99278A878091A4029091A5025A
S1131A708B87892F99278C872FBF2CE060E080E625
S1131A8091E00E94D30C2C960FB6F894DEBF0FBEE3
S1131A90CDBFDF91CF910895EF92FF921F93CF9323
S1131AA0DF93E0908F02F0909002F70182A59927CE
S1131AB0182F882309F41FE1C09880917E028117B2
S1131AC049F0612F77276F717070606E706885E1DF
S1131AD00E94BE0310937E02F70110818FB7F89421
S1131AE0C82FDD2760E080E00E944303882311F0C3
S1131AF0CFBF12C0CFBF8EE390E09093AB02809330
S1131B00AA028EE30E94B2031150412F552760E0D0
S1131B1070E0C7010E945304DF91CF911F91FF90A1
S1131B20EF9008950F931F93CF93DF93EC010FB7BA
S1131B30F89411270E94E502FC018FE380830FBF14
S1131B401092C6041092C50461E082E00E94290349
S1131B50882319F085E090E072C080915F038F5F65
S1131B6080935F0381508B838FB7F894082F1127DC
S1131B7062E081E00E944303882329F40FBF0E949E
S1131B80740481E05BC08FB7F894992724E0209314
S1131B9050038FBFD093B502C093B4020FBFFE01B0
S1131BA03196818129819927982F88273327822B81
S1131BB0932B80729C7C8983892F99278183298127
S1131BC0982F882733272164822B932B8983892F8D
S1131BD0992781831CA618A619A619AA18AA1FA6B4
S1131BE080E88EA761E0609353034091B402509162
S1131BF0B5028FB7F894282F33278091F301909181
S1131C00F4018830910511F0019711F02FBF15C030
S1131C1082E090E09093F4018093F30160930605D1
S1131C205093900240938F02109247022FBF0E945C
S1131C30B40C882311F40E944C0D80E09927DF91A5
S1131C40CF911F910F910895CF93DF93DA01422F23
S1131C502D3118F082E090E05EC0ED018B876E8339
S1131C60872F99278F832FB7F894332780918C027D
S1131C7090918D022FBFFD018483892F992785833D
S1131C802FB7F89433278091CF019091D0012FBFC3
S1131C908887892F99278987319681812981992776
S1131CA0982F8827332720643868822B932B8983C5
S1131CB0892F99278183435F4C934D508091D201A2
S1131CC0882359F01092D201642FCD010E94920D05
S1131CD09927282F8823A9F417C0842F9927909334
S1131CE0B3028093B202B093F801A093F7018CE0A1
S1131CF00E9488018091D201882349F489E090E010
S1131D000AC08FEF8093D201822F992704C01092CA
S1131D10950280E090E0DF91CF91089543E152E095
S1131D2082E08093190210921A0286E080931E02C8
S1131D308091C1029091C202892B19F55093C2027D
S1131D404093C10283E1809313028091D5018823DB
S1131D50A9F01092D50126E062E070E086E00E94CE
S1131D60240E9927282F882349F081E08093D501F8
S1131D701092C2021092C102222319F481E08093CE
S1131D80EC010895AF92BF92CF92DF92EF92FF924F
S1131D900F931F935B016C016091D20261FF20C01D
S1131DA02091CA023091CB024091CC025091CD02D5
S1131DB0E090CE02F090CF020091D0021091D102B7
S1131DC0D601C501821B930BA40BB50B8E159F0581
S1131DD0A007B10728F0EAECF2E0A0E0B0E022C0EE
S1131DE0E3EDF2E06091DB0261FF75C02091D30264
S1131DF03091D4024091D5025091D602E090D7029E
S1131E00F090D8020091D9021091DA02A21AB30A12
S1131E10C40AD50AAE14BF04C006D10608F45BC0D8
S1131E20A1E0B0E060FF04C080858D7F808708C09A
S1131E302E0D3F1D401F511F208331834283538346
S1131E40AA2309F048C080918202909183029C01E8
S1131E502170307080FF04C02130310599F513C022
S1131E608091EC01882371F58091C9019091CA0198
S1131E7080931F0210922002109221029F938F934D
S1131E8080E091E013C08091EC018823D9F4209183
S1131E90C9013091CA0120931F021092200281E0EF
S1131EA0809321023F932F9387E291E09F938F9336
S1131EB00E94B2210E94C70B0E948E0E0F900F90B9
S1131EC00F900F90809182029091830201969093DB
S1131ED083028093820281E00E9488011F910F9106
S1131EE0FF90EF90DF90CF90BF90AF9008951F9335
S1131EF0CF93DF93182FEB01E82FFF27EE0FFF1F7F
S1131F00EF53FD4F118210821092D501E091C1026E
S1131F10F091C202309721F08091C40480FF0FC079
S1131F2081E08093D50103C08EE00E9488011123D3
S1131F30C1F4C351D240A9F41092EC0112C0208123
S1131F402D50332767817727762F66278681992737
S1131F50682B792BAF0183850E94240E882339F3E3
S1131F60E3CFDF91CF911F9108959B018091D5011B
S1131F70882349F46091C1027091C2026217730709
S1131F8011F40E94770F08951F93CF93DF93182FB6
S1131F908FB7F894C82FDD2760E080E00E944303E8
S1131FA0882321F0CFBF80E090E005C0CFBF812F10
S1131FB00E94B2039927DF91CF911F910895EF9268
S1131FC0FF920F931F93CF93DF93182F7B01042F5E
S1131FD08FB7F894C82FDD2760E080E00E944303A8
S1131FE0882321F0CFBF80E090E014C0CFBF1064FD
S1131FF0812F99279093AB028093AA020E94B20387
S1132000182F402F5527B70180E090E00E94530419
S1132010812F9927DF91CF911F910F91FF90EF901E
S11320200895C09860910F027091100241E08FE30F
S11320300E94DF0F089582E090E090937A028093EB
S1132040790281E08093860220E030E08091CB0128
S1132050843011F421E030E0232B29F484E00E9441
S11320607503882319F40E941110089584E00E94D6
S11320705C0C08951F920F920FB60F9211242F93A8
S11320803F934F935F936F937F938F939F93AF93FC
S1132090BF93EF93FF938091790290917A02019715
S11320A049F482E090E090937A02809379020E944E
S11320B01B1005C0809180028F5F80938002FF9186
S11320C0EF91BF91AF919F918F917F916F915F91AC
S11320D04F913F912F910F900FBE0F901F90189525
S11320E01F938091F101882309F04BC01091CB011B
S11320F01F3F09F046C060E00E944303882309F4AF
S113210040C081E080935E03809160028823E1F106
S113211010925E0385E090E045C0923069F5C09A64
S11321208091CC0120E030E08F3F11F421E030E0D9
S1132130232BE9F41093CE018F3F19F42FEF30E0F5
S11321400DC0282F3327F901E256FD4F808180937B
S1132150CC018F3F11F41093CD01108320938102A1
S113216081E08093F2018AE00E94880105C0109307
S1132170CE011092F20111C08091F201882369F01E
S11321800FC081E090E00EC08091CE019091F201E9
S1132190882319F2923021F0EFCF80E00E9454039B
S11321A080E090E01F9108951F93CF93DF939FB732
S11321B0F894C92FDD271C2F9091CB01981721F09B
S11321C0CFBF81E090E03AC08FEF8093CB01309194
S11321D0F1013323F1F48FB7F894992710924F0348
S11321E08FBF0E947010CFBF11C02093CB0181E03C
S11321F090E002C0880F991F4A95E2F78095382332
S11322003093F10188E00E9488011FBF80E090E0D4
S113221015C080E065E0E32FFF270E94F320292FFB
S1132220492F5527CF01042E02C0959587950A940E
S1132230E2F780FDDACF822F8F5FEFCFDF91CF916E
S11322401F9108951F93CF93DF938FB7F894C82FEE
S1132250DD271C2F8091790290917A02892B29F431
S113226084E00E94D410CFBF1EC0109286028091D9
S11322708002882311F0B79904C00E9908C08823FE
S113228019F08150809380020E941B100BC081E0E2
S113229090E090937A02809379021092800284E015
S11322A00E94D4101FBFDF91CF911F9108950E9407
S11322B07B04C09AC09888E00E94C40F88E00E9402
S11322C0C40FC09A84E00E94D4100E942211089581
S11322D01F93182F81E090E09093F4018093F30111
S11322E0109260020E9470108FB7F894992710938F
S11322F0ED018FBF84E00E9488011F910895CF9261
S1132300DF92EF92FF920F931F93CFB6F894DD24E0
S11323100E949604DC01CB0166E470E00E94FF2079
S11323201BE0E12EF12CE80EF91EF0920305E09279
S113233002050E94160500271127A80197010E9493
S1132340D305CFBE1F910F91FF90EF90DF90CF90F8
S113235008951F93CF93DF938FB7F894C82FDD2789
S11323601C2F8091F3019091F4010897C9F489E03E
S11323700E94C40F83E00E94D410C09A81E090E0D0
S11323809093F4018093F3018FB7F894992723E095
S11323902093ED018FBF84E00E948801CFBF30C03D
S11323A0C09880910605882311F085E001C084E07F
S11323B00E94C40F83FD09C080E00E94C40F83FF04
S11323C004C085E090E020E003C083E090E021E0D9
S11323D09093F4018093F301C09A1FBF222341F02C
S11323E01092470283E00E94D4100E947F1108C01B
S11323F00E94160520E431E040E050E00E94D3053D
S1132400DF91CF911F910895EF92FF920F931F9345
S1132410CF93DF938B018091AA029091AB0286FF48
S113242040C18F7B8F3309F08EC1C0910F02D091D0
S11324301002588150937B028091790290917A0224
S11324408530910509F443C08630910509F48AC0AA
S1132450029709F01FC185E090E090937A0280937F
S1132460790240915E02852F99270196242F332704
S1132470281739074CF1B79906C00E9904C0451BBB
S1132480415040935E0240917B024A32E8F4442377
S1132490A1F0BE016F5F7F4F483018F047E050E075
S11324A007C086E090E090937A02809379025527E2
S11324B080E090E00E94530446C110928602C09AC4
S11324C084E00E94D410E3C00E9457113CC186E00E
S11324D090E090937A028093790280918E0288230F
S11324E009F439C0809154038823A9F5898185FFB3
S11324F032C08F814E812FB7F89433276091A402A4
S11325007091A5022FBF9927982F88275527842BD0
S1132510952B8617970759F08F812E819927982F2D
S113252088273327822B932B8F5F9F4FA1F48981B8
S11325308770813081F4C09AC0988AE00E94C40FE9
S1132540C09AC09840917B0247502896BE018FE301
S11325500E94DF0FF8C040917B0247505527289610
S1132560BE01A6CFC09A80918002882339F484E00A
S11325700E94D41080918002882311F0B7990AC078
S11325800E9B08C09091BE04992321F080917B0298
S11325908B3038F480910F02909110020E948704CE
S11325A03DC0913001F5E091C304FF27EE0FFF1FFA
S11325B0EE0FFF1FE859FB4F208131814281538187
S11325C0E0910F02F091100221ABBB27A52F942FAD
S11325D0832F80ABCA01AA27BB2787A7252F3327C0
S11325E04427552726A78091C3049927019668E0BC
S11325F070E00E9413218093C3048091BE04815033
S11326008093BE04882351F080910F0290911002B0
S11326100E9487041092C3041092BE0480917B022E
S1132620FE01E80FF11D808187FF31C0012B79F194
S113263069816770E0910F02F0911002623019F520
S1132640A0918F02B0919002109709F18091F3014B
S11326509091F4010797D9F4ED019B818381981738
S1132660B1F487B78F7E87BF908181E08CA7E90F93
S1132670F11D8291319688A780818F7789A780E0A8
S11326800E94681104C0613011F48BE02AC00E94DA
S1132690221159C010928602C09A84E00E94D4107C
S11326A052C08E3309F04FC0C09A8091F3019091CB
S11326B0F4010897C9F4C09889E00E94C40FC09A35
S11326C083E00E94D41081E090E09093F401809321
S11326D0F3018FB7F894992723E02093ED018FBF7E
S11326E084E00E9488012FC080910605882349F464
S11326F084E090E09093F4018093F3010E94A91187
S113270022C083E00E94D41083E090E09093F4010F
S11327108093F3010E949604DC01CB0166E371E02F
S11327200E94FF200BE0E02EF12CE80EF91EF0923F
S11327305902E09258020E94160500271127A801A9
S113274097010E94D305DF91CF911F910F91FF90C4
S1132750EF9008951F920F920FB60F9211242F93AA
S11327603F934F935F936F937F938F939F93AF9315
S1132770BF93EF93FF932FB1E0914403F09145038E
S1132780309739F08091BF029091C002E80FF91F91
S113279020838091BF029091C00201969093C00261
S11327A08093BF0280E00E945A034091110250912D
S11327B012028091BF029091C0028417950718F409
S11327C00E94E5031CC0609144037091450380910D
S11327D0C9049091CA0410924503109244031092C4
S11327E0CA041092C904109212021092110210929B
S11327F0C0021092BF022FB120E00E940412FF9188
S1132800EF91BF91AF919F918F917F916F915F9164
S11328104F913F912F910F900FBE0F901F901895DD
S113282078941F920F920FB60F9211242F923F9219
S11328304F925F926F927F928F929F92AF92BF92CC
S1132840CF92DF92EF92FF920F931F932F933F93B8
S11328504F935F936F937F938F939F93AF93BF93A4
S1132860CF93DF93EF93FF93C6B5D7B58FB7F894A3
S1132870282E0E9416059B012C1B3D0B442755272F
S11328802B013C01421A530A640A750A8091F30130
S11328909091F4018530910521F0069709F0E0C08C
S11328A0BFC086E090E09093F4018093F30131E09F
S11328B0332E309285021092F50180E00E94390691
S11328C0E0918F02F091900241AABB27A72D962D8B
S11328D0852D80ABC301AA27BB2787A7872D9927FE
S11328E0AA27BB2786A7E0918F02F091900285A5C5
S11328F0882309F484C06081655077274F01860ED0
S1132900971EF4012081E1808281A3809927AA2760
S1132910BB27BA2FA92F982F882733274427552759
S1132920522F442733272227FF240027112787010A
S1132930FF24EE242E293F29402B512BBB24CC24E9
S1132940DD242A293B294C295D29822B932BA42B96
S1132950B52B84199509A609B7098383292F3A2F22
S11329604B2F552722839D014427552721838B2FE5
S11329709927AA27BB278083C09824E0A40180E07C
S113298090E00E94D30CC09AF4012081E1808281FE
S1132990A3809927AA27BB27BA2FA92F982F882766
S11329A0332744275527522F442733272227FF2430
S11329B0002711278701FF24EE242E293F29402BCD
S11329C0512BBB24CC24DD242A293B294C295D2905
S11329D0822B932BA42BB52B840D951DA61DB71DFF
S11329E08383292F3A2F4B2F552722839D01442778
S11329F0552721838B2F9927AA27BB278083E09112
S1132A008F02F0919002818185FF02C030926002B2
S1132A1083E00E94D41087B78F7E87BF84997AC0E1
S1132A201092850281E00E943906E0918F02F091B4
S1132A309002818185FF0FC087E090E09093F401BC
S1132A408093F3010E94160520E031E040E050E05D
S1132A500E94D30503C080E00E946811849B5AC081
S1132A608091F501882391F580918502882371F581
S1132A7011E0109385020E94390680B32091BE04B0
S1132A80283098F4E091C304E20FFF27E770F07058
S1132A90EE0FFF1FEE0FFF1FE859FB4F40825182DC
S1132AA0628273822F5F2093BE041093F501D0934A
S1132AB0AD02C093AC0284992DC09927A4E09695E9
S1132AC08795AA95E1F7182F117001C010E0809145
S1132AD085028130F9F4109285020E943906109221
S1132AE0F5011123B9F48091AC029091AD02C81B99
S1132AF0D90B2A9778F48091BE04882319F0815069
S1132B008093BE0480918F0290919002009711F0FF
S1132B100E9487042FBEFF91EF91DF91CF91BF9167
S1132B20AF919F918F917F916F915F914F913F9161
S1132B302F911F910F91FF90EF90DF90CF90BF9056
S1132B40AF909F908F907F906F905F904F903F9049
S1132B502F900F900FBE0F901F90189578941F928E
S1132B600F920FB60F9211241F932F933F934F93FD
S1132B705F936F937F938F939F93AF93BF93EF93E1
S1132B80FF9387B78F7E87BF78941FB7F89480919F
S1132B909A0290919B02A0919C02B0919D02009791
S1132BA0A105B10509F051C08091F3019091F401A0
S1132BB08530910561F18630910530F483309105BB
S1132BC049F0049781F51AC087309105F1F0089710
S1132BD051F514C0869B0FC084E090E09093F401FB
S1132BE08093F3010E94160527E030E040E050E0B6
S1132BF00E94D30518C00E947F1115C00E94B40C16
S1132C00882389F40E94A9110EC080E00AC089E0DB
S1132C100E94C40F81E00E94390683E00E94D41010
S1132C2087E00E9468118091EE019091EF01019775
S1132C3071F482E090E09093EF018093EE01DE98CE
S1132C40DE9A80E00E945C0C02C00E943305812F52
S1132C5099278FBFFF91EF91BF91AF919F918F9172
S1132C607F916F915F914F913F912F911F910F90A1
S1132C700FBE0F901F90189561E081E00E94290318
S1132C808823E9F48FB7F894282F33278091EE0135
S1132C909091EF01892B11F02FBF20C081E090E0CB
S1132CA09093EF018093EE012FBFDD9A0E941605E9
S1132CB024E130E040E050E00E94D3050FC062E020
S1132CC081E00E944303882319F089E090E008958D
S1132CD061E081E00E944303882319F080E090E0E2
S1132CE0089585E090E00895AF92BF92CF92DF926D
S1132CF0EF92FF920F931F93CF93DF93CDB7DEB77D
S1132D00A8970FB6F894DEBF0FBECDBFE82FFF27FC
S1132D10E831F10508F06BC6EA5BFF4FEE0FFF1FC9
S1132D200590F491E02D09948091C404882309F45A
S1132D305EC640E051E098C480919802882309F46B
S1132D4056C690E011E0C1C480917D02882361F5EC
S1132D5020916404309165044091660450916704A5
S1132D60EFB7F894FF2760914B0370914C03809167
S1132D704D0390914E03E0905A02F0905B02009153
S1132D805C0210915D026E0D7F1D801F911FEFBFCD
S1132D90209364043093650440936604509367045D
S1132DA010927D020E94F6060E944C066EC00E949C
S1132DB04C065B016C018FB7F89499271092B60208
S1132DC08FBF8091D20281FF25C08091CA02909169
S1132DD0CB02A091CC02B091CD02A6019501281B93
S1132DE0390B4A0B5B0BE090CE02F090CF020091BE
S1132DF0D0021091D102E21AF30A040B150B3FEF33
S1132E00E3163FEFF3063FEF03073FE7130711F025
S1132E1061E009C07FEFE72E7FEFF72E7FEF072FEA
S1132E207FE7172F60E08091DB0281FF24C080914F
S1132E30D3029091D402A091D502B091D602A601FA
S1132E409501281B390B4A0B5B0BDA01C901209150
S1132E50D7023091D8024091D9025091DA02281B4E
S1132E60390B4A0B5B0B2E153F05400751071CF429
S1132E7079018A0103C0662309F4B9C51E141F042D
S1132E80100611062CF0C601B5010E94C20EAFC592
S1132E90E0926404F092650400936604109367045E
S1132EA081E080937D02A8019701C601B5010E94CB
S1132EB0F6069DC50FB7F894112781E00E943906E4
S1132EC061E0E62EF12CF092F401E092F30110920D
S1132ED0F5011092600210927E020FBF0FB7F894B2
S1132EE011270E947B04F0927A02E09279021092F8
S1132EF0860289B78F7B89BF80E488BF8AB78062E6
S1132F008ABF8AB78F7E8ABF89B7806489BF0FBFA3
S1132F108FB7F894082F11278091EE019091EF015B
S1132F20049719F483E00E94C40F0FBF0FB7F894FD
S1132F301127C09A80E00E94D4100FBF8FB7F89475
S1132F40992722E0209350038FBF0E944C06609380
S1132F50CA027093CB028093CC029093CD0288E88E
S1132F6093E1A0E0B0E08093CE029093CF02A093CF
S1132F70D002B093D1028091D2028E7F826080937E
S1132F80D20281E02EC58FB7F8949927109250038E
S1132F9071C08FB7F8949927F090ED018FBF63E06B
S1132FA081E00E944303882359F10FB7F894112755
S1132FB01092F4011092F30187B78F7E87BF87B711
S1132FC08F7D87BF83E00E94D410C09A0FBF0FB7D4
S1132FD0F894112710927A02109279020E947B04CD
S1132FE0C09A89B78F7B89BF0FBF1092EF011092EF
S1132FF0EE01DE98DD98DE9A83E00E94880107C026
S11330008FB7F894992722E0209350038FBF009143
S1133010B4021091B5020E9474048091C504909189
S1133020C604892B09F0E3C48FEF8093D2014F2D9E
S1133030B8010EC38FB7F894282F3327122F80912D
S11330400405882301F581E0809304058091EE0155
S11330509091EF01049721F481E00E945C0C03C07D
S113306086E00E9488011FBFC2C48FB7F8949927D5
S113307010920405AAC48FB7F894282F332780919F
S1133080F001882311F02FBFB2C42FBF80B399275A
S113309056E0969587955A95E1F7182F11709091FF
S11330A0A6028091A7028917D9F01917C9F484E000
S11330B090E09093EF018093EE018FB7F8949927F5
S11330C021E02093F0018FBF60E070E08DE10E9469
S11330D0BE030E94140DC09AC09882E00E94880129
S11330E01093A70287E07DC48FB7F89499271091B5
S11330F0CB018FBF123009F465C0133030F41123B3
S113310059F0113009F073C448C0133009F474C085
S1133110143009F06CC4A0C0C0988FB7F894082F7D
S113312011278091EE019091EF010297A1F583E0C0
S113313090E09093EF018093EE0168E170E08DE1FF
S11331400E94BE0381E08093A6021092F00180B336
S1133150992746E0969587954A95E1F78170907096
S11331608093A70287E00E94880181E00E94C40F37
S11331706FE772E08CE10E94BE030E94EE050E949C
S1133180FF0566E57AE287E10E94BE036FEF70E80F
S113319085E10E94BE030FBF2AC4C09886E00E9446
S11331A0C40F0E94EE050E94FF050E94140DC09AF0
S11331B0C09883E00E94C40FC09A81E00E94D4109A
S11331C086E00FC4C0988FB7F894082F112760E0E9
S11331D080E00E944303882311F00FBF0AC00FBF91
S11331E083E50E94B20380E00E94B20380E00E9463
S11331F0B203C09A82E02DC08FB7F894992720912A
S1133200F3018FBF243039F0283041F0223001F52A
S11332100E944C0DECC30E94A911E9C3C09889E037
S11332200E94C40FC09A83E00E94D4108FB7F89410
S1133230992721E030E03093F4012093F3018FBF0C
S11332408FB7F89499271093ED018FBF84E0C9C319
S113325083E00E94D410CBC30E941110C8C30FB7DF
S1133260F894112740911102509112026091440385
S1133270709145038091C9049091CA04109245034A
S1133280109244031092CA041092C90410921202BC
S1133290109211021092C0021092BF0220E00E940C
S11332A0041279CF2FB7F894332780918102809349
S11332B0CE0182E08093F2012FBF8091CE0188235A
S11332C009F095C3B89AC09888E08BC3A0910F0207
S11332D0B0911002DC909D012D0D311DF90180810A
S11332E0881F8827881FFD0183A7F90180818F77B4
S11332F0FD0181A721503040F9018081FD0180A7A3
S1133300A0910F02B0911002FD0132818FB7F894A1
S1133310992720917F028FBF222309F490C0832F25
S113332099279695879596958795837090708230A6
S1133330910541F5878146812FB7F8943327609131
S1133340A4027091A5022FBF9927982F882755278B
S1133350842B952B8617970719F481E090E06CC0B5
S1133360FD018781268140E050E09927982F882726
S11333703327822B932B8F5F9F4F11F441E050E052
S1133380CA015AC0039709F03AC19E012F5F3F4F0B
S113339045E553E088E0FA010190AF01F90101929B
S11333A09F018150C1F79E012F5D3F4FAE014F5FDA
S11333B05F4F88E0FA010190AF01F90101929F018A
S11333C08150C1F79E01275F3F4FAE014F5D5F4FB4
S11333D088E0FA010190AF01F90101929F01815047
S11333E0C1F79E012F5E3F4FAE01475F5F4F88E0FC
S11333F0FA010190AF01F90101929F018150C1F7D7
S11334009E01275E3F4FAE014F5E5F4F88E0FA0199
S11334100190AF01F90101929F018150C1F748E089
S113342050E0BE01675E7F4FCD0106960E949E214B
S1133430892B09F0E4C003C0882309F4E0C0FCE050
S1133440FD1508F0DCC0E0900F02F0901002F701C7
S11334502281822F992716E0969587951A95E1F790
S1133460039719F468E070E002C062E070E0822F14
S1133470992796958795969587958370907003976D
S113348019F488E090E002C082E090E026E030E0A9
S1133490E20EF31E40E050E020E030E0F701E80FD8
S11334A0F91F8AEF9FEFE80EF91E05C08191480FBE
S11334B0511D2F5F3F4F26173707C4F3F701638170
S11334C08FEF8093C7048FB7F894782F20E030E013
S11334D0ECE4F2E0808191818417950729F48281DC
S11334E0861731F12093C7042F5F3F4F3396243062
S11334F0310581F77FBF9091C7043FB7F8949F3F90
S113350021F08091F6018917A9F42091F601822F08
S11335109927FC01EE0FFF1FE80FF91FE45BFD4F35
S11335205183408362832F5F23702093F6010EC082
S11335307FBF61C0892F9927FC01EE0FFF1FE80FA1
S1133540F91FE45BFD4F518340836283832F9927E6
S11335508FBF0FB7F8941127C7010E94E502FC0141
S113356090810FBFF70183A5882309F444C09F33DA
S113357009F041C0878146812FB7F89433276091C1
S1133580CF017091D0012FBF9927982F88275527F5
S1133590842B952B8617970759F0878126819927C5
S11335A0982F88273327822B932B8F5F9F4F19F5F2
S11335B0F70183858630F9F4F3E1DF16E1F4F701CE
S11335C0848599279F938F938091C9019091CA0113
S11335D09F938F938CE491E09F938F930E94B221E9
S11335E00E94C70B2DB73EB72A5F3F4F0FB6F89422
S11335F03EBF0FBE2DBFF0921002E0920F028FB7B4
S1133600F8949927109286028FBF0E942211EFC16D
S1133610909195028091D201981709F4E8C1909392
S1133620D2019923D1F40091F7011091F80160912E
S1133630B202C8010E94920D482F5527442309F471
S1133640D6C18FEF8093D2016091F7017091F80198
S1133650F80183850E94B50FCAC18FEF8093D20110
S1133660C6C10E948B0297CD9091C404852F8923F3
S1133670C1F0E42FFF27EE0FFF1FEF53FD4F208112
S1133680318111821082852F809598239093C404F0
S1133690442339F42351324009F0A6C11092EC01BD
S11336A0A3C14F5F483008F0A2C1550FDDCF809110
S11336B0D501E82FFF27EE0FFF1FEF53FD4F608169
S11336C0718141E00E94770F92C120919802812F6D
S11336D08223C1F0E92FFF27EE0FFF1FE857FB4FAE
S11336E04081518111821082812F8095282320935B
S11336F09802992339F463E0CA010E94C30C110FA4
S113370091E0E3CF9F5F983008F071C1110FDDCFD6
S11337101091D601E12FFF27EE0FFF1FE857FB4F53
S1133720E080F180118210820E945F02112309F06F
S11337305EC161E0C70126C18FB7F89410920105FC
S11337402091470340E0283009F441E030E029307B
S113375009F431E0442311F4332351F01092470368
S1133760E091C902FF27EE0FFF1FE255FD4F1082C3
S113377099278FBF442311F4332331F19FB7F89471
S11337808091C2048F5F8093C20480919F0283342E
S113379079F42091B8028091B702821779F0822FD0
S11337A08F5F8093B802863048F01092B80206C04A
S11337B0A0E0442309F4A1E071E002C0A0E070E0BD
S11337C0892F99278FBF06C0222311F0FF246DC0D3
S11337D0A0E070E08FB7F89499272091F9018FBF8A
S11337E0222341F08FB7F89499272AE020934703C6
S11337F08FBF42C08FB7F89499276091AE02409171
S1133800B0028FBF8FB7F894282F332750E09091E0
S1133810B7028091B802981709F451E02FBF5523DD
S113382041F5662331F55FB7F89482E08093AE02E8
S11338308FB7F894282F332740E09091B7028091F6
S1133840B802981709F441E02FBF442311F080E037
S113385006C0E091B802FF27E954FD4F82818093AE
S1133860AF0283E480939F021092C902852F9927A7
S11338700EC04150423010F0FF240CC08FB7F894B2
S1133880992725E420939F0221E02093C9028FBF4A
S1133890E1E0FE2E772349F08FB7F8949927A0939F
S11338A002028FBF85E10E9488018FB7F894082F28
S11338B01127809147038A3009F4D3CE0FBFFF202C
S11338C009F495C02FB7F894332710920805109285
S11338D007051092990281E0809347032FBF0E944D
S11338E0D102882309F483C08FB7F894992729E07B
S11338F0209347038FBF0E94AF0179C05698579811
S11339001092460310928A02539A549A579A8FB788
S1133910F89499271092470310928702ABCB84E165
S113392060C05398549863C01092FF011092FE0136
S11339308FB7F8949927F09002028FBF8091030209
S1133940882311F063E0F62E2091FC013091FD01F3
S113395080910402882309F04AC08091D60188230B
S113396009F045C0009188041091890402171307D7
S113397009F03DC010928904109288040E945F02ED
S11339806F2DC8010E94C30C32C08FB7F8949927D9
S1133990209107023091080240915F028FBF8FB7D8
S11339A0F894E42FFF27EE0FFF1FE852FE4F3183F8
S11339B020832091FA01442311F02B7F01C02D7F35
S11339C02093FA011092050299278FBF10C04CE191
S11339D06BEC74E08FEF9FEF0E941E02882339F096
S11339E087E10E94880103C0550F41E03DCEA896AF
S11339F00FB6F894DEBF0FBECDBFDF91CF911F91FC
S1133A000F91FF90EF90DF90CF90BF90AF9008950B
S1133A108091BF048F3FB1F0282F3327F901EF596C
S1133A20FD4F80818093BF048F3F11F4809305057F
S1133A308FEF80832F3F31F0822F0E94741681E034
S1133A4090E0089580E090E00895FF920F931F9313
S1133A50CF93DF93CDB7DEB7E0970FB6F894DEBF10
S1133A600FBECDBFFFB6F89448E150E06FEF70E0B1
S1133A7081E692E00E94AB218FEF8093BF04809394
S1133A80050581E08EBD88E080BF83E083BF8CB5EF
S1133A909DB54AE72CB53DB52817390708F44150C0
S1133AA0442311F0C901F6CF92B782B78917E9F31D
S1133AB02CB53DB592B782B78917E9F38CB59DB59E
S1133AC0821B930B4096A5E096958795AA95E1F7FE
S1133AD09093C1048093C00413BE83B78EBD8EB58A
S1133AE080BF12BE1DBC1CBC8FEF86BF86B78093FF
S1133AF07C0080B7992787709070892BD1F7D29A70
S1133B00D19AD09ADA9AD99AD89A15BA8FEF84BBF7
S1133B10D498DC98109289001092880080917D00DE
S1133B20846080937D0080918A00887F8260809386
S1133B308A001DBC1CBC87B7846087BF8EB5887F94
S1133B4084608EBD0E94081D8823E1F78EED91E00C
S1133B5090930E0580930D0512E006E06091C00479
S1133B607091C10488279927FCE0660F771F881F8E
S1133B70991FFA95D1F720E031EE40E050E00E9421
S1133B8026212150304029B9832F99278093900012
S1133B901BB9009395001AB820939900809398005C
S1133BA010939B0000939D0010929A0084E490E08F
S1133BB09093600480935F041092AE021092B0025E
S1133BC08AE0809347031092990210929F02109208
S1133BD0C204109208051092070510920105109274
S1133BE0C90210925B0410925A0484E08093870205
S1133BF0109249031092630410928B021092C60231
S1133C001092C5021092B8021092B70210920E02DE
S1133C108FEF80938402ECE4F2E08FEF9FEF9183C7
S1133C2080831282339622E0E835F207C1F70E94BE
S1133C30960460935F038091C9019091CA01019633
S1133C40AA27BB278093910290939202A093930298
S1133C50B09394028AE894E09093100280930F0248
S1133C608E98B89A8C988FEF80939E0210924F038F
S1133C70109250031092510310925203B89AD69A9C
S1133C80D59A8FB7F89499272091CF013091D0011C
S1133C908FBF3093A5022093A4020E94100729A786
S1133CA03AA74BA75CA76DA77EA78FA798ABDE01A9
S1133CB09196FE01B99688E001900D928150E1F74A
S1133CC0DE015196FE01B19688E001900D9281507B
S1133CD0E1F7DE015996FE01719688E001900D929C
S1133CE08150E1F7A5E5B3E0FE01799688E0019003
S1133CF00D928150E1F78091D101992790938D0223
S1133D0080938C028FE180934A038AE180935D0360
S1133D100E94100729A73AA74BA75CA76DA77EA707
S1133D208FA798ABDE019196FE01B99688E00190C9
S1133D300D928150E1F7DE011196FE01B19688E003
S1133D4001900D928150E1F7DE011996FE01319642
S1133D5088E001900D928150E1F7A5E5B3E0FE0102
S1133D60399688E001900D928150E1F7A5E5B3E022
S1133D70FD0137969C9180818D939083319783E0E8
S1133D80E835F807B9F781E080937F021092C80400
S1133D9080938E021092540380B7886080BF8BE0BA
S1133DA083BF86EE81BF87B7826087BF0E94730698
S1133DB00E94081D8823E1F78F2D99278FBF7894DF
S1133DC08FB7F894282F3327922F809147038A3096
S1133DD031F080918702843011F02FBF04C09FBF5F
S1133DE082E10E9488018091C9019091CA019F9348
S1133DF08F938EE991E09F938F930E94B2210E944A
S1133E00C70B0E943C160F900F900F900F908FB726
S1133E10F894482F55274BC087B799278370907023
S1133E20892B19F4E5E0F0E013C080B79927877077
S1133E309070892BD1F781B792B7891B8C3030F001
S1133E4082B7853F18F4E3E0F0E002C0E2E0F0E07E
S1133E5087B7887BC1F480917D008B7FA1F46E9934
S1133E6012C08AB190919A00892B887161F4809173
S1133E70740082FD08C0379B03C081E090E005C058
S1133E8085E090E002C080E090E025B78E1708F44A
S1133E90E82FFF27E454FD4FE491237E2062E22BB8
S1133EA0E5BF78948895F89485B78F7D85BF809118
S1133EB0BF048F3F09F4B0CF282F3327F901EF59FE
S1133EC0FD4F80818093BF048F3F11F480930505DB
S1133ED08FEF80832F3F09F49FCF4FBF822F0E9423
S1133EE0741695CFACE2B0E0E8E7FFE10C946721EB
S1133EF0222E332E442E552E662E772E882E992E62
S1133F00FE013196A8E01192AA95E9F729823A8236
S1133F104B825C826D827E828F829886FE01399606
S1133F20B8E01192BA95E9F7A986BA86CB86DC8601
S1133F30ED86FE860F87188B89819A81AB81BC81BF
S1133F4089A79AA7ABA7BCA77C018D018FEF9FEF30
S1133F50A0E0B0E0E822F9220A231B2389A59AA550
S1133F60ABA5BCA51D014424552489859A85AB8540
S1133F70BC858DA39EA3AFA3B8A75C016D018FEF91
S1133F809FEFA0E0B0E0A822B922CA22DB228DA1D3
S1133F909EA1AFA1B8A53D0188249924C801B70109
S1133FA0A60195010E94482169A37AA38BA39CA32F
S1133FB0C801B701A40193010E9448217B018C012F
S1133FC0C201B101A60195010E9448215B016C0167
S1133FD0C201B101A40193010E9448213B014C019B
S1133FE0EA0CFB1C0C1D1D1D89A19AA1ABA1BCA14F
S1133FF09D01442755272E0D3F1D401F511F2A1593
S11340003B054C055D0540F480E090E0A1E0B0E0A4
S1134010680E791E8A1E9B1ECA01AA27BB27860D1D
S1134020971DA81DB91D8D8F9E8FAF8FB8A3A901B1
S11340303327222789A19AA1ABA1BCA1A070B0709B
S1134040280F391F4A1F5B1F298F3A8F4B8F5C8FB4
S1134050A98CBA8CCB8CDC8CED8CFE8C0F8D18A1CA
S1134060FE01719698E011929A95E9F7ED8AFE8A1D
S11340700F8B188F2D813E814F8158856DA17EA1B4
S11340808FA198A50E9448213B014C012D853E85B6
S11340904F85588969A57AA58BA59CA50E944821BE
S11340A02D893E894F89588D260F371F481F591F68
S11340B0260D371D481D591D2D8B3E8B4F8B588F58
S11340C06D887E888F88988C2A2D3B2D4C2D5D2DF4
S11340D0662D772D882D992DE2E1AC960C948321E1
S11340E0A0E1B0E0E6E7F0E20C946721222E332E43
S11340F0442E552E662E772E882E992E002309F4F1
S113410066C088E0FE01319611928A95E9F7298309
S11341103A834B835C836D837E838F829887E0E24E
S1134120E01B1E16CCF52D813E814F815885602FF2
S1134130772767FD7095DA01C901062E04C0B6958C
S1134140A795979587950A94D2F78D879E87AF8711
S1134150B88B04C0220F331F441F551FEA95D2F7B2
S113416089819A81AB81BC8104C0B695A795979546
S113417087956A95D2F7282B392B4A2B5B2B2987F5
S11341803A874B875C8729843A844B845C846D84AA
S11341907E848F8498881BC01D861E861F86188A7D
S11341A02E2F332727FD3095309521953F4F8D8154
S11341B09E81AF81B88504C0B695A79597958795DC
S11341C02A95D2F789879A87AB87BC87DCCF222DC3
S11341D0332D442D552D662D772D882D992DE2E113
S11341E060960C948321991B79E004C0991F96175B
S11341F008F0961B881F7A95C9F780950895AA1B25
S1134200BB1B51E107C0AA1FBB1FA617B70710F0BD
S1134210A61BB70B881F991F5A95A9F780959095EF
S1134220BC01CD01089597FB092E07260AD077FD1E
S113423004D0E5DF06D000201AF4709561957F4F15
S11342400895F6F7909581959F4F0895A1E21A2E4F
S1134250AA1BBB1BFD010DC0AA1FBB1FEE1FFF1F26
S1134260A217B307E407F50720F0A21BB30BE40B76
S1134270F50B661F771F881F991F1A9469F76095BD
S11342807095809590959B01AC01BD01CF01089577
S1134290629FD001739FF001829FE00DF11D649F26
S11342A0E00DF11D929FF00D839FF00D749FF00DB2
S11342B0659FF00D9927729FB00DE11DF91F639F53
S11342C0B00DE11DF91FBD01CF01112408952F92F6
S11342D03F924F925F926F927F928F929F92AF9292
S11342E0BF92CF92DF92EF92FF920F931F93CF93DF
S11342F0DF93CDB7DEB7CA1BDB0B0FB6F894DEBF76
S11343000FBECDBF09942A88398848885F846E849B
S11343107D848C849B84AA84B984C884DF80EE80E5
S1134320FD800C811B81AA81B981CE0FD11D0FB6EE
S1134330F894DEBF0FBECDBFED010895FB01DC0193
S113434004C08D910190801921F441505040C8F768
S1134350881B990B0895DC0101C06D9341505040B6
S1134360E0F70895A2E0B0E0E8EBF1E20C947721E5
S1134370FE01379661917191FA83E983AF018091CF
S11343800D0590910E050E94C921E2E022960C943D
S11343909321ABE0B0E0EFECF1E20C9469213C0135
S11343A04B016A01FC0117821682838181FD03C0DF
S11343B08FEF9FEFDAC1F3013381F40133FD85916F
S11343C033FF81914F01882309F4CCC1853239F43C
S11343D033FD859133FF81914F01853229F4B30177
S11343E099270E94CF23E7CF00E0442455244AE0D4
S11343F00032B0F48B3269F08C3228F4803251F000
S1134400833271F40BC08D3239F0803349F401608A
S113441028C00260046025C0086023C0006121C078
S113442007FD29C0282F20532A3078F406FF06C040
S1134430549EC0011124522E580E13C0449EC00134
S11344401124422E480E00620CC08E3221F406FD67
S113445089C1006406C08C3611F4006802C0883635
S113446051F4F40133FD859133FF81914F01882389
S113447009F46FC0BDCF982F8554833018F0805253
S1134480833038F424E030E0C20ED31E8FE38983F6
S11344900FC0933631F0933799F0933509F05BC030
S11344A023C0F6018081898322E030E0C20ED31E4E
S11344B07E010894E11CF11C51E0A52EB12C12C020
S11344C0F601E080F18006FD03C06FEF7FEF02C0CC
S11344D0652D772722E030E0C20ED31EC7010E946B
S11344E0C4235C010F7713C0F601E080F18006FD60
S11344F003C06FEF7FEF02C0652D772722E030E025
S1134500C20ED31EC7010E94B9235C01006803FFD9
S113451007C01BC0B30180E290E00E94CF234A94FD
S1134520842D9927A816B906A8F30FC0F70107FD33
S1134530859107FF81917F01B30199270E94CF23C1
S113454041104A940894A108B108A114B10471F768
S113455006C190E03EC0943611F0993691F507FFFC
S11345600AC0F601608171818281938124E030E088
S1134570C20ED31E0DC0F601808191819C01B90148
S1134580882777FD8095982F42E050E0C40ED51E11
S11345904FE6B42EB02297FF09C090958095709590
S11345A061957F4F8F4F9F4F50E8B52A8E010F5F63
S11345B01F4F2AE030E0A8010E94FC23A82EA01A75
S11345C04DC0953731F43FEEF32EF0222AE030E06F
S11345D023C029EFF22EF0229F3661F0903720F4A9
S11345E0983509F0BFC012C0903739F0983709F0F8
S11345F0B9C005C028E030E00FC080E1F82AF4FE1D
S113460002C094E0F92A20E130E006C0F4FE02C0C2
S1134610E6E0FE2A20E132E0F7FE0AC0F6016081FE
S113462071818281938144E050E0C40ED51E0BC099
S1134630F60180819181AC01BA0188279927E2E0D3
S1134640F0E0CE0EDF1E8E010F5F1F4FA8010E9407
S1134650FC23A82EA01A8FE7B82EBF20B6FE10C0E8
S1134660FEEFBF22A51460F42B2D332724FF1AC0BC
S113467022FF02C0052D09C02FEEB222052D01C074
S11346800A2D2B2D332724FF0EC0FE01EA0DF11D48
S11346908081803319F439EEB32209C00F5F22FF01
S11346A006C004C0052D822F867809F00F5FEB2C1D
S11346B0FF24E3FC14C0E0FE0FC0041510F05A2CD4
S11346C00BC0542C501A5A0C042D06C0B30180E2BE
S11346D090E00E94CF230F5F0415C0F304C00415BB
S11346E010F4401A01C04424E4FE10C0B30180E376
S11346F090E00E94CF23E2FE1EC0E1FE03C088E5E5
S113470090E002C088E790E0B3010CC08E2D86785B
S113471091F0E1FE02C08BE201C080E2B7FC8DE2C1
S1134720B30199270E94CF2306C0B30180E390E030
S11347300E94CF235A94A514C0F3AA94FE01EA0D53
S1134740F11D8181B30199270E94CF23AA2039F05A
S1134750F4CFB30180E290E00E94CF234A94442036
S1134760C1F729CEF30186819781E0E12B960C9461
S11347708521FC010590615070400110D8F78095A7
S113478090958E0F9F1F0895FC0161507040019019
S11347900110D8F7809590958E0F9F1F08950F9361
S11347A01F93CF93DF938C01EB018B81992781FFBA
S11347B01BC082FF0DC02E813F818C819D812817F3
S11347C0390764F4E881F9810193F983E88306C029
S11347D0E885F985802F0995892B31F48E819F8195
S11347E001969F838E8302C00FEF1FEFC801DF91F4
S11347F0CF911F910F910895FA01AA27283051F102
S1134800203181F1E8946F936E7F6E5F7F4F8F4FFD
S11348109F4FAF4FB1E03ED0B4E03CD0670F781F5C
S1134820891F9A1FA11D680F791F8A1F911DA11D41
S11348306A0F711D811D911DA11D20D009F468947A
S11348403F912AE0269F11243019305D3193DEF622
S1134850CF010895462F4770405D4193B3E00FD0D8
S1134860C9F7F6CF462F4F70405D4A3318F0495DC3
S113487031FD4052419302D0A9F7EACFB4E0A695A6
S11348809795879577956795BA95C9F700976105C8
S1134890710508959B01AC010A2E0694579547951E
S11348A037952795BA95C9F7620F731F841F951F13
S10948B0A01D0895FFCFD6
S11348B6284E4F444520257529203A20456E7669B1
S11348C6616E646F204745545F54454D50455241CF
S11348D6545552452E0A00284E4F44452025752925
S11348E6203A20456E7669616E646F204745545FB1
S11348F64C494748544E4553532E0A00284E4F44BC
S11349064520257529203A2057686174206120675F
S113491672656174206E657773212121205765279E
S11349267665206A75737420726563656976656455
S11349362061206D6573736167652066726F6D20F3
S1134946746865206E6F64652025752E0A00284EEE
S11349564F444520257529203A20496E69636961CB
S11349666C697A616E646F20436F6F7264656E6101
S1134976646F72202E2E2E0A000100FFFFFFFF0136
S11349860022FFFFFF0101FFDC021003DC0200002E
S10F4996000200000000E80B000000001C
S9030000FC
