:100000000C9461010C9487070C9491070C949B0746
:100010000C94A5070C94AF070C94B9070C94E3104B
:100020000C94C3070C9480010C9480010C94A21EC4
:100030000C94E5120C9451070C9467070C94190C5E
:100040000C9440070C9419150C948A090C948001A7
:100050000C94060A0C9480010C9480010C9480018D
:100060000C945C070C94590B0C94380B0C94430BB8
:100070000C944E0B0C946C0B0C941B0B0C94800189
:100080000C942D0B0C9480010C948001AF15E2159B
:100090006516CE16D4162517401746177F173A183F
:1000A0005D187118381A9F15871AA715B81ACC1A37
:1000B000AE1BBF1BC11BC41BF51B171C000021106E
:1000C000422063308440A550C660E77008812991C2
:1000D0004AA16BB18CC1ADD1CEE1EFF1311210026A
:1000E00073325222B5529442F772D6623993188312
:1000F0007BB35AA3BDD39CC3FFF3DEE36224433436
:1001000020040114E664C774A44485546AA54BB561
:1001100028850995EEE5CFF5ACC58DD55336722609
:1001200011163006D776F6669556B4465BB77AA7B1
:1001300019973887DFF7FEE79DD7BCC7C448E55855
:100140008668A7784008611802282338CCC9EDD901
:100150008EE9AFF9488969990AA92BB9F55AD44AA9
:10016000B77A966A711A500A333A122AFDDBDCCB51
:10017000BFFB9EEB799B588B3BBB1AABA66C877C75
:10018000E44CC55C222C033C600C411CAEED8FFDA1
:10019000ECCDCDDD2AAD0BBD688D499D977EB66E49
:1001A000D55EF44E133E322E511E700E9FFFBEEFF1
:1001B000DDDFFCCF1BBF3AAF599F788F8891A981B3
:1001C000CAB1EBA10CD12DC14EF16FE18010A1009D
:1001D000C230E3200450254046706760B98398938D
:1001E000FBA3DAB33DC31CD37FE35EF3B1029012ED
:1001F000F322D2323542145277625672EAB5CBA559
:10020000A89589856EF54FE52CD50DC5E234C3243C
:10021000A01481046674476424540544DBA7FAB72C
:100220009987B8975FE77EF71DC73CD7D326F2368C
:100230009106B01657667676154634564CD96DC978
:100240000EF92FE9C899E9898AB9ABA944586548DC
:1002500006782768C018E1088238A3287DCB5CDBCC
:100260003FEB1EFBF98BD89BBBAB9ABB754A545A2C
:10027000376A167AF10AD01AB32A923A2EFD0FED98
:100280006CDD4DCDAABD8BADE89DC98D267C076C7C
:10029000645C454CA23C832CE01CC10C1FEF3EFF6C
:1002A0005DCF7CDF9BAFBABFD98FF89F176E367ECC
:1002B000554E745E932EB23ED10EF01E00081C18EF
:1002C000141011241FBECFEFD0E1DEBFCDBF13E06D
:1002D000A0E0B1E0E2E5FAE400E00BBF02C0079065
:1002E0000D92A430B107D9F716E0A4E0B3E001C045
:1002F0001D92A932B107E1F70E94551C0C942825E4
:100300000C9400008FB7F894992708958FBF089533
:10031000282F9FB7F894E82FFF27E758FC4F8081DC
:100320008F3F81F4E0911D06E21771F40BC020931A
:10033000D70504C0FF27E758FC4F208320931D06F4
:1003400020E007C025E005C08091D7058F3F91F7D9
:10035000EECF892F99278FBF822F992708951F935A
:100360001FB7F89480911906882341F481E10E9417
:100370008801882319F481E080931906812F992739
:100380008FBF1F910895382FFA01422F2D3118F099
:1003900082E090E008956683872F992785833387CD
:1003A00021878091160390911703892B19F085E01E
:1003B00090E008952FB7F894332785E080931903D0
:1003C00010921A03F0931503E093140382E090E077
:1003D000909317038093160310921C0310921B0333
:1003E000445F409318032FBF8FB7F894282F33270B
:1003F00080915F048A3011F42FBF19C02FBF9FB7BF
:10040000F8948091C803882311F020E006C081E0B1
:100410008093C8031092C90321E0892F99278FBFC9
:10042000222329F00E94AF0180E090E0089510920D
:1004300017031092160381E090E00895CF93DF93A5
:10044000DB01FB0135968183892F9927EB018D8391
:1004500084E686838091A0059091A105892B19F0EF
:1004600085E090E029C07093A1056093A0054483C6
:100470008091EE02882319F480E090E01DC086810F
:10048000EB016D817727762F662721813327622B39
:10049000732B1092EE02242FAD010E94C301992705
:1004A000282F882339F081E08093EE021092A10575
:1004B0001092A005822F9927DF91CF910895CF93B5
:1004C000DF931092EE02A091A005B091A1051097C4
:1004D00021F08091B00380FF08C081E08093EE029C
:1004E00017C080E10E94880113C0FD013596248168
:1004F0003327ED016D817727762F66278181992734
:10050000682B792BAD0186810E94C301882349F7AE
:10051000DF91CF91089580915F048A3021F480911A
:100520009F03843021F081E080931103089583E1DB
:100530000E9488011092110308952FB7F894332771
:100540008CB95E9A2FBF0895FC016115710519F4ED
:1005500081E090E008958091C0039091C103892BC0
:1005600019F085E090E0089570937A05609379051D
:10057000F093C103E093C0031092A1031092A00373
:1005800081E08093A2035E9A569A808121E030E058
:100590003093A1032093A0030E949D0280E090E08D
:1005A00008958FB7F8949927209122032E7F2093E6
:1005B00022032EE7209394038FBF61E070E084E96B
:1005C00093E00E94A40299270895FC018281992753
:1005D000582F442781819927482B592BCA01892FED
:1005E000992786958695837090708230910559F091
:1005F0008330910559F0892B19F420E030E008C0D0
:100600002CE93FEF05C022E030E002C028E030E0F6
:10061000CA0184E0989F812D992711248230910589
:1006200059F08330910559F0892B19F480E090E05E
:1006300008C08CE99FEF05C082E090E002C088E02E
:1006400090E0280F391F2A5F3F4FCF01820F931F81
:100650000895282F9FB7F894662349F0E82FFF27C5
:10066000E959FB4F8081882311F021E006C0E22F79
:10067000FF27E959FB4F608320E0892F99278FBF1F
:10068000822F99270895E82F8FB7F894282F3327C2
:1006900090E0FF27E959FB4F8081861709F491E02C
:1006A0002FBF892F99270895882311F06E9A0895F6
:1006B0006E980895882311F06F9A08956F980895A1
:1006C00080E00E945403BA9ABB98B99AB89A6C9A7F
:1006D00080E00E945A036B986A9881E00E9454035C
:1006E000709A8DB18C7F8DB908950F931F93CF931E
:1006F000DF93182F8FB7F894C82FDD270C2F61E0F8
:1007000080E00E942903882321F0CFBF85E090E09C
:1007100024C08091E6028823A1F480910A038230EC
:1007200081F409C082E080930A031092E6020E94DD
:100730006003B89AC0981093E30280E00FBF992736
:100740000CC080910A03882369F38FB7F894992726
:10075000109267048FBF81E0F1CFDF91CF911F919D
:100760000F9108951F93182F81E00E9454031FB921
:10077000779BFECF8FB199271F910895FF920F931A
:100780001F93CF93DF93F82E8B018FB7F894C82F68
:10079000DD2760E080E00E944303882321F0CFBF83
:1007A00080E090E00CC0CFBF8F2D0E94B203812F5C
:1007B00099270E94B203802F0E94B2039927DF91EC
:1007C000CF911F910F91FF9008958F929F92AF92BA
:1007D000BF92CF92DF92EF92FF920F931F93CF932E
:1007E000DF938FB7F8949927C090E105D090E20588
:1007F00080905C0490905D04C091D703D091D803A1
:100800002091290330912A03FAE0AF2EB12CAC0ECF
:10081000BD1E2A153B0508F459018FBF7401EC0E6B
:10082000FD1E86010C0F1D1F14C0C114D10419F048
:10083000F801808101C080E00E94B203811491041C
:1008400011F0F701808321960894E11CF11C0F5FE1
:100850001F4FC5010197C817D90738F381E00E94DF
:100860005A039FB7F894C114D10431F0CC0EDD1EA9
:10087000F60180818FB901C01FB8D093D803C0930F
:10088000D703892F99278FBF80E090E0DF91CF9128
:100890001F910F91FF90EF90DF90CF90BF90AF909E
:1008A0009F908F9008952FB7F894332750932A0381
:1008B000409329039093E2058093E10570935D04D2
:1008C00060935C041092D8031092D7032FBF452B7E
:1008D00029F08FB10E94E5039927089589E00E94CD
:1008E000880180E090E008958FB7F89499271092DE
:1008F00069048FBF089580E88093760310929E0369
:100900001092DB051092D605109298030895CF93AC
:10091000DF93FC0115A6DC019E96ED011B821A8275
:10092000198280E886A7DF91CF9108952F923F9298
:100930004F925F926F927F928F929F92AF92BF92EF
:10094000CF92DF92EF92FF920F931F93CF93DF939B
:10095000CDB7DEB728970FB6F894DEBF0FBECDBF78
:100960002090A9033090AA034090AB035090AC03B1
:100970006624772488241EE4A12EB3E8BB2ECC2461
:10098000DD24EE24FF2400E010E0222D332D442D41
:10099000552D662D772D882D90E00E9440202983CB
:1009A0003A834B835C836D837E838F839887822E0B
:1009B000932EA42EB52E2401350100E20E943E2183
:1009C000A22EB32EC42ED52EC301B20196958795C3
:1009D000779567956A0D7B1D8C1D9D1D97FF05C042
:1009E0009F776F5F7F4F8F4F9F4F6093A9037093E7
:1009F000AA038093AB039093AC0328960FB6F894A8
:100A0000DEBF0FBECDBFDF91CF911F910F91FF9041
:100A1000EF90DF90CF90BF90AF909F908F907F909E
:100A20006F905F904F903F902F9008958FB7F894FC
:100A30006091DB037091DC032CB53DB506B602FE78
:100A400004C06F5F7F4F2CB53DB599278FBF8827B6
:100A50009927CB017727662744275527622B732BCD
:100A6000842B952B0895EF92FF920F931F930E9472
:100A700016057B018C012091B8033091B903409198
:100A8000BA035091BB038091B2039091B303A0913C
:100A9000B403B091B503820F931FA41FB51FE216D4
:100AA000F3060407150730F082179307A407B5076C
:100AB00058F005C082179307A407B507E0F5E816BC
:100AC000F9060A071B07B8F59C01AD012E193F096D
:100AD000400B510B213060E8360760E0460760E0CC
:100AE000560768F180E090E8A0E0B0E0E80EF91E5B
:100AF0000A1F1B1FE092B803F092B9030093BA03D8
:100B00001093BB0380E090E8AFEFBFEFE80EF91E53
:100B10000A1F1B1F20503048404050402093B20312
:100B20003093B3034093B4035093B50320E030E80F
:100B300040E050E014C020E030E040E050E080931E
:100B4000B8039093B903A093BA03B093BB03109278
:100B5000B2031092B3031092B4031092B503A9012B
:100B6000B7012CB53DB5C9018E199F0903968417AD
:100B7000950720F0B9016D5F7F4F02C0640F751FAC
:100B80006115710511F461E070E0615070407BBD4A
:100B90006ABD80E186BF87B7806187BF1F910F91D3
:100BA000FF90EF9008950F931F930FB7F8941127BC
:100BB0006093B8037093B9038093BA039093BB0317
:100BC0002093B2033093B3034093B4035093B5031F
:100BD0000E9433050FBF1F910F9108958FB7F894AE
:100BE0009927609175048FBF85E0689FB00111243B
:100BF000625D7E4F706488E10E94BE0308951F937A
:100C00001FB7F89480919703882319F460E070E08F
:100C100009C060E08091E005882309F461E081E08B
:100C2000682777278091A603882319F480E090E055
:100C30000AC090E080916C04882309F491E081E07F
:100C40009827892F9927762F6627770F770F770FA9
:100C500054E0880F991F5A95E1F7826E9262682BD3
:100C6000792B81E10E94BE03812F99278FBF1F91AD
:100C7000089597B79F7D97BF90E296BF882319F09C
:100C80008EB5806402C08EB58F7B8EBD87B78062C3
:100C900087BF80E090E008957FB7F89462B7209115
:100CA000600330916103409162035091630306B683
:100CB00001FE0FC081B792B7280F311D411D511D94
:100CC0002F5F3F4F4F4F5F4F290F311D411D511D6A
:100CD00004C0260F311D411D511D872F99278FBF3D
:100CE000CA01B9010895DF92EF92FF920F931F930B
:100CF0008FB7F894282F3327D22E91B782B746B7F3
:100D0000981711F041FF02C02FBF6AC08091CE0337
:100D10008823E1F10E944C06E0906304F0906404A3
:100D20000091650410916604209172033091730361
:100D300040917403509175036E197F09800B910BDC
:100D4000621773078407950720F01092CE0371E0B5
:100D50001EC02E0D3F1D401F511F809160039091BA
:100D60006103A0916203B0916303281B390B4A0B06
:100D70005B0B273E31054105510540F4822F22309F
:100D800010F070E005C070E082E002C070E086EE16
:100D9000682F615000B601FCFDCF82B7681709F4D7
:100DA0006F5F209160033091610340916203509125
:100DB0006303DA01C9010196A11DB11D860F911DC2
:100DC000A11DB11D82179307A407B50710F4622F68
:100DD000609561BFDFBE772319F080E00E94880133
:100DE0001F910F91FF90EF90DF900895AFB7F894A7
:100DF000BB27E1E0E093CE03609363047093640447
:100E00008093650490936604209372033093730378
:100E10004093740350937503AFBF0E947306089507
:100E2000AF92BF92CF92DF92EF92FF920F931F93F8
:100E3000CF93DF93CDB7DEB728970FB6F894DEBF18
:100E40000FBECDBF20E070E0E091E102F091E20240
:100E500032E14DE65CE46FE48091E2029E2F289639
:100E60000FB6F894DEBF0FBECDBFDF91CF911F91BB
:100E70000F91FF90EF90DF90CF90BF90AF900895CB
:100E80001F920F920FB60F9211248F9383B783BFD7
:100E900000B600FCFDCF8F910F900FBE0F901F90FA
:100EA000189578941F920F920FB60F9211240F90FD
:100EB0000FBE0F901F90189578941F920F920FB647
:100EC0000F9211240F900FBE0F901F9018957894D9
:100ED0001F920F920FB60F9211242F933F938F936F
:100EE0009F932FB7F89433278091DB039091DC0315
:100EF00001969093DC038093DB032FBF9F918F912A
:100F00003F912F910F900FBE0F901F9018951F9239
:100F10000F920FB60F9211240F900FBE0F901F90DB
:100F200018951F920F920FB60F9211240F900FBEBB
:100F30000F901F9018951F920F920FB60F921124C9
:100F40000F900FBE0F901F9018951F920F920FB623
:100F50000F9211240F900FBE0F901F9018951F92A3
:100F60000F920FB60F9211240F900FBE0F901F908B
:100F700018951F920F920FB60F9211240F900FBE6B
:100F80000F901F9018951F920F920FB60F92112479
:100F90000F900FBE0F901F901895ECEBF0E06927B3
:100FA000660FF11DE60FF11DC895982F802D319623
:100FB000C89590250895982F80911D03882389F561
:100FC000992379F531E030931D038091EF028093EE
:100FD0001E0320911203822F8170809377038091EA
:100FE000F4029091F5029093200380931F03809167
:100FF00013038093210332273170267EE32FFF27CE
:10100000EE0FFF1FE051FD4F808191819093F5021B
:101010008093F402232B2093120386E10E9488011F
:1010200008958091120380FF02C08B7F01C08D7FE5
:101030008093120308950F931F93082F162F80910A
:101040009F038130D9F0813038F0823009F44AC0F2
:10105000833009F028C159C0002309F458C1109207
:101060007305109272051092610410927B05109224
:10107000A3031092DE031092DD0339C1002309F0AF
:1010800046C18091DD039091DE030E94CD079093CD
:10109000DE038093DD0382E080939F0310937B0542
:1010A000143409F000C125C18695869503C080914E
:1010B00012038695817009F0F6C08091120399237E
:1010C00011F0846001C0826080931203809112034A
:1010D000877E886080931203109213038FEF8093B2
:1010E000EF0215C1002309F0DEC06093A3038091D5
:1010F000DD039091DE030E94CD079093DE03809381
:10110000DD0383E080939F0302C1809161048F3FE0
:1011100009F4C9C0002309F461C0823008F4C3C0D7
:10112000E0917205EE2309F4EBC04E2F4150E42FFD
:10113000FF27EE58FA4F82819927382F2227442320
:1011400011F4E2E002C0E42FE150FF27EE58FA4F1D
:1011500082819927282B392B8091DD039091DE0322
:101160002817390709F09FC080E00E94DB07309103
:10117000A3038091CF032091D003982F9F5F9630D7
:1011800008F090E0921771F0E82FFF27E153FC4F31
:1011900032838F5F8093CF03863010F01092CF039D
:1011A0000E94AF01109273051092720594E0909323
:1011B0009F031092610410927B051092A30310927A
:1011C000DE031092DD03809122038D7F8093220342
:1011D00080911103882309F49AC084C0823008F4F6
:1011E0004EC0E0917305FF27EE58FA4F8281482FD9
:1011F0005527342F20911203822F86958695869548
:10120000837099278130910519F00297F9F40EC087
:10121000277E206120931203442311F485E001C04E
:1012200080E0809313033093EF0210C0809113038A
:10123000843360F4E091F402F091F502E80FF11DBF
:101240004083809113038F5F809313038091730514
:10125000E82FFF27EE58FA4F62818F5F8093730566
:10126000833010F01092730577278091DD03909101
:10127000DE030E94CD079093DE038093DD0380910F
:101280007205E82FFF27EE58FA4F12838F5F809385
:101290007205833010F010927205809161048F5FA7
:1012A0008093610434C0109273051092720514E0AB
:1012B00010939F031092610410927B051092A30378
:1012C0001092DE031092DD03809122038D7F8093C4
:1012D000220381E00E94DB0780911103882329F01B
:1012E00010939F030E948B0212C0002381F081E0C3
:1012F00009CF80911203982F917080FDD5CED7CE63
:10130000809176059927382F222742E01CCF1F9124
:101310000F9108951F920F920FB60F9211242F93E1
:101320003F934F935F936F937F938F939F93AF936D
:10133000BF93EF93FF935F9B3DC06CB1E091DF03E0
:10134000F091E0033097F9F080911706909118061C
:10135000E80FF91F60830196909318068093170693
:1013600020912106309122068217930718F11092DE
:10137000E0031092DF0380915E048330D9F0579828
:1013800010925E0417C06E3719F460E081E010C05F
:10139000809122036D3721F48260809322030AC07A
:1013A00081FF05C08D7F8093220380E2682780E063
:1013B0000E941B08FF91EF91BF91AF919F918F9178
:1013C0007F916F915F914F913F912F910F900FBE41
:1013D0000F901F901895982F8D57823068F4809148
:1013E000220381608093220380E289278093600436
:1013F0008DE78093940302C09093940361E070E0C2
:1014000084E993E00E94A4029927089578941F929A
:101410000F920FB60F921124FF920F931F932F93E9
:101420003F934F935F936F937F938F939F93AF936C
:10143000BF93CF93DF93EF93FF932091A00330915D
:10144000A1038091790590917A052817390780F4D6
:10145000E091C003F091C103E20FF31F80812F5F81
:101460003F4F3093A1032093A0030E949D02CDC063
:101470001092C1031092C0031092A2035698FFB6B7
:10148000F8948091220380FF0EC08E7F8093220308
:10149000809160048093940361E070E084E993E0BC
:1014A0000E94A402AFC080915F04843009F48CC014
:1014B000853040F4823021F18330B8F5813009F075
:1014C0009CC00DC0863009F48DC0863008F483C0FE
:1014D000873009F48EC0883009F08FC091C08091A8
:1014E000B7030E94EB09082F83E080935F046091AB
:1014F000B70380911F06909120060E94CD0710C06F
:101500008091DA050E94EB09082F83E080935F0445
:101510006091DA0580911F06909120060E94CD0708
:101520009093200680931F0666C0E091E103FF2799
:10153000EE0FFF1FE953FC4F80810E94EB09082F3B
:101540001091E103C12FDD27FE01EE0FFF1FE953CC
:10155000FC4F608180911F06909120060E94CD076C
:101560009093200680931F062091B1032F5F209354
:10157000B103113039F580911903E0911403F09112
:101580001503E80FF11DE0818F5F8093190390919F
:101590001803981730F482E08093C80340E050E0CD
:1015A00002C04E2F5527DE01AA0FBB1FFD01EA53D3
:1015B000FC4F8081823031F02F3F21F0A953BC4F86
:1015C0004C9319C084E012C080911F060E94EB0961
:1015D000082F85E00BC0809120060E94EB09082FA0
:1015E00086E004C00E94D102082F87E080935F0448
:1015F00002C088E003C0002329F089E080935F04E3
:101600000E94AF018F2D99278FBFFF91EF91DF913E
:10161000CF91BF91AF919F918F917F916F915F918A
:101620004F913F912F911F910F91FF900F900FBEFF
:101630000F901F9018951F920F920FB60F921124C2
:101640008F9380919B0087FF02C080919C008F91B7
:101650000F900FBE0F901F90189578941F920F92C5
:101660000FB60F9211240F900FBE0F901F90189578
:1016700078941F920F920FB60F9211240F900FBE05
:101680000F901F90189578941F920F920FB60F929B
:1016900011240F900FBE0F901F90189578941F92F1
:1016A0000F920FB60F9211240F900FBE0F901F9044
:1016B000189578941F920F920FB60F9211248F9362
:1016C0009F9380918000909181009F918F910F90C6
:1016D0000FBE0F901F90189578941F920F920FB61F
:1016E0000F9211242F933F938F939F932FB7F894CA
:1016F00033278091AE039091AF0301969093AF038F
:101700008093AE032FBF9F918F913F912F910F90A8
:101710000FBE0F901F901895809125038C3118F003
:101720004CE150E002C0482F55278CE1EFEEF5E088
:1017300011928A95E9F7909125038091230320E087
:1017400030E0AFEEB5E00FC0E82FFF27E858FB4FC1
:10175000E081992329F08F5F8A3F09F480E091505E
:10176000ED932F5F3F4F2417350771F790932503B3
:10177000809323034CE163EE75E08FEF9FEF0E94AF
:101780001E02882319F087E10E94880108958FB70F
:10179000F894282F332780912603813021F42FBF1E
:1017A00080E090E0089590E080912503882309F47B
:1017B00091E0992321F02FBF81E090E0089581E02E
:1017C000809326032FBF0E948C0B80E090E0089549
:1017D0001F93182F80912603882349F480912503B5
:1017E0008D3728F081E0809326030E948C0B8FB701
:1017F000F894282F3327909125039A3FA8F48091DD
:101800002403E82FFF27E858FB4F10838F5F809356
:1018100024038A3F11F4109224039F5F90932503C1
:101820002FBF80E090E003C02FBF8FEF9FEF1F918D
:1018300008951F920F920FB60F9211242F933F938A
:101840004F935F936F937F938F939F93AF93BF93C8
:10185000EF93FF9383B783BF00B600FCFDCF81B742
:1018600099270196AA27BB27209160033091610335
:101870004091620350916303280F391F4A1F5B1F79
:10188000209360033093610340936203509363039A
:1018900078940E947306FF91EF91BF91AF919F9151
:1018A0008F917F916F915F914F913F912F910F9009
:1018B0000FBE0F901F9018950F931F93182F0FB7FF
:1018C000F89461E080E00E942903882371F5109369
:1018D000E3028091E6028823A9F580910A03823011
:1018E00089F588E00CC00E94600380910A03882378
:1018F00049F481E080930A03109299038AE00E94E0
:1019000088012AC08091B6038F3F31F5E091E5024E
:10191000EE2311F11CC01092E40204C0FF27EA5428
:10192000FC4F10821092E50217C081E090E002C0E7
:10193000880F991F1A95E2F720910903282B20930D
:1019400009030AC080910A038823E1F6CCCF809175
:10195000E4028F3F19F7DFCF802F99278FBF80E0F8
:1019600090E01F910F9108951F9383E00E947503EB
:101970009927182F882319F083E00E945C0C812F8F
:1019800099271F910895662351F480912503882398
:1019900019F00E948C0B089510922603089587E198
:1019A0000E9488010895CF92DF92EF92FF920F93E9
:1019B0001F93CF93DF938C01F62E6A01E22E8FB72F
:1019C000F894C82FDD2760E080E00E94430388235D
:1019D00021F0CFBF80E090E01EC0CFBF0F0D111DE2
:1019E000802F80680E94B203F82E16950795802FED
:1019F000807C0E94B2030E2D0AC0EE2DFF27E01B53
:101A0000F109EC0DFD1D80810E94B20301500023FD
:101A1000A1F78F2D9927DF91CF911F910F91FF9003
:101A2000EF90DF90CF900895CF93DF93CDB7DEB7DF
:101A30002C970FB6F894DEBF0FBECDBF8FB7F894CA
:101A4000282FAE014F5F5F4FDA01EDE6F4E088E04A
:101A500001900D928150E1F78091A4039091A5032C
:101A60008987892F99278A878091BC039091BD032C
:101A70008B87892F99278C872FBF2CE060E080E629
:101A800091E00E94D30C2C960FB6F894DEBF0FBEE7
:101A9000CDBFDF91CF910895EF92FF921F93CF9327
:101AA000DF93E090A703F090A803F70182A59927A0
:101AB000182F882309F41FE1C0988091960381179D
:101AC00049F0612F77276F717070606E706885E1E3
:101AD0000E94BE0310939603F70110818FB7F8940C
:101AE000C82FDD2760E080E00E944303882311F0C7
:101AF000CFBF12C0CFBF8EE390E09093C30380931B
:101B0000C2038EE30E94B2031150412F552760E0BB
:101B100070E0C7010E945304DF91CF911F91FF90A5
:101B2000EF9008950F931F93CF93DF93EC010FB7BE
:101B3000F89411270E94E502FC018FE380830FBF18
:101B40001092DE051092DD0561E082E00E9429031B
:101B5000882319F085E090E072C0809177048F5F50
:101B60008093770481508B838FB7F894082F1127C7
:101B700062E081E00E944303882329F40FBF0E94A2
:101B8000740481E05BC08FB7F894992724E0209318
:101B900068048FBFD093CD03C093CC030FBFFE0169
:101BA0003196818129819927982F88273327822B85
:101BB000932B80729C7C8983892F9927818329812B
:101BC000982F882733272164822B932B8983892F91
:101BD000992781831CA618A619A619AA18AA1FA6B8
:101BE00080E88EA761E060936B044091CC03509134
:101BF000CD038FB7F894282F332780910B03909152
:101C00000C038830910511F0019711F02FBF15C01A
:101C100082E090E090930C0380930B0360931E0688
:101C20005093A8034093A70310925F032FBF0E9415
:101C3000B40C882311F40E944C0D80E09927DF91A9
:101C4000CF911F910F910895CF93DF93DA01422F27
:101C50002D3118F082E090E05EC0ED018B876E833D
:101C6000872F99278F832FB7F89433278091A40368
:101C70009091A5032FBFFD018483892F9927858328
:101C80002FB7F89433278091E7029091E8022FBF95
:101C90008887892F9927898731968181298199277A
:101CA000982F8827332720643868822B932B8983C9
:101CB000892F99278183435F4C934D508091EA028D
:101CC000882359F01092EA02642FCD010E94920DF0
:101CD0009927282F8823A9F417C0842F9927909338
:101CE000CB038093CA03B0931003A0930F038CE03F
:101CF0000E9488018091EA02882349F489E090E0FB
:101D00000AC08FEF8093EA02822F992704C01092B5
:101D1000AD0380E090E0DF91CF910895FC018091C8
:101D20000403882309F049C08091E10280933703BE
:101D3000E09338036093390340933B03852F992741
:101D400080933A03E22F20933C034BE253E020932D
:101D50003103232F33272093320386E08093360309
:101D60008091D9039091DA03892B39F55093DA03E6
:101D70004093D90383E180932B038091ED02882364
:101D8000C9F0722F66278E2F9927682B792B109216
:101D9000ED0226E086E00E94240E9927282F882352
:101DA00049F081E08093ED021092DA031092D9039A
:101DB000222319F481E0809304030895AF92BF9227
:101DC000CF92DF92EF92FF920F931F935B016C0112
:101DD0006091EA0361FF20C02091E2033091E303A8
:101DE0004091E4035091E503E090E603F090E703AF
:101DF0000091E8031091E903D601C501821B930B02
:101E0000A40BB50B8E159F05A007B10728F0E2EED5
:101E1000F3E0A0E0B0E022C0EBEEF3E06091F3036A
:101E200061FF02C12091EB033091EC034091ED037F
:101E30005091EE03E090EF03F090F0030091F10376
:101E40001091F203A21AB30AC40AD50AAE14BF0451
:101E5000C006D10608F4E8C0A1E0B0E060FF04C00D
:101E600080858D7F808708C02E0D3F1D401F511F2C
:101E70002083318342835383AA2309F0D5C0809104
:101E80009A0390919B03877090708330910509F4B9
:101E90005CC08430910538F48130910549F1029796
:101EA00008F040C010C08530910509F474C0853039
:101EB000910508F45FC08630910509F47FC007974B
:101EC00009F0A7C08CC08091E1029091E2029F933B
:101ED0008F9380E091E09F938F930E94802226E071
:101EE00030E040E050E060E070E080E090E08BC0E7
:101EF0008091E1029091E2029F938F938EE291E0B4
:101F00009F938F930E94802226E030E040E050E0D3
:101F100061E070E080E090E00E948E0E0F900F90E4
:101F20000F900F908091E1029091E2029F938F9326
:101F30008AE591E09F938F930E94802222E030E017
:101F400044E150E060E070E012C08091E1029091C5
:101F5000E2029F938F9388E891E09F938F930E9472
:101F6000802222E030E04EE150E061E070E081E06C
:101F700090E049C08091E1029091E2029F938F939B
:101F800084EB91E09F938F930E94802222E030E0C7
:101F900041E050E010C08091E1029091E2029F93F5
:101FA0008F938EED91E09F938F930E94802222E089
:101FB00030E040E050E062E070E023C08091E10258
:101FC0009091E2029F938F9389E092E09F938F9389
:101FD0000E94802222E030E041E050E010C0809179
:101FE000E1029091E2029F938F9382E392E09F93AC
:101FF0008F930E94802222E030E040E050E063E0D6
:1020000070E083E090E00E948E0E0F900F900F9092
:102010000F900E94C70B80919A0390919B030196A9
:1020200090939B0380939A0381E00E9488011F9103
:102030000F91FF90EF90DF90CF90BF90AF900895F9
:102040001F93CF93DF93182FEB01E82FFF27EE0F9D
:10205000FF1FE752FC4F118210821092ED02E091B7
:10206000D903F091DA03309721F08091DC0580FFED
:102070000FC081E08093ED0203C08EE00E948801D2
:102080001123C1F4CB52D340A9F41092040312C01F
:1020900020812D50332767817727762F6627868109
:1020A0009927682B792BAF0183850E94240E882302
:1020B00039F3E3CFDF91CF911F9108959B01809178
:1020C000ED02882349F46091D9037091DA03621715
:1020D000730711F40E94201008951F93CF93DF938C
:1020E000182F8FB7F894C82FDD2760E080E00E949A
:1020F0004303882321F0CFBF80E090E005C0CFBF2D
:10210000812F0E94B2039927DF91CF911F910895EB
:10211000EF92FF920F931F93CF93DF93182F7B01C2
:10212000042F8FB7F894C82FDD2760E080E00E946D
:102130004303882321F0CFBF80E090E014C0CFBFDD
:102140001064812F99279093C3038093C2030E9448
:10215000B203182F402F5527B70180E090E00E946E
:102160005304812F9927DF91CF911F910F91FF90F9
:10217000EF900895C098609127037091280341E083
:102180008FE30E948810089582E090E0909392037C
:102190008093910381E080939E0320E030E0809162
:1021A000E302843011F421E030E0232B29F484E0B1
:1021B0000E947503882319F40E94BA10089584E0E0
:1021C0000E945C0C08951F920F920FB60F9211247B
:1021D0002F933F934F935F936F937F938F939F932F
:1021E000AF93BF93EF93FF938091910390919203EC
:1021F000019749F482E090E09093920380939103D9
:102200000E94C41005C0809198038F5F809398034B
:10221000FF91EF91BF91AF919F918F917F916F91BE
:102220005F914F913F912F910F900FBE0F901F9094
:1022300018951F9380910903882309F04BC01091D2
:10224000E3021F3F09F046C060E00E944303882379
:1022500009F440C081E0809376048091780388235C
:10226000E1F11092760485E090E045C0923069F586
:10227000C09A8091E40220E030E08F3F11F421E029
:1022800030E0232BE9F41093E6028F3F19F42FEF8F
:1022900030E00DC0282F3327F901EA54FC4F80812C
:1022A0008093E4028F3F11F41093E5021083209392
:1022B000990381E080930A038AE00E94880105C0A7
:1022C0001093E60210920A0311C080910A0388233A
:1022D00069F00FC081E090E00EC08091E60290911D
:1022E0000A03882319F2923021F0EFCF80E00E9498
:1022F000540380E090E01F9108951F93CF93DF93E4
:102300009FB7F894C92FDD271C2F9091E3029817EF
:1023100021F0CFBF81E090E03AC08FEF8093E302DD
:10232000309109033323F1F48FB7F8949927109271
:1023300067048FBF0E941911CFBF11C02093E30221
:1023400081E090E002C0880F991F4A95E2F78095DE
:1023500038233093090388E00E9488011FBF80E082
:1023600090E015C080E065E0E32FFF270E94C121C7
:10237000292F492F5527CF01042E02C09595879507
:102380000A94E2F780FDDACF822F8F5FEFCFDF91E3
:10239000CF911F9108951F93CF93DF938FB7F89438
:1023A000C82FDD271C2F8091910390919203892BD8
:1023B00029F484E00E947D11CFBF1EC010929E03BD
:1023C00080919803882311F0B79904C00E9908C032
:1023D000882319F08150809398030E94C4100BC089
:1023E00081E090E090939203809391031092980380
:1023F00084E00E947D111FBFDF91CF911F9108954E
:102400000E947B04C09AC09888E00E946D1088E00A
:102410000E946D10C09A84E00E947D110E94CB1131
:1024200008951F93182F81E090E090930C03809300
:102430000B03109278030E9419118FB7F894992713
:10244000109305038FBF84E00E9488011F910895B7
:1024500061E081E00E9429038823E9F48FB7F894B2
:10246000282F33278091060390910703892B11F0C1
:102470002FBF20C081E090E0909307038093060374
:102480002FBFDD9A0E94160524E130E040E050E0C5
:102490000E94D3050FC062E081E00E9443038823BD
:1024A00019F089E090E0089561E081E00E94430323
:1024B000882319F080E090E0089585E090E0089589
:1024C000CF92DF92EF92FF920F931F93CFB6F894C3
:1024D000DD240E949604DC01CB0166E470E00E94DA
:1024E000CD212BE0E22EF12CE80EF91EF0921B0616
:1024F000E0921A060E94160500271127A8019701ED
:102500000E94D305CFBE1F910F91FF90EF90DF90F7
:10251000CF9008951F93CF93DF938FB7F894C82F70
:10252000DD271C2F80910B0390910C030897C9F4B1
:1025300089E00E946D1083E00E947D11C09A81E0C5
:1025400090E090930C0380930B038FB7F894992736
:1025500023E0209305038FBF84E00E948801CFBF52
:1025600030C0C09880911E06882311F085E001C01C
:1025700084E00E946D1083FD09C080E00E946D1010
:1025800083FF04C085E090E020E003C083E090E09A
:1025900021E090930C0380930B03C09A1FBF22236A
:1025A00041F010925F0383E00E947D110E9460124F
:1025B00008C00E94160520E431E040E050E00E948F
:1025C000D305DF91CF911F91089578941F920F92B8
:1025D0000FB60F9211241F932F933F934F935F9346
:1025E0006F937F938F939F93AF93BF93EF93FF93DB
:1025F00087B78F7E87BF78941FB7F8948091B20316
:102600009091B303A091B403B091B5030097A105D5
:10261000B10509F051C080910B0390910C038530F6
:10262000910561F18630910530F48330910549F0D0
:10263000049781F51AC087309105F1F0089751F59C
:1026400014C0869B0FC084E090E090930C038093AD
:102650000B030E94160527E030E040E050E00E94A6
:10266000D30518C00E94601215C00E94B40C8823C4
:1026700089F40E948A120EC080E00AC089E00E949C
:102680006D1081E00E94390683E00E947D1187E091
:102690000E9411128091060390910703019771F433
:1026A00082E090E09093070380930603DE98DE9A21
:1026B00080E00E945C0C02C00E943305812F9927A4
:1026C0008FBFFF91EF91BF91AF919F918F917F91BC
:1026D0006F915F914F913F912F911F910F900FBE7E
:1026E0000F901F901895EF92FF920F931F93CF9327
:1026F000DF938B018091C2039091C30386FF40C199
:102700008F7B8F3309F08EC1C0912703D0912803AE
:102710005881509393038091910390919203853057
:10272000910509F443C08630910509F48AC00297E7
:1027300009F01FC185E090E090939203809391038C
:1027400040917603852F99270196242F3327281748
:1027500039074CF1B79906C00E9904C0451B41508A
:1027600040937603409193034A32E8F44423A1F066
:10277000BE016F5F7F4F483018F047E050E007C060
:1027800086E090E09093920380939103552780E038
:1027900090E00E94530446C110929E03C09A84E0C8
:1027A0000E947D11E3C00E9400123CC186E090E0CF
:1027B00090939203809391038091A603882309F458
:1027C00039C080916C048823A9F5898185FF32C0C6
:1027D0008F814E812FB7F89433276091BC0370919D
:1027E000BD032FBF9927982F88275527842B952B1A
:1027F0008617970759F08F812E819927982F882760
:102800003327822B932B8F5F9F4FA1F48981877091
:10281000813081F4C09AC0988AE00E946D10C09AFD
:10282000C0984091930347502896BE018FE30E94C1
:102830008810F8C040919303475055272896BE0151
:10284000A6CFC09A80919803882339F484E00E942F
:102850007D1180919803882311F0B7990AC00E9BCF
:1028600008C09091D605992321F0809193038B3075
:1028700038F480912703909128030E9487043DC07B
:10288000913001F5E091DB05FF27EE0FFF1FEE0F02
:10289000FF1FE058FA4F2081318142815381E0913E
:1028A0002703F091280321ABBB27A52F942F832F5B
:1028B00080ABCA01AA27BB2787A7252F3327442728
:1028C000552726A78091DB059927019668E070E0DF
:1028D0000E94E1218093DB058091D6058150809391
:1028E000D605882351F080912703909128030E94F8
:1028F00087041092DB051092D60580919303FE01A8
:10290000E80FF11D808187FF31C0012B79F16981CA
:102910006770E0912703F0912803623019F5A091C8
:10292000A703B091A803109709F180910B03909130
:102930000C030797D9F4ED019B8183819817B1F4BB
:1029400087B78F7E87BF908181E08CA7E90FF11D4B
:102950008291319688A780818F7789A780E00E9435
:10296000111204C0613011F48BE02AC00E94CB1117
:1029700059C010929E03C09A84E00E947D1152C0FB
:102980008E3309F04FC0C09A80910B0390910C03D5
:102990000897C9F4C09889E00E946D10C09A83E03E
:1029A0000E947D1181E090E090930C0380930B03D3
:1029B0008FB7F894992723E0209305038FBF84E015
:1029C0000E9488012FC080911E06882349F484E06C
:1029D00090E090930C0380930B030E948A1222C014
:1029E00083E00E947D1183E090E090930C0380933C
:1029F0000B030E949604DC01CB0166E371E00E94A8
:102A0000CD213BE0E32EF12CE80EF91EF09271038C
:102A1000E09270030E94160500271127A801970174
:102A20000E94D305DF91CF911F910F91FF90EF90FE
:102A300008951F920F920FB60F9211242F933F9378
:102A40004F935F936F937F938F939F93AF93BF93B6
:102A5000EF93FF932FB1E0915C04F0915D04309708
:102A600039F08091D7039091D803E80FF91F2083A4
:102A70008091D7039091D80301969093D8038093C7
:102A8000D70380E00E945A034091290350912A0302
:102A90008091D7039091D8038417950718F40E946A
:102AA000E5031CC060915C0470915D048091E105B8
:102AB0009091E20510925D0410925C041092E20580
:102AC0001092E10510922A03109229031092D80364
:102AD0001092D7032FB120E00E947313FF91EF9162
:102AE000BF91AF919F918F917F916F915F914F9126
:102AF0003F912F910F900FBE0F901F901895AF929E
:102B0000BF92CF92DF92EF92FF920F931F93CF93DA
:102B1000DF93CDB7DEB7A8970FB6F894DEBF0FBE30
:102B2000CDBFE82FFF27E831F10508F090C6EA5B3A
:102B3000FF4FEE0FFF1F0590F491E02D0994809157
:102B4000DC05882309F483C640E051E0BDC48091D0
:102B5000B003882309F47BC690E011E0E6C48091BD
:102B60009503882361F520917C0530917D05409186
:102B70007E0550917F05EFB7F894FF2760916304BD
:102B8000709164048091650490916604E0907203F2
:102B9000F090730300917403109175036E0D7F1D07
:102BA000801F911FEFBF20937C0530937D054093DC
:102BB0007E0550937F05109295030E94F6060E94B1
:102BC0004C066EC00E944C065B016C018FB7F894F6
:102BD00099271092CE038FBF8091EA0381FF25C011
:102BE0008091E2039091E303A091E403B091E503A7
:102BF000A6019501281B390B4A0B5B0BE090E603FD
:102C0000F090E7030091E8031091E903E21AF30A58
:102C1000040B150B3FEFE3163FEFF3063FEF0307FF
:102C20003FE7130711F061E009C07FEFE72E7FEF68
:102C3000F72E7FEF072F7FE7172F60E08091F303D8
:102C400081FF24C08091EB039091EC03A091ED03F0
:102C5000B091EE03A6019501281B390B4A0B5B0BC3
:102C6000DA01C9012091EF033091F0034091F103A3
:102C70005091F203281B390B4A0B5B0B2E153F05B5
:102C8000400751071CF479018A0103C0662309F447
:102C9000DEC51E141F04100611062CF0C601B50176
:102CA0000E94DE0ED4C5E0927C05F0927D05009373
:102CB0007E0510937F0581E080939503A80197011D
:102CC000C601B5010E94F606C2C50FB7F8941127D8
:102CD00081E00E94390661E0E62EF12CF0920C03AF
:102CE000E0920B0310920D0310927803109296035A
:102CF0000FBF0FB7F89411270E947B04F092920344
:102D0000E092910310929E0389B78F7B89BF80E484
:102D100088BF8AB780628ABF8AB78F7E8ABF89B729
:102D2000806489BF0FBF8FB7F894082F1127809157
:102D3000060390910703049719F483E00E946D1035
:102D40000FBF0FB7F8941127C09A80E00E947D1141
:102D50000FBF8FB7F894992722E0209368048FBFA4
:102D60000E944C066093E2037093E3038093E403B4
:102D70009093E50388E893E1A0E0B0E08093E60358
:102D80009093E703A093E803B093E9038091EA03EB
:102D90008E7F82608093EA0381E053C58FB7F894F9
:102DA00099271092680471C08FB7F8949927F09012
:102DB00005038FBF63E081E00E944303882359F13C
:102DC0000FB7F894112710920C0310920B0387B7DA
:102DD0008F7E87BF87B78F7D87BF83E00E947D117D
:102DE000C09A0FBF0FB7F894112710929203109258
:102DF00091030E947B04C09A89B78F7B89BF0FBF64
:102E00001092070310920603DE98DD98DE9A83E0A5
:102E10000E94880107C08FB7F894992722E0209379
:102E200068048FBF0091CC031091CD030E947404FD
:102E30008091DD059091DE05892B09F008C58FEFA3
:102E40008093EA024F2DB80133C38FB7F894282F2F
:102E50003327122F80911C06882301F581E080938F
:102E60001C068091060390910703049721F481E0EA
:102E70000E945C0C03C086E00E9488011FBFE7C46B
:102E80008FB7F894992710921C06CFC48FB7F89487
:102E9000282F332780910803882311F02FBFD7C430
:102EA0002FBF80B3992756E0969587955A95E1F7FD
:102EB000182F11709091BE038091BF038917D9F02C
:102EC0001917C9F484E090E09093070380930603F8
:102ED0008FB7F894992721E0209308038FBF60E013
:102EE00070E08DE10E94BE030E94140DC09AC0984C
:102EF00082E00E9488011093BF0387E0A2C48FB7CD
:102F0000F89499271091E3028FBF123009F465C03D
:102F1000133030F4112359F0113009F098C448C02F
:102F2000133009F474C0143009F091C4A0C0C098E3
:102F30008FB7F894082F112780910603909107030B
:102F40000297A1F583E090E0909307038093060336
:102F500068E170E08DE10E94BE0381E08093BE03D2
:102F60001092080380B3992746E0969587954A9575
:102F7000E1F7817090708093BF0387E00E94880121
:102F800081E00E946D106FE772E08CE10E94BE0349
:102F90000E94EE050E94FF0566E57AE287E10E9445
:102FA000BE036FEF70E885E10E94BE030FBF4FC400
:102FB000C09886E00E946D100E94EE050E94FF05F9
:102FC0000E94140DC09AC09883E00E946D10C09AB0
:102FD00081E00E947D1186E034C4C0988FB7F894D8
:102FE000082F112760E080E00E944303882311F03E
:102FF0000FBF0AC00FBF83E50E94B20380E00E94AA
:10300000B20380E00E94B203C09A82E02DC08FB765
:10301000F894992720910B038FBF243039F0283082
:1030200041F0223001F50E944C0D11C40E948A1219
:103030000EC4C09889E00E946D10C09A83E00E947F
:103040007D118FB7F894992721E030E030930C037D
:1030500020930B038FBF8FB7F89499271093050324
:103060008FBF84E0EEC383E00E947D11F0C30E9415
:10307000BA10EDC30FB7F89411274091290350916E
:103080002A0360915C0470915D048091E105909148
:10309000E20510925D0410925C041092E205109219
:1030A000E10510922A03109229031092D80310927E
:1030B000D70320E00E94731379CF2FB7F8943327FA
:1030C000809199038093E60282E080930A032FBFE8
:1030D0008091E602882309F0BAC3B89AC09888E0C4
:1030E000B0C3A0912703B0912803DC909D012D0D62
:1030F000311DF9018081881F8827881FFD0183A762
:10310000F90180818F77FD0181A721503040F901BD
:103110008081FD0180A7A0912703B0912803FD01C4
:1031200032818FB7F8949927209197038FBF22237C
:1031300009F490C0832F9927969587959695879542
:10314000837090708230910541F5878146812FB759
:10315000F89433276091BC037091BD032FBF99276A
:10316000982F88275527842B952B8617970719F4B6
:1031700081E090E06CC0FD018781268140E050E055
:103180009927982F88273327822B932B8F5F9F4F68
:1031900011F441E050E0CA015AC0039709F05FC141
:1031A0009E012F5F3F4F4DE654E088E0FA01019009
:1031B000AF01F90101929F018150C1F79E012F5D7E
:1031C0003F4FAE014F5F5F4F88E0FA010190AF01C2
:1031D000F90101929F018150C1F79E01275F3F4F86
:1031E000AE014F5D5F4F88E0FA010190AF01F90138
:1031F00001929F018150C1F79E012F5E3F4FAE01AA
:10320000475F5F4F88E0FA010190AF01F901019239
:103210009F018150C1F79E01275E3F4FAE014F5E77
:103220005F4F88E0FA010190AF01F90101929F011F
:103230008150C1F748E050E0BE01675E7F4FCD018D
:1032400006960E946C22892B09F009C103C08823CD
:1032500009F405C1FCE0FD1508F001C1E090270369
:10326000F0902803F7012281822F992716E0969586
:1032700087951A95E1F7039719F468E070E002C0AA
:1032800062E070E0822F99279695879596958795AD
:1032900083709070039719F488E090E002C082E098
:1032A00090E026E030E0E20EF31E40E050E020E047
:1032B00030E0F701E80FF91F8AEF9FEFE80EF91EE3
:1032C00005C08191480F511D2F5F3F4F26173707CB
:1032D000C4F3F70163818FEF8093DF058FB7F89414
:1032E000782F20E030E0E4E6F3E0808191818417DC
:1032F000950731F48281861709F489C02093DF0590
:103300002F5F3F4F33962430310579F77FBF90917F
:10331000DF053FB7F8949F3F21F080910E03891796
:1033200099F420910E03822F9927FC01EE0FFF1FC5
:10333000E80FF91FEC59FC4F5183408362832F5FE4
:10334000237020930E030CC0892F9927FC01EE0FE8
:10335000FF1FE80FF91FEC59FC4F51834083628334
:10336000832F99278FBF0FB7F8941127C7010E94A9
:10337000E502FC0190810FBFF70183A5882309F4C2
:103380006AC09F3309F067C0878146812FB7F894E0
:1033900033276091E7027091E8022FBF9927982F99
:1033A00088275527842B952B8617970761F08781EF
:1033B00026819927982F88273327822B932B8F5F7D
:1033C0009F4F09F048C0F7018385863009F043C05C
:1033D000F3E1DF1609F03FC0F70185858230D9F5AA
:1033E000868599278823A9F4878520899927982F8E
:1033F00088273327822B932B9F938F938091E10211
:103400009091E2029F938F938CE592E017C07FBF6B
:1034100022C0813001F5F701878520899927982FEF
:1034200088273327822B932B9F938F938091E102E0
:103430009091E2029F938F9386E892E09F938F93FF
:103440000E9480222DB73EB72A5F3F4F0FB6F894F7
:103450003EBF0FBE2DBFF0922803E09227038FB727
:10346000F894992710929E038FBF0E94CB11EFC151
:103470009091AD038091EA02981709F4E8C1909306
:10348000EA029923D1F400910F0310911003609187
:10349000CA03C8010E94920D482F5527442309F4FE
:1034A000D6C18FEF8093EA0260910F0370911003F1
:1034B000F80183850E945E10CAC18FEF8093EA02F3
:1034C000C6C10E948B0272CD9091DC05852F8923A5
:1034D000C1F0E42FFF27EE0FFF1FE752FC4F2081C2
:1034E000318111821082852F809598239093DC057D
:1034F000442339F42B52334009F0A6C1109204033F
:10350000A3C14F5F483008F0A2C1550FDDCF8091B5
:10351000ED02E82FFF27EE0FFF1FE752FC4F6081FF
:10352000718141E00E94201092C12091B003812F4F
:103530008223C1F0E92FFF27EE0FFF1FE056FA4F5D
:103540004081518111821082812F80952823209300
:10355000B003992339F463E0CA010E94C30C110F30
:1035600091E0E3CF9F5F983008F071C1110FDDCF7C
:103570001091EE02E12FFF27EE0FFF1FE056FA4FEA
:10358000E080F180118210820E945F02112309F015
:103590005EC161E0C70126C18FB7F8941092190689
:1035A00020915F0440E0283009F441E030E0293008
:1035B00009F431E0442311F4332351F010925F04F5
:1035C000E091E103FF27EE0FFF1FEA53FC4F10824B
:1035D00099278FBF442311F4332331F19FB7F89417
:1035E0008091DA058F5F8093DA058091B703833489
:1035F00079F42091D0038091CF03821779F0822F44
:103600008F5F8093D003863048F01092D00306C0BD
:10361000A0E0442309F4A1E071E002C0A0E070E062
:10362000892F99278FBF06C0222311F0FF246DC078
:10363000A0E070E08FB7F8949927209111038FBF15
:10364000222341F08FB7F89499272AE020935F0452
:103650008FBF42C08FB7F89499276091C6034091FD
:10366000C8038FBF8FB7F894282F332750E090916D
:10367000CF038091D003981709F451E02FBF552351
:1036800041F5662331F55FB7F89482E08093C60375
:103690008FB7F894282F332740E09091CF03809183
:1036A000D003981709F441E02FBF442311F080E0C4
:1036B00006C0E091D003FF27E153FC4F8281809345
:1036C000C70383E48093B7031092E103852F992702
:1036D0000EC04150423010F0FF240CC08FB7F89458
:1036E000992725E42093B70321E02093E1038FBFBE
:1036F00031E0F32E772349F08FB7F8949927A09300
:103700001A038FBF85E10E9488018FB7F894082FB4
:10371000112780915F048A3009F4D3CE0FBFFF20B8
:1037200009F495C02FB7F894332710922006109211
:103730001F061092B10381E080935F042FBF0E94A7
:10374000D102882309F483C08FB7F894992729E020
:1037500020935F048FBF0E94AF0179C0569857989D
:1037600010925E041092A203539A549A579A8FB7FC
:10377000F894992710925F0410929F0386CB84E1FE
:1037800060C05398549863C01092170310921603A8
:103790008FB7F8949927F0901A038FBF80911B037D
:1037A000882311F023E0F22E2091140330911503A9
:1037B00080911C03882309F04AC08091EE0288237F
:1037C00009F045C00091A0051091A105021713074B
:1037D00009F03DC01092A1051092A0050E945F0261
:1037E0006F2DC8010E94C30C32C08FB7F89499277F
:1037F00020911F0330912003409177038FBF8FB733
:10380000F894E42FFF27EE0FFF1FE051FD4F3183A7
:10381000208320911203442311F02B7F01C02D7FC0
:103820002093120310921D0399278FBF10C04CE103
:1038300063EE75E08FEF9FEF0E941E02882339F040
:1038400087E10E94880103C0550F41E03DCEA89654
:103850000FB6F894DEBF0FBECDBFDF91CF911F91A1
:103860000F91FF90EF90DF90CF90BF90AF900895B1
:103870008091D7058F3FB1F0282F3327F901E75802
:10388000FC4F80818093D7058F3F11F480931D06F4
:103890008FEF80832F3F31F0822F0E947F1581E0D0
:1038A00090E0089580E090E00895FF920F931F93B9
:1038B000CF93DF93CDB7DEB7E0970FB6F894DEBFB6
:1038C0000FBECDBFFFB6F89448E150E06FEF70E057
:1038D00089E793E00E9479228FEF8093D705809348
:1038E0001D0681E08EBD88E080BF83E083BF8CB57C
:1038F0009DB54AE72CB53DB52817390708F4415066
:10390000442311F0C901F6CF92B782B78917E9F3C2
:103910002CB53DB592B782B78917E9F38CB59DB543
:10392000821B930B4096A5E096958795AA95E1F7A3
:103930009093D9058093D80513BE83B78EBD8EB5FD
:1039400080BF12BE1DBC1CBC8FEF86BF86B78093A4
:103950007C0080B7992787709070892BD1F7D29A15
:10396000D19AD09ADA9AD99AD89A15BA8FEF84BB9D
:10397000D498DC98109289001092880080917D0084
:10398000846080937D0080918A00887F826080932C
:103990008A001DBC1CBC87B7846087BF8EB5887F3A
:1039A00084608EBD0E94381C8823E1F786EF92E088
:1039B000909326068093250612E006E06091D805D4
:1039C0007091D90588279927FCE0660F771F881F1B
:1039D000991FFA95D1F720E031EE40E050E00E94C7
:1039E000F4212150304029B9832F992780939000EA
:1039F0001BB9009395001AB8209399008093980002
:103A000010939B0000939D0010929A0084E490E034
:103A100090937805809377051092C6031092C8039F
:103A20008AE080935F041092B1031092B703109262
:103A3000DA051092200610921F06109219061092B5
:103A4000E103109273051092720584E080939F0346
:103A50001092610410927B051092A3031092DE0372
:103A60001092DD031092D0031092CF031092260320
:103A70008FEF80939C03E4E6F3E08FEF9FEF918359
:103A800080831282339623E0E037F207C1F70E9469
:103A90009604609377048091E1029091E20201968E
:103AA000AA27BB278093A9039093AA03A093AB03F3
:103AB000B093AC0382EA95E09093280380932703A8
:103AC0008E98B89A8C988FEF8093B6031092670403
:103AD000109268041092690410926A04B89AD69AF7
:103AE000D59A8FB7F89499272091E7023091E80290
:103AF0008FBF3093BD032093BC030E94100729A7FA
:103B00003AA74BA75CA76DA77EA78FA798ABDE014E
:103B10009196FE01B99688E001900D928150E1F7EF
:103B2000DE015196FE01B19688E001900D92815020
:103B3000E1F7DE015996FE01719688E001900D9241
:103B40008150E1F7ADE6B4E0FE01799688E001909E
:103B50000D928150E1F78091E90299279093A50396
:103B60008093A4038FE1809362048AE180937504BB
:103B70000E94100729A73AA74BA75CA76DA77EA7AD
:103B80008FA798ABDE019196FE01B99688E001906F
:103B90000D928150E1F7DE011196FE01B19688E0A9
:103BA00001900D928150E1F7DE011996FE013196E8
:103BB00088E001900D928150E1F7ADE6B4E0FE019E
:103BC000399688E001900D928150E1F7ADE6B4E0BE
:103BD000FD0137969C9180818D939083319784E08D
:103BE000E037F807B9F781E0809397031092E0057A
:103BF0008093A60310926C0480B7886080BF8BE02E
:103C000083BF86EE81BF87B7826087BF0E9473063D
:103C10000E94381C8823E1F78F2D99278FBF789455
:103C20008FB7F894282F3327922F80915F048A3022
:103C300031F080919F03843011F02FBF04C09FBFEB
:103C400082E10E9488018091E1029091E2029F93BB
:103C50008F938FEA92E09F938F930E9480220E941D
:103C6000C70B0E9428120F900F900F900F908FB7E4
:103C7000F894482F55274BC087B7992783709070C9
:103C8000892B19F4E5E0F0E013C080B7992787701D
:103C90009070892BD1F781B792B7891B8C3030F0A7
:103CA00082B7853F18F4E3E0F0E002C0E2E0F0E024
:103CB00087B7887BC1F480917D008B7FA1F46E99DA
:103CC00012C08AB190919A00892B887161F4809119
:103CD000740082FD08C0379B03C081E090E005C0FE
:103CE00085E090E002C080E090E025B78E1708F4F0
:103CF000E82FFF27E454FD4FE491237E2062E22B5E
:103D0000E5BF78948895F89485B78F7D85BF8091BD
:103D1000D7058F3F09F4B0CF282F3327F901E75893
:103D2000FC4F80818093D7058F3F11F480931D064F
:103D30008FEF80832F3F09F49FCF4FBF822F0E94C8
:103D40007F1595CF78941F920F920FB60F92112482
:103D50002F923F924F925F926F927F928F929F929B
:103D6000AF92BF92CF92DF92EF92FF920F931F9389
:103D70002F933F934F935F936F937F938F939F9373
:103D8000AF93BF93CF93DF93EF93FF93C6B5D7B5B0
:103D90008FB7F894282E0E9416059B012C1B3D0B13
:103DA000442755272B013C01421A530A640A750A1D
:103DB00080910B0390910C038530910521F00697BB
:103DC00009F0E0C0BFC086E090E090930C038093C0
:103DD0000B0331E0332E30929D0310920D0380E0EF
:103DE0000E943906E091A703F091A80341AABB27DE
:103DF000A72D962D852D80ABC301AA27BB2787A7AA
:103E0000872D9927AA27BB2786A7E091A703F091C2
:103E1000A80385A5882309F484C0608165507727AD
:103E20004F01860E971EF4012081E1808281A380DC
:103E30009927AA27BB27BA2FA92F982F882733277E
:103E400044275527522F442733272227FF240027B2
:103E500011278701FF24EE242E293F29402B512BC7
:103E6000BB24CC24DD242A293B294C295D29822B23
:103E7000932BA42BB52B84199509A609B709838325
:103E8000292F3A2F4B2F552722839D014427552751
:103E900021838B2F9927AA27BB278083C09824E0F2
:103EA000A40180E090E00E94D30CC09AF40120812C
:103EB000E1808281A3809927AA27BB27BA2FA92F47
:103EC000982F8827332744275527522F44273327F5
:103ED0002227FF24002711278701FF24EE242E2903
:103EE0003F29402B512BBB24CC24DD242A293B29FC
:103EF0004C295D29822B932BA42BB52B840D951D6A
:103F0000A61DB71D8383292F3A2F4B2F55272283B8
:103F10009D014427552721838B2F9927AA27BB274B
:103F20008083E091A703F091A803818185FF02C0FF
:103F30003092780383E00E947D1187B78F7E87BF20
:103F400084997AC010929D0381E00E943906E09125
:103F5000A703F091A803818185FF0FC087E090E05F
:103F600090930C0380930B030E94160520E031E030
:103F700040E050E00E94D30503C080E00E9411128F
:103F8000849B5AC080910D03882391F580919D03F5
:103F9000882371F511E010939D030E94390680B3C8
:103FA0002091D605283098F4E091DB05E20FFF2739
:103FB000E770F070EE0FFF1FEE0FFF1FE058FA4F93
:103FC00040825182628273822F5F2093D6051093C4
:103FD0000D03D093C503C093C40384992DC09927C2
:103FE000B4E096958795BA95E1F7182F117001C046
:103FF00010E080919D038130F9F410929D030E949E
:10400000390610920D031123B9F48091C4039091E5
:10401000C503C81BD90B2A9778F48091D60588234D
:1040200019F081508093D6058091A7039091A80341
:10403000009711F00E9487042FBEFF91EF91DF914E
:10404000CF91BF91AF919F918F917F916F915F9130
:104050004F913F912F911F910F91FF90EF90DF9023
:10406000CF90BF90AF909F908F907F906F905F9018
:104070004F903F902F900F900FBE0F901F9018956C
:10408000ACE2B0E0E6E4F0E20C943522222E332ECE
:10409000442E552E662E772E882E992EFE013196AF
:1040A000A8E01192AA95E9F729823A824B825C82B4
:1040B0006D827E828F829886FE013996B8E01192D9
:1040C000BA95E9F7A986BA86CB86DC86ED86FE86A8
:1040D0000F87188B89819A81AB81BC8189A79AA7A8
:1040E000ABA7BCA77C018D018FEF9FEFA0E0B0E0F4
:1040F000E822F9220A231B2389A59AA5ABA5BCA512
:104100001D014424552489859A85AB85BC858DA3E2
:104110009EA3AFA3B8A75C016D018FEF9FEFA0E056
:10412000B0E0A822B922CA22DB228DA19EA1AFA1B4
:10413000B8A53D0188249924C801B701A6019501BD
:104140000E94162269A37AA38BA39CA3C801B7017E
:10415000A40193010E9416227B018C01C201B101CE
:10416000A60195010E9416225B016C01C201B101FA
:10417000A40193010E9416223B014C01EA0CFB1C96
:104180000C1D1D1D89A19AA1ABA1BCA19D014427B5
:1041900055272E0D3F1D401F511F2A153B054C056D
:1041A0005D0540F480E090E0A1E0B0E0680E791E8B
:1041B0008A1E9B1ECA01AA27BB27860D971DA81D14
:1041C000B91D8D8F9E8FAF8FB8A3A90133272227EA
:1041D00089A19AA1ABA1BCA1A070B070280F391F12
:1041E0004A1F5B1F298F3A8F4B8F5C8FA98CBA8C2B
:1041F000CB8CDC8CED8CFE8C0F8D18A1FE017196A2
:1042000098E011929A95E9F7ED8AFE8A0F8B188F44
:104210002D813E814F8158856DA17EA18FA198A5EA
:104220000E9416223B014C012D853E854F85588901
:1042300069A57AA58BA59CA50E9416222D893E8989
:104240004F89588D260F371F481F591F260D371DC0
:10425000481D591D2D8B3E8B4F8B588F6D887E8846
:104260008F88988C2A2D3B2D4C2D5D2D662D772D1A
:10427000882D992DE2E1AC960C945122A0E1B0E09A
:10428000E4E4F1E20C943522222E332E442E552EF6
:10429000662E772E882E992E002309F466C088E0BA
:1042A000FE01319611928A95E9F729833A834B836F
:1042B0005C836D837E838F829887E0E2E01B1E160D
:1042C000CCF52D813E814F815885602F772767FD82
:1042D0007095DA01C901062E04C0B695A795979589
:1042E00087950A94D2F78D879E87AF87B88B04C0D5
:1042F000220F331F441F551FEA95D2F789819A81F7
:10430000AB81BC8104C0B695A795979587956A95B2
:10431000D2F7282B392B4A2B5B2B29873A874B87DF
:104320005C8729843A844B845C846D847E848F848A
:1043300098881BC01D861E861F86188A2E2F33273D
:1043400027FD3095309521953F4F8D819E81AF811E
:10435000B88504C0B695A795979587952A95D2F705
:1043600089879A87AB87BC87DCCF222D332D442DDC
:10437000552D662D772D882D992DE2E160960C94B0
:104380005122991B79E004C0991F961708F0961BDB
:10439000881F7A95C9F780950895AA1BBB1B51E128
:1043A00007C0AA1FBB1FA617B70710F0A61BB70BA5
:1043B000881F991F5A95A9F780959095BC01CD014A
:1043C000089597FB092E07260AD077FD04D0E5DF74
:1043D00006D000201AF4709561957F4F0895F6F786
:1043E000909581959F4F0895A1E21A2EAA1BBB1BA1
:1043F000FD010DC0AA1FBB1FEE1FFF1FA217B307B1
:10440000E407F50720F0A21BB30BE40BF50B661FC6
:10441000771F881F991F1A9469F76095709580958A
:1044200090959B01AC01BD01CF010895629FD00121
:10443000739FF001829FE00DF11D649FE00DF11D5F
:10444000929FF00D839FF00D749FF00D659FF00D0E
:104450009927729FB00DE11DF91F639FB00DE11DFB
:10446000F91FBD01CF01112408952F923F924F9261
:104470005F926F927F928F929F92AF92BF92CF92F4
:10448000DF92EF92FF920F931F93CF93DF93CDB7FD
:10449000DEB7CA1BDB0B0FB6F894DEBF0FBECDBF75
:1044A00009942A88398848885F846E847D848C8446
:1044B0009B84AA84B984C884DF80EE80FD800C814F
:1044C0001B81AA81B981CE0FD11D0FB6F894DEBF32
:1044D0000FBECDBFED010895FB01DC0104C08D913D
:1044E0000190801921F441505040C8F7881B990B66
:1044F0000895DC0101C06D9341505040E0F70895EC
:10450000A2E0B0E0E6E8F2E20C944522FE01379624
:1045100061917191FA83E983AF01809125069091B1
:1045200026060E949722E2E022960C946122ABE0DC
:10453000B0E0EDE9F2E20C9437223C014B016A0154
:10454000FC0117821682838181FD03C08FEF9FEFEC
:10455000DAC1F3013381F40133FD859133FF819199
:104560004F01882309F4CCC1853239F433FD85919C
:1045700033FF81914F01853229F4B30199270E94BD
:104580009D24E7CF00E0442455244AE00032B0F4F3
:104590008B3269F08C3228F4803251F0833271F41E
:1045A0000BC08D3239F0803349F4016028C00260BD
:1045B000046025C0086023C0006121C007FD29C038
:1045C000282F20532A3078F406FF06C0549EC001DD
:1045D0001124522E580E13C0449EC0011124422EA5
:1045E000480E00620CC08E3221F406FD89C10064C1
:1045F00006C08C3611F4006802C0883651F4F4010C
:1046000033FD859133FF81914F01882309F46FC0F9
:10461000BDCF982F8554833018F08052833038F402
:1046200024E030E0C20ED31E8FE389830FC093369F
:1046300031F0933799F0933509F05BC023C0F60150
:104640008081898322E030E0C20ED31E7E0108946F
:10465000E11CF11C51E0A52EB12C12C0F601E08046
:10466000F18006FD03C06FEF7FEF02C0652D772755
:1046700022E030E0C20ED31EC7010E9492245C01EA
:104680000F7713C0F601E080F18006FD03C06FEFE5
:104690007FEF02C0652D772722E030E0C20ED31EE7
:1046A000C7010E9487245C01006803FF07C01BC08C
:1046B000B30180E290E00E949D244A94842D9927C2
:1046C000A816B906A8F30FC0F70107FD859107FFEB
:1046D00081917F01B30199270E949D2441104A9442
:1046E0000894A108B108A114B10471F706C190E0C3
:1046F0003EC0943611F0993691F507FF0AC0F601D5
:10470000608171818281938124E030E0C20ED31EEA
:104710000DC0F601808191819C01B901882777FD48
:104720008095982F42E050E0C40ED51E4FE6B42E7F
:10473000B02297FF09C090958095709561957F4F45
:104740008F4F9F4F50E8B52A8E010F5F1F4F2AE011
:1047500030E0A8010E94CA24A82EA01A4DC09537A7
:1047600031F43FEEF32EF0222AE030E023C029EFAF
:10477000F22EF0229F3661F0903720F4983509F040
:10478000BFC012C0903739F0983709F0B9C005C0E2
:1047900028E030E00FC080E1F82AF4FE02C094E087
:1047A000F92A20E130E006C0F4FE02C0E6E0FE2A6D
:1047B00020E132E0F7FE0AC0F6016081718182815A
:1047C000938144E050E0C40ED51E0BC0F6018081F9
:1047D0009181AC01BA0188279927E2E0F0E0CE0E82
:1047E000DF1E8E010F5F1F4FA8010E94CA24A82E52
:1047F000A01A8FE7B82EBF20B6FE10C0FEEFBF2272
:10480000A51460F42B2D332724FF1AC022FF02C009
:10481000052D09C02FEEB222052D01C00A2D2B2D2A
:10482000332724FF0EC0FE01EA0DF11D8081803385
:1048300019F439EEB32209C00F5F22FF06C004C08D
:10484000052D822F867809F00F5FEB2CFF24E3FC07
:1048500014C0E0FE0FC0041510F05A2C0BC0542CED
:10486000501A5A0C042D06C0B30180E290E00E9459
:104870009D240F5F0415C0F304C0041510F4401A02
:1048800001C04424E4FE10C0B30180E390E00E9424
:104890009D24E2FE1EC0E1FE03C088E590E002C058
:1048A00088E790E0B3010CC08E2D867891F0E1FE90
:1048B00002C08BE201C080E2B7FC8DE2B301992710
:1048C0000E949D2406C0B30180E390E00E949D24D5
:1048D0005A94A514C0F3AA94FE01EA0DF11D81813A
:1048E000B30199270E949D24AA2039F0F4CFB30187
:1048F00080E290E00E949D244A944420C1F729CE92
:10490000F30186819781E0E12B960C945322FC0100
:104910000590615070400110D8F7809590958E0FEA
:104920009F1F0895FC016150704001900110D8F75D
:10493000809590958E0F9F1F08950F931F93CF938F
:10494000DF938C01EB018B81992781FF1BC082FFD4
:104950000DC02E813F818C819D812817390764F419
:10496000E881F9810193F983E88306C0E885F98538
:10497000802F0995892B31F48E819F8101969F8329
:104980008E8302C00FEF1FEFC801DF91CF911F91FF
:104990000F910895FA01AA27283051F1203181F1B1
:1049A000E8946F936E7F6E5F7F4F8F4F9F4FAF4F37
:1049B000B1E03ED0B4E03CD0670F781F891F9A1F4A
:1049C000A11D680F791F8A1F911DA11D6A0F711DFE
:1049D000811D911DA11D20D009F468943F912AE00A
:1049E000269F11243019305D3193DEF6CF010895F2
:1049F000462F4770405D4193B3E00FD0C9F7F6CF23
:104A0000462F4F70405D4A3318F0495D31FD4052EA
:104A1000419302D0A9F7EACFB4E0A6959795879580
:104A200077956795BA95C9F700976105710508955F
:104A30009B01AC010A2E069457954795379527950B
:104A4000BA95C9F7620F731F841F951FA01D0895A3
:024A5000FFCF96
:104A520028436F6F7264656E61646F7220257529D9
:104A6200203A20456E7669616E646F204745545F37
:104A720054454D50455241545552452E0A00284343
:104A82006F6F7264656E61646F7220257529203ABA
:104A920020456E7669616E646F204745545F4C49CC
:104AA2004748544E4553532E0A0028436F6F726491
:104AB200656E61646F7220257529203A20456E76F5
:104AC20069616E646F205345545F54454D504552A1
:104AD20041545552452E0A0028436F6F7264656E29
:104AE20061646F7220257529203A20456E766961CE
:104AF2006E646F205345545F4C494748544E4553AA
:104B0200532E0A0028436F6F7264656E61646F7280
:104B120020257529203A20456E7669616E646F20E2
:104B22005455524E5F4149525F4F4E2E0A00284360
:104B32006F6F7264656E61646F7220257529203A09
:104B420020456E7669616E646F205455524E5F4106
:104B520049525F4F46462E0A0028436F6F726465C2
:104B62006E61646F7220257529203A20456E766940
:104B7200616E646F205455524E5F54565F4F4E2EF5
:104B82000A0028436F6F7264656E61646F7220253C
:104B92007529203A20456E7669616E646F205455FE
:104BA200524E5F54565F4F46462E0A0028436F6F9F
:104BB2007264656E61646F7220257529203A2054F3
:104BC200656D7065726174757261202575206772FA
:104BD2006175732E0A0028436F6F7264656E61649B
:104BE2006F7220257529203A204C756D696E6F739E
:104BF2006964616465202575206C75782E0A002829
:104C0200436F6F7264656E61646F7220257529202F
:104C12003A20496E696369616C697A616E646F20DA
:104C2200436F6F7264656E61646F72202E2E2E0A5E
:104C3200000100FFFFFFFF010022FFFFFF0101FF54
:104C4200F4032804F4030000000200000000E80B53
:044C5200000000005E
:00000001FF
